:020000040000FA
:10000000C0080000DD0700000D050000BD0700006E
:1000100017050000210500002B050000000000006E
:100020000000000000000000000000006108000067
:100030000000000000000000350500003F05000042
:1000400049050000530500005D050000670500003C
:10005000710500007B050000850500008F0500008C
:1000600099050000A3050000AD050000B7050000DC
:10007000C1050000CB050000D5050000DF0500002C
:10008000E9050000F3050000FD050000070600007B
:10009000110600001B060000250600002F060000C8
:1000A00039060000430600004D0600005706000018
:1000B000610600006B060000750600007F06000068
:1000C00089060000930600009D060000A7060000B8
:1000D000B1060000BB060000C5060000CF06000008
:1000E000D9060000E3060000ED060000F706000058
:1000F000010700000B070000150700001F070000A4
:100100002B070000370700001FB500F003F88DE84B
:100110000F001FBD00F058BB2DE9F04105460E460B
:100120001746002406E056F8241005EB840000F082
:10013000D9F9641CBC42F6D30020BDE8F081014629
:100140000868B0F5002F01D3102070470020FCE7AD
:100150002DE9F04105460C461646002706E02846E4
:10016000216800F0BFF92D1D241D7F1CB742F6D376
:10017000BDE8F08170B505460C462E460BE03046D2
:1001800000F09EF9B4F5806F01D2002401E0A4F5DF
:10019000806406F58056002CF1D170BD0146D1E98E
:1001A000000200EB8200B0F5002F09D84FF01020BC
:1001B000406904234A6803FB0200B0F5002F01D90F
:1001C000092070474FF010204069401C08B90F20EB
:1001D000F7E70020F5E72DE9F041044620680528FF
:1001E00047D2DFE800F0032A40475700201DFFF701
:1001F000D5FF054615B12846BDE8F08100F044F969
:1002000000BF4FF4805000F05BF900BF042221468C
:100210009148FFF781FF08B10320EDE7082221464E
:100220008D4800F09BFA30B900218C48006800F03E
:1002300059F900F002F90320DEE7A668E56867686F
:1002400029463046FFF796FF2A4639463046FFF7E3
:100250007FFFAA003946304600F080FA08B9002036
:10026000CAE70320C8E700F013FB4FF440507C4975
:10027000086041E06568E668A768B200394628462C
:1002800000F06CFA8046B8F1000F01D10020B3E70E
:100290000E20B1E7201DFFF752FF05460DB128469D
:1002A000AAE7606848B900F0EFF800BF4FF40050CB
:1002B00000F006F900BF00F0C0F800F0E5F800BF5C
:1002C0004FF4805000F0FCF800BF04222146624841
:1002D000FFF722FF08B103208EE7082221465E487F
:1002E00000F03CFA30B900215C48006800F0FAF8F0
:1002F00000F0A3F803207FE700BF00207CE770B583
:1003000005460C46182D04D12068FFF764FF2060D5
:1003100002E00120206000BF00BF70BD2DE9FF4159
:100320004FF0102044694C48806804EB8005260B90
:1003300005F6FF70070B00200090019002900390DB
:1003400000BF0BE041095DF8211000F01F030122FE
:100350009A40114342094DF82210401CB042F1D39B
:1003600038460BE041095DF8211000F01F0301221F
:100370009A40114342094DF82210401C8028F1D3C5
:10038000684600F073F8BDE8FF8170B54FF01020AB
:100390004469314885684668AA003146204600F025
:1003A000DDF908B1002070BD0120FCE72A48406853
:1003B00008B1012000E000200546FFF7E6FF48B144
:1003C00000F062F800BF4FF4005000F079F800BF71
:1003D00000F033F8FFF7A2FF7DB14FF0102046691F
:1003E0001D488468476821463046FFF7C3FE224611
:1003F00039463046FFF7ACFE00BF00F01EF810B5DE
:100400001548446816480460204600F015FA10BDEF
:10041000124800680068401C08B900BFFEE70E489B
:10042000006810B1042806D101E0FFF7BFFFFFF715
:10043000E6FF00BFFEE700BFFEE7BFF34F8F0948AE
:10044000006800F4E06008490843001D05490860A1
:10045000BFF34F8F00BFFEE700100000B40800009C
:10046000000000200CED00E00000FA050F4A0168D2
:100470001160121D416811600C4A103281681160D0
:10048000121DC168116070476FF0060007490860CF
:10049000C010064914310860091F08600349091D8E
:1004A000086070470249086070470000000600407D
:1004B00008E5014000BF134800680028FBD07047E2
:1004C00010B50446022010490860FFF7F3FF2046EC
:1004D000FFF7E8FFFFF7EEFF00200B490860FFF78A
:1004E000E9FF10BD00B502460120074B1860FFF779
:1004F000E1FF1160FFF7DEFF0020034B1860FFF7FC
:10050000D9FF00BD00E4014004E501400820904906
:1005100009680958084710208D4909680958084793
:1005200014208B4909680958084718208849096828
:1005300009580847382086490968095808473C2067
:1005400083490968095808474020814909680958C2
:10055000084744207E4909680958084748207C49D3
:100560000968095808474C2079490968095808471B
:100570005020774909680958084754207449096888
:1005800009580847582072490968095808475C20EB
:100590006F4909680958084760206D49096809587A
:1005A000084764206A49096809580847682068496B
:1005B0000968095808476C206549096809580847BF
:1005C0007020634909680958084774206049096820
:1005D0000958084778205E490968095808477C206F
:1005E0005B49096809580847802059490968095832
:1005F0000847842056490968095808478820544903
:100600000968095808478C20514909680958084762
:1006100090204F4909680958084794204C490968B7
:100620000958084798204A490968095808479C20F2
:100630004749096809580847A020454909680958E9
:100640000847A4204249096809580847A82040499A
:10065000096809580847AC203D4909680958084706
:10066000B0203B49096809580847B420384909684F
:1006700009580847B8203649096809580847BC2076
:100680003349096809580847C020314909680958A1
:100690000847C4202E49096809580847C8202C4932
:1006A000096809580847CC202949096809580847AA
:1006B000D0202749096809580847D82024490968E3
:1006C00009580847DC202249096809580847E020F2
:1006D0001F49096809580847E4201D490968095855
:1006E0000847E8201A49096809580847EC201849C2
:1006F000096809580847F02015490968095808474A
:10070000F4201349096809580847F8201049096876
:1007100009580847FC200E490968095808475FF442
:1007200080700B490968095808475FF482700849CE
:100730000968095808475FF4847005490968095831
:100740000847000003480449024A034B7047000071
:1007500000000020C0080000C008000040EA0103BB
:1007600010B59B070FD1042A0DD310C808C9121F5A
:100770009C42F8D020BA19BA884201D9012010BD94
:100780004FF0FF3010BD1AB1D30703D0521C07E061
:10079000002010BD10F8013B11F8014B1B1B07D1C5
:1007A00010F8013B11F8014B1B1B01D1921EF1D136
:1007B000184610BD7047704770470000014B1B681A
:1007C000DB681847000000201C481D497047FFF7F0
:1007D000FBFFFFF799FC00BD20BFFDE74FF0FF31A5
:1007E000184C24688C420DD1174B1B6899420ED1CE
:1007F000164B1B68164A136018684FF0FF31884289
:10080000EAD00BE0134880F30888134B1847104ACE
:10081000136018684FF0FF318842DDD080F30888FC
:100820004FF02021884204DD0C48026802210A436F
:1008300002605B68184700000346DBE7C008000061
:10084000C00800000020000014100010B0080000D4
:1008500000000020000400201104000024050040D6
:100860006FF00200704502D1EFF3098101E0EFF370
:100870000881886902380078182803D100E0000058
:10088000074A1047074A12682C32126810470000C6
:1008900000B5054B1B68054A9B58984700BD0000F2
:1008A000FF02000000000020B0080000040000006B
:0C08B00000300000002000000024F400D4
:10300000C023002001E90100913D00005FE80100BC
:10301000913D0000913D0000913D00000000000046
:1030200000000000000000000000000065E9010051
:10303000913D000000000000913D0000913D000026
:10304000CDE90100D3E90100913D0000913D000070
:10305000913D0000913D0000913D0000913D000038
:10306000D9E90100913D0000913D0000DFE9010038
:10307000913D0000E5E90100EBE90100F1E9010003
:10308000913D0000913D0000913D0000913D000008
:10309000913D0000913D0000913D0000913D0000F8
:1030A000F7E90100FDE90100913D0000913D0000BC
:1030B000913D0000913D0000913D0000913D0000D8
:1030C000913D0000913D0000913D0000913D0000C8
:1030D000913D0000913D0000913D0000913D0000B8
:1030E000913D0000913D0000913D0000913D0000A8
:1030F000913D0000913D0000913D0000913D000098
:10310000913D0000913D000000F002F81BF0D5FB5E
:103110000AA090E8000C82448344AAF10107DA4532
:1031200001D11BF0CAFBAFF2090EBAE80F0013F091
:10313000010F18BFFB1A43F001031847B8B901008B
:10314000E8B901000A4410F8014B14F00F0508BF5C
:1031500010F8015B240908BF10F8014B6D1E05D063
:1031600010F8013B6D1E01F8013BF9D1641E03D03C
:10317000641E01F8015BFBD19142E4D3704700006B
:10318000103A24BF78C878C1FAD8520724BF30C893
:1031900030C144BF04680C60704700000023002465
:1031A00000250026103A28BF78C1FBD8520728BF57
:1031B00030C148BF0B6070471FB500F031F88DE893
:1031C0000F001FBD8269034981614FF00100104467
:1031D00070470000D931000001B41EB400B501F001
:1031E000D0FD01B40198864601BC01B01EBD0000AF
:1031F000F0B44046494652465B460FB402A0013047
:1032000001B50648004700BF01BC86460FBC80469A
:10321000894692469B46F0BC704700000931000089
:103220001BF048BB70B5304C054608202070A01C30
:1032300000F08BF85920A08029462046BDE8704058
:1032400001F059B910B501F060F927490020891E35
:10325000087010BD2DE9F041234E0446B61E0D4600
:103260003078012738B1A4F160000B280AD8204635
:1032700001F0FEFC2DE0602CF9D043F20100086063
:10328000BDE8F081A4F16C00032803D8204601F0CA
:103290002AFD1EE0A4F170001F2803D8204600F08C
:1032A00097FD16E0A4F190000F2803D8204600F007
:1032B00048FE0EE0A4F1A0000F2803D8204600F03D
:1032C0008BFE06E0A4F1B0000F2804D8204601F0E0
:1032D0000CFD286000E02F60602CD1D12868002808
:1032E000CED13770CCE700001A00002010B504469C
:1032F0000021012000F034F80021182000F030F8FF
:1033000000210B2000F02CF80221192000F028F8F1
:1033100002210D2000F024F802210E2000F020F8F8
:1033200002210F2000F01CF80221C81F00F018F83D
:103330000321162000F014F80321152000F010F8E6
:103340002046FFF76FFF002010BD6F2101807047FE
:10335000FFF778BF0A487047FFF77CBF7047704798
:103360004907090E002806DA00F00F0000F1E020FE
:1033700080F8141D704700F1E02080F800147047B9
:1033800003F9004330B44FF0E0204FF400644FF0F5
:10339000010C0021C0F88041E510C0F880516303A2
:1033A000C0F88031E34A82F80014D21E82F800147B
:1033B000E14A82F80014E14AC2F804C0C2F808C029
:1033C000C2F84011C2F84411C2F84811DC4909683A
:1033D000C0F88042C0F88052C0F88032C0F8004186
:1033E000C0F80031C2F800C030BC704770B4012092
:1033F0004FF0E023C6024FF0000CC3F880610402D6
:10340000C3F880410506C3F88051CC4A50609060F3
:10341000CC4801680029FCD1C2F840C1C2F844C1BF
:10342000C2F848C1C6480068C3F88062C3F8804249
:10343000C3F8805270BC70474FF0E0204FF4006139
:10344000C0F88012C910C0F880127047002804BF6D
:10345000BD487047012804BFBC487047022804BF1C
:10346000B748704710B59120B9A11BF0F2F90020C0
:1034700010BDB249002238B1012825D002282FD032
:10348000B3A1BF201BF0E5B94FF48030C1F80803A9
:10349000C1F84803B54B1A60C1F84021B449096826
:1034A000B44BC1031960B449C1F808034FF0E023DD
:1034B0000012C3F88001B1480260C1F84021C1F890
:1034C0000022AF48027070474FF40030C1F8080383
:1034D000C1F84803AB480260C1F844219B480AE0A8
:1034E0004FF48020C1F80803C1F84803A6480260E1
:1034F000C1F84821924800687047F0B4DFF83CC238
:1035000004260025012440B101283FD0022857D0CD
:10351000F0BC8FA1F4201BF09CB9881E20F07F41E5
:103520004FF48030CCF80803CCF84051CCF8440379
:10353000CCF84015012B14BF00210121904B59708C
:103540008D494C60CC60DFF844C2CCF80050904DFF
:103550004FF0020CC5F800C0DFF838C2CCF80060AC
:10356000DFF818C23D32CCF80020C1F800424FF01D
:10357000E02C8A15CCF88022C1F80403CCF8002195
:103580000804854908601C70F0BC704783484FF4FC
:103590000032012B0AD100BFC0F84051CCF80423FF
:1035A000CCF84423C0F84015F0BC7047CCF8082391
:1035B000C0F84051CCF84423C0F84015F0BC704727
:1035C00077484FF48022012BF0D1E5E75D48006891
:1035D000704770B5594CD4F84001002501280AD134
:1035E000D4F8080310F4803F05D04FF48030C4F8BD
:1035F0000803C4F84051D4F8440101280DD1D4F88F
:10360000080310F4003F08D04FF40030C4F808035A
:10361000C4F84451012002F0FFFDD4F8480101280C
:103620000DD1D4F8080310F4802F08D04FF4802077
:10363000C4F80803C4F84851022002F0EDFD4048E8
:10364000006870BD4E490878E0B14A4A4FF000402A
:103650001060494AC00BC2F8080303124FF0E02C77
:103660000020CCF88031454B1860C2F84001C2F808
:10367000000208704A78002A08BF7047487000208E
:1036800002F0CABD032002F0C7BD4FF0E0214FF0A9
:103690008070C1F8000270474FF0E0214FF0807059
:1036A000C1F8800270474FF0E0214FF40010C1F8DC
:1036B000000270474FF0E0214FF40010C1F8800283
:1036C00070472D4801214160C1604FF0E021801515
:1036D000C1F880027047410A43F609525143C0F3D2
:1036E000080010FB02F000F5807001EB50207047DD
:1036F000430B48F2376C03FB0CF31B0C4FEA432CD3
:10370000C1F800C0DFF89CC003FB0C0326484CF254
:10371000F72C5843400D10FB0CFC0CEB432303F536
:1037200080735B1213700A6810440860704702F0DF
:1037300077BE00000BE000E018E000E000B00040C1
:1037400048B1004004B500404081004044B1004011
:103750007372635C72656D5F68616C5F6576656EE0
:10376000745F74696D65722E6300000040B500409F
:1037700040B1004008F50140008000404085004015
:103780002000002044B5004048B5004004850040BA
:10379000088500401085004004F5014004B0004059
:1037A00008B00040F7C2FFFF6F0C010010B502F037
:1037B0001CFE10BD00200549086001200121814048
:1037C000034A430942F8231000BF7047FC1F004022
:1037D00080E200E04FF0E0214FF00070C1F880017E
:1037E000C1F88002394B402283F80024C1F800015F
:1037F000704710B502460420354903E001EBC003D1
:103800001B7943B1401EC0B2F8D232A143201BF055
:1038100020F8FF2010BD41F8302001EBC00100224C
:103820004A718A7101220A7110BD294A002102EBF6
:10383000C0000171704710B50446042803D325A1C8
:1038400052201BF006F8224800EBC404207901281E
:1038500003D020A153201AF0FCFF6079A179401C0D
:10386000C0B2814200D060714FF0E0214FF0007093
:10387000C1F8000210BD70B51448042590F800048A
:10388000134E4009194C02281BD012A169201AF0CE
:10389000E0FF16E0217806EBC1000279012A08D189
:1038A000427983799A4204D04279827156F8310084
:1038B00080472078401CC0B22070042801D300202B
:1038C00020706D1EEDB2E5D270BD000019E000E081
:1038D000880100207372635C736F635F7369676E46
:1038E000616C6C696E672E6300000000220000208E
:1038F00010B5EFF3108000F0010472B6D0484178A3
:10390000491C41704078012801D101F0EBFA002CEC
:1039100000D162B610BD70B5C94CE07848B9012538
:10392000E570FFF7E5FF01F0E5FA20B1002001F0B6
:10393000B8FA002070BD4FF08040A571C0F8045364
:10394000F7E770B5EFF3108000F0010572B6BC4CDC
:10395000607818B9BBA191201AF07BFF6078401EF7
:103960006070607808B901F0C1FA002D00D162B62C
:1039700070BDB34810B5C17821B100218171C1700B
:10398000FFF7DFFF002010BD10B5044601F0B2FACA
:10399000AB49C978084000D001202060002010BD4C
:1039A0002DE9F05F0026A64C0821042210232027D1
:1039B0000125B046E6714FF0020A0D282CD2DFE84F
:1039C00000F007090C0E101214161F2124262800DF
:1039D000657126E084F805A023E0627121E0617141
:1039E0001FE063711DE067711BE0012619E0FFF71E
:1039F0007FFF00BF01F07EFA0028FBD0022610E016
:103A0000627100E06171E5710BE06371FBE7677162
:103A1000F9E740206071F6E78AA140F265101AF0DC
:103A200018FF01F074FA48B101F078FAB04205D1FC
:103A3000304601F077FA0028FAD032E04FF08047A4
:103A4000FD60C7F8048183490E60C7F804A3BD6018
:103A5000C7F81081DFF800B2DBF80010C94341F36A
:103A6000001101F10109DBF8001041F01001CBF861
:103A7000001000E020BFD7F804010028FAD030463B
:103A800001F050FA0028FAD0B9F1000F05D1DBF8A7
:103A9000001021F01001CBF80010C7F808A3C7F8F8
:103AA0000481E07960B101F025FA074601F07CF964
:103AB0006FF0004117B1C4E9021001E0C4E902014E
:103AC0001EB184F80480BDE8F09F2571BDE8F05F69
:103AD00000F094B810B5044601F012FA28B1584924
:103AE0000120C8704A78521C4A702046BDE8104038
:103AF00056E72DE9F0414FF08045D5F80801002642
:103B0000012803D1C5F8086101F0CBF9D5F804010B
:103B1000012801D1C5F80461D5F800010127484CFE
:103B200001280ED1C5F80061A07918B1002001F07C
:103B3000B8F9A671207820B101F0DCF908B12F6145
:103B4000A770207930B3D5F81001012824D1C5F829
:103B500010616F61E079B0B101F0CCF9804601F0FD
:103B600023F9B8F1000F01D0E16800E0A168411A23
:103B7000022902DA11F1020F0EDCB8F1000F01D0B8
:103B8000E06000E0A060FFF7B3FE01F0B3F910B110
:103B90002F61A77000E02770D5F80C0101280ED125
:103BA000A07818B927A1F1201AF053FEC5F80C61CE
:103BB0002A480068A6702670BDE8F041C1E6BDE85D
:103BC000F08170B51E4DE87808B901F08FF9012039
:103BD0008407A061A87850B1D4F80C0120B9002066
:103BE00001F0A0F90028F7D10020C4F80C014FF033
:103BF000FF30C4F808031A48006870BD2DE9F04191
:103C00001927BC07C4F808734FF00008C4F80081F6
:103C1000C4F80C8101F06EF9094E012510B125613F
:103C2000B57000E03570FFF763FEC4F8047309490E
:103C3000707920310860A561C4F810816561BEE724
:103C4000240000207372635C736F635F636C6F6347
:103C50006B2E63001805004010ED00E00C010040E1
:103C60000803004010B50D2000F06DF8C4B26FF0ED
:103C7000040000F068F8C0B2844203D039A11B20D0
:103C80001AF0E7FD3C490120086010BD70B50D2019
:103C900000F043F8394C0020C4F800010125C4F8B5
:103CA00004530D2000F044F825604FF0E02160142B
:103CB000C1F8000170BD10B50D2000F02EF82F489E
:103CC000012141600021C0F800112D480068BDE8C5
:103CD00010400D2000F02CB82849D1F8000101282F
:103CE00003D020A15E201AF0B4BD2348001D006857
:103CF0000022C0B2C1F800212149096803F095B83B
:103D000010B51E48D0F800110029FBD0FFF7E4FFE2
:103D1000BDE810400D2000F00BB800F01F0201219B
:103D200091404009800000F1E020C0F88011704708
:103D300000F01F02012191404009800000F1E020C5
:103D4000C0F880127047002806DA00F00F0000F17A
:103D5000E02090F8140D03E000F1E02090F800045A
:103D6000400970477372635C736F635F68616C5F77
:103D7000726E672E6300000004D5004000D0004042
:103D800000D100400E4A12680C498A420AD11847F5
:103D90000B4A1268094B9A4204D101B500F0E8FFC2
:103DA00003BC8E4607490968095808470648074971
:103DB000054A064B7047000000000000BEBAFECA6C
:103DC0005C00002004000020C0230020C02300204D
:103DD00030B470381B287DD2DFE800F00E141820B4
:103DE00024272E353A3F43474B53596069717984F4
:103DF0008B93989C9FA6A90008784A6830BC11460E
:103E000005F086BA086830BC05F0D9BA0C790B7B8E
:103E10008A680868214630BC05F0E6BA086830BCFC
:103E200005F081BB30BC05F021B808884A6830BC79
:103E300080B2114605F0A9BC08880A7930BC80B26E
:103E4000114605F024BD087830BC40B205F02FBD06
:103E5000088830BC80B206F0E3B8086830BC06F0D1
:103E6000F1B8086830BC06F06FB8086830BC06F0DE
:103E7000A0B8088982B2D1E9000330BC194606F027
:103E800000B9D1E9000230BC114606F053B90888E8
:103E90004A6830BC80B2114607F031BAD1E902233A
:103EA0000C790888214630BC80B207F0F5BA088842
:103EB0000B798A6830BC80B2194607F0A7BCD1E9FB
:103EC0000132088830BC80B2194607F01CBDD1E928
:103ED000022300E032E008884C6880B2214630BC02
:103EE00007F081BD08884A6830BC80B2114607F0EF
:103EF000BBBD08880A7A0B7930BC80B2194605F040
:103F0000F1BC088830BC80B205F0EFBC086830BC5A
:103F100005F0F0BC30BC04F08ABFD1E900038A6828
:103F200030BC194605F052BD30BC04F069BF0888AA
:103F30004A6830BC80B2114605F040BE30BC01205A
:103F400070479038092845D2DFE800F0050D1319B5
:103F50001F262F373D0088888A6883B20888194653
:103F600080B208F09FB908884A6880B2114608F00C
:103F7000DCB908884A6880B2114608F0E4B90888BC
:103F80004A6880B2114608F0ECB9D1E901320888DC
:103F9000194680B208F0FAB9088982B2888883B2DB
:103FA0000888194680B208F0F6B908894B6882B2D1
:103FB0000888194680B208F00FBA08884A6880B2AB
:103FC000114608F01ABA888882B20888114680B271
:103FD00008F074BA0120704730B4A0380B2865D2BD
:103FE000DFE800F0060D161F273039404A515B000C
:103FF000D1E90132087830BC194609F0D8BE88886A
:104000008A6883B2088830BC80B2194609F0DFBEE6
:10401000D1E9022308884C6880B2214630BC09F0FF
:10402000D7BED1E90132088830BC80B2194609F008
:10403000EABE88888A6883B2088830BC80B2194694
:1040400009F0F6BE88888A6883B2088830BC80B2DE
:10405000194609F03EBF08884A6830BC80B2114654
:1040600009F091BF088982B2888883B2088830BC81
:1040700080B2194609F091BF08884A6830BC80B206
:10408000114609F0B0BF08894C6882B20888CB6835
:10409000214630BC80B20AF015B8D1E90223088865
:1040A0004C6880B2214630BC0AF025B930BC0120F2
:1040B000704700004FF0E0214FF40040C1F880014C
:1040C00024490020087024494FF060700860704750
:1040D00070B5204D04462878A0421CBF002C002853
:1040E00003D01EA14C201AF0B4FB2878A04208BFD0
:1040F00070BD2C702249184A00200CB3214DDFF806
:1041000088C0131F012C07D0022C0FD0BDE87040CF
:1041100012A167201AF09DBB086002200860CCF84D
:1041200000504FF040701060186070BD08600320B0
:104130000860CCF800504FF400001060186070BDAB
:10414000086008604FF06070106070BD03A17020BF
:104150001AF07FBB3400002008F5014073746163DE
:104160006B5C6C6962735C68616C5C7372635C68E5
:10417000616C5F63636D5F6161722E6300000000BC
:1041800000F50040A801002014F500400A280ED2D6
:10419000DFE800F005070509090B0B05050504F02C
:1041A0008DBE0BF03CBA00F0E7BE0EF0CDBEF4A120
:1041B00040F2BE201AF04DBB7FB5F9490546F94AD9
:1041C000D1E90001CDE9010140F29460ADF80C00A5
:1041D0000F230A21A2F1280002F0C5FF0024AFF24C
:1041E000530002F0E1FF641CE4B20A2CF7D3042070
:1041F0000090EC4801231A4603A9F0300AF0E3F9D5
:1042000020B1DFA14FF49B701AF023FB686800F027
:104210008DFC00211E22084603F0F6F805F037F861
:1042200002222421E04800F0C1FEDF4801223421AF
:104230004C3000F0BBFEDC490B20B0390EF0F0FE34
:1042400020B1CFA14FF4A5701AF003FB0BF0B1F928
:1042500008F055FF01AB00220821D4A005F0DFFDD6
:1042600020B1C7A14FF4A8701AF0F3FA284609F05C
:104270009DFA20B1C2A14FF4A9701AF0EAFA4FF4E6
:104280005B71CD481AF0B5FACB480121417102218A
:1042900081710621C1717FBDF0B597B03B208DF8CB
:1042A000340069460DA80AF033FB20B1B4A14FF4E5
:1042B000B2701AF0CEFA43F2040600246D462EE0E6
:1042C0002F19B87DC10706D0400704D405EB440080
:1042D000C0880BF09FFBB8488079F0B1B87D8007AB
:1042E0001BD505EB44000022C08806210BF0B4FB6F
:1042F00098B13C208DF8340005EB44006946C08835
:10430000ADF836000DA80AF003FB06000BD09CA107
:1043100040F279101AF09DFA05E0641CE4B29DF8B1
:104320000400A042CCD8304617B0F0BD10B5A24C66
:10433000A078092804D392A14FF4C5701AF089FA25
:10434000207800EB400004EB401010F80C1F21F027
:10435000FF010170417821F00701C91C21F018010B
:1043600041700121E17010BD70B50D460021144669
:104370001980072828D2DFE800F027040B1912273C
:10438000200021462846BDE870401A460BF06FB960
:1043900021462846BDE870401A4604F0DABB2146A3
:1043A0002846BDE870401A4608F04CBD2146284614
:1043B000BDE870401A4607F015BE21462846BDE804
:1043C00070401A4600F0D4BB6DA140F2E9101AF01B
:1043D00040FA032070BD70B5774CE078002819D002
:1043E0002078002500EB400004EB4010407B00F0FB
:1043F000070001190879401E08712078401CC0B2DE
:104400002070092800D12570A078401CA07000F011
:1044100041FDE57070BD6848C079002800D085E78F
:10442000704770B5644DA86860B1FFF7F4FF0028CD
:1044300060D06022A9681AF088F9FFF7CCFF00204D
:10444000A860F0E76879002854D0FFF76FFF0446B2
:1044500055484C3000F0BAFD606020B948A14FF4D7
:1044600042701AF0F6F960680AF07AFA68B12046EC
:1044700004F049FA6078010703D520F00700401CDA
:1044800029E0494861684C302BE0474861684C306E
:1044900000F0A5FDFFF700FF00282BD1FFF746FF36
:1044A0000446414800F092FD606020B934A140F21A
:1044B0002B301AF0CEF960680AF054FAA0B16068A7
:1044C0000088608020460BF056F96078010706D519
:1044D00020F00700801C6070FFF77DFFA3E73248E3
:1044E000616800F07CFD9EE76168BDE870402E4881
:1044F00000F075BD70BD10B5304CC4E90201AFF2DB
:10450000DD00FFF776F9607010BD2C4900200870BF
:10451000704730B505464FF080500C46D0F8A410D7
:1045200097B0491C05D1D0F8A810C9430904090C5B
:1045300008D050F8A01F01F00101297041682160E6
:10454000806812E02B208DF8000009A968460AF067
:10455000DFF920B10AA14FF410701AF07AF90120A6
:1045600028700A982060BDF82C00A08028780028C8
:1045700003D0607940F0C000607117B030BD00001A
:10458000737461636B5C6C6962735C686F73745C99
:104590007372635C686F73745F636F72652E630020
:1045A000F84F0000FC0100209C0D00206E524635A3
:1045B000313832320000000080090020380000202D
:1045C000F0B54FF080540746D4F8800097B00D4600
:1045D0002B26401C0BD1D4F88400401C07D1D4F802
:1045E0008800401C03D1D4F88C00401C0BD0D4F8B8
:1045F00080003860D4F884007860D4F88800B8600F
:10460000D4F88C0020E08DF8346069460DA80AF0DB
:104610007FF928B1AFF2980140F269201AF019F938
:1046200001983860029878608DF8346069460DA86A
:104630000AF06EF928B1AFF2B8014FF41C701AF00D
:1046400008F90198B8600298F860D4F89000401C0E
:104650000BD1D4F89400401C07D1D4F89800401C2A
:1046600003D1D4F89C00401C08D054F8900F286067
:1046700060686860A068A860E06820E08DF800606D
:1046800009A968460AF044F928B1AFF20C1140F2CA
:104690008E201AF0DEF80A9828600B9868608DF872
:1046A000006009A968460AF033F928B1AFF2301169
:1046B00040F295201AF0CDF80A98A8600B98E860AF
:1046C00032E670B5F74C0546A06828B1AFF250113C
:1046D0004FF439701AF0BDF8A56070BD10B50146F1
:1046E000F14800F07CFCEF498879401CC0B2887129
:1046F000012805D1ED484078BDE81040FFF79BB890
:1047000010BD70B50446A1F57F4016460D46FF3832
:1047100005D1AFF2941140F259301AF09AF8012EF7
:1047200007D0AFF2A411BDE870404FF45A701AF0F0
:1047300090B8207820F00F00801D20F0F00060304D
:10474000207000202072A5810120A07370BD70B57B
:1047500015460C460646FFF75EFE90B1017821F043
:104760000F01891D21F0F0016031017046800121A7
:10477000017221680161A18881820573BDE87040E2
:1047800029E63046BDE87040132105F080B8A0F15D
:104790000061B1F5004F05D3C4494968884201D290
:1047A00010207047042101700020704770B5BF4D84
:1047B000044696B02878002610B1082016B070BDC7
:1047C000BB4AA4F100606A60B0F5004F03D3944285
:1047D00001D21020F2E7606848B10921D82804D33B
:1047E000C31C23F00303834205D00846E6E74FF4D9
:1047F000806060600DE0AF49891A4FF08052D2F8B6
:104800000C2101EB8221A1F50061814201D204213A
:10481000EBE700F0BCFB6978A8680BF057FCE86890
:10482000401E07280BD830218DF800108DF80200AB
:1048300068460DF034F810B109A80BF007FE2046C9
:10484000FFF7BAFC012028703046B7E72DE9F05F8A
:10485000DFF858B20F460446A1F100614FF4004260
:10486000DBF80400914201D387420BD32CB1A4F1B1
:104870000061914201D3844204D3E01C20F0030084
:10488000A04202D01020BDE8F09F86484FF00008FB
:10489000817899B14178824601EB410100EB4115E5
:1048A000B7F8009015F80C0F3B4600F00F000022FF
:1048B0002946FFF759FD060004D013E0A7F8008051
:1048C0000520E0E794B13988494501D90C260DE06F
:1048D00028783B4600F00F0022462946FFF744FDAA
:1048E000060005D00C2E01D0A7F800803046CAE79C
:1048F0009AF801005446401CC0B28AF80100092809
:1049000001D184F80180A078401EA070687800F082
:104910000701012910D0022908D003291CD0AFF2C9
:10492000A03140F2054019F094FFDFE7C006DDD466
:104930006868FFF7D3FED9E75B4869684C3000F040
:104940004EFB6079401CC0B260710128CED19BF84B
:104950000100FEF770FFC9E7E079401C8AF8070004
:10496000C4E7554A30B4904212D3504AA0F10063D4
:104970004FF400445268A34204D3B0F1005F01D366
:10498000904205D3A1F10063A34204D3914202D225
:10499000102030BC704730BC0EF079BB70B5464B70
:1049A000994212D3414BA1F100644FF400455B687A
:1049B000AC4204D3B1F1005F01D3994205D3A2F117
:1049C0000064AC4203D39A4201D2102070BD022889
:1049D00003D0102801D0092070BD0EF07DFB002807
:1049E000FAD0052070BD70B5334B984219D32F4BC8
:1049F000A0F100654FF400445B68A54204D3B0F118
:104A0000005F01D398420CD3A1F10065A54201D308
:104A1000994206D33AB1A2F10065A54203D39A4266
:104A200001D2102070BD0EF076FB0028FAD00720CE
:104A300070BD10B50446A0F1006096B0B0F5004F0F
:104A400006D31A484068844202D2102016B010BD26
:104A50000F208DF8000009A9684609F059FF0028C9
:104A6000F4D19DF82C002070BDF82E006080BDF8B8
:104A70003000A0800020E9E730B491B10B4AA1F1E9
:104A800000634FF400455268AB4201D3914206D314
:104A90000B68A3F10064AC4210D393420ED21020F5
:104AA00077E70DE0800900209C0D002038000020F1
:104AB000002400200000002000F001008A8812B1CC
:104AC00030BC08F079BB092063E75E4A91420BD302
:104AD000A1F10062B2F5004F08D3B1F1005F05D338
:104AE000594A5268914201D210207047421E1E2A34
:104AF00001D800F075B8A0F120021F2A01D804F0F7
:104B0000EDBA07207047A1F10062B2F5004F05D35E
:104B10004D4A5268914201D210207047A0F1200204
:104B20001F2A01D804F065BB0720704770B5474CB9
:104B30000546002020704449204628444860E01C77
:104B400020F00300A04204D041A14FF4857019F079
:104B500080FEA8B20422214603F047F8002806D0C0
:104B6000BDE870403AA14FF48E7019F072BE70BD6E
:104B70002DE9F04105460C460027007806219046B5
:104B80003E46B1EB101F04D031A14FF4D17019F0A3
:104B900060FE287A70B1012813D02DA140F2C31015
:104BA00019F057FEA8F800600CB12780668000203D
:104BB000BDE8F081022709267CB1A889A080A87BE6
:104BC00009E00327142644B16888A0802869E060C2
:104BD000A88A2082287B2072E4E7A8F80060E6E734
:104BE00010B5184A96B091420BD3A1F10062B2F50C
:104BF000004F08D3B1F1005F05D3134A52689142C8
:104C000001D2102022E7012801D007201EE70878F2
:104C10004FF0000410F0010F03D003208DF80200C4
:104C200001E08DF8024038208DF8000009A968469F
:104C300009F06EFE20B106A140F2032019F009FE32
:104C4000204603E700F00100380000200024002087
:104C5000737461636B5C6C6962735C686F73745CC2
:104C60007372635C686F73745F636F72652E630049
:104C700060380A2835D2DFE800F005080D10151B52
:104C800021242A2F0868FFF791BDD1E900021146BF
:104C9000FFF7DCBD0868FFF77ABDD1E900021146D5
:104CA000FFF75FBED1E9013208781946FFF776BEFB
:104CB000D1E900038A681946FFF795BE0868FFF737
:104CC000B8BE08884A6880B21146FFF7D5BED1E960
:104CD00000021146FFF7F9BED1E900021146FFF7C5
:104CE00012BF012070470120704730B4B038062849
:104CF0003AD2DFE800F0030B131B262FD1E9013273
:104D0000088830BC80B219460AF085BFD1E901326B
:104D1000088830BC80B219460AF0C5BF888882B2C4
:104D2000088830BC80B211460BF014B888898A68B4
:104D300083B2888884B20888214630BC80B20BF0E8
:104D400028B888888A6883B2088830BC80B219463F
:104D50000BF04FB8088982B2888883B2088830BCCB
:104D600080B219460BF073B830BC012070470000C8
:104D70000C4908784A78401CC0B2904200D00870B4
:104D8000704708484FF0E02220BF40BF20BF417865
:104D900003784370D2F8003213B903788B42F3D012
:104DA00000207047510000202DE9F0410125280323
:104DB0004FF0E0210026C1F880011F4CC4F80061CB
:104DC0000C2000F02EF81D4801680268C94341F329
:104DD000001142F010020260C4F804532560491C1F
:104DE00000E020BFD4F80021002AFAD019B90168E8
:104DF00021F010010160124807686560C4F808538B
:104E0000C4F800610F4800680C2000F00AF838462A
:104E1000BDE8F08110B50446FFF7C6FF2060002012
:104E200010BD00F01F02012191404009800000F1F7
:104E3000E020C0F88012704700C0004010ED00E094
:104E400008C5004000C1004070B521490A68BAB1E8
:104E500000231D4601244A68521C4A600A2A00D3D6
:104E60004D600E7904FA06F20E6816420AD072B648
:104E70000B6893430B6062B649680160002070BD07
:104E8000052070BD5B1C0A2BE5D312A1362019F05A
:104E9000E0FCF5E74FF0E0214FF48000C1F800029C
:104EA0007047EFF3108111F0010F72B64FF001025D
:104EB00002FA00F20648036842EA0302026000D1E7
:104EC00062B6E7E7024800210160416070470000D8
:104ED000540000207372635C736F635F6576742E99
:104EE00063000000012081070860704701208107EE
:104EF0004860704712480068C00700D00120704722
:104F00000F48001F0068C00700D0012070470C4800
:104F100008300068C00700D00120704708481030F2
:104F20000068704706490C310A68D20306D5096843
:104F300001F00301814201D1012070470020704738
:104F40000C04004010B501462022084819F0B8FBB7
:104F500006490020C877084610BD0548054A016883
:104F6000914201D10021016070470000BC11002076
:104F70005C000020BEBAFECA70B50C46054602F0C1
:104F800097FD21462846BDE870400FF079BB10B56B
:104F90000FF010FD01F089FEFFF78CF80EF016FA05
:104FA0000FF0F6FBBDE810400FF082BC10B5031DFA
:104FB00003600020521E04E05C181C60401C234665
:104FC000C0B29042F8DB0020186010BD02460020FD
:104FD0001168002902D0084609681160704702680C
:104FE0000A600160704770477047704770477047AC
:104FF0007047704770477047FFFFFFFF0000FFFFDB
:1050000010FFFFFFDBE5B15100F001006F00FFFF73
:1050100040F2090CC2F2000C604700002DE9F0419B
:10502000FD4C207EE17D884208BFBDE8F08101266D
:10503000FA4D0027E07D215C01EB810205EB820047
:10504000037C052B13D0037C062B1ED0037C072B7F
:105050002AD0437C012B35D0F1A140F2DA5019F06F
:10506000F8FB207EE17D8842E4D1BDE8F081067442
:10507000E07D16281ABFE07D401C0020E075481C2A
:10508000C0B255F8222002210CE00674E07D1628FB
:105090001ABFE07D401C0020E075481C55F8222016
:1050A000C0B203219047DCE70674E07D16281ABFE2
:1050B000E07D401C0020E075481CC0B255F822205D
:1050C0000821EFE74774E07D16281ABFE07D401CF9
:1050D0000020E075481CC0B255F822200721E1E706
:1050E00070B5D24E00240C2086F82900A6F53B703E
:1050F000254680F8CD4180F8CC4100F5F470047667
:10510000C47506F12C000EF036F9A6F58E70057503
:1051100086F82B50601EB06086F8255086F8225025
:1051200086F8235086F8245086F82150C048057030
:105130004570A6F1E80000BF04EB840100EB81019B
:105140000D74611CCCB20B2CF6D30120FEF791F943
:105150000020FEF78EF9012086F82600FEF73AFBC4
:10516000B448FEF746FBB44C2070B448FEF741FB50
:105170006070BDE87040FEF705B910B5FEF736F96E
:10518000AD4C2078FEF751FB6078FEF74EFBA74C44
:1051900094F82800002808BF10BDFEF7D2FB0020BD
:1051A00084F8280010BD70B5FEF710FA9F4C054634
:1051B00094F8260030B1BDE8704099A140F28320F8
:1051C00019F047BB94F82B0020B995A140F25F205D
:1051D00019F03FFB60690026291A6FF07F42B1F594
:1051E000800F24BF431BB3F5800F0BD38A4203D239
:1051F000101A2844411C05E09A423CD2511B084435
:10520000401C4142002904DB85A140F2622019F0D4
:1052100020FB012584F8265084F82B6094F829108F
:1052200004207E4A01EB810102EB81010874A06831
:10523000B0F1FF3F04D0A81EA0600120FEF719F9CD
:105240000020FEF716F9FEF7F7F80EF0E1F9FEF789
:1052500038FA7B48066006604FF0E0214FF40040CA
:10526000C1F88002FEF7A6FA7148007802280BD038
:10527000032806D00BE073A140F2197019F0E9FA87
:10528000C2E794F8230010B184F8225001E084F8BA
:105290002260BDE87040FEF7F8B903465F490B2075
:1052A00000EB800201EB820212F8042C22B1401EB6
:1052B00010F0FF00F4D1704700EB800201EB820197
:1052C000012241F8143C01F8042C7047012804D055
:1052D000032808BF002926D000E021B3534B4FF02C
:1052E000000C83F821C0524A0028907014BF022895
:1052F00082F803C00BD0072915D2DFE801F01404AF
:10530000060C0E1012001B2000E03A20D070012085
:1053100083F8210070475820F8E77720F6E79620B9
:10532000F4E7B520F2E700207047414810B5407817
:10533000FEF7D1F980B210BD421E10B5374900EB1F
:10534000800001EB80040A2A02D814F8040C20B96A
:1053500033A140F2D12019F07CFA14F8040C012892
:1053600004D02FA140F2D22019F073FA002004F8E3
:10537000040C10BD70B5364C94F8CD0194F8CC11E6
:1053800088420CBF01250025FEF720F9FEF7A3F99E
:1053900094F8CD1194F8CC2191420CBF0121002149
:1053A000A942E9D170BD2DE9F05F8046A1F1010C61
:1053B00017460CF0FF04194804EB840200EB820549
:1053C0002E1D287CDFF8509007284AD199F8170045
:1053D00000234A4699F818A0824540D012F800A050
:1053E000A24508BF012300D04BB116280CBF4FF0D7
:1053F000000A00F1010A12F80AA002F800A016281B
:105400000CBF0020401CC0B292F818A08245E5D124
:105410002BB3107E00281DE008100020241000206F
:105420007372635C72656D2E630000000C110020C6
:105430004A00002071700000480000201D5000004C
:1054400000F500407372635C72656D2E63000000AE
:10545000200E00200EBF1620107E401E1076012068
:105460002874BCF10A0F10D8FF4801EB810100EB52
:10547000810010F8040C40B1287C01280BD0287C56
:10548000012802D0B87A012808D0AFF26C0140F2AE
:105490001B3019F0DEF9B87A01284ED1F24B287C86
:1054A00002281BD099F8180016284ED099F8180039
:1054B00099F81710401C884205D1AFF29C014FF4B7
:1054C0004A7019F0C6F90120687499F8180009F8B3
:1054D000004099F8180016283CD03DE0E34A92F8C5
:1054E00029000146A04207D0014600EB810003EBF2
:1054F0008000807CA042F7D192F829C084450CD16D
:1055000092F8291001EB810103EB8101897C82F87B
:105510002910012182F82A1009E000EB800203EB38
:10552000820201EB810103EB8101927C8A7400EB22
:10553000800003EB80000C218174387A062825D284
:10554000DFE800F012211E1B181599F8170000283B
:10555000B9D1B2E7002002E099F81800401C89F8A0
:1055600018000020BDE8F09F4FF0000A16E04FF051
:10557000B40A13E04FF0730A10E04FF0320A0DE066
:105580004FF00A0A0AE04FF0060A07E0AFF24C11AA
:1055900040F2DF1019F05DF94FF0000A3868A0EB17
:1055A0000A003060397A00290CBF04210221401A18
:1055B00020F07F423260D7E90001084420F07F40AC
:1055C0007060B87A022818BF387B7CD1387A0028FE
:1055D0000CBF0420022000EB0A037868991D00EB41
:1055E000010BA3484178514503D9A04890F8230006
:1055F00010B10BF1060003E0A1EB0A005844801D36
:105600009A4991F829C0BCF10C0F24D08E4691F82C
:10561000291001EB810C944901EB8C0CDCF804C0DF
:10562000624518D0DFF84CC29EF8292002EB8202B6
:1056300001EB82014A688968A2EB080222F07F42EE
:10564000A1EB080121F07F41904298BFB2F5800F95
:1056500053D28C4551D34044A0EB0B0020F07F4047
:1056600030601844D7F80CC020F07F42A2EB0C0049
:105670006FF07F41B0F5800F24BFACEB0203B3F5B0
:10568000800F0CD3814204D2A1EB0C001044401CCB
:1056900005E0994224D2881A6044401C4042002808
:1056A00024DD0520287499F81800162841D099F8AF
:1056B000180099F81710401C884207D1AFF27C21DE
:1056C00040F2072000E017E019F0C3F899F818003D
:1056D00009F8004099F8180016287FF43DAF39E723
:1056E000AFF2A02140F2197019F0B3F830685844B5
:1056F00020F07F407060002030727068801D20F0C4
:105700007F407060787AB072387A0627707203280A
:1057100008D238B1FFF7EEFB002804BFCAF1380702
:105720004FF0320A52480178012918BF032910D1DD
:1057300004E099F817000028C8D1BFE74078504529
:1057400007D94A4991F82310002904BFA0EB0A00A9
:105750000744484B3068A0EB0801706821F07F4C8B
:10576000A0EB080222F07F40674598BFBCF5800F90
:105770001DD283421BD33D4890F829300C2B38D0E2
:1057800090F829704FF00C0B4FEA0B0A364807EBE4
:10579000870300EB830CDCF80830A3EB08038B4293
:1057A00038D8BB469CF812700C2FEFD1AAE0052028
:1057B000287499F81800162816D099F8180099F846
:1057C0001710401C884205D1AFF2883140F2072003
:1057D00019F03FF899F8180009F8004099F81800F6
:1057E00016287FF4B9AEB5E699F817000028F1D174
:1057F000EAE70221297490F829100C2918BF90F8C3
:105800002910A97480F82940012180F82A1008463F
:10581000BDE8F09F0C2F1CBFBA46002372D000BF1A
:105820000AEB8A0100EB8101D1F804C0ACEB080C53
:10583000944537D28B7B96F80AC09C452BD3052024
:10584000287499F81800162820D099F8180099F8AB
:105850001710401C884205D1AFF2184140F20720D2
:1058600018F0F7FF08E00000241000200C110020C1
:105870004A000020FFFF3F0099F8180009F8004097
:1058800099F8180016287FF467AE63E699F81700B8
:105890000028E7D1E0E791F812A00123BAF10C0F3C
:1058A000BED103E0002B08BFBA462BD03E46FD48D0
:1058B00006EB860200EB8208062188F8101099F8A2
:1058C000180016282FD099F8180099F81710401CC6
:1058D000884205D1AFF2B84140F2CB3018F0B9FFA1
:1058E00099F8180009F8006099F8180016280EBFFA
:1058F000002099F81800401C89F8180098F81260E8
:10590000B245D4D10220E74E287406F1E80090F8A1
:105910002910B9420CD185F812A080F82940012144
:1059200080F82A1027E099F817000028D8D1D1E78D
:105930000C2F10D0BBF10C0F05D1AFF21C5140F26F
:10594000E33018F086FF0BEB8B0006EB80008474CD
:1059500085F812A00FE0BBF10C0F05D1AFF240515A
:1059600040F2E93018F075FF0BEB8B0006EB80007E
:1059700084740C20A8740120BDE8F09F70B50D461A
:10598000C94A44190021101A71EB010005D2AFF287
:105990004C5140F2FB3018F05CFFC448854205DDF5
:1059A000AFF260514FF47F7018F053FFC04885424A
:1059B00005DAAFF2705140F2FD3018F04AFFBD48F1
:1059C0008442A8BFBC4804DA002CAABF2046B948CC
:1059D00070BD201870BD401E70B5C0B200EB8001D4
:1059E000B04800EB8104607B062810D2DFE800F0AD
:1059F000030D0B090705002048E0B42011E07320D7
:105A00000FE032200DE00A200BE0062009E0AFF2A3
:105A1000CC5140F2DF1018F01CFF617B0020002900
:105A200034D0022108446168084420F07F40FDF72B
:105A300052FE94F90C509C4A44190021101A71EB43
:105A4000010005D2AFF2046140F2FB3018F001FF13
:105A50009648854205DDAFF214614FF47F7018F06F
:105A6000F8FE9348854205DAAFF2286140F2FD3036
:105A700018F0EFFE8F488442A8BF8F4804DA002C4C
:105A8000AABF20468B4870BD201870BD0421C9E70D
:105A90002DE9F04F0646894885B00068C005C00D65
:105AA00011D0103840B20028B8BF00F00F0000F14C
:105AB000E020B4BF90F8140D90F80004400908BF2E
:105AC0004FF0010A01D04FF0000A3078002817BFCC
:105AD00001283079002005B018BFBDE8F08F0628F6
:105AE00010D2DFE800F0030D0B090705002019E0D4
:105AF000B42010E073200EE032200CE00A200AE00F
:105B0000062008E0AFF2C46140F2DF1018F0A1FEF9
:105B10003179002031B1022100EB0109BAF1000F07
:105B200006D101E00421F7E76549002081F827004C
:105B30006C4602AA2146B068FDF7DAFD9DF90820FF
:105B4000F068211D10440122C01C1F28B8BF01921B
:105B500008DB03AAFDF7CCFD9DF80C0010B10198FD
:105B6000401C0190DDE900100844801D20F07F40BA
:105B70000190A1EB090020F07F40009070798DF832
:105B80000A0000980390FDF721FD0099019B091A76
:105B9000181A4C4A21F07F4120F07F40B1F5800F68
:105BA00010D282420ED3464890F82950009CAB4652
:105BB000191B21F07F486FF07F41091BA0F1E80716
:105BC000049101E000209DE00C2D2BD005EB850019
:105BD00007EB80026FF07F435068011BB1F5800F27
:105BE00010D3A4EB000CBCF5800F0BD38B4203D277
:105BF00004990844411C05E063450DD2181A20445D
:105C0000401C414200290DDA2D48AB46957C90F8A6
:105C100027000028D8D069E0AFF2D87140F219709F
:105C200018F017FE5D4523D00BEB8B0007EB8003CC
:105C30006FF07F429968081BB0F5800F10D3A4EB7A
:105C4000010CBCF5800F0BD3824203D204980844A8
:105C5000401C05E0624537D2521A1019401C4042E0
:105C6000002805DD9DF80A009A7B904228BF0C466B
:105C70000C2D1CBF9DF80A10114A2ED005EB850093
:105C800007EB800043681B1B23F07F43434524D26E
:105C9000837B994228BF8468857C92F8270028BBC3
:105CA00019E0000024100020FF7F841E0020A107BF
:105CB00000E05EF80080841E00807BE104ED00E0DF
:105CC0000C110020FFFF3F00AFF6880140F2197071
:105CD00018F0BFFDCCE70C2DD0D10098A04205D024
:105CE00004EB080020F07F40009401900099039895
:105CF000814206D001EB090020F07F40FDF7EBFC6C
:105D0000B0600120FE4991F82710002904BF05B0BA
:105D1000BDE8F08FBAF1000F3FF406AF05B0BDE863
:105D2000F08F2DE9F04F814687B00C46F5480DF015
:105D30002AFBF5494FF0000801EB0905012780B166
:105D4000A1F5887898F8140028B1AFF62C1140F22C
:105D5000175018F07EFD2078012800F0B38100F084
:105D6000BDB9EA4E96F8CD01162810D096F8CD01AF
:105D700096F8CC11401C884205D1AFF65C1140F278
:105D8000F54018F066FD2078012805D00FE096F860
:105D9000CC010028F7D1F0E715F8010C28B1AFF6D7
:105DA000801140F2FA4018F054FD05F8017CD74804
:105DB00090F8CD1101EB810100EB810080F810908B
:105DC000207802283FD0D14890F8CD1101EB810115
:105DD00000EB8105207928726079687205F10C0268
:105DE0002946A068FDF784FC95F90C000F2804DD16
:105DF0001F3828732868401C286095F90C00E1685A
:105E00002E1D0844C01C1F28B8BF376009DB6A4636
:105E10003146FDF76DFC9DF8000010B13068401C64
:105E200030602078A872B94991F8CD0116280EBFCC
:105E3000002091F8CD01401C81F8CD01B1480DF052
:105E4000B8FA00F092B9B2480068C005C00D14D08D
:105E5000103840B20028B8BF00F00F0000F1E02079
:105E6000ACBF90F8000490F8140D400905D1AFF6CE
:105E7000502140F2065018F0ECFCA44890F8CD11E7
:105E800001AA01EB810100EB8106E068CDF80080FA
:105E90008DF804806946FDF72BFC9DF904000F285E
:105EA000CCBF012000200099351D0844019002203C
:105EB000B0722079307260797072A068C01C1F289F
:105EC000B8BF2F6009DB6A462946FDF711FC9DF833
:105ED000000010B12868401C2860307A062810D2D3
:105EE000DFE800F0030D0B090705002010E0B420E7
:105EF0000EE073200CE032200AE00A2008E00620C1
:105F000006E0AFF6C02140F2DF1018F0A2FC00203E
:105F1000217900290CBF04210221084402907168F4
:105F2000801D08440199009001440298081A0590C8
:105F3000734C002084F82700FDF748FB8046306052
:105F40000198404420F07F40F06094F829000C282C
:105F50007DD0204690F8291001EB8102A0F1E801E4
:105F600001EB82025468009A2746224422F07F42C5
:105F7000039296F809B090F82950121B22F07F4A3C
:105F80006FF07F42121BA94604920C2D2CD0614861
:105F900005EB850100EB81036FF07F425868011B20
:105FA000B1F5800F24BFA4EB000CBCF5800F0BD320
:105FB0008A4203D204990844411C05E062450DD28F
:105FC000111A0819401C414200290DDA4C48A94613
:105FD0009D7C90F827000028D7D057E0AFF69C3181
:105FE00040F2197018F035FC4D4523D0494809EBB3
:105FF000890100EB81016FF07F438868021B8146B5
:10600000B2F5800F24BFA4EB000CBCF5800F0BD3BE
:10601000934203D2049A1044421C05E0634524D203
:106020001A1A1019401C4242002A03DD887B83455E
:1060300028BF4C460C2D1CBF314BA3F1E8011DD0ED
:1060400005EB850001EB80025068001B00E031E0A9
:1060500020F07F40504511D2907B834528BF946843
:10606000957C93F8270088B906E0AFF6284140F206
:10607000197018F0EEFBDDE70C2DE1D1A74205D039
:1060800004EB0A0020F07F4027460390039AA7EB19
:10609000080121F07F41A2EB0802059822F07F421F
:1060A000B1F5800F06D2904204D30298384420F014
:1060B0007F403060124890F8270000287FF438AF06
:1060C000B1E600BF15F8010C28B1AFF6AC4140F2C3
:1060D0001E5018F0BEFB05F8017C00BF88F8109038
:1060E0002078022805D1AFF6C84140F2245018F0BC
:1060F000B0FB094E20793072607970720EE00000BA
:106100000C1100203811002000110020200E00206A
:1061100004ED00E024100020F00F002006F10C0236
:106120003146A068FDF7E4FA96F90C000F2804DD6B
:106130001F3830733068401C306096F90C00E168FD
:10614000351D0844C01C1F28B8BF2F6009DB6A46F4
:106150002946FDF7CDFA9DF8000010B12868401CD3
:1061600028602078B07288F81470F94D95F8CD0148
:1061700095F8CC11884204BF07B0BDE8F08FF54810
:1061800090F829400C2C30D0FDF720FAF24904EBAE
:10619000840201EB82010A7C042A19BF0A7C032ACB
:1061A00007B0BDE8F08FED4B4A688968121A081AEB
:1061B00022F07F4220F07F40062A3CBF07B0BDE8B6
:1061C000F08FB2F5800F24BF07B0BDE8F08F834297
:1061D0003CBF07B0BDE8F08F95F8CD0195F8CC1124
:1061E00088420BD107B0BDE8F08F95F8CD0195F846
:1061F000CC11884204BF07B0BDE8F08F07B0BDE8FE
:10620000F04FFDF742BA0020FDF720B90120FDF75D
:106210001DB9D348007870472DE9F04105460228A2
:1062200029D0CC4C94F829000C2805D1AFF6106188
:1062300040F25A5018F00DFB002784F82670012612
:1062400084F82B6094F829100320DFF80C8301EB0D
:10625000810108EB81010874FDF71EFA8DB1012D53
:1062600034D0032D7ED0AFF64861BDE8F04140F256
:10627000AD5018F0EEBABA480078BDE8F041FDF72D
:10628000DABA207F28B1AFF6686140F2665018F0A4
:10629000E0FA84F8256000202760FDF7EAF8A1689D
:1062A000B1F1FF3F04D0012300221846FDF725F984
:1062B00094F8290094F82910401CC0B201EB810128
:1062C00058F82120BDE8F041012110470120FDF7D9
:1062D000D0F894F8250000281CBFA068B0F1FF3F5B
:1062E0000DD094F8290094F82910401CC0B201EB9D
:1062F000810158F82120BDE8F04106211047207F98
:1063000001280DD0022817D003282CD004283FD014
:10631000AFF6F461BDE8F04140F2A15018F099BA2F
:1063200094F8240028B184F82470FDF7BCF984F8AF
:1063300023602777BDE8F08194F8280018B9FDF7AD
:10634000D7FA84F8286094F8290094F82910401CA2
:10635000C0B201EB810158F8212000219047277736
:10636000BDE8F08133E0217B60680123411A0022FF
:106370001846FDF7C2F894F8240028B184F8247078
:10638000FDF791F984F8236002202077BDE8F081C1
:1063900094F8201060680123411A00221846FDF786
:1063A000ACF894F8280018B9FDF7A2FA84F8286030
:1063B00094F8290094F82910401CC0B201EB810127
:1063C00058F82120002190472677BDE8F08194F805
:1063D000290094F82910401CC0B201EB810158F843
:1063E0002120BDE8F0410521104710B5594C94F823
:1063F00029000C2805D1AFF6D87140F2B45018F03E
:1064000028FA94F8290094F82910401CC0B2524A86
:1064100001EB810152F82120BDE810400421104712
:106420002DE9F05F4FF00C0BFDF7D0F8494C814699
:1064300094F829000026A4F1E8084FF0010A0C287E
:106440002CD094F82910204601EB810108EB810142
:10645000097C042922D090F8291001EB810108EB76
:106460008101097C032908BFBDE8F09F3B492269EF
:106470006069A2EB090222F07F42A0EB090020F044
:106480007F40062A38BFBDE8F09FB2F5800F28BFD5
:10649000BDE8F09F814238BFBDE8F09FA068B0F131
:1064A000FF3F04D02FA14FF4BE6018F0D2F984F85A
:1064B000256094F829002E4F0C2806D194F821006D
:1064C00018B1F8787870B8783870224890F82900B8
:1064D0000C281ED01F4890F8291001EB810108EB11
:1064E0008101097C042914D190F829B090F8291071
:1064F00001EB810108EB810181F810A090F82910CF
:1065000001EB810108EB8101897C80F8291080F87A
:106510002AA00F4C94F8CD0194F8CC1104F2DF2599
:10652000884261D094F8CC0100EB800004EB80003D
:10653000007C405D012894F8CC0100EB800004EB66
:10654000800017D0007C405D022858D02BE000006E
:10655000200E00200C11002024100020FFFF3F001F
:10656000480000207372635C72656D2E630000004A
:106570004A000020807A01280DD094F8CC11022026
:1065800001EB810104EB8101097C485594F8CC01B1
:10659000162820D01BE094F8CC0100EB800004EB1F
:1065A0008000007C465594F8CC0100EB800004EBA1
:1065B000800294F8CC0100EB800004EB8000017CA9
:1065C0004846FEF7F0FE94F8CC01162803D094F864
:1065D000CC01401C00E0002084F8CC0194F8CD01EF
:1065E00094F8CC1188429DD1FE4C207DD0B3207C04
:1065F000415D01291AD0405D02281FD02AE094F89D
:10660000CC0100EB800004EB8000807A012805D0EB
:10661000AFF2B00140F2126018F01BF994F8CC010F
:1066200000EB800004EB80008672B4E7A17A0129B8
:106630001DBF02214155267546550BE0A07A012861
:1066400005D0AFF2E00140F22E6018F002F9A67218
:10665000207C4655207D28B1217CE24A4846FEF741
:10666000A2FE2675BBF10C0F06D00BEB8B0008EBDE
:106670008000017C01292FD0DB4C94F829000C28E4
:1066800000F0148194F82A00002800F01E8184F89C
:106690002A6094F8290000EB800008EB8003A4F541
:1066A0003B70D3E90112DB68C0F80433C0E9BF12C4
:1066B000607E00280CBF0425022594F82900C346FB
:1066C00000EB800108EB8100407B062830D2DFE838
:1066D00000F0232D2B29272507210174C34C207E90
:1066E000162815D0207EE17D401C884205D1AFF2EE
:1066F0008C114FF4C86018F0ACF8207E04F800B09C
:10670000207E16280EBF0020207E401C2076B3E796
:10671000E07D0028F1D1EAE700200FE0B4200DE091
:1067200073200BE0322009E00A2007E0062005E094
:10673000AF4940F2DF1018F08CF800202073617E22
:10674000022918BF012911D121690144A1EB0902D5
:1067500022F07F42382A09D903206076A1F1320065
:1067600020F07F4020613220207309E0322807D2D8
:1067700094F8280058B9FDF7BBF884F828A006E083
:1067800094F8280018B1FDF7DCF884F828607978CF
:1067900084F8201038780622012818BF032806D173
:1067A00084F824A0207B814284BF081A821D94F8BB
:1067B0002230002B18BF921C94F82400002808BF38
:1067C000002B6FD0D4F810806069A8EB0908DFF8BF
:1067D00024C228F07F48A0EB090020F07F4042450A
:1067E00098BFB8F5800F45D2844543D3207B8842BB
:1067F00015D22369A1EB0002A3EB020222F07F4233
:106800001144294421F07F412261616000280CBFBE
:1068100001200320207710F0FF0F3AD118E00AD9A9
:10682000226900291044284420F07F4060600CBF9A
:1068300002200420EEE72BB9AFF2D82140F292609B
:1068400018F007F82069284420F07F406060267720
:106850000120FCF70EFE00BF94F82900012300EB95
:1068600080010BEB8100616890F90C200020FCF79F
:1068700044FE2AE084F8246084F82260207B00280B
:10688000E0D021690844284420F07F406060022065
:10689000207720690123411900221846FCF72DFEBC
:1068A000DAE7FFE7207B0028EBD1CBE70120FCF7FC
:1068B000E0FD0020FCF7DDFDFCF7BEFD94F82800AC
:1068C00018B1FDF73EF884F8286094F8220028B14A
:1068D000FCF7E9FE84F8236084F8226094F8210034
:1068E00018B1F8787870B878387094F8240030B11E
:1068F00084F823603878002808BF84F824603B4877
:10690000017EC07D814203D03B484078FCF793FF75
:1069100084F827A0BDE8F09F70B5334C054682B0DF
:1069200094F829000C2805D1AFF2C83140F2F56087
:1069300017F08FFF94F82900304E00EB800006EB33
:106940008000007C032805D0AFF2E83140F2F66009
:1069500017F07FFFA068B0F1FF3F05D0AFF2FC3128
:1069600040F2F76017F075FF94F82900002100EB62
:10697000800006EB800001AA90F90C0000918DF8D0
:10698000041028446946FCF7B3FE9DF904000F2863
:10699000CCBF01200020009908446168084420F021
:1069A0007F41A16094F82500002804BF02B070BDAB
:1069B000012302B00022BDE870401846FCF79DBDDF
:1069C0000F4A0B1A02F1010CB3EB9C0F3CBF1846A7
:1069D000704710B5441AB4EB9C0F3CBF184610BD6D
:1069E0009A420FE0F00F00200C1100200810002048
:1069F00044540000FFFF3F00480000202410002006
:106A0000FF7F841E03D2101A0844401C10BDA2420E
:106A100004D2511A0844401C404210BD874940F23C
:106A2000197017F016FF002010BD01230022014647
:106A30000220FCF762BD0220FCF71BBDFCF7C6BDBF
:106A4000F0B57F4C054683B094F82B0028B9AFF21F
:106A5000EC414FF4E76017F0FCFE642D50D3794908
:106A60000020491B80414BD3774890F8CD1190F816
:106A7000CC01814244D17548007D002840D194F872
:106A80002900734F00EB800007EB8006206801AA05
:106A900028446946FCF72CFE9DF90400002802DD1D
:106AA0000098401C0090B268009973685018C01A92
:106AB00020F07F40B0F5800F22D2B07C0C2809D0A6
:106AC00000EB800007EB80004068801A20F07F40D8
:106AD000884215D3A068B0F1FF3F05D00120FCF734
:106AE000C8FC4FF0FF30A060206828442060B068E8
:106AF0000099084420F07F40606103B00120F0BDA0
:106B000003B00020F0BD2DE9F0410646401EC5B29D
:106B10004F4805EB850100EB8104207C28B9AFF2DA
:106B2000BC5140F2747017F094FE474A92F8CC11B1
:106B300092F8CD0181420DD001EB810302EB83037A
:106B40001B7CB3420DD016290CBF0021491CC9B2D1
:106B50008142F1D13D48017D002961D0007CB042E5
:106B60005ED10020BDE8F081217C05291FBF217C7A
:106B70000629217C07292BD12774C27D0023017EA1
:106B8000914218BF014623D011F80280A84508BFE2
:106B9000012300D04BB1162A0CBF4FF0000802F1C0
:106BA000010811F8088001F80280162A0CBF0022A3
:106BB000521CD2B291F818809045E5D143B10A7EBB
:106BC000002A08BF81F818C002D00A7E521E0A7639
:106BD000617C21B36674C27D0021037E934224D080
:106BE000835CAB4208BF012100D029B1162A0CBF3B
:106BF0000023531CC35C8354162A0CBF0022521C72
:106C0000D2B2037E9342EBD149B1027E0146002A03
:106C100008BF81F818C008D00A7E521E0A7604E028
:106C200001270C4800264FF0160C217C012904BFD7
:106C3000617C002998D10120BDE8F0814454000016
:106C40000C110020FF1FA107200E0020F00F0020D4
:106C50002410002008100020CE4911F8210F497897
:106C6000884201D3401A02E0C1F121010844C0B2B8
:106C70007047C849233111F8210F4978884201D360
:106C8000401A02E0C1F121010844C0B27047C14975
:106C9000463111F8210F4978884201D3401A02E0A9
:106CA000C1F121010844C0B27047BB4910B5402072
:106CB00081F80004B7490020233101F8210F487002
:106CC000B44901F8210F4870B249463101F8210F4B
:106CD0004870B2480CF04FFBB048401C0CF04BFB26
:106CE000FCF7C0FFBDE8104000F048B92020704715
:106CF000B2E770B50C4605460026FFF7ADFF01462A
:106D0000A448A14212D30022641EE4B20DD390F82D
:106D10002210435C491CC9B205F8013B80F82210DF
:106D20002129F1D180F82220EEE7012600F026F992
:106D3000304670BD202070479BE770B50C46054675
:106D40000026FFF796FF014692482330A14212D356
:106D50000022641EE4B20DD390F82210435C491C5B
:106D6000C9B205F8013B80F822102129F1D180F841
:106D70002220EEE7012600F001F9304670BD202107
:106D800001700020704710B50446FFF780FF2070A7
:106D9000002010BD70B50C460546FFF778FF014690
:106DA0007C484630A14213D30022641EE4B20DD3C6
:106DB00090F82210435C491CC9B205F8013B80F8E9
:106DC00022102129F1D180F82220EEE7002401E0F1
:106DD00042F2070400F0D2F8204670BD70B50C46B0
:106DE0000546212904D96EA14FF4A37017F031FD97
:106DF0006F480068103840B200F0A7F8C6B20D2006
:106E000000F0A3F8C0B2864208D265A14FF4A67084
:106E100017F01FFD02E000BFFCF772FF2146284675
:106E2000FFF767FF0028F7D070BD2DE9F047DFF8C6
:106E30006C81584CA8F101080746233498F80000EB
:106E4000DFF85091002604F1230A38B994F8221093
:106E500094F82100212200F087F890B14D4699F86E
:106E6000221099F82100212200F07EF8B8B1554691
:106E70009AF822109AF82100212200F075F848B300
:106E800035E094F82100275494F82100401CC0B24A
:106E900084F8210021282AD184F8216027E095F880
:106EA00021002F5495F82100401CC0B285F8210024
:106EB000212801D185F8216098F800004746B0B13B
:106EC00095F8221095F82100212200F04DF870B1BC
:106ED0003E700CE095F821002F5495F82100401CDD
:106EE000C0B285F82100212801D185F8216094F8ED
:106EF000221094F82100212200F036F8002822D038
:106F000099F8221099F82100212200F02DF800288C
:106F100019D09AF822109AF82100212200F024F8C2
:106F2000002810D0FCF7C7FE1C480CF02CFAB0F576
:106F3000005F03D01FA1C12017F08BFCBDE8F04714
:106F400016480CF036BABDE8F087002806DA00F0E3
:106F50000F0000F1E02090F8140D03E000F1E020B4
:106F600090F8000440097047401C884204D09042C9
:106F700000D109B1002070470120704710B50748C3
:106F80000CF001FA002803D1BDE81040FCF77EBEEA
:106F900010BD00003C1100200DE000E04F0000207B
:106FA0007372635C736F635F72616E642E63000063
:106FB00004ED00E07372635C736F635F72616E6413
:106FC0002E6300002DE9F047F94C0646FF2160686A
:106FD00000EB061211702178FF2916D04FF0080936
:106FE00009EB011109EB06174158C059491E21F060
:106FF0007F4100F001FA18B194F80080454614E092
:107000006168207801EB061108702670BDE8F087F2
:10701000626809EB0510D159105800F0EDF930B94C
:107020006068A84600EB08100578FF2DF0D1606875
:1070300000EB061100EB08100D700670E6E7F0B5E6
:10704000DB4B0446002001255A680C261B7A0BE016
:1070500005EB0017D75DA74204D106EB0017D759FF
:107060008F4204D0401CC0B28342F1D8FF20F0BD53
:107070002DE9F041CE4C2578FFF7E0FC0146FF2DCD
:107080006FD04FF00808626808EB0516905900F0C1
:10709000B3F90228606801D980595EE000EB051160
:1070A00009782170022101EB0511425C5AB1521E90
:1070B0004254815901F5000121F07F418151284658
:1070C000FFF780FF34E00423012203EB051302EBFA
:1070D000051250F803C0875CBCF1000F10D0BCF55E
:1070E000806F10D9CCF3090250F806C00CEB423C7B
:1070F0002CF07F4C40F806C0C3589A1A920A09E057
:10710000FF2181540AE0825902EB4C3222F07F4287
:107110008251002242542846FFF754FF0C21606838
:1071200001EB05114158E06850F827203846904798
:107130002078FF2815D0FFF781FC0146227860688F
:1071400008EB02124546805800F056F9012891D903
:107150002178606805EB01114058BDE8F041FFF768
:1071600064BCBDE8F0812DE9F0411C4615460E4691
:107170000746FF2B03D38FA1D32017F06AFB8C485F
:10718000FF210022C76045600472067401704270DE
:107190001046012205E000BF02EB0013401CE95439
:1071A000C0B2A042F8D3DCE770B5814C06466578E2
:1071B000207C854203D37FA1E62017F04AFBE068DC
:1071C00040F825606078401C6070284670BD2DE94D
:1071D000FF5F1D468B460746FF24FFF72FFCDFF8B5
:1071E000D081064698F80100B84203D871A1F42076
:1071F00017F02FFB00214FF001094FF00C0A98F80F
:107200000820D8F804000EE009EB0113C35CFF2B43
:1072100027D0BB4205D10AEB011350F803C0DC456F
:1072200021D0491CC9B28A42EED8FF2C1BD009EBF1
:107230000411002247540AEB041140F801B0042164
:10724000029B01EB0411012B11D042504FF4806CD2
:1072500002234FF00809654519D9A905890D08D001
:1072600008E00C46DDE7FF2004B0BDE8F09F455084
:10727000ECE7614606EB413222F07F4609EB04124F
:10728000691A865003EB0412890A81540BE005B990
:10729000012506EB453121F07F4509EB04114550EE
:1072A00003EB0411425498F800502046FFF78AFE81
:1072B00098F80000A8421CD0FFF7C0FB014698F8E0
:1072C0000020D8F8040009EB02124C46805800F068
:1072D00093F8012809D998F80010D8F8040004EBB5
:1072E00001114058FFF7A1FB03E0FEF792FFFCF706
:1072F000A2FA3846B8E770B50C460546FFF79EFB84
:10730000064621462846FFF79AFE0446FF2817D076
:10731000274D082101EB041168684058314600F000
:107320006BF800F58050400B02216A6801EB0411F4
:10733000515C09B100EB8120002800D1012070BD13
:10734000002070BD2DE9F04788468146FFF777FEA3
:10735000FF2837D0164D2E7869683246344605E04E
:10736000844206D0264601EB06131C78FF2CF7D189
:1073700028E0FF2C26D0A6422DD101EB0210007888
:107380002870FF2825D0FFF759FB01462A780827E7
:10739000686807EB0212805800F02EF8012813D914
:1073A0002978686807EB01114058FFF73EFB12E0AF
:1073B000A81100207372635C736F635F74696D65FD
:1073C000722E6300002021E6FEF723FFFCF733FA5C
:1073D00001E0FFF730FB41464846FFF78CFFFF22F4
:1073E0000123696803EB0413CA5401EB041201EB97
:1073F000061112780A7009E6401A20F07F40B0F5B5
:10740000000F00D900207047F94B586019721A809C
:10741000C90017F0EEB90021018070474FF6FF72E6
:1074200002800320FFF78EBF70472DE9F04F0E4614
:10743000017804464FF0010A0AFA01F047F2FF1101
:1074400000EA01086168154697B00888A0F57F42F8
:10745000FF3A06D0B8F1000F07D047F2FE121042F3
:1074600003D0012017B0BDE8F08F40EA0800088083
:107470004FF00009A5B185F800902378002705207A
:1074800003220221DFF868B3102B75D2DFE803F086
:10749000740D131C2F4A515A31A5A175A9F1F0EFB3
:1074A00020780B28E9D00420DCE72970A089A5F812
:1074B000010032801DE104212970A189A5F8011085
:1074C000E189A5F8031082E006202870A089A5F8BC
:1074D0000100E089A5F80300208AA5F80500A28A2A
:1074E000E81DA16917F0ECF8A08AC01D6FE0082123
:1074F00029702178082901D110212970A189A5F8C6
:107500000110E189A5F8031030806A1D694604F175
:1075100010000BF000FE00287ED130889DF800108E
:10752000084454E00A202870A089A5F801003280A0
:10753000AAE00C212970A189A5F80110E189A5F81C
:107540000310B7E0A2890AEB420081B2308888427A
:1075500062D3052960D30E202870002008E023693B
:1075600005EB400C33F81030401CACF8013080B211
:107570009042F4D33180BCE0CAE09BF809005A463F
:10758000002873D0401E5072227BDBF80400236970
:1075900000EBC205AA882868D3F800C00244A2F113
:1075A000080042F808CC5A6842608DF800108DF847
:1075B000019028680290A888ADF804000021684670
:1075C00004F05AFCA5F80490002E01D04846308003
:1075D0008FE0287840F080012970287840F0400141
:1075E0002970287820F03F0012302870A189A5F872
:1075F0000110E289E81C216917F062F8E089C01CDB
:107600003080287841063FD5000672D58DF800A05D
:107610008DF80190308800E026E0001DADF80400F0
:107620000295E189E81C08440390001D04909BF832
:1076300008008DF814000021684604F01DFC074680
:1076400030880C303080022F01D007B363E09DF802
:107650001420DBF804109BF80830584601EBC201F7
:107660009A4201D28A882AB1042754E030E02BE004
:1076700022E00DE0427A521C8BF809200D60308820
:107680008880A6F8009046E06168A089888030E094
:10769000287820F03F0016302870A089A5F8010056
:1076A000E089A5F80300228A681D616917F008F8CF
:1076B000208A401D3080E7E7287820F03F0018300E
:1076C0002870207B687055E760680188090401D440
:1076D000052720E0C088A189884201D006271AE04A
:1076E0001E202870A6F800A06068018821F40041DF
:1076F0000180B8F1000F0ED0BBF80000002283001B
:107700000320A168FFF763FD61682078887007E0B7
:10771000A6F8009003276068018821EA080101802B
:1077200038469FE62DE9FF4F97B00C46249E70B176
:1077300017280CD83288A2F57F43FF3B07D0227868
:10774000530601D4120604D508201BB08BE607208F
:10775000FBE700238DF800308DF801302278A0F18E
:10776000010A02F03F0C821E611C1D46EB461FFA07
:107770008AF70DF10809BCF1200F6ED2DFE80CF09A
:1077800088106D626D6E6DA46DC66DF06DF56DED5A
:107790006DEC6DEB6D6D6DEA6DE96DE86DE76D8813
:1077A000052875D104208DF80000B0788DF804000C
:1077B0006088ADF8060020798DF80100607800F04F
:1077C0003F000C282CD00ADCA0F1020009285FD26F
:1077D000DFE800F0155E185E1D5E205E23001228B3
:1077E00027D007DC0E281ED01028DAD11EE00000BA
:1077F000DC11002016281FD01828D2D11FE03078C5
:10780000800701E030784007002841DA33E1307822
:107810000007F9E73078C006F6E730788006F3E72E
:1078200030784006F0E730780006EDE73088C00594
:10783000EAE73088C004E7E730888004E4E730886E
:107840004004E1E73178890722D50328A9D1052032
:107850008DF80000B4F80100CCE027E13178490749
:10786000F2D5062814D3617890B2012902D00229FA
:1078700097D101E0022100E01021884606218DF811
:107880000010ADF80430A11C5F4608F1020915E0B4
:1078900092E000BF31F8022B3A80A0F1020A8B4639
:1078A000BA1C40460BF018FCBDF80420AAEB0800F7
:1078B000521C0BEB080180B2ADF80420BF1D8145BE
:1078C000E8D9002878D1D6E03078000774D50720B1
:1078D0008DF800001FFA8AF1ADF80430601C0BF13E
:1078E00006020EE030F8023B22F8023B30F8023B81
:1078F00022F8023B091FBDF8043089B25B1CADF8C9
:1079000004300429EED2002956D1B4E03178C906FA
:1079100052D5022850D308208DF80000ADF806306B
:1079200091B263788DF80430A01C4A460CE00788B9
:1079300022F8047B871C80C2C91ABDF8067018445F
:107940007F1C89B2ADF806708B42F0D9DBE772E09C
:1079500077E067E051E044E01DE012E005E0FFE77A
:107960003078800628D5092003E03078400623D5FA
:107970000A208DF80000B088ADF80400ADF806705C
:1079800007E03078000617D50B208DF80000ADF821
:10799000047002916FE03188C9050DD502280BD320
:1079A0000C208DF80000ADF80630637892B28DF8A7
:1079B0000430A01C494610E04FE0078821F8027B04
:1079C000478821F8027B071D80C1D21ABDF80670D6
:1079D00018447F1C92B2ADF806709342EDD9E2BB19
:1079E00049E03188C9045FD501285DD10D208DF8AB
:1079F0000000B088ADF804003DE03188890453D51B
:107A0000052851D30E218DF80010B188ADF804106F
:107A1000B4F80310401FADF80800601DADF8061063
:107A2000039028E0318849043ED501283CD10F203D
:107A30008DF800001FE03188090435D4B4F8011036
:107A4000F180032830D3217801F03F011B2927D092
:107A500011218DF80010318800E025E041F400414B
:107A6000A6F80010B4F80110ADF80410C01EADF86F
:107A70000600E01C0290207800F03F001B2809D08F
:107A80001D2807D003201A99FFF75CFC308800F40A
:107A9000004030806846199904F0EEF9284654E613
:107AA00010218DF80010DDE70725F7E70825F5E739
:107AB00000B597B0032806D18DF800000191002190
:107AC000684604F0D9F917B000BD000010B58B78F6
:107AD0007BB182789A4205D10B8853B102E08B7951
:107AE000091D43B18B789A42F9D103880C88A342CF
:107AF000F5D1002010BD812010BD052824D012B181
:107B0000012A0ED103E00988C1F3812102E009882E
:107B1000C1F3013139B1012916D0022908D0032956
:107B20000CD0812070470AB10320704702207047B3
:107B3000032809D0042807D020B107E0042803D087
:107B4000022803D005207047002070470F2070479F
:107B500010B513880B809BB21C061FD5FE4CA47A6F
:107B6000844204D843F010000880002010BD9468BF
:107B70002478C44064F304130B801378917803F0E5
:107B8000030341EA032140F20123B1FBF3F403FBB9
:107B90001411926800FB0120401C10BD906810BDBC
:107BA00037B5BDF804101180BDF8045029061BD567
:107BB000E94901239468897A814209D8FE280FD1C6
:107BC000E80602D58B405B1E00E00023237007E02F
:107BD000217883409943C5F30013834019432170F2
:107BE000108820F0100010803EBD2DE9F0410746BE
:107BF000C81C0E4620F00300B04202D08620BDE82B
:107C0000F081082A01D90E20F9E7D34D002034462F
:107C10002E60AF802881AA72E8801AE0E988491CAA
:107C2000E980810614D4A17800F0030041EA002025
:107C300040F20121B0FBF1F201FB1201206800F0DB
:107C4000D3FA2989084480B22881381A3044A060C8
:107C50000C3420884107E1D40020D0E72DE9FF4F04
:107C600085B01546DDE912B68046994623F44047B3
:107C700000F0AAFA04000BD0207800060AD5B64816
:107C8000817A0698814205D8872009B0BDE8F08F37
:107C90000120FAE7224669460698FFF759FF824617
:107CA00000208DF80400052E18D001222146304610
:107CB000FFF723FF0028E8D1207840060ED50220E8
:107CC0008DF80400ADF80880BDF80000ADF80C5048
:107CD000ADF80A00ADF80E70CDF810B05FEA0940BB
:107CE00004D500273D46B84601260CE02178A0784F
:107CF00001F0030140EA012040F20121B0FBF1F262
:107D0000804601FB12865FEA494009D5B04507D19C
:107D10002188E078C1F3012140EA0120A84201D383
:107D2000B54201D90720B0E778191FFA80F9B145AB
:107D300001D90D20A9E79DF8040020B101A804F0A5
:107D400057FF0028A1D1B04507D120884FEA19215B
:107D500061F30920208084F80390149800B1078013
:107D6000BBF1000F15D00AEB05003A46594616F054
:107D7000A7FC224669460698FFF7EAFEBDF8000018
:107D8000224620F01000ADF8000000990698FFF799
:107D900007FF002079E72DE9FF4FDFF8BC9182460D
:107DA0001746B9F80610D9F8000001EB410100EBC5
:107DB000810440F20120B2FBF0F183B000FB1176A8
:107DC0004D46DDF844803146049800F00DFA2968EC
:107DD0002A898B46611A0C3101441144AB8889B25F
:107DE0008B4202D8842007B050E704998DB229064F
:107DF00003D5A90601D58520F5E7B9F806C00CF131
:107E0000010C1FFA8CFCA9F806C0129909B1A1F85F
:107E100000C0A90602D5C4F8088007E0104480B26B
:107E2000A9F80800191A01EB0B00A0602246FE20F9
:107E30000499FFF7B5FEA770E6702088390A61F350
:107E40000100310A61F3092040F0040020809AF813
:107E50000200A071BAF80000A08000262673280650
:107E600002D599F80A7000E00127A80601D54FF065
:107E700000084D4600244FF005090DE0CDF80080C4
:107E8000CDE90196E8882146109B069AFFF7E6FEA9
:107E90000028A8D1641CE4B2BC42EFD30020A2E7C2
:107EA0002DE9F047804600F08FF9070005D0002645
:107EB0004446294D40F2012916E00120BDE8F08733
:107EC000204600F081F90278817802F0030241EA4D
:107ED0000222B2FBF9F309FB1321006800F084F9D8
:107EE0003044641C86B2A4B2E988601E8142E7DC9B
:107EF000A8F10100E8802889801B288100203870C3
:107F0000DCE720B1401E10809170002070470120F6
:107F1000704710B5104904460088CA88904201D3C2
:107F2000822010BD096800EB400001EB80029079CF
:107F3000A072908820811188D078C1F3012140EA95
:107F40000120A081A078211DFFF702FE206120887A
:107F5000401C2080E08001E0E8110020002010BDDE
:107F60000121018270472DE9FC474FF6FF78054655
:107F7000A2F80080406817468A4680788DF8020093
:107F800068680088ADF8000000208DF80600288A97
:107F90002C88A04200D304462C822DE0288A401C65
:107FA0002882301D6968FFF791FD18BB398841456B
:107FB00001D1601E38806888A04222D33188F078D1
:107FC000C1F3012140EA01296946301DFFF77EFD1A
:107FD00080B96989414519D0002231465046FFF7E2
:107FE0008CFD38B96A894A4504D1E968B06816F051
:107FF0003BFB58B1641CA4B2204600F0E5F8060033
:10800000CCD1641E2C828220BDE8FC877C80B079B4
:10801000B871B088B8803178B07801F0030140EAD7
:1080200001207881A7F80C90287A324607F10801E0
:10803000FFF78EFD38610020E6E72DE9F04F85B0AF
:108040001C4690460F468346DDF838A0DDF8409088
:1080500000F0BAF8050009D02878000608D56A486B
:10806000807AB84204D8872005B00FE60120FBE7EC
:10807000C8F309062A4669463846FFF769FD0746F0
:108080005046BAF1050F1AD000222946FFF735FDF8
:108090000028E9D12878400611D501208DF8040088
:1080A000ADF808B0BDF80000ADF80A00ADF80C60FE
:1080B000ADF80E4001A804F09BFD0028D4D128881B
:1080C000A97800F0030241EA0221EA78C0F3012016
:1080D00042EA0020464507D0B1F5007F04D9611E71
:1080E000814201DD0B20BFE7864201D90720BBE7B3
:1080F000801B82B2A24200D92246B9F1000F01D002
:10810000A9F800200F9810B1B91916F0D9FA00207B
:10811000AAE72DE9F0411D4617460E4600F054F837
:10812000040008D02078000607D53748807AB0428E
:1081300003D8872063E5012061E5224639463046B1
:10814000FFF706FD65B12178A07801F0030140EA50
:108150000120B0F5007F01D8012000E00020287048
:1081600000204CE52DE9F0411D4617460E4600F073
:108170002BF8040008D02078000607D52248807A22
:10818000B04203D887203AE5012038E52246394637
:108190003046FFF705FDFF2D14D02188A07801F0AF
:1081A000030240EA022040F20122B0FBF2F302FB9C
:1081B000130015B900F2012080B2A070000A60F32C
:1081C0000101218000201AE50F49CA88824209D3A3
:1081D00040B1096800EB40006FF00B0202EB800039
:1081E000084470470020704780B2820609D4000618
:1081F00005D50548807A4843401C80B27047084640
:108200007047002070470000E811002070B5F74D5E
:10821000040008D0012C10D0022C07D0032C05D06C
