:020000021000EC
:10F0000000000120351805005D1805005F18050097
:10F010006118050063180500651805000000000070
:10F02000000000000000000000000000671805005C
:10F0300069180500000000006B1805006D18050038
:10F04000DD4902006F1805002D53020055460200ED
:10F050006F1805006F180500D9360200C94A020072
:10F060006F1805006F1805006F1805006F18050070
:10F070006F1805006F1805006F1805006F18050060
:10F080006F180500916302006F1805006F180500E6
:10F09000CD6302006F1805002D8802006F1805006F
:10F0A0006F1805006F1805006F1805006F18050030
:10F0B000A5470200514802000000000000000000C7
:10F0C0006F1805006F1805006F1805006F18050010
:10F0D0006F1805006F1805006F180500000000008C
:10F0E0000000000000000000000000000000000020
:10F0F0000000000000000000000000000000000010
:10F1000000000000000000000000000000000000FF
:10F1100000000000000000000000000000000000EF
:10F40000044B05481B1A062B02D9044B03B11847BD
:10F41000704700BFFB280020F828002000000000F3
:10F4200005490648091A891001EBD171491002D02B
:10F43000034B03B118477047F8280020F828002034
:10F440000000000010B5064C237843B9FFF7D8FF41
:10F45000044B13B10448AFF300800123237010BDA7
:10F460000829002000000000D88C050008B5084BD2
:10F470001BB108480849AFF300800848036813B976
:10F48000BDE80840CCE7064B002BF9D09847F7E7DA
:10F4900000000000D88C05000C290020F428002072
:10F4A00000000000134B002B08BF114B9D46A3F535
:10F4B000803A00218B460F461148124A121A00F07A
:10F4C00079F80D4B002B00D098470C4B002B00D047
:10F4D00098470020002104000D000B4800F016F8AA
:10F4E00000F042F82000290000F01EFF00F014F8A0
:10F4F00000000800000001200000000000000000E3
:10F500000829002060E5002041F5010001460020A7
:10F510000246034600F056B808B5074B044613B13F
:10F52000002100F0ABF8054B1868836A03B19847D7
:10F53000204600F00DF900BF7DF60100203C0500DB
:10F5400038B5074B074CE41AA4101D4624B1013C02
:10F5500055F824309847F9E7BDE8384034F058BBF7
:10F56000F0280020F428002070B50E4B0E4CE41A51
:10F57000A41000251E46A54204D056F82530984711
:10F580000135F8E734F03EFB084C094BE41AA410AF
:10F5900000251E46A54204D056F82530984701356F
:10F5A000F8E770BDEC280020EC280020F0280020AF
:10F5B000EC28002002440346934202D003F8011BCA
:10F5C000FAE770472DE9F843294D2C6806460F46A7
:10F5D000914698460CB9274C2C6063681F2B14DDAC
:10F5E000254B1BB94FF0FF30BDE8F8838C20AFF3FB
:10F5F000008004460028F5D000232A68026043609A
:10F600002860C0F888303EB928E03EB3D4F88800BE
:10F6100078B9194B002BE5D04FF48470AFF300801C
:10F620000028DFD00023C0F80031C0F80431C4F84E
:10F630008800626840F822900123934000EB820129
:10F64000D0F800211A43022EC0F80021C1F88080B2
:10F6500002BFD0F804211343C0F8043163685A1C78
:10F6600002336260002044F82370BDE8F88300BFD5
:10F67000B029002024290020000000002DE9F74FC8
:10F6800080460F46304E3468002C59D06568D4F857
:10F69000889005F1FF3AAD0009EB050B04352544D0
:10F6A000BAF1000F38DB37B1B9F1000F2ED0DBF81B
:10F6B0007C20BA422AD161682A6801398A4516BF7E
:10F6C0000021C4F804A0296002B363680193B9F172
:10F6D000000F06D00121D9F8000101FA0AF1014218
:10F6E00001D190470BE0D9F80401014204D1404612
:10F6F0005BF8041C904702E05BF8040C90476268DA
:10F70000019B9342BED13268A242BBD10AF1FF3ABB
:10F71000ABF1040B043DC3E70C4B8BB1626823686B
:10F720005AB953B13360B9F1000F02D04846AFF374
:10F7300000802046AFF30080A5E726461C46A3E7DD
:10F7400003B0BDE8F08F00BFB0290020000000002A
:10F75000FEE700BFBFF34F8F0549054BDB6803F49D
:10F76000E062044B1343CB60BFF34F8F00BFFDE754
:10F7700000ED00E00400FA0582B001900846114651
:10F780001A4603468DF803300B468DF802301346B7
:10F790008DF801304FF0A0419DF803209DF8023014
:10F7A0005B001A439DF801309B001A439DF8083016
:10F7B0001B021A439DF80C301B041A43019B03F5EE
:10F7C000E07341F8232002B0704700BF00B585B058
:10F7D0000390002300930023019303980121012249
:10F7E0000023FFF7C9FF05B05DF804FB82B001906C
:10F7F0004FF0A042019B012101FA03F3C2F8083542
:10F8000002B0704782B001904FF0A042019B0121ED
:10F8100001FA03F3C2F80C3502B0704784B00190CE
:10F82000234B0393019B002B40D0224B1A68039972
:10F83000019B00BF00BF00BF00BF00BF00BF00BFF3
:10F8400000BF8A422FD000BF00BF00BF00BF00BF73
:10F8500000BF00BF00BF00BF00BF00BF00BF00BFB0
:10F8600000BF00BF00BF00BF00BF00BF00BF00BFA0
:10F8700000BF00BF00BF00BF00BF00BF00BF00BF90
:10F8800000BF00BF00BF00BF00BF00BF00BF00BF80
:10F8900000BF00BF00BF00BF00BF00BF00BF00BF70
:10F8A00000BF00BF00BF013BC3D1019304B070474C
:10F8B0000024F4009028002000B583B00190019B43
:10F8C0004FF47A7202FB03F31846FFF7A7FF03B069
:10F8D0005DF804FB08B50020054908F083FE16F02A
:10F8E0006FFE044B01221A70034B03221A7008BDED
:10F8F000843C0500FD290020FC29002008B50020DB
:10F90000054908F06FFE054B00221A70044B0222D5
:10F910001A70FFF71FFF08BDA43C0500FD29002059
:10F92000FC29002000B587B01E4B1B6818461E49F5
:10F930000BF09AF90590059B0493049B002B04D0CF
:10F940000498F021194A02F06BFB0AF0FDFA0590C9
:10F95000059B0393039B002B04D00398F321134AC8
:10F9600002F05EFB0BF00AFF10F0CAFC03460593A1
:10F97000059B0293029B002B04D00298FA210B4AAC
:10F9800002F04EFB09F068FA0590059B0193019B7C
:10F99000002B04D00198FD21044A02F041FB07B07E
:10F9A0005DF804FBF42900202CE00020C43C050095
:10F9B00000B583B00D4B1B6818460BF0E5F80190BD
:10F9C000019B0093009B002B05D0009840F205118D
:10F9D000074A02F025FB0020064908F003FE064B0B
:10F9E00001221A7003B05DF804FB00BFF429002067
:10F9F000C43C05000C3D0500FC29002000B583B087
:10FA00000190019B1B7A012B0AD0022B00D00EE043
:10FA10000020084908F0E6FD074B02221A7006E0B4
:10FA20000020064908F0DEFDFFF7C2FF00BF03B06B
:10FA30005DF804FB3C3D0500FC290020643D050009
:10FA400082B0019002B0704700B585B003460A4607
:10FA50008DF8073013468DF80630184B1B7883F06D
:10FA60000103DBB2002B00D024E09DF80630012B0F
:10FA700020D19DF807300B2B00D01BE0104B1B78DA
:10FA800083F00103DBB2002B13D00E4B18464FF46A
:10FA90000071002206F024FD0390039B0293029B59
:10FAA000002B06D002984FF4A571074A02F0B8FA6D
:10FAB000FFE700BF05B05DF804FB00BFFD29002093
:10FAC000FE290020D4290020C43C050000B585B0E3
:10FAD00001900AF0EFFD0390039B0293029B002B21
:10FAE00005D0029840F26311024A02F099FA05B07B
:10FAF0005DF804FBC43C050000B583B0019016F02E
:10FB00005FFD09F0EFFA03B05DF804FB00B58BB0C0
:10FB1000079006910592059B0993099B5A68099BDA
:10FB20001B881946099B9B68009201910293002053
:10FB30000749079A069B08F055FD6420FFF7BCFEB5
:10FB400007980699059A02F083FA0BB05DF804FB5A
:10FB50008C3D050000B583B003460091ADF806303A
:10FB6000BDF8063003481946009A02F059FA03B06E
:10FB70005DF804FBEFBEADDEF0B5D5B002460DF189
:10FB80000F031A7034AB602218460021FFF712FDF4
:10FB900001238DF8F33001238DF8F93001238DF81E
:10FBA000FF3001238DF8233101238DF82931012302
:10FBB0008DF82F3104AB964A1946C02308461146EA
:10FBC0001A4633F0D3FB0DF10F031B78002B06D040
:10FBD00004AB904AB4331068186092889A8001F0A0
:10FBE00041FC5290529B5193519B002B05D0519850
:10FBF00040F2AD11884A02F013FA00238DF84F311C
:10FC000092E09DF84F019DF84F2113465B0013448D
:10FC10005B0054AA1344803B1E789DF84F21134685
:10FC20005B0013445B0054AA1344803B5D789DF84D
:10FC30004F2113465B0013445B0054AA1344803BDE
:10FC40009C789DF84F2113465B0013445B0054AA37
:10FC50001344803BD9789DF84F2113465B00134431
:10FC60005B0054AA1344803B1B79009101933146F9
:10FC70002A46234601F0CAF95290529B5093509B5A
:10FC8000002B05D0509840F2B911634A02F0C8F930
:10FC90009DF84F2113465B0013445B0054AA1344A4
:10FCA000803B5B79012B16D0022B27D0002B34D15F
:10FCB0009DF84F31184601F0C5FC5290529B4F936E
:10FCC0004F9B002B06D04F9840F2BF11524A02F0D2
:10FCD000A7F924E023E09DF84F31184601F05CFCC1
:10FCE0005290529B4E934E9B002B06D04E984FF451
:10FCF000E271494A02F094F911E010E000235293B6
:10FD0000529B4D934D9B002B06D04D9840F2C9114C
:10FD1000414A02F085F902E001E0062352939DF882
:10FD20004F3101338DF84F319DF84F310F2B7FF656
:10FD300068AF00238DF84E3163E09DF84E719DF859
:10FD40004E2104A913465B0013445B000B441E784C
:10FD50009DF84E2104A913465B0013445B000B443D
:10FD60005D789DF84E2104A913465B0013445B00A7
:10FD70000B449C789DF84E2104A913465B00134464
:10FD80005B000B44D9789DF84E2104A813465B0014
:10FD900013445B0003441B790091019338463146BC
:10FDA0002A462346FFF7E8FC9DF84E2104A9134696
:10FDB0005B0013445B000B445B79012B09D0022BE1
:10FDC00019D0002B0BD19DF84E311846FFF71AFDC4
:10FDD00012E09DF84E311846FFF708FD0CE00623AF
:10FDE0004C934C9B002B07D04C984FF4F5710A4A6A
:10FDF00002F016F900E000BF9DF84E3101338DF896
:10FE00004E319DF84E311F2B97D955B0F0BD00BF34
:10FE1000E03D0500A03E0500C43C050000B585B0EE
:10FE20000F2000F06DFB0390039B0293029B002BBD
:10FE300005D002984FF41F710B4A02F0F1F80B4BFA
:10FE400000936B46184602F07FF80390039B0193E2
:10FE5000019B002B05D0019840F28721024A02F055
:10FE6000DFF805B05DF804FBC43C0500243C050048
:10FE700000B58BB01E20FFF7A9FC1E20FFF7B6FCD3
:10FE80004B20FFF719FD3E4B019301AB18460121B2
:10FE900001F02EFC0990099B0893089B002B05D0CC
:10FEA000089840F2C221374A02F0BAF80120FFF761
:10FEB00063FE072001F01CFB0990099B0793079B39
:10FEC000002B05D0079840F2C7212E4A02F0A8F86F
:10FED000052001F00DFB0990099B0693069B002B62
:10FEE00005D0069840F2C921264A02F099F806206A
:10FEF00001F0FEFA0990099B0593059B002B05D0A4
:10FF0000059840F2CB211F4A02F08AF8072001F041
:10FF100043FB0990099B0493049B002B05D0049894
:10FF200040F2CD21174A02F07BF8052001F034FBA6
:10FF30000990099B0393039B002B05D0039840F283
:10FF4000CF21104A02F06CF8062001F025FB099041
:10FF5000099B0293029B002B05D0029840F2D1210D
:10FF6000084A02F05DF81D20FFF730FC1D20FFF766
:10FF700049FC6420FFF7A0FC0BB05DF804FB00BF58
:10FF8000B03F0500C43C050000B585B0019000916C
:10FF9000009B1B78002B02D0012B16D03FE0009B6A
:10FFA000DB6900201F491A4608F01CFB009BDB6937
:10FFB000002B09D11C4B01221A701C4B01221A7014
:10FFC0001B4B04221A702AE029E00020194908F08E
:10FFD00009FB154B00221A70154B03221A70009B67
:10FFE000DB694CF64412934214D1134B18464FF47C
:10FFF0000071002206F074FA0390039B0293029BA7
:020000022000DC
:10000000002B06D002984FF440710C4A02F008F819
:1000100004E003E0054B00221A70FFE700BF05B0C3
:100020005DF804FBA83E0500FE290020FF29002002
:10003000FC290020D83E0500D4290020C43C05003E
:1000400000B58BB00190344B1B7883F00103DBB219
:10005000002B00D05CE0314B1B7883F00103DBB256
:10006000002B00D054E02E4800F034FF2C4B1B88AE
:100070001BB22C482C491A4633F09EF900238DF808
:1000800010302A4B0293294833F0C2F903460393F8
:10009000244B0593234833F0BBF903460693244BC6
:1000A0001B88ADF81C309DF81E306FF300038DF8EF
:1000B0001E309DF81E306FF341038DF81E30184B33
:1000C0001B881BB200201B491A4608F08BFA02ABB2
:1000D0001948194608F032FF0990099B4CF6111295
:1000E000934210D0099B0893089B002B05D00898D9
:1000F00040F24131114A01F093FF0D4B1B8802334E
:100100009AB20B4B1A8000200D49099A08F06AFA3E
:100110000BB05DF804FB00BFFF290020FE29002082
:1001200064280020582A0020FC3E05003C3F0500C2
:1001300066280020603F0500002A0020C43C05001E
:10014000883F050000B585B00190204808F092FE78
:100150001F4B204A1A601F4833F05AF902461C4BC5
:100160005A601D481D49102233F000F9174B42F226
:10017000B3221A86154B1A4ADA61144B194A1A60CF
:10018000184833F045F90246104B5A600F4B0022D5
:10019000DA600E4B00229A600C4B012283F8332068
:1001A0000A4B114A9A61094808F072FE0390039BBA
:1001B0000293029B002B05D0029840F27A310B4A41
:1001C00001F02EFF05B05DF804FB00BF002A0020FF
:1001D000202B0020443C0500202A0020743C050010
:1001E00089FF0100343C050074280020C43C050050
:1001F00000B585B01F200621114A124B06F0EAF81F
:100200000390039B0293029B002B05D0029840F2BF
:1002100087310D4A01F004FF0C4800210C4A06F01A
:100220002FF90190019B0093009B002B05D00098B3
:1002300040F28D31044A01F0F3FE05B05DF804FB95
:10024000282B0020DD650200C43C0500303C050081
:100250004501020000B585B01A480AF0D9F90390AB
:10026000039B0293029B002B05D0029840F2A7311A
:10027000154A01F0D5FE15480121154A06F000F98E
:100280000390039B0193019B002B05D0019840F242
:10029000AD310D4A01F0C4FE0E4B18460A21002272
:1002A00006F01EF90390039B0093009B002B05D0E2
:1002B000009840F2B331044A01F0B2FE05B05DF897
:1002C00004FB00BFCC3F0500C43C05002C3C0500EE
:1002D000CDFA0100B429002000B585B010480121F5
:1002E000332205F0F3F80390039B0293029B002B4B
:1002F00005D0029840F2C6310A4A01F091FE05F09D
:1003000059F90390039B0193019B002B05D00198A1
:1003100040F2C931034A01F083FE05B05DF804FBE9
:1003200084280020C43C050000B589B0364800216F
:100330000C22FFF73FF9344B344A1A60324B344AEF
:100340005A60314B00221A722F480121314A0AF0BB
:10035000E1FC0790079B0693069B002B05D00698AF
:1003600040F2DB312C4A01F05BFE2A4B1A686B46E7
:10037000104619460AF02EFC079000238DF8053030
:10038000244B1A686B46104619460AF043FC079046
:10039000079B0593059B002B05D0059840F2E5319E
:1003A0001D4A01F03DFEFFF7BDFAFFF701FBFFF725
:1003B0005FFDFFF71DFFFFF74DFFFFF78DFFFFF715
:1003C0002DFD08203C21154A05F06EF90490049B90
:1003D0000393039B002B05D003984FF47D710E4AC5
:1003E00001F01EFE01F04CFD0790079B0293029B5B
:1003F000002B05D0029840F2F731074A01F010FEB9
:1004000005F018FAFCE700BFB82B0020FDF9010049
:1004100041FA0100F4290020C43C0500C42B00204F
:1004200082B003468DF807309DF90730002B0BDAB8
:100430000B4A9DF8073003F00F03043B13441B7E67
:10044000DBB25B09DBB208E0064A9DF907301344D2
:1004500093F80033DBB25B09DBB2184602B0704799
:1004600000ED00E000E100E000B585B0EFF30583AA
:100470000193019BC3F308030393039B002B0BD051
:10048000039B103B0293029BDBB25BB21846FFF763
:10049000C7FF0346DBB200E00F23184605B05DF846
:1004A00004FB00BF00B587B0039002910192009356
:1004B000FFF7DAFF03468DF817300F4B1B789DF8D6
:1004C00017209A4201D20F2311E003980299019A52
:1004D000009B03F00BFC0490049B002B06D0074B01
:1004E0001B680133054A1360049B00E00023184693
:1004F00007B05DF804FB00BF8C280020942F00207B
:1005000082B003468DF80730054A9DF80730137016
:10051000044B00221A600023184602B0704700BF47
:100520008C280020942F002082B001904FF0A0432F
:10053000D3F81025019B22FA03F303F001031846B8
:1005400002B0704700B583B001900B46ADF80230A1
:10055000034B1B690020984703B05DF804FB00BF04
:10056000982F002000B585B001900B468DF8033020
:100570000F4B5A68019B9A4217D10D4B5B68184686
:10058000FFF7D2FF0346002B0FD100200021094ABC
:1005900005F0CEF80390039B0293029B002B04D03E
:1005A00002985321044A01F03BFD05B05DF804FBBD
:1005B000982F002045050200E43F050000B587B0F4
:1005C000039002F09DFF034683F00103DBB2002B92
:1005D0000FD002F051FF0590059B002B09D0059B21
:1005E000009300201749184A612307F0FBFF059B81
:1005F00024E000238DF8123000238DF813300323FC
:100600008DF8113003238DF8103004AB0398194690
:100610000E4A02F081FF0590059B002B09D0059B37
:10062000009300200749084A6A2307F0DBFF059B77
:1006300004E00398012102F0C9FF0023184607B027
:100640005DF804FB2C400500E43F05006505020051
:1006500000B589B00390039B002B01D10E23C0E0AD
:10066000039B9B68002B01D10E23BAE0039BDB6840
:10067000002B01D10E23B4E0039B1B69002B01D199
:100680000E23AEE0039B1B69584A1361039B1A7843
:10069000564B1A70039B5B68544A5360039B9B68DC
:1006A000524A9360039BDB68504AD3604F4B002251
:1006B0001A754E4800F036FA0790079B002B09D0B8
:1006C000079B009300204A494A4A8E2307F08AFF7D
:1006D000079B86E000F046FA0790079B002B09D0A5
:1006E000079B009300204249424A912307F07AFF7A
:1006F000079B76E0404800F013FB0790079B002B18
:1007000009D0079B0093002039493A4A942307F007
:1007100069FF079B65E0394800F052FA0790079B94
:10072000002B09D0079B009300203149314A9E23BA
:1007300007F058FF079B54E00DF11B03184600F02B
:10074000C3FA0790079B002B09D0079B009300205A
:100750002749284AA32307F045FF079B41E09DF85E
:100760001B3003F00303002B24D006AB184600F027
:1007700061FB0790079B002B09D0079B009300208B
:100780001B491C4AAB2307F02DFF079B29E00DF105
:100790001603184600F09EFB0790079B002B09D01C
:1007A000079B009300201249124AAD2307F01AFF5D
:1007B000079B16E09DF81B3003F00303002BBBD111
:1007C00000F0C0F90790079B002B09D0079B00930E
:1007D00000200749074AB32307F004FF079B00E006
:1007E0000023184609B05DF804FB00BF982F0020D5
:1007F0002C400500E43F0500AE2F002074400500AA
:1008000000B585B0294B1B7D002B01D0002348E0AB
:10081000264B01221A75254800F084F90390039BAA
:10082000002B09D0039B009300202149214ACC23AF
:1008300007F0D8FE039B34E01F4800F0C1F9039095
:10084000039B002B09D0039B009300201849194AF1
:10085000CF2307F0C7FE039B23E000F073F903905A
:10086000039B002B09D0039B009300201049114AE1
:10087000D22307F0B7FE039B13E00C4B5B681846CE
:10088000FFF79CFE0390039B002B09D0039B009372
:1008900000200749074AD52307F0A4FE039B00E088
:1008A0000023184605B05DF804FB00BF982F002018
:1008B0002C400500E43F05007840050000B585B0F8
:1008C0001C4800F02FF90390039B002B0AD0039BD8
:1008D000009300201849194A40F24B1307F082FE9A
:1008E000039B22E000F046FB0390039B002B0AD001
:1008F000039B009300201049104A4FF4A77307F0A0
:1009000071FE039B11E000F01DF90390039B002B87
:100910000AD0039B009300200749084A40F2511374
:1009200007F060FE039B00E00023184605B05DF869
:1009300004FB00BF982F00202C400500E43F050079
:1009400000B585B0124B1B689A68114B1B68DB68B9
:100950001046194600220023FFF7A4FD0390039BD5
:10096000002B09D0039B009300200A490A4A4D231B
:1009700007F038FE039B06E0054B1B689B68184692
:1009800003F070FA0023184605B05DF804FB00BFC1
:10099000BC2F00207C400500C440050008B5074B73
:1009A0001B689B68184603F079FA044B1B689B6828
:1009B000184603F011FA0023184608BDBC2F00208A
:1009C00000B587B0034602918DF80F301C4B1B68B1
:1009D00098681B4B1B6819780DF10F0201230093D7
:1009E000012303F039FD0590059B002B09D0059BE1
:1009F000009300201349144A732307F0F3FD059B6D
:100A00001AE00F4B1B689A680D4B1B681B78104649
:100A10001946029A012303F051FD0590059B002B16
:100A200009D0059B009300200649074A792307F067
:100A3000D9FD059B00E00023184607B05DF804FBD4
:100A4000BC2F00207C400500C440050000B587B0E5
:100A500003460A468DF80F3013468DF80E309DF888
:100A60000F308DF810309DF80E308DF811300F4B8F
:100A70001B6898680D4B1B68197804AA0023009323
:100A8000022303F0E9FC0590059B002B09D0059B90
:100A9000009300200649074A912307F0A3FD059B18
:100AA00000E00023184607B05DF804FBBC2F0020CF
:100AB0007C400500C440050000B589B003460491A0
:100AC00003928DF81730002307931DE0079BDAB2DD
:100AD0009DF817301344D9B2049A079B1344084673
:100AE0001946FFF76DFF0690069B002B09D0069B69
:100AF0000093002009490A4AA72307F073FD069BCB
:100B000007E0079B01330793079A039B9A42DDD3C3
:100B10000023184609B05DF804FB00BF7C400500C7
:100B2000C440050000B583B00190054A019B1360E5
:100B3000FFF706FF0346184603B05DF804FB00BF4D
:100B4000BC2F002000B583B0FFF728FF0190044BB5
:100B500000221A60019B184603B05DF804FB00BF39
:100B6000BC2F002000B585B0124B1B68002B01D1B3
:100B700008231BE00DF10B030F201946FFF720FFA0
:100B80000390039B002B09D0039B009300200A498C
:100B90000A4AC82307F026FD039B07E09DF80B30A7
:100BA000BC2B01D1002300E0052300BF184605B08F
:100BB0005DF804FBBC2F00207C400500C44005000C
:100BC00000B587B003903D4B1B68002B01D1082373
:100BD0006FE0039B002B01D10E236AE0039B1B787F
:100BE00003F0C003002B11D1039B5B7803F0780363
:100BF000002B0BD1039B9B7803F07C03002B05D1CA
:100C0000039BDB7803F03B03002B01D0072350E06C
:100C1000039B1B7810201946FFF718FF0590059BD2
:100C2000002B09D0059B009300202549254ADE238F
:100C300007F0D8FC059B3CE0039B5B78202019461D
:100C4000FFF704FF0590059B002B09D0059B00933F
:100C500000201B491B4AE12307F0C4FC059B28E048
:100C6000039B9B7821201946FFF7F0FE0590059B1A
:100C7000002B09D0059B009300201149114AE42361
:100C800007F0B0FC059B14E0039BDB78222019469B
:100C9000FFF7DCFE0590059B002B09D0059B009318
:100CA00000200749074AE72307F09CFC059B00E06A
:100CB0000023184607B05DF804FB00BFBC2F0020DE
:100CC0007C400500C440050000B587B00390114B7F
:100CD0001B68002B01D1082318E0039B002B01D1D6
:100CE0000E2313E027200399FFF76AFE0590059B6A
:100CF000002B0AD0059B009300200749074A4FF4B8
:100D0000867307F06FFC059B00E00023184607B0D0
:100D10005DF804FBBC2F00207C400500C4400500AA
:100D200000B58BB00390404B1B68002B01D108230A
:100D300076E0039B002B01D10E2371E005AB302040
:100D400019461022FFF7B8FE0990099B002B0AD024
:100D5000099B009300203549354A40F21B1307F0E8
:100D600041FC099B5CE09DF81420039B1A709DF8E0
:100D70001520039B5A709DF816309AB29DF81930D1
:100D80009BB203F003039BB21B029BB213449AB2C3
:100D9000039B5A809DF817309AB29DF819309B0832
:100DA000DBB29BB203F003039BB21B029BB2134462
:100DB0009AB2039B9A809DF81A309AB29DF81B3024
:100DC0009BB21B029BB213449BB29AB2039BDA8084
:100DD0009DF81E309AB29DF81F309BB21B029BB249
:100DE00013449BB29AB2039B1A819DF820309AB2A9
:100DF0009DF821309BB21B029BB213449BB29AB266
:100E0000039B5A819DF822309AB29DF823309BB201
:100E10001B029BB213449BB29AB2039B9A8100239C
:100E200018460BB05DF804FBBC2F00207C40050089
:100E3000C440050000B587B00390234B1B68002B0E
:100E400001D108233CE0039B002B01D10E2337E0A6
:100E50000DF1120328201946FFF7B2FD0590059BFE
:100E6000002B0AD0059B009300201849184A4FF424
:100E70009A7307F0B7FB059B22E00DF113032920BD
:100E80001946FFF79DFD0590059B002B0AD0059B99
:100E9000009300200D490E4A40F2371307F0A2FBE1
:100EA000059B0DE09DF813309BB21B029AB29DF892
:100EB00012309BB213449BB29AB2039B1A80002358
:100EC000184607B05DF804FBBC2F00207C400500ED
:100ED000C440050000B587B00390234B1B68002B6E
:100EE00001D108233CE0039B002B01D10E2337E006
:100EF0000DF112032A201946FFF762FD0590059BAC
:100F0000002B0AD0059B009300201849184A40F294
:100F1000491307F067FB059B22E00DF113032B201B
:100F20001946FFF74DFD0590059B002B0AD0059B48
:100F3000009300200D490E4A4FF4A67307F052FBB0
:100F4000059B0DE09DF813309BB21B029AB29DF8F1
:100F500012309BB213449BB29AB2039B1A800023B7
:100F6000184607B05DF804FBBC2F00207C4005004C
:100F7000C440050000B585B0214B1B68002B01D192
:100F8000082339E00DF10B0321201946FFF718FD66
:100F90000390039B002B0AD0039B00930020194968
:100FA000194A4FF4AE7307F01DFB039B24E09DF834
:100FB0000B3003F00103002B01D000231CE09DF84F
:100FC0000B3043F00103DBB28DF80B309DF80B3092
:100FD00021201946FFF73AFD0390039B002B0AD00E
:100FE000039B009300200749074A4FF4B37307F0AF
:100FF000F9FA039B00E00023184605B05DF804FBF6
:10100000BC2F00207C400500C440050000B587B01F
:101010000390084611461A4603468DF80B300B46DE
:101020008DF80A3013468DF80930039B0F2B01D938
:1010300002230EE2AF4B1B68184600F0DFFC059060
:10104000059B002B0BD0059B00930020AA49AB4ABF
:101050005E2307F0C7FA00F0F1FE059BF9E19DF869
:101060000930002B32D1039B012202FA03F39BB219
:101070000020194600F06CFD0590059B002B0BD05D
:10108000059B009300209C499C4A632307F0AAFA21
:1010900000F0D4FE059BDCE1039B012202FA03F37E
:1010A0009BB20020194600F095FD0590059B002B92
:1010B00000F08980059B009300208F498F4A6623AA
:1010C00007F090FA00F0BAFE059BC2E19DF80930E6
:1010D000012B31D1039B012202FA03F39BB20020C2
:1010E000194600F035FD0590059B002B0BD0059BA4
:1010F000009300208049814A6B2307F073FA00F0C7
:101100009DFE059BA5E1039B012202FA03F39BB21E
:101110001846002100F05EFD0590059B002B52D083
:10112000059B009300207449744A6E2307F05AFA15
:1011300000F084FE059B8CE19DF80930022B31D133
:10114000039B012202FA03F39BB20020194600F030
:1011500041FD0590059B002B0BD0059B00930020C3
:101160006549664A732307F03DFA00F067FE059B68
:101170006FE1039B012202FA03F39BB218460021A0
:1011800000F0E6FC0590059B002B1CD0059B00930E
:1011900000205949594A762307F024FA00F04EFE00
:1011A000059B56E101230593059B002B0BD0059B66
:1011B000009300205049514A7B2307F013FA00F0B6
:1011C0003DFE059B45E19DF80A30002B18D1039B9D
:1011D000012202FA03F39BB20020194600F034FC0E
:1011E0000590059B002B39D0059B009300204249B8
:1011F000424A812307F0F6F900F020FE059B28E122
:101200009DF80A30012B18D1039B012202FA03F347
:101210009BB21846002100F017FC0590059B002B9F
:101220001CD0059B009300203349344A862307F0E5
:10123000D9F900F003FE059B0BE101230593059B03
:10124000002B0BD0059B009300202B492B4A8B23AE
:1012500007F0C8F900F0F2FD059BFAE09DF8203098
:10126000002B18D1039B012202FA03F39BB200204A
:10127000194600F0F1FC0590059B002B40D0059B22
:10128000009300201C491D4A912307F0ABF900F0A0
:10129000D5FD059BDDE09DF82030012B18D1039B87
:1012A000012202FA03F39BB21846002100F0D4FC9D
:1012B0000590059B002B23D0059B009300200E4931
:1012C0000E4A962307F08EF900F0B8FD059BC0E0AA
:1012D00001230593059B002B12D0059B0093002052
:1012E0000549064A9B2307F07DF900F0A7FD059B01
:1012F000AFE000BFC02F00200C41050054410500A5
:101300009DF82430002B18D1039B012202FA03F32D
:101310009BB20020194600F0D9FB0590059B002BDD
:1013200039D0059B009300204C494D4AA12307F07A
:1013300059F900F083FD059B8BE09DF82430012BCB
:1013400018D1039B012202FA03F39BB21846002135
:1013500000F0BCFB0590059B002B1CD0059B009367
:1013600000203E493E4AA62307F03CF900F066FD06
:10137000059B6EE001230593059B002B0BD0059B7D
:10138000009300203549364AAB2307F02BF900F0D3
:1013900055FD059B5DE09DF80B30002B18D1039B9C
:1013A000012202FA03F39BB20020194600F096FCDA
:1013B0000590059B002B39D0059B00930020274901
:1013C000274AB12307F00EF900F038FD059B40E0F5
:1013D0009DF80B30012B18D1039B012202FA03F375
:1013E0009BB21846002100F079FC0590059B002B6C
:1013F0001CD0059B009300201849194AB62307F01A
:10140000F1F800F01BFD059B23E001230593059BEC
:10141000002B0BD0059B009300201049104ABB23E2
:1014200007F0E0F800F00AFD059B12E000F006FD71
:101430000590059B002B0BD0059B009300200749CE
:10144000074ABF2307F0CEF800F0F8FC059B00E048
:101450000023184607B05DF804FB00BF0C410500EF
:101460005441050000B585B01E4B1B68184600F0BE
:10147000C5FA0390039B002B0BD0039B0093002025
:1014800019491A4ACA2307F0ADF800F0D7FC039BAC
:1014900024E000F0A7FC0390039B002B0BD0039BE0
:1014A000009300201049114ACD2307F09BF800F06B
:1014B000C5FC039B12E000F0C1FC0390039B002BD2
:1014C0000BD0039B009300200749084AD02307F064
:1014D00089F800F0B3FC039B00E00023184605B038
:1014E0005DF804FBC02F00200C41050054410500AD
:1014F00000B587B00390039B0F2B01D9022340E076
:10150000224B1B68184600F079FA0590059B002BCA
:101510000BD0059B009300201D491E4ADD2307F0D8
:1015200061F800F08BFC059B2BE0039B012202FA83
:1015300003F39BB20020194600F0D0FB0590059BF9
:10154000002B0BD0059B009300201149114AE12389
:1015500007F048F800F072FC059B12E000F06EFC0A
:101560000590059B002B0BD0059B0093002008499C
:10157000084AE42307F036F800F060FC059B00E021
:101580000023184607B05DF804FB00BFC02F002001
:101590000C4105005441050000B587B00390039B42
:1015A0000F2B01D9022343E0234B1B68184600F0A0
:1015B00025FA0590059B002B0CD0059B009300207D
:1015C0001E491F4A40F2A31307F00CF800F036FC46
:1015D000059B2DE0039B012202FA03F39BB2184600
:1015E000002100F0BDFB0590059B002B0CD0059B56
:1015F000009300201149124A4FF4D37306F0F2FF12
:1016000000F01CFC059B13E000F018FC0590059B06
:10161000002B0CD0059B009300200849084A40F29B
:10162000A91306F0DFFF00F009FC059B00E0002392
:10163000184607B05DF804FBC02F00200C410500E0
:101640005441050000B587B00390039B0F2B01D9CF
:10165000022343E0234B1B68184600F0CFF90590A6
:10166000059B002B0CD0059B009300201E491F4AB0
:1016700040F2C91306F0B6FF00F0E0FB059B2DE039
:10168000039B012202FA03F39BB20020194600F0EB
:1016900067FB0590059B002B0CD0059B0093002059
:1016A0001149124A4FF4E67306F09CFF00F0C6FBA6
:1016B000059B13E000F0C2FB0590059B002B0CD0AE
:1016C000059B009300200849084A40F2CF1306F01A
:1016D00089FF00F0B3FB059B00E00023184607B02C
:1016E0005DF804FBC02F00200C41050054410500AB
:1016F00000B585B001900B468DF80330019B002B9F
:1017000001D10E2312E0019B1B680A4A136000F00E
:101710006FF99DF80330002B07D0FFF7A3FE03906D
:10172000039B002B01D0039B00E00023184605B06B
:101730005DF804FBC02F002084B00190234B03937D
:10174000019B002B40D0224B1A680399019B00BFDC
:1017500000BF00BF00BF00BF00BF00BF00BF8A4284
:101760002FD000BF00BF00BF00BF00BF00BF00BF41
:1017700000BF00BF00BF00BF00BF00BF00BF00BF71
:1017800000BF00BF00BF00BF00BF00BF00BF00BF61
:1017900000BF00BF00BF00BF00BF00BF00BF00BF51
:1017A00000BF00BF00BF00BF00BF00BF00BF00BF41
:1017B00000BF00BF00BF00BF00BF00BF00BF00BF31
:1017C00000BF013BC3D1019304B070470024F40073
:1017D0009028002000B583B00190019B4FF47A72ED
:1017E00002FB03F31846FFF7A7FF03B05DF804FB05
:1017F00000B587B003460A468DF80F3013468DF8C2
:101800000E30154B1B68002B20D0134B1B685B68F8
:101810000593114B1B681B788DF813309DF80F3022
:101820008DF810309DF80E308DF811309DF81310A2
:1018300004AA002300930598022302F00DFE03463C
:10184000002B0CBF01230023DBB200E0002318466D
:1018500007B05DF804FB00BFC42F002000B587B0BF
:10186000034602918DF80F30154B1B68002B22D0D8
:10187000134B1B685B680593114B1B681B788DF835
:1018800013309DF813100DF10F02012300930598FA
:10189000012302F0E1FD0346002B0CD19DF813302B
:1018A00005981946029A012302F008FE0346002B10
:1018B00001D1012300E00023184607B05DF804FBC6
:1018C000C42F002000B585B003468DF807300B46C5
:1018D0008DF8063013468DF805309DF806209DF8EA
:1018E00005301343DBB2002B0CBF012300238DF81E
:1018F0000F309DF806209DF805301340DBB2002B19
:1019000042D19DF80F3083F00103DBB2002B3BD0B6
:10191000204B1B68002B37D09DF807200DF10D03DD
:1019200010461946FFF79AFF0346002B2CD09DF86E
:101930000D308DF80E309DF80D209DF806301343C4
:10194000DBB28DF80D309DF80530DB43DAB29DF83F
:101950000D30DBB21340DBB2DBB28DF80D309DF8F9
:101960000D309DF80E209A420AD09DF80D309DF85A
:10197000072010461946FFF73BFF0346002B01D016
:10198000012303E0002301E09DF80F30184605B065
:101990005DF804FBC42F002010B586B00346029109
:1019A0008DF80F30114B1B68002B1BD00F4B1B68A1
:1019B0005B6805930D4B1B681B788DF813309DF801
:1019C00013209DF80F400023009305981146029ABA
:1019D000234602F041FD0346002B0CBF01230023E8
:1019E000DBB200E00023184606B010BDC42F002073
:1019F000014B00221A607047C42F002000B583B04D
:101A00000190104B1B68002B16D1019B5A68019B5B
:101A10009B681046194600220023FEF743FD03464B
:101A2000002B09D1019B5B68184602F01BFA054A9E
:101A3000019B1360002300E00123184603B05DF80A
:101A400004FB00BFC42F002000B583B003460A4644
:101A5000ADF806301346ADF80430BDF80620BDF8E9
:101A6000043013409BB2002B01D002232AE0BDF8C2
:101A700006301B0A9BB2DAB2BDF804301B0A9BB2D7
:101A8000DBB2002011461A46FFF71CFF034683F025
:101A90000103DBB2002B01D0012313E0BDF80630B7
:101AA000DAB2BDF80430DBB2012011461A46FFF766
:101AB00009FF034683F00103DBB2002B01D00123B1
:101AC00000E00023184603B05DF804FB00B583B0C6
:101AD00003460A46ADF806301346ADF80430BDF8AB
:101AE0000620BDF8043013409BB2002B01D0022326
:101AF0002AE0BDF806301B0A9BB2DAB2BDF804300A
:101B00001B0A9BB2DBB2022011461A46FFF7DAFE2F
:101B1000034683F00103DBB2002B01D0012313E065
:101B2000BDF80630DAB2BDF80430DBB2032011464E
:101B30001A46FFF7C7FE034683F00103DBB2002B12
:101B400001D0012300E00023184603B05DF804FB38
:101B500000B583B003460A46ADF806301346ADF82B
:101B60000430BDF80620BDF8043013409BB2002BB2
:101B700001D002232AE0BDF806301B0A9BB2DAB27C
:101B8000BDF804301B0A9BB2DBB2062011461A4690
:101B9000FFF798FE034683F00103DBB2002B01D070
:101BA000012313E0BDF80630DAB2BDF80430DBB231
:101BB000072011461A46FFF785FE034683F001030E
:101BC000DBB2002B01D0012300E00023184603B054
:101BD0005DF804FB00B583B003460A46ADF8063055
:101BE0001346ADF80430BDF80620BDF804301340AC
:101BF0009BB2002B01D002232AE0BDF806301B0A5D
:101C00009BB2DAB2BDF804301B0A9BB2DBB20820EB
:101C100011461A46FFF756FE034683F00103DBB276
:101C2000002B01D0012313E0BDF80630DAB2BDF875
:101C30000430DBB2092011461A46FFF743FE034683
:101C400083F00103DBB2002B01D0012300E000236D
:101C5000184603B05DF804FB00B583B003460A469E
:101C6000ADF806301346ADF80430BDF80620BDF8D7
:101C7000043013409BB2002B01D002232AE0BDF8B0
:101C800006301B0A9BB2DAB2BDF804301B0A9BB2C5
:101C9000DBB20A2011461A46FFF714FE034683F012
:101CA0000103DBB2002B01D0012313E0BDF80630A5
:101CB000DAB2BDF80430DBB20B2011461A46FFF74A
:101CC00001FE034683F00103DBB2002B01D00123A8
:101CD00000E00023184603B05DF804FB00B583B0B4
:101CE00003460A46ADF806301346ADF80430BDF899
:101CF0000620BDF8043013409BB2002B01D0022314
:101D00002AE0BDF806301B0A9BB2DAB2BDF80430F7
:101D10001B0A9BB2DBB20E2011461A46FFF7D2FD1A
:101D2000034683F00103DBB2002B01D0012313E053
:101D3000BDF80630DAB2BDF80430DBB20F20114630
:101D40001A46FFF7BFFD034683F00103DBB2002B09
:101D500001D0012300E00023184603B05DF804FB26
:101D600000B583B003460A46ADF806301346ADF819
:101D70000430BDF80620BDF8043013409BB2002BA0
:101D800001D002232AE0BDF806301B0A9BB2DAB26A
:101D9000BDF804301B0A9BB2DBB2102011461A4674
:101DA000FFF790FD034683F00103DBB2002B01D067
:101DB000012313E0BDF80630DAB2BDF80430DBB21F
:101DC000112011461A46FFF77DFD034683F00103FB
:101DD000DBB2002B01D0012300E00023184603B042
:101DE0005DF804FB00B583B0134A01AB10681860BE
:101DF00001AB02201946FFF7CFFD034683F0010334
:101E0000DBB2002B01D0012311E001AB0233022031
:101E10001946FFF7C1FD034683F00103DBB2002B37
:101E200001D0012303E00320FFF7D4FC0023184670
:101E300003B05DF804FB00BF9C41050008B50C4BE6
:101E40001B68002B10D00A4B1B685B68184602F019
:101E500025F8074B1B685B68184601F0BDFF044B73
:101E600000221A60002300E00123184608BD00BFCD
:101E7000C42F002082B003468DF8073002B07047AF
:101E800000B585B01D4B01221A701D4B01221A703E
:101E9000FEF7B6FC0390039B002B0AD0039B009334
:101EA00000201849184A40F2211306F09BFB039BBF
:101EB0001FE0FEF703FD0390039B002B0AD0039B5A
:101EC000009300200F49104A4FF4927306F08AFBEA
:101ED000039B0EE0039B002B0AD0039B0093002082
:101EE0000849094A40F2291306F07CFB039B00E0F5
:101EF0000023184605B05DF804FB00BFC82F002082
:101F0000C92F0020EC410500A041050000B589B0B3
:101F10000190002307935F238DF808301823039363
:101F2000019B0493064B0593064B069302AB1846A0
:101F3000FEF78EFB0790079B184609B05DF804FB7F
:101F400034420500751E020000B585B00190019B6A
:101F5000002B01D10E2311E0019B1B681846FFF7EF
:101F6000D5FF0390039B0293029B002B05D00298A0
:101F700040F25741034A00F053F80023184605B0D9
:101F80005DF804FBA041050039DF7047184600BF2B
:101F90003ADF7047184600BF12DF7047184600BF8F
:101FA00000B585B001900E4B1B78002B10D10DF1C0
:101FB0000B031846FFF7F0FF03909DF80B30002B42
:101FC00003D0074B01221A7004E00223039301E0BF
:101FD00008230393039B184605B05DF804FB00BF7C
:101FE000CC2F002000B585B001900198FFF7CCFF01
:101FF0000390039B184605B05DF804FB00B585B05F
:1020000001900B468DF803309DF803300198194676
:10201000FFF7BEFF0390039B184605B05DF804FB75
:1020200000B589B0039002910192029B9BB2ADF87A
:102030001430019B0693039B079305AB44F2010008
:1020400000211A46FDF762FD09B05DF804FB00BFF0
:1020500086B003900291019201238DF817309DF80C
:1020600017301F4A039B13601D4A029B53601C4A92
:10207000019B9360039B44F20102934212D044F20D
:102080000202934222D1019B154AD360144BDB68B4
:102090001B881A46124B9A61114BDB685B68104A29
:1020A000D36113E0019B0E4A13610D4B1B699B68C2
:1020B0000B4A53610A4B1B691B881A46084B9A61ED
:1020C000074B1B695B68064AD36100BF72B600BF4D
:1020D0009DF81730DBB2002BFAD162B606B070471C
:1020E000D02F002071DF7047184600BF72DF7047A5
:1020F000184600BF79DF7047184600BF7DDF704784
:10210000184600BF65DF7047184600BF82B003461F
:102110000091ADF80630BDF80630DAB2009B1A70B7
:10212000009B0133BDF80620120A92B2D2B21A7097
:102130000223184602B0704786B0039002910192C4
:10214000ADF80230019B1B8803F11202BDF802308A
:102150009A4201D90C2339E0019B1B881A46029B45
:10216000134411221A70019B1B8801339AB2019B00
:102170001A80019B1B881A46029B134410221A7076
:10218000019B1B8801339AB2019B1A800F238DF8A3
:10219000173016E0019B1B881A46029B13449DF9D9
:1021A000172003998A5C1A709DF81730DBB2013B47
:1021B000DBB28DF81730019B1B8801339AB2019B6B
:1021C0001A809DF91730002BE4DA0023184606B078
:1021D000704700BF84B0029101921A4603468DF801
:1021E0000F301346ADF80C30019B1B88DA1CBDF88C
:1021F0000C309A4201D90C2353E0019B1B881A46EC
:10220000029B134402221A70019B1B8801339AB26D
:10221000019B1A80019B1B881A46029B13441C22B7
:102220001A70019B1B8801339AB2019B1A809DF89A
:102230000F30013B032B2BD801A252F823F000BF33
:10224000512202006122020071220200812202005A
:10225000019B1B881A46029B134400221A7019E046
:10226000019B1B881A46029B134401221A7011E03D
:10227000019B1B881A46029B134402221A7009E034
:10228000019B1B881A46029B134403221A7001E02B
:10229000072306E0019B1B8801339AB2019B1A8039
:1022A0000023184604B0704700B589B0039002912E
:1022B0001346ADF80630029B1B8803F10902BDF8F6
:1022C00006309A4201D90C234FE005AB1846FFF7C0
:1022D00009FF0790079B002B01D0079B45E0029B5D
:1022E0001B881A46039B134408221A70029B1B8802
:1022F00001339AB2029B1A80029B1B881A46039BE9
:1023000013441B221A70029B1B8801339AB2029B52
:102310001A80029B1B881A46039B1A4405AB0133A3
:1023200010461946062231F021F8029B1B8806331D
:102330009AB2029B1A809DF81430002B07D1029BA1
:102340001B881A46039B134400221A7006E0029B66
:102350001B881A46039B134401221A70029B1B8898
:1023600001339AB2029B1A800023184609B05DF827
:1023700004FB00BF00B589B0039002910192ADF853
:102380000230039B1B78012B05D1039B5B78002B4C
:1023900001D1072389E0019B1B889A1CBDF80230FC
:1023A0009A420ED8039B1B78012B0CD1019B1B88F2
:1023B0001A46039B5B7813449A1CBDF802309A427C
:1023C00001D90C2371E0019B1B88BDF80220D31AB0
:1023D0009BB2023BADF81C30BDF81C30ADF8163096
:1023E000019B1B880233029A1A440DF11603104612
:1023F0001946FFF783FE0690069B002B01D0069B33
:1024000053E0039B1B78022B09D1BDF81630BDF8B1
:102410001C209A4203D309238DF81F3017E00823AC
:102420008DF81F30039B1B78012B0CD1039B5B782D
:102430009BB2BDF81C209A4205D3039B5B789BB2EC
:10244000ADF8163003E0BDF81C30ADF81630BDF81D
:102450001630FE2B01D90C2327E0019B1B881A465E
:10246000029B1344BDF81620D2B20132D2B21A70C8
:10247000019B1B8801339AB2019B1A80019B1B8828
:102480001A46029B13449DF81F201A70019B1B885B
:1024900001339AB2019B1A80019B1A88BDF816304D
:1024A00013449AB2019B1A800023184609B05DF8C4
:1024B00004FB00BF00B587B0039002911346ADF84E
:1024C0000630029B1B881A1DBDF806309A4201D9BE
:1024D0000C2339E00DF112031846FFF70BFE0590AF
:1024E000059B002B01D0059B2EE0029B1B881A4602
:1024F000039B134403221A70029B1B8801339AB278
:10250000029B1A80029B1B881A46039B13441922C4
:102510001A70029B1B8801339AB2029B1A80BDF885
:102520001220029B1B881946039B0B441046194638
:10253000FFF7ECFD03461946029B1A888BB2134441
:102540009AB2029B1A800023184607B05DF804FB7C
:1025500084B0029101921A4603468DF80F3013465B
:10256000ADF80C30019B1B88DA1CBDF80C309A4288
:1025700001D90C2328E0019B1B881A46029B1344B7
:1025800002221A70019B1B8801339AB2019B1A80A8
:10259000019B1B881A46029B134401221A70019B5F
:1025A0001B8801339AB2019B1A80019B1B881A4633
:1025B000029B13449DF80F201A70019B1B88013366
:1025C0009AB2019B1A800023184604B0704700BFDE
:1025D00084B0029101921A4603468DF80F301346DB
:1025E000ADF80C30019B1B88DA1CBDF80C309A4208
:1025F00001D90C2328E0019B1B881A46029B134437
:1026000002221A70019B1B8801339AB2019B1A8027
:10261000019B1B881A46029B134411221A70019BCE
:102620001B8801339AB2019B1A80019B1B881A46B2
:10263000029B13449DF80F201A70019B1B880133E5
:102640009AB2019B1A800023184604B0704700BF5D
:1026500084B0029101921A4603468DF80F3013465A
:10266000ADF80C30019B1B88DA1CBDF80C309A4287
:1026700001D90C2328E0019B1B881A46029B1344B6
:1026800002221A70019B1B8801339AB2019B1A80A7
:10269000019B1B881A46029B13440A221A70019B55
:1026A0001B8801339AB2019B1A80019B1B881A4632
:1026B000029B13449DF80F201A70019B1B88013365
:1026C0009AB2019B1A800023184604B0704700BFDD
:1026D00000B58BB0039001930B468DF80B30134679
:1026E0008DF80A3000238DF823300C9B1B88ADF841
:1026F00020300023099370E0039B5A68099B9B00DC
:102700001A4404AB1068186004AA0DF117031046B0
:1027100019460022FFF7F6FC0790079B002B01D01B
:10272000079B7CE09DF817309DF80A209A4251D112
:102730009DF82330002B01D0002300E002238DF808
:102740001B300C9B1B881A469DF817301A449DF8C5
:102750001B301A44BDF834309A4201DD0C235EE090
:102760009DF8233083F00103DBB2002B16D00C9BC5
:102770001B8801339AB20C9B1A800C9B1B881A464B
:10278000019B13449DF80B201A700C9B1B8801338E
:102790009AB20C9B1A8001238DF823300C9B1B8866
:1027A0001A46019B134404A90DF11702084611466D
:1027B0001A46FFF7A7FC0790079B002B01D0079B49
:1027C0002DE00C9B1A889DF817309BB213449AB2E7
:1027D0000C9B1A80099B01330993039B1B881A46A3
:1027E000099B9A4288DC9DF82330002B16D00C9B65
:1027F0001A88BDF82030D31A9BB2013BADF81830CF
:10280000BDF81830FF2B01D90C2308E0BDF82030AB
:10281000019A1344BDF81820D2B21A70002318464A
:102820000BB05DF804FB00BF00B589B005900393C1
:102830000B468DF8133013468DF812309DF8132097
:102840000A9B0093BDF82C30019305981146022293
:10285000039BFFF73DFF0790079B002B01D0079BD1
:1028600013E09DF812200A9B0093BDF82C300193D1
:10287000059811461022039BFFF72AFF0790079B3C
:10288000002B01D0079B00E00023184609B05DF83B
:1028900004FB00BF82B00190019B1B88052B0AD965
:1028A000019B1B88B3F5486F07D9019B1B884FF626
:1028B000FF72934201D0072325E0019B5B88052B23
:1028C0000AD9019B5B88B3F5486F07D9019B5B88E8
:1028D0004FF6FF72934201D0072314E0019B1B883F
:1028E0004FF6FF7293420DD0019B5B884FF6FF724B
:1028F000934207D0019B1A88019B5B889A4201D9B9
:10290000072300E00023184602B0704700B587B0E7
:10291000039002910192ADF80230019B1B889A1D31
:10292000BDF802309A4201D90C234BE00398FFF71F
:10293000B1FF0590059B002B01D0059B42E0019B58
:102940001B881A46029B134405221A70019B1B88A0
:1029500001339AB2019B1A80019B1B881A46029B85
:10296000134412221A70019B1B8801339AB2019BF7
:102970001A80039B1A88019B1B881946029B0B44F3
:1029800010461946FFF7C2FB03461946019B1A88F9
:102990008BB213449AB2019B1A80039B5A88019B05
:1029A0001B881946029B0B4410461946FFF7AEFBE5
:1029B00003461946019B1A888BB213449AB2019BB5
:1029C0001A800023184607B05DF804FB00B587B0F5
:1029D000039002910192ADF80230039B9B88023371
:1029E0000593019B1B881A46059B13449A1CBDF84E
:1029F00002309A4201D90C2356E0059BFE2B01D9E7
:102A00000C2351E0019B1B881A46029B1344059A34
:102A1000D2B20132D2B21A70019B1B8801339AB232
:102A2000019B1A80019B1B881A46029B1344FF22BC
:102A30001A70019B1B8801339AB2019B1A80039B79
:102A40001A88019B1B881946029B0B4410461946A5
:102A5000FFF75CFB03461946019B1A888BB21344AF
:102A60009AB2019B1A80039B9B88002B1BD0039B6F
:102A70009B68002B01D1072316E0019B1B881A4697
:102A8000029B9918039B9A68039B9B8808461146F2
:102A90001A4630F06BFC019B1A88039B9B881344F9
:102AA0009AB2019B1A800023184607B05DF804FB18
:102AB00000B589B0039002910192ADF80230039BFA
:102AC0009B6A002B01D1072374E000238DF81F308F
:102AD00068E0039B996A9DF81F2013465B0013442E
:102AE0009B000B440693069B9B8802330593059B32
:102AF000FE2B01D90C235DE0019B1B881A46029B2B
:102B00001344059AD2B20132D2B21A70019B1B88CB
:102B100001339AB2019B1A80019B1B881A46029BC3
:102B2000134416221A70019B1B8801339AB2019B31
:102B30001A80069B1A88019B1B881946029B0B442E
:102B400010461946FFF7E2FA03461946019B1A8818
:102B50008BB213449AB2019B1A80069B9B88002B70
:102B60001BD0069B9B68002B01D1072322E0019B11
:102B70001B881A46029B9918069B9A68069B9B889D
:102B8000084611461A4630F0F1FB019B1A88069B55
:102B90009B8813449AB2019B1A809DF81F30013321
:102BA0008DF81F30039B93F82C309DF81F209A421C
:102BB0008FD30023184609B05DF804FB00B589B037
:102BC00005900491039200230793039B1B88ADF8A3
:102BD0001A30039B00221A80059B5B6B002B0FD0E1
:102BE000059B5B6B1A78BDF81A3010460499039A5E
:102BF000FFF7EEFC0790079B002B01D0079B06E137
:102C0000059B1B6B002B0ED0059B1A6BBDF81A3071
:102C100010460499039AFFF78FFA0790079B002B41
:102C200001D0079BF3E0059B93F82E30002B0FD0CB
:102C3000059B93F82E20BDF81A3010460499039A8C
:102C4000FFF7C8FA0790079B002B01D0079BDEE037
:102C5000059B93F82D30002B0CD0BDF81A3004984A
:102C600003991A46FFF720FB0790079B002B01D022
:102C7000079BCCE0059B9B78002B0CD0BDF81A304D
:102C8000049803991A46FFF715FC0790079B002B41
:102C900001D0079BBBE0059BDB78002B10D0059B88
:102CA000DB78DBB25AB2BDF81A3010460499039AA9
:102CB000FFF74EFC0790079B002B01D0079BA6E077
:102CC000059B5B68002B10D0059B5B681B785AB294
:102CD000BDF81A3010460499039AFFF7B9FC079023
:102CE000079B002B01D0079B91E0059B1B89002BC4
:102CF00013D0059B03F10802039B0093BDF81A3023
:102D00000193104602210622049BFFF78DFD0790D8
:102D1000079B002B01D0079B79E0059B1B8A002BAA
:102D200013D0059B03F11002039B0093BDF81A30EA
:102D30000193104603210722049BFFF775FD0790BE
:102D4000079B002B01D0079B61E0059B1B8B002B91
:102D500013D0059B03F11802039B0093BDF81A30B2
:102D60000193104614211522049BFFF75DFD079087
:102D7000079B002B01D0079B49E0059B1B6A002B9A
:102D80000ED0059B1A6ABDF81A3010460499039AB2
:102D9000FFF7BCFD0790079B002B01D0079B36E097
:102DA000059B5B6A002B0ED0059B5A6ABDF81A3052
:102DB00010460499039AFFF709FE0790079B002B22
:102DC00001D0079B23E0059B93F82C30002B0CD0FF
:102DD000BDF81A3005980499039AFFF769FE079029
:102DE000079B002B01D0079B11E0059B1B78002B54
:102DF0000CD0BDF81A3005980499039AFFF7BAFA77
:102E00000790079B002B01D0079B00E0079B18460B
:102E100009B05DF804FB00BF82B00190019BDB7834
:102E200003F00403002B01D1072300E00023184620
:102E300002B0704782B00190019BDB78002B01D07B
:102E4000072300E00023184602B0704700B597B092
:102E5000019000911F23ADF84A301F23ADF8483090
:102E6000019B002B19D00198FFF7D6FF1390139BFD
:102E7000002B01D0139B42E00AAA0DF14A030198EE
:102E800011461A46FFF79AFE1390139B002B01D0B0
:102E9000139B34E00AAB159304E000231593002341
:102EA000ADF84A30009B002B18D00098FFF7C2FF06
:102EB0001390139B002B01D0139B20E002AA12ABAE
:102EC000009811461A46FFF779FE1390139B002BCA
:102ED00001D0139B13E002AB149304E0002314937E
:102EE0000023ADF84830BDF84A30DAB2BDF84830BA
:102EF000DBB215981146149AFFF7F8F80346184606
:102F000017B05DF804FB00BF82B003468DF80730B0
:102F100007499DF907305B099DF8072002F01F0261
:102F2000012000FA02F241F8232002B0704700BFEE
:102F300000E100E082B003468DF8073007499DF9B3
:102F400007305B099DF8072002F01F02012000FAFC
:102F500002F2603341F8232002B0704700E100E044
:102F600082B0034600918DF807309DF90730002BA1
:102F70000CDA0C499DF8073003F00F03043B009A6C
:102F8000D2B25201D2B20B441A7609E006499DF939
:102F90000730009AD2B25201D2B20B4483F8002318
:102FA00002B0704700ED00E000E100E000B583B042
:102FB00003460A468DF8073013468DF806309DF813
:102FC00006309DF9072010461946FFF7C9FF9DF905
:102FD00007301846FFF7AEFF9DF907301846FFF798
:102FE00093FF03B05DF804FB00B583B00346ADF872
:102FF0000630BDF80630184600F026F803461B6878
:10300000012B0CBF01230023DBB2184603B05DF88F
:1030100004FB00BF00B585B00346ADF80630BDF82F
:103020000630184600F010F803461A4600231360D5
:10303000BDF80630184600F007F803461B680393F6
:10304000039B05B05DF804FB82B00346ADF8063083
:10305000BDF8063003F1804303F5C043184602B0C3
:10306000704700BF82B00190024A019BC2F804334E
:1030700002B070470060004082B00190034BD3F86B
:103080000423019B1340184602B0704700600040C3
:1030900082B001900749074A019B03F5A27352F8D9
:1030A000233043F00102019B03F5A27341F8232072
:1030B00002B070470060004084B003900291134654
:1030C0008DF807301449144A039B03F5A27352F894
:1030D000233023F4473323F44073039A02F5A2729A
:1030E00041F822300C480C4A039B03F5A27352F8B6
:1030F0002320029B1B0203F4F8519DF807301B04A8
:1031000003F440330B431A43039B03F5A27340F8C7
:10311000232004B0704700BF0060004082B00190DF
:10312000054A019B03F5A27352F8233003F4F853C8
:103130001B0A184602B070470060004082B0019040
:10314000064A019B03F5A27352F8233003F440337F
:103150001B0CDBB2184602B0704700BF0060004095
:1031600082B00190084611461A4603468DF8033096
:103170000B468DF8023013468DF801304FF0A04118
:103180009DF803209DF802305B001A439DF8013042
:103190009B001A439DF808301B021A439DF80C301F
:1031A0001B041A43019B03F5E07341F8232002B08E
:1031B000704700BF10B584B003900B468DF80B30FC
:1031C0009DF80B40002300930023019303980021F6
:1031D00000222346FFF7C4FF04B010BD84B0019065
:1031E0004FF0A042019B03F5E07352F8233023F027
:1031F000020303934FF0A041019B03F5E073039A90
:1032000041F8232004B0704782B001900B468DF83E
:1032100003304FF0A0414FF0A042019B03F5E07353
:1032200052F8233023F44032019B03F5E07341F858
:1032300023204FF0A0414FF0A042019B03F5E07323
:1032400052F823309DF8032012041A43019B03F522
:10325000E07341F8232002B0704700BF82B00190B4
:103260004FF0A043D3F81025019B22FA03F303F09B
:103270000103184602B070474FF0A043D3F8103551
:103280001846704782B001904FF0A042019B03F5B1
:10329000E07352F8233003F440331B0CDBB21846C2
:1032A00002B0704782B001900C4A019B1344403336
:1032B0001B785BB2002B09DB084A019B13444033A7
:1032C0001B785BB2072B01DC012300E0002303F035
:1032D0000103DBB2184602B0704700BFF02F002098
:1032E00082B00190064A019B134440331B785BB2C5
:1032F000072BCCBF01230023DBB2184602B0704776
:10330000F02F002082B00190054A019B1344403306
:103310001B78DB43DBB2DB09DBB2184602B0704737
:10332000F02F002084B00390029101928DF80330B9
:10333000029BD9B20E4A039B134440330A461A70CB
:103340000B49029B019A41F823209DF8033083F03A
:103350000103DBB2002B08D0029B083B039AD1B2D9
:10336000034A13440A4683F8602004B0704700BF44
:10337000F02F002082B00190034A019B1344403398
:10338000FF221A7002B07047F02F002082B0019027
:10339000044A019B134440331B785BB2184602B0C9
:1033A000704700BFF02F002082B00190034A019BBC
:1033B00052F82330184602B0704700BFF02F0020AB
:1033C00000B589B00390029113468DF80730FF23B2
:1033D0008DF81F309DF80730002B01D0002300E04E
:1033E000082305939DF80730002B01D0082300E047
:1033F00010230493059B069314E0104A069B52F891
:103400002330B3F1FF3F0AD19DF8073003980699A6
:10341000029AFFF787FF069B8DF81F3006E0069B98
:1034200001330693069A049B9A42E6D39DF81F3017
:103430005BB2184609B05DF804FB00BFF02F002016
:1034400082B003468DF807309DF80730094A4FF0E7
:10345000FF3142F823109DF80730072B07D99DF85C
:103460000730083B034A1344FF2283F8602002B070
:10347000704700BFF02F002000B583B01F4B93F8BA
:103480006830002B01D0082334E000238DF807308A
:1034900009E09DF807301846FFF76CFF9DF80730EC
:1034A00001338DF807309DF807301F2BF1D9002329
:1034B0008DF8073009E09DF807301846FFF7C0FF88
:1034C0009DF8073001338DF807309DF807300F2B3A
:1034D000F1D906200621FFF769FD4FF4BE70FFF712
:1034E00099FD4FF00040FFF7BDFD044B012283F82A
:1034F00068200023184603B05DF804FBF02F00207D
:10350000044B93F86830002B14BF01230023DBB277
:1035100018467047F02F002000B587B00390029145
:103520000192002305930398FFF7ECFE0346002B5E
:1035300002D00823059342E0029BDB7803980199AF
:103540001A46FFF73DFF03468DF813309DF91330FF
:10355000B3F1FF3F31D0029B9B78002B03D003983F
:10356000FFF73CFE05E0029B5B7803981946FFF7E6
:1035700021FE029BDB78002B09D09DF91320029BD2
:103580001B78104603991A46FFF796FD17E09DF940
:103590001330083B9DF91320083A0B490A4492F86E
:1035A0006010029A12789201D2B20A43D1B2064A4E
:1035B00013440A4683F8602001E004230593059B29
:1035C000184607B05DF804FBF02F002000B587B067
:1035D00001900B468DF803300198FFF781FE0346FA
:1035E000002B33D00198FFF7D1FE0346083B314A48
:1035F000134493F860308DF816309DF816309B090F
:103600008DF815309DF81530032B0FD1FFF734FEE0
:103610000146019B012202FA03F30B40002B01D06B
:10362000032300E002238DF8173008E09DF81530E1
:10363000012B01D1022300E003238DF817309DF800
:10364000173001981946FFF7DFFD30E00198FFF7CA
:1036500029FE0346002B2AD00198FFF797FE034668
:103660000493049B9BB240339BB29B00ADF80E3099
:10367000049B1846FFF70CFDBDF80E301846FFF707
:10368000C9FC9DF80330002B11D00198FFF77EFE96
:1036900003461846FFF788FE0290029B002B06D0D7
:1036A0000122049B02FA03F31846FFF7DBFC07B084
:1036B0005DF804FBF02F002000B583B00190019865
:1036C000FFF7CCFD0346002B14BF01230023DBB220
:1036D000184603B05DF804FB00B593B000231193C6
:1036E000002310934FF48073ADF83A3001230D930B
:1036F00000230F9321E0BDF83A301846FFF774FC21
:103700000346002B0ED00D98FFF7B6FC0346002BA6
:1037100008D0BDF83A301846FFF77CFC119A0D9B93
:10372000134311930D9B5B000D93BDF83A300433A6
:10373000ADF83A300F9B01330F930F9B072BDAD96B
:103740004FF4BE70FFF750FC0346002B0AD04FF435
:10375000BE70FFF75FFC119B43F000431193FFF72E
:103760008BFD1090119BDBB2002B29D001230D9310
:1037700000230F9321E00D9A119B1340002B16D0CC
:103780000F98FFF7CBFC09900F98FFF7D7FC034683
:103790008DF823300F98FFF707FE0790079B002B4B
:1037A00005D09DF82320079B0998114698470D9B4B
:1037B0005B000D930F9B01330F930F9B072BDAD9FF
:1037C000119B002B80F2A38000238DF8333000235F
:1037D0000B934FF0FF330A9300238DF8333000230F
:1037E0000F9379E04B4A0F9B134460331B788DF89D
:1037F0001B309DF81B3023F0C0030593454A0F9BF7
:10380000134460331B785BB2B3F1FF3F61D0059B7B
:103810000A9A22FA03F303F00103002B59D09DF812
:103820001B309B098DF813300598FFF7AFFD034659
:103830001846FFF7B9FD0390039B002B03D19DF8B9
:103840001330032B45D1059B012202FA03F30D939C
:103850009DF81330032B03D10B9A0D9B13430B934D
:103860000598FFF70FFD03468DF80B300D9A109B5E
:103870001340002B03D09DF80B30022B08D00D9A7B
:10388000109B1340002B24D19DF80B30032B20D12B
:103890009DF81330032B13D19DF80B30022B01D16F
:1038A000032300E002238DF80A309DF80A300598C2
:1038B0001946FFF7A9FC9DF8333001338DF83330FA
:1038C000039B002B05D09DF81320039B0598114600
:1038D00098470F9B01330F930F9B072B82D99DF8BD
:1038E0003330002B0ED0FFF7C7FC0190019A109BDC
:1038F0009A4203D100238DF8333003E0019B1093EB
:103900000B9B0A939DF83330002B7FF465AF13B007
:103910005DF804FBF02F002082B003468DF80730DD
:1039200007499DF907305B099DF8072002F01F0247
:10393000012000FA02F2203341F8232002B0704740
:1039400000E100E082B001900B468DF803309DF855
:103950000330019A134401221A6002B0704700BF7D
:1039600084B001900B46ADF80230BDF80230019AE8
:10397000134400221A60BDF80230019A13441B68F8
:103980000393039B04B0704782B001900B46ADF8DF
:103990000230BDF80230019A13441B68002B14BF9B
:1039A00001230023DBB2184602B0704782B00190B9
:1039B0000091019BD3F80022009BDB431A40019B3E
:1039C000C3F8002202B0704782B001900091019BC1
:1039D000009AC3F8042302B0704700BF82B0019080
:1039E0000091019B009AC3F8082302B0704700BF02
:1039F00082B00190019B0522C3F8002502B07047F8
:103A000082B00190019B0022C3F8002502B07047EC
:103A100084B0039002910192039B029AC3F8082597
:103A2000039B019AC3F80C2504B0704782B0019043
:103A30000091019B009AC3F8242502B0704700BF93
:103A400084B00190019BD3F8C4340393019B039A83
:103A5000C3F8C424039B184604B0704782B0019099
:103A60000B468DF803309DF80320019BC3F8882591
:103A700002B0704782B00190019BD3F81835DBB2D9
:103A8000184602B0704700BF82B001900B468DF817
:103A900003309DF80320019BC3F81C2502B070473A
:103AA00082B001900091019B009AC3F8002202B0FD
:103AB000704700BF00B583B003468DF807309DF90D
:103AC00007301846FFF728FF03B05DF804FB00BF7E
:103AD00084B00190019B1B0B8DF80F309DF80F30C7
:103AE0005BB2184604B0704782B001904FF0A0421C
:103AF000019B012101FA03F3C2F8083502B07047B7
:103B000082B001904FF0A042019B012101FA03F322
:103B1000C2F80C3502B0704782B001904FF0A0435C
:103B2000D3F81025019B22FA03F303F00103184692
:103B300002B0704784B00190234B0393019B002B8C
:103B400040D0224B1A680399019B00BF00BF00BF01
:103B500000BF00BF00BF00BF00BF8A422FD000BF20
:103B600000BF00BF00BF00BF00BF00BF00BF00BF5D
:103B700000BF00BF00BF00BF00BF00BF00BF00BF4D
:103B800000BF00BF00BF00BF00BF00BF00BF00BF3D
:103B900000BF00BF00BF00BF00BF00BF00BF00BF2D
:103BA00000BF00BF00BF00BF00BF00BF00BF00BF1D
:103BB00000BF00BF00BF00BF00BF00BF00BF013B90
:103BC000C3D1019304B070470024F4009028002072
:103BD00084B0019003230393019B03F00103002BA6
:103BE00002D04FF402430393019B03F00203002B26
:103BF00002D048F201230393019B03F00403002B3E
:103C000002D048F202230393039B184604B0704786
:103C100000B585B001904FF0A042019B1B6803F5F1
:103C2000E07340F20C6142F823104FF0A042019B78
:103C30005B6803F5E07340F20C6142F82310019BCE
:103C40001B681846FFF750FF019B5B681846FFF79B
:103C50004BFF4FF0A042019B1B6803F5E07340F25D
:103C60000D6142F823104FF0A042019B5B6803F501
:103C7000E07340F20D6142F823100420FFF75AFF71
:103C8000002303931FE0019B5B681846FFF744FF86
:103C90000346002B04D0039B002B00D123E015E04A
:103CA000019B1B681846FFF72BFF0420FFF742FF1C
:103CB000019B1B681846FFF717FF0420FFF73AFF28
:103CC000039B01330393039B082BDCDD019B5B68A3
:103CD0001846FFF715FF0420FFF72CFF019B5B68D8
:103CE0001846FFF701FF05B05DF804FB00B587B08B
:103CF0000390029101920093039B1B791A4613468D
:103D00009B001344DB00334A13440593059B93F84F
:103D10002230002B01D0082358E0059B019A1A603D
:103D2000059B009A5A60059B00229A60059B002221
:103D300083F82520059B002283F82420029B9A7B90
:103D4000059B83F82720029B5B7B002B02D0029807
:103D5000FFF75EFF4FF0A042029B1B6803F5E07384
:103D600040F20C6142F823104FF0A042029B5B68C6
:103D700003F5E07340F20C6142F82310039B1B68CB
:103D80000493029B1A68029B5B68049811461A46CA
:103D9000FFF73EFE029B9B6804981946FFF746FE1C
:103DA000059B1B68002B0CD0039B1B681846FFF774
:103DB0008FFE03461A46029B1B7B10461946FFF7EF
:103DC000F5F8059B012283F822200023184607B04E
:103DD0005DF804FB5C30002000B585B00190019BCC
:103DE0001B791A4613469B001344DB001C4A1344FC
:103DF0000393039B1B68002B08D0019B1B6818468C
:103E0000FFF766FE03461846FFF754FE019800F0E0
:103E100045F8039B93F8273083F00103DBB2002BB6
:103E200017D04FF0A042019B1B68D3F8083503F56B
:103E3000E07340F2023142F823104FF0A042019BA0
:103E40001B68D3F80C3503F5E07340F2023142F8F9
:103E50002310039B002283F8222005B05DF804FBA9
:103E60005C30002000B585B00190019B1B791A469B
:103E700013469B001344DB00074A13440393019B42
:103E80001B6802930298FFF7B3FD039B022283F89D
:103E9000222005B05DF804FB5C30002000B585B041
:103EA0000190019B1B791A4613469B001344DB00CB
:103EB0000C4A13440393019B1B68029302984FF032
:103EC000FF31FFF78BFD02984FF0FF31FFF76EFDDA
:103ED0000298FFF795FD039B012283F8222005B08D
:103EE0005DF804FB5C30002000B585B003900291C2
:103EF000009313468DF80730009B1B789DF8072030
:103F00009A4210D9009B1B781A46029B13441B78D7
:103F100003981946FFF7B8FD009B1B780133DAB20E
:103F2000009B1A700DE09DF81830002B05D0039807
:103F30001C21FFF707FD002304E003981421FFF77D
:103F400001FD0123184605B05DF804FB10B584B0EF
:103F500003900291009313468DF80730009B1B7865
:103F60009DF807209A4227D9009B1B781A46029B8E
:103F70009C180398FFF77EFD03462370009B1B7877
:103F80000133DAB2009B1A70009B1B781A469DF829
:103F90000730013B9A4204D103980221FFF780FDCC
:103FA00006E0009B1B789DF807209A4200D103E0B1
:103FB00003982021FFF7C6FC04B010BD00B589B0FE
:103FC0000590049103920293049B1B78002B05D16A
:103FD000039B1B789DF828209A4201D1012300E021
:103FE00000238DF81F309DF81F3003F001038DF87A
:103FF0001F30049B1B78002B0FD005984FF4927153
:10400000FFF7AEFC05984FF48E71FFF7A9FC0598F9
:104010004FF48471FFF7A4FC72E005984FF492719D
:10402000FFF7B2FC0346002B0CD005984FF49271B9
:10403000FFF796FC05981421FFF784FC049B0122EE
:104040001A705DE005984FF48E71FFF79DFC0346F2
:10405000002B2BD005984FF48E71FFF781FC05984B
:104060004FF49271FFF790FC0346002B0CD005989B
:104070004FF49271FFF774FC05981421FFF762FC6E
:10408000049B01221A703BE09DF828209DF82C30FB
:10409000009305980299039BFFF726FF034683F0E0
:1040A0000103DBB2002B2BD000233DE005984FF439
:1040B0008471FFF769FC0346002B21D005984FF46B
:1040C0008471FFF74DFC05984FF49271FFF75CFC8B
:1040D0000346002B0CD005984FF49271FFF740FC7B
:1040E00005981421FFF72EFC049B01221A7007E0AB
:1040F0009DF82830059802991A46039BFFF726FF82
:104100009DF81F30002B0ED005984FF48271FFF7F9
:104110003BFC0346002B06D005984FF48271FFF755
:104120001FFC002300E00123184609B05DF804FBE2
:1041300010B588B00590049103928DF80B300023E0
:10414000079304984FF48271FFF70AFC04984FF428
:104150009271FFF705FC04984FF48E71FFF700FC95
:1041600004984FF48471FFF7FBFB04980021FFF7DC
:1041700097FC059B002283F82620059B002283F8EC
:10418000232004982021FFF7DDFB04980821FFF786
:10419000D9FB059B03F126049DF80B209DF82830E0
:1041A0000093049803992346FFF79EFE059B1B6826
:1041B000002B0AD0059B40F286229A60059B9B68E3
:1041C00004981946FFF700FC23E000BF059B03F1AC
:1041D0002301059B03F126029DF80B3000939DF807
:1041E000283001930498039BFFF7E8FE0346002B59
:1041F000ECD1059B93F82330002B0AD00498FFF7ED
:104200001FFC0690069B002B03D00698FFF7E0FCEE
:104210000790079B184608B010BD00BF00B589B0D5
:104220000590049103928DF80B30002307930498B6
:104230004FF48271FFF794FB04984FF49271FFF7EB
:104240008FFB04984FF48E71FFF78AFB04984FF4AC
:104250008471FFF785FB059B002283F82620059BD0
:10426000002283F823209DF80B30012B04D1049801
:104270000221FFF715FC03E004980121FFF710FC71
:1042800004982021FFF75EFB04980021FFF75AFBFA
:10429000059B1B68002B0AD0059B40F286229A6082
:1042A000059B9B6804981946FFF78EFB22E000BF30
:1042B000059B03F12301059B03F126029DF80B30BA
:1042C0000093002301930498039BFFF777FE0346B6
:1042D000002BEDD1059B93F82330002B0AD00498D6
:1042E000FFF7AEFB0690069B002B03D00698FFF766
:1042F0006FFC0790079B184609B05DF804FB00BFF0
:1043000010B588B00590049103920293002307939F
:1043100004984FF0FF31FFF761FB059B93F82430C1
:10432000DBB2002B07D0059B9B6804981946FFF76A
:104330004BFB112364E0029B03F00403002B0CBF32
:1043400001230023DAB2059B83F82420029B03F0AB
:104350000803002B01D0062352E0059B029A9A61C4
:10436000059B039A0C3307CA83E80700039B9A78DE
:10437000059B83F82020039B5A68059BDA61039B09
:104380005B7804981946FFF769FB039B1B78012BA8
:1043900020D0039B1B78002B04D1029B03F0200349
:1043A000002B01D0012300E0002303F00103DAB267
:1043B000059B83F82120039B5A68039B9C78059BEF
:1043C00093F821300093059804992346FFF7B0FE37
:1043D00007900CE0059B002283F82120039B5A687C
:1043E000039B9B7805980499FFF718FF0790059B9E
:1043F0001B68002B03D1059B002283F82420079B18
:10440000184608B010BD00BF00B587B003900291F8
:10441000019200230593039B1B791A4613469B00C8
:104420001344DB000B4A13440493019B03F0030382
:10443000002B01D0062309E0039B1B680498194652
:10444000029A019BFFF75CFF0590059B184607B099
:104450005DF804FB5C30002000B589B00390019248
:104460001A460B468DF80B3013468DF80A3005AB13
:1044700000221A60043300221A60043300221A60FA
:1044800004339DF80B308DF815309DF80A308DF807
:104490001630019B06939DF82830002B01D0202375
:1044A00000E0002305AA039811461A46FFF7ACFF67
:1044B0000346184609B05DF804FB00BF00B589B09B
:1044C000039001921A460B468DF80B3013468DF877
:1044D0000A3005AB00221A60043300221A6004334C
:1044E00000221A60043301238DF814309DF80B303C
:1044F0008DF815309DF80A308DF81630019B069323
:1045000005AB039819460022FFF77EFF03461846C5
:1045100009B05DF804FB00BF30B58BB00390029189
:10452000029B03F12301029B03F12605029BDC6938
:10453000029B93F82020029B93F821300092019374
:1045400003982A462346FFF739FD0346002B00D087
:104550007EE0029B93F8233083F00103DBB2002B53
:104560003FD0029B1B7B022B03D0029B1B7B032BA8
:1045700037D1029BDA69029B1B699A4231D1029BB7
:104580005A69029BDA61029BDA7B029B83F8202046
:10459000029B9B6903F02003002B14BF012300231F
:1045A000DAB2029B83F82120029B1B7B032B0ED1E6
:1045B000029BDA69029B93F82040029B93F821301A
:1045C0000093029803992346FFF7B2FD40E0029B57
:1045D000DA69029B93F8203002980399FFF71EFED8
:1045E00036E0029A06AB0C3207CA83E80700029B4A
:1045F00093F82330002B16D00398FFF721FA099087
:10460000099B03F00203002B03D001238DF8143023
:1046100008E0099B03F00403002B03D002238DF86C
:10462000143003E002E000238DF81430029B0022D6
:1046300083F82420029B9B6903F00403002B07D11D
:10464000029B1B68029A526805A9084611469847C2
:104650000BB030BD08B502480249FFF75DFF08BD49
:10466000003000405C30002084B001900B46ADF873
:104670000230BDF80230019A134400221A60BDF8DE
:104680000230019A13441B680393039B04B07047E4
:1046900082B001900B46ADF80230BDF80230019AAD
:1046A00013441B68002B14BF01230023DBB2184600
:1046B00002B0704782B001900B468DF80330019B29
:1046C000D3F804239DF803301340002B14BF0123BB
:1046D0000023DBB2184602B0704700BF00B583B0BC
:1046E0000190009101981021FFF7E4FF0346002B91
:1046F00010D001984FF48871FFF7CAFF0346002BD2
:1047000008D001984FF48871FFF7AEFF009B1B683B
:104710000120984701982021FFF7CCFF0346002B8A
:1047200010D001984FF48A71FFF7B2FF0346002BB7
:1047300008D001984FF48A71FFF796FF009B1B6821
:104740000220984701988021FFF7B4FF0346002B11
:1047500010D001984FF48E71FFF79AFF0346002B9B
:1047600008D001984FF48E71FFF77EFF009B1B6805
:104770000020984701984FF48271FFF789FF0346A4
:10478000002B0BD001984FF48271FFF76DFF009B57
:1047900001221A71009B1B680320984703B05DF843
:1047A00004FB00BF08B502480249FFF797FF08BDA8
:1047B00000C001408430002082B00346ADF80630CE
:1047C000BDF8063003F1804303F5E8331B68002B86
:1047D00014BF01230023DBB2184602B0704700BFAC
:1047E00084B00346ADF80630BDF8063003F18043CF
:1047F00003F5E83300221A60BDF8063003F1804368
:1048000003F5E8331B680393039B04B0704700BFB4
:10481000024B0022C3F80025704700BF00D00140C2
:1048200082B001900091054A019BC2F86035034AAD
:10483000009BC2F8643502B0704700BF00D0014051
:10484000024BD3F860351846704700BF00D00140D6
:1048500008B54FF48470FFF7AFFF0346002B1ED05E
:104860004FF48470FFF7BCFFFFF7EAFF0246284BC6
:10487000DB689A4209D1264B5B68254A1169244AB4
:10488000128908461146984740E0214B5B68204A50
:10489000D1681F4A128908461146984736E04FF4FE
:1048A0008070FFF789FF0346002B1FD04FF4807004
:1048B000FFF796FF164B01225A70FFF7C1FF024621
:1048C000134BDB689A4208D1114B1A69104B1B89B4
:1048D00010461946FFF7A4FF18E00D4BDA680C4BA1
:1048E0001B8910461946FFF79BFF0FE04FF48270BB
:1048F000FFF762FF0346002B08D04FF48270FFF7EA
:104900006FFFFFF785FF024B00225A7008BD00BF02
:104910008C30002082B001904FF08042019BC2F8A1
:10492000083302B0704700BF84B00346ADF80630CC
:10493000BDF8063003F1804300221A60BDF806304E
:1049400003F180431B680393039B04B0704700BFCF
:1049500082B00346ADF80630BDF8063003F180435F
:104960001B68002B14BF01230023DBB2184602B0E2
:10497000704700BF84B00190019B1B680393039BA9
:10498000002B03D0039B1A68019B1A60039B1846F7
:1049900004B0704700B585B003468DF807309DF828
:1049A0000730002B02D10B4B039301E00A4B03931A
:1049B0000398FFF7DFFF0290029B002B00D106E077
:1049C000029B5B689DF8072010469847F0E705B00A
:1049D0005DF804FBA8300020B030002008B54FF48B
:1049E0008070FFF7B5FF0346002B0CD04FF48070AA
:1049F000FFF79AFF0120FFF78DFF0D4B01225A7040
:104A00000020FFF7C7FF4FF48270FFF7A1FF0346B6
:104A1000002B0CD04FF48270FFF786FF0220FFF7C7
:104A200079FF034B01229A700120FFF7B3FF08BD05
:104A3000A030002082B003468DF807309DF8073083
:104A400003F1804303F5E04301221A6002B070478E
:104A500082B00346ADF80630BDF8063003F180435E
:104A600003F5E0431B68002B14BF01230023DBB2D6
:104A7000184602B0704700BF84B00346ADF8063058
:104A8000BDF8063003F1804303F5E04300221A60CD
:104A9000BDF8063003F1804303F5E0431B68039340
:104AA000039B04B0704700BF82B001900091054A9B
:104AB000019BC2F82C36034A009BC2F8303602B084
:104AC000704700BF0070004000B58DB04FF4827099
:104AD000FFF7BEFF0346002B43D04FF48270FFF771
:104AE000CBFF9D4B93F82B3083F00103DBB2002BFF
:104AF00004D1994B93F82C30002B32D000238DF841
:104B00001830954B5B680793934B1B899BB2ADF8AC
:104B10002030914BDB68002B04D18F4B002283F8AF
:104B2000292015E08C4BDB688B4A53608A4B9A8AAC
:104B3000894B1A81884B0022DA60874B93F82B301F
:104B400083F00103DBB2002B02D00020FFF772FFDD
:104B5000814B1B6806AA104698477F4B002283F8BA
:104B60002C207D4B93F82B30002B00F085804FF4E8
:104B70008070FFF76DFF0346002B7DD04FF48070EF
:104B8000FFF77AFF744BDB8A002B1DD1724B1B8918
:104B90009AB2714B93F82A309BB2D31A9AB26E4BE9
:104BA000DA826D4B5A686C4B1B899BB219466A4B73
:104BB000DB8ACB1A5B001A44674B93F82A30104605
:104BC0001946FFF771FF50E0634BDA8A624B93F8A6
:104BD0002A309BB29A421CD95F4BDA8A5E4B93F81B
:104BE0002A309BB2D31A9AB25B4BDA825A4B5A687C
:104BF000594B1B899BB21946574BDB8ACB1A5B007A
:104C00001A44554B93F82A3010461946FFF74CFFCB
:104C10002BE0514BDA8A504B93F82A309BB29A42E0
:104C200014D14D4BDB68002B10D04B4B012283F885
:104C30002C20494B0022DA82474BDA68464B93F826
:104C40002A3010461946FFF72FFF0EE0424BDA8A52
:104C5000414B93F82A309BB29A4206D13E4B012237
:104C600083F82C203C4B0022DA824FF48270FFF74D
:104C700003FF0420FFF7DEFE4FF48870FFF7E8FE25
:104C80000346002B0FD04FF48870FFF7F5FE324B30
:104C9000002283F8292002238DF80C302E4B1B684C
:104CA00003AA104698474FF48A70FFF7D1FE0346D7
:104CB000002B08D04FF48A70FFF7DEFE264B00224F
:104CC00083F8292044E0244B1B690B933DE00B9BA8
:104CD000B3FA83F30A930A9B4FF0004222FA03F3DC
:104CE000DB430B9A13400B930A9B9BB246339BB258
:104CF0009B00ADF82630BDF826301846FFF7A8FE19
:104D00000346002B21D0BDF826301846FFF7B4FE2D
:104D100001238DF80030BDF82630A3F58C73DB0835
:104D2000DBB28DF80430BDF82630A3F58C7303F0A8
:104D30000403002B0CBF01230023DBB28DF80530E8
:104D4000054B1B686A46104698470B9B002BBED14B
:104D50000DB05DF804FB00BFB430002084B00190BA
:104D60000B46ADF80230BDF80230019A1344002220
:104D70001A60BDF80230019A13441B680393039B29
:104D800004B0704782B001900B46ADF80230BDF818
:104D90000230019A13441B68002B14BF0123002327
:104DA000DBB2184602B0704782B001900091019BBF
