:020000021000EC
:10F0000000000120CD290500F5290500F72905009C
:10F01000F9290500FB290500FD2905000000000075
:10F02000000000000000000000000000FF290500B3
:10F03000012A050000000000032A0500052A05003A
:10F04000755B0200072A0500C5640200ED57020047
:10F05000072A0500072A050071480200615C0200CA
:10F06000072A0500072A0500072A0500072A0500C8
:10F07000072A0500072A0500072A0500072A0500B8
:10F08000072A050029750200072A0500072A05003E
:10F0900065750200072A0500C5990200072A0500C8
:10F0A000072A0500072A0500072A0500072A050088
:10F0B0003D590200E9590200000000000000000074
:10F0C000072A0500072A0500072A0500072A050068
:10F0D000072A0500072A0500072A0500000000008E
:10F0E0000000000000000000000000000000000020
:10F0F0000000000000000000000000000000000010
:10F1000000000000000000000000000000000000FF
:10F1100000000000000000000000000000000000EF
:10F40000044B05481B1A062B02D9044B03B11847BD
:10F41000704700BFFF280020FC28002000000000EB
:10F4200005490648091A891001EBD171491002D02B
:10F43000034B03B118477047FC280020FC2800202C
:10F440000000000010B5064C237843B9FFF7D8FF41
:10F45000044B13B10448AFF300800123237010BDA7
:10F460000C2900200000000010A8050008B5084B7A
:10F470001BB108480849AFF300800848036813B976
:10F48000BDE80840CCE7064B002BF9D09847F7E7DA
:10F490000000000010A8050010290020F828002016
:10F4A00000000000134B002B08BF114B9D46A3F535
:10F4B000803A00218B460F461148124A121A00F07A
:10F4C00079F80D4B002B00D098470C4B002B00D047
:10F4D00098470020002104000D000B4800F016F8AA
:10F4E00000F042F82000290000F094FF00F014F82A
:10F4F00000000800000001200000000000000000E3
:10F500000C290020F0EC002041F50100014600200C
:10F510000246034600F056B808B5074B044613B13F
:10F52000002100F0ABF8054B1868836A03B19847D7
:10F53000204600F00DF900BF7DF60100EC550500F6
:10F5400038B5074B074CE41AA4101D4624B1013C02
:10F5500055F824309847F9E7BDE8384036F03EB812
:10F56000F4280020F828002070B50E4B0E4CE41A49
:10F57000A41000251E46A54204D056F82530984711
:10F580000135F8E736F024F8084C094BE41AA410CA
:10F5900000251E46A54204D056F82530984701356F
:10F5A000F8E770BDF0280020F0280020F4280020A3
:10F5B000F028002002440346934202D003F8011BC6
:10F5C000FAE770472DE9F843294D2C6806460F46A7
:10F5D000914698460CB9274C2C6063681F2B14DDAC
:10F5E000254B1BB94FF0FF30BDE8F8838C20AFF3FB
:10F5F000008004460028F5D000232A68026043609A
:10F600002860C0F888303EB928E03EB3D4F88800BE
:10F6100078B9194B002BE5D04FF48470AFF300801C
:10F620000028DFD00023C0F80031C0F80431C4F84E
:10F630008800626840F822900123934000EB820129
:10F64000D0F800211A43022EC0F80021C1F88080B2
:10F6500002BFD0F804211343C0F8043163685A1C78
:10F6600002336260002044F82370BDE8F88300BFD5
:10F67000B429002028290020000000002DE9F74FC0
:10F6800080460F46304E3468002C59D06568D4F857
:10F69000889005F1FF3AAD0009EB050B04352544D0
:10F6A000BAF1000F38DB37B1B9F1000F2ED0DBF81B
:10F6B0007C20BA422AD161682A6801398A4516BF7E
:10F6C0000021C4F804A0296002B363680193B9F172
:10F6D000000F06D00121D9F8000101FA0AF1014218
:10F6E00001D190470BE0D9F80401014204D1404612
:10F6F0005BF8041C904702E05BF8040C90476268DA
:10F70000019B9342BED13268A242BBD10AF1FF3ABB
:10F71000ABF1040B043DC3E70C4B8BB1626823686B
:10F720005AB953B13360B9F1000F02D04846AFF374
:10F7300000802046AFF30080A5E726461C46A3E7DD
:10F7400003B0BDE8F08F00BFB42900200000000026
:10F75000FEE700BFBFF34F8F0549054BDB6803F49D
:10F76000E062044B1343CB60BFF34F8F00BFFDE754
:10F7700000ED00E00400FA0582B001900846114651
:10F780001A4603468DF803300B468DF802301346B7
:10F790008DF801304FF0A0419DF803209DF8023014
:10F7A0005B001A439DF801309B001A439DF8083016
:10F7B0001B021A439DF80C301B041A43019B03F5EE
:10F7C000E07341F8232002B0704700BF00B585B058
:10F7D0000390002300930023019303980121012249
:10F7E0000023FFF7C9FF05B05DF804FB82B001906C
:10F7F0004FF0A042019B012101FA03F3C2F8083542
:10F8000002B0704782B001904FF0A042019B0121ED
:10F8100001FA03F3C2F80C3502B0704784B00190CE
:10F82000234B0393019B002B40D0224B1A68039972
:10F83000019B00BF00BF00BF00BF00BF00BF00BFF3
:10F8400000BF8A422FD000BF00BF00BF00BF00BF73
:10F8500000BF00BF00BF00BF00BF00BF00BF00BFB0
:10F8600000BF00BF00BF00BF00BF00BF00BF00BFA0
:10F8700000BF00BF00BF00BF00BF00BF00BF00BF90
:10F8800000BF00BF00BF00BF00BF00BF00BF00BF80
:10F8900000BF00BF00BF00BF00BF00BF00BF00BF70
:10F8A00000BF00BF00BF013BC3D1019304B070474C
:10F8B0000024F4009428002000B583B00190019B3F
:10F8C0004FF47A7202FB03F31846FFF7A7FF03B069
:10F8D0005DF804FB08B50020054909F04FFF17F05B
:10F8E0003BFF044B01221A70034B03221A7008BD20
:10F8F00070560500052A0020042A002008B50020C3
:10F90000054909F03BFF054B00221A70044B022207
:10F910001A70FFF71FFF08BD90560500052A00204A
:10F92000042A002000B587B01F4B1B6818461F49EA
:10F930000CF066FA0590059B0493049B002B04D001
:10F940000498F8211A4A03F037FC0BF0C9FB059024
:10F95000059B0393039B002B04D00398FB21144ABF
:10F9600003F02AFC0CF0D6FF11F096FD0346059338
:10F97000059B0293029B002B05D002984FF48171E6
:10F980000B4A03F019FC0AF033FB0590059B019329
:10F99000019B002B05D0019840F20511044A03F0A9
:10F9A0000BFC07B05DF804FBFC290020BCE700203D
:10F9B000B056050000B583B00D4B1B6818460CF01F
:10F9C000AFF90190019B0093009B002B05D000989C
:10F9D00040F20D11074A03F0EFFB0020064909F041
:10F9E000CDFE064B01221A7003B05DF804FB00BF88
:10F9F000FC290020B0560500F8560500042A002016
:10FA000000B583B00190019B1B7A012B0AD0022B19
:10FA100000D00EE00020084909F0B0FE074B02229A
:10FA20001A7006E00020064909F0A8FEFFF7C2FFA1
:10FA300000BF03B05DF804FB28570500042A00202E
:10FA40005057050082B0019002B0704700B585B0F4
:10FA500003460A468DF8073013468DF80630184BDA
:10FA60001B7883F00103DBB2002B00D024E09DF86B
:10FA70000630012B20D19DF807300B2B00D01BE066
:10FA8000104B1B7883F00103DBB2002B13D00E4B1D
:10FA900018464FF40071002207F0EEFD0390039B1F
:10FAA0000293029B002B06D002984FF4A971074ADB
:10FAB00003F082FBFFE700BF05B05DF804FB00BF69
:10FAC000052A0020062A0020DC290020B056050067
:10FAD00000B585B001900BF0B9FE0390039B029333
:10FAE000029B002B05D0029840F26B11024A03F0F2
:10FAF00063FB05B05DF804FBB056050000B583B0AC
:10FB0000019017F029FE0AF0B9FB03B05DF804FB81
:10FB100000B58BB0079006910592059B0993099B50
:10FB20005A68099B1B881946099B9B6800920191A2
:10FB3000029300200749079A069B09F01FFE6420E4
:10FB4000FFF7BAFE07980699059A03F04DFB0BB034
:10FB50005DF804FB7857050000B583B003460091BB
:10FB6000ADF80630BDF8063003481946009A03F098
:10FB700023FB03B05DF804FBEFBEADDEF0B5D5B0FE
:10FB800002460DF10F031A7034AB602218460021B3
:10FB9000FFF710FD01238DF8F33001238DF8F930C4
:10FBA00001238DF8FF3001238DF8233101238DF8D7
:10FBB000293101238DF82F3104AB964A1946C02311
:10FBC000084611461A4635F0B7F80DF10F031B78B9
:10FBD000002B06D004AB904AB433106818609288AA
:10FBE0009A8002F0EBFB5290529B5193519B002B59
:10FBF00005D0519840F2B511884A03F0DDFA002390
:10FC00008DF84F3192E09DF84F019DF84F2113463A
:10FC10005B0013445B0054AA1344803B1E789DF89C
:10FC20004F2113465B0013445B0054AA1344803BEE
:10FC30005D789DF84F2113465B0013445B0054AA86
:10FC40001344803B9C789DF84F2113465B0013447E
:10FC50005B0054AA1344803BD9789DF84F2113468A
:10FC60005B0013445B0054AA1344803B1B79009152
:10FC7000019331462A46234602F074F95290529B72
:10FC80005093509B002B05D0509840F2C111634A0D
:10FC900003F092FA9DF84F2113465B0013445B007A
:10FCA00054AA1344803B5B79012B16D0022B27D03A
:10FCB000002B34D19DF84F31184602F06FFC529062
:10FCC000529B4F934F9B002B06D04F9840F2C71189
:10FCD000524A03F071FA24E023E09DF84F311846B0
:10FCE00002F006FC5290529B4E934E9B002B06D086
:10FCF0004E984FF4E671494A03F05EFA11E010E0C5
:10FD000000235293529B4D934D9B002B06D04D9850
:10FD100040F2D111414A03F04FFA02E001E006231C
:10FD200052939DF84F3101338DF84F319DF84F318B
:10FD30000F2B7FF668AF00238DF84E3163E09DF8FE
:10FD40004E719DF84E2104A913465B0013445B00DD
:10FD50000B441E789DF84E2104A913465B00134402
:10FD60005B000B445D789DF84E2104A913465B00AF
:10FD700013445B000B449C789DF84E2104A9134664
:10FD80005B0013445B000B44D9789DF84E2104A816
:10FD900013465B0013445B0003441B7900910193FD
:10FDA000384631462A462346FFF7E6FC9DF84E21A9
:10FDB00004A913465B0013445B000B445B79012BE1
:10FDC00009D0022B19D0002B0BD19DF84E311846CB
:10FDD000FFF718FD12E09DF84E311846FFF706FDBB
:10FDE0000CE006234C934C9B002B07D04C984FF40F
:10FDF000F9710A4A03F0E0F900E000BF9DF84E31C6
:10FE000001338DF84E319DF84E311F2B97D955B0E7
:10FE1000F0BD00BFCC5705008C580500B05605005A
:10FE200000B585B00F2000F0FFFB0390039B029309
:10FE3000029B002B05D002984FF421710B4A03F06E
:10FE4000BBF90B4B00936B46184603F0F3F8039095
:10FE5000039B0193019B002B05D0019840F28F2159
:10FE6000024A03F0A9F905B05DF804FBB05605009D
:10FE7000F055050000B58BB01E20FFF7A7FC1E2033
:10FE8000FFF7B4FC4B20FFF717FD3E4B019301AB8E
:10FE90001846012102F0D8FB0990099B0893089BA2
:10FEA000002B05D0089840F2CA21374A03F084F9A4
:10FEB0000120FFF763FE072002F0C6FA0990099BB4
:10FEC0000793079B002B05D0079840F2CF212E4ABD
:10FED00003F072F9052002F0B7FA0990099B069326
:10FEE000069B002B05D0069840F2D121264A03F04C
:10FEF00063F9062002F0A8FA0990099B0593059B77
:10FF0000002B05D0059840F2D3211F4A03F054F985
:10FF1000072002F0EDFA0990099B0493049B002B43
:10FF200005D0049840F2D521174A03F045F9052081
:10FF300002F0DEFA0990099B0393039B002B05D086
:10FF4000039840F2D721104A03F036F9062002F058
:10FF5000CFFA0990099B0293029B002B05D00298CF
:10FF600040F2D921084A03F027F91D20FFF72EFCA3
:10FF70001D20FFF747FC6420FFF79EFC0BB05DF8E7
:10FF800004FB00BFA0590500B056050000B585B0C0
:10FF900001900091009B1B78002B02D0012B16D002
:10FFA0003FE0009BDB6900201F491A4609F0E6FB91
:10FFB000009BDB69002B09D11C4B01221A701C4BE2
:10FFC00001221A701B4B04221A702AE029E000203B
:10FFD000194909F0D3FB154B00221A70154B032267
:10FFE0001A70009BDB694CF64412934214D1134BF8
:10FFF00018464FF40071002207F03EFB0390039B6C
:020000022000DC
:100000000293029B002B06D002984FF442710C4AD7
:1000100003F0D2F804E003E0054B00221A70FFE77A
:1000200000BF05B05DF804FB94580500062A0020C7
:10003000072A0020042A0020C4580500DC290020DB
:10004000B056050010B590B00390694B1B7883F053
:100050000103DBB2002B00D0C8E0664B1B7883F0B5
:100060000103DBB2002B00D0C0E002F0D5FE0F9000
:100070000F9B0E930E9B002B05D00E9840F2323151
:100080005D4A03F099F85D4801F020FB5B4BD3ED2E
:10009000007AFCEEE77ACDED027ABDF808309AB22C
:1000A000574B1A8002F054FF03460F930F9B0D939A
:1000B0000D9B002B05D00D9840F239314E4A03F0CC
:1000C0007BF801F069FA03469AB24E4B1A8002F0AF
:1000D000FFFE03460F930F9B0C930C9B002B05D048
:1000E0000C9840F23E31444A03F066F8464800F06E
:1000F00071FC424BD3ED007AFCEEE77ACDED027A4B
:10010000BDF808309BB21A463E4B1B881C463E4B3E
:10011000D3ED007AFCEEE77ACDED027ABDF8083037
:100120009BB2009339483A49234634F02BFE002312
:100130008DF81C30374B0593364834F04FFE03469C
:100140000693324B0893314834F048FE0346099336
:10015000314B1B88ADF828309DF82A306FF300032F
:100160008DF82A309DF82A306FF341038DF82A303C
:10017000234B1B88002029491A4609F0FFFA214B1E
:100180001B88002026491A4609F0F8FA1E4BD3EDC9
:10019000007AFCEEE77ACDED027ABDF808309BB22A
:1001A000002020491A4609F0E9FA05AB1E48194615
:1001B00009F090FF0F900F9B4CF61112934210D054
:1001C0000F9B0B930B9B002B05D00B984FF4587192
:1001D000094A02F0F1FF104B1B8802339AB20E4B12
:1001E0001A80002011490F9A09F0C8FA10B010BD0A
:1001F000072A0020062A0020B0560500B8E7002094
:100200006628002064280020B8290020602A0020E9
:10021000E85805002C5905006828002048590500B9
:100220005859050068590500082A0020785905002A
:1002300000B585B00190204809F0E8FE1F4B204A28
:100240001A601F4834F0CAFD02461C4B5A601D4814
:100250001D49102234F070FD174B42F2B3221A866A
:10026000154B1A4ADA61144B194A1A60184834F0CF
:10027000B5FD0246104B5A600F4B0022DA600E4B60
:1002800000229A600C4B012283F833200A4B114A5A
:100290009A61094809F0C8FE0390039B0293029BF0
:1002A000002B05D0029840F286310B4A02F084FF01
:1002B00005B05DF804FB00BF082A002030320020A2
:1002C00010560500282A0020605605008DFF010009
:1002D0000056050078280020B056050000B585B00E
:1002E0001F200621114A124B07F040F90390039B8F
:1002F0000293029B002B05D0029840F293310D4AE5
:1003000002F05AFF0C4800210C4A07F085F90190D1
:10031000019B0093009B002B05D0009840F299317F
:10032000044A02F049FF05B05DF804FB38320020B2
:1003300075770200B0560500FC5505003102020039
:1003400000B585B01A480BF02FFA0390039B029377
:10035000029B002B05D0029840F2B331154A02F0FF
:100360002BFF15480121154A07F056F90390039B0E
:100370000193019B002B05D0019840F2B9310D4A41
:1003800002F01AFF0E4B18460A21002207F074F9FA
:100390000390039B0093009B002B05D0009840F234
:1003A000BF31044A02F008FF05B05DF804FB00BF4E
:1003B000BC590500B0560500F8550500D1FA0100FA
:1003C000BC29002000B585B010480121332206F079
:1003D00049F90390039B0293029B002B05D00298DE
:1003E00040F2D2310A4A02F0E7FE06F0AFF903907C
:1003F000039B0193019B002B05D0019840F2D5315E
:10040000034A02F0D9FE05B05DF804FB88280020FD
:10041000B056050000B58BB0454800210C22FFF70F
:10042000C9F8434B434A1A60414B434A5A60404B18
:1004300000221A723E480121404A0BF037FD099014
:10044000099B0893089B002B05D0089840F2E731E0
:100450003B4A02F0B1FE394B1A686B46104619460A
:100460000BF084FC099000238DF80530334B1A689B
:100470006B46104619460BF099FC0990099B0793AF
:10048000079B002B05D0079840F2F1312C4A02F06F
:1004900093FEFFF747FAFFF78DFAFFF7EBFCFFF744
:1004A0001DFFFFF74DFFFFF78DFFFFF7B9FC082099
:1004B0003C21244A06F0C4F90690069B0593059B4F
:1004C000002B05D005984FF480611D4A02F074FEA0
:1004D00002F0A2FC0990099B0493049B002B05D019
:1004E000049840F20341164A02F066FE02F030FD25
:1004F00003460993099B0393039B002B05D00398A4
:1005000040F206410E4A02F057FE02F0E1FC0346BB
:100510000993099B0293029B002B05D0029840F29D
:100520000941074A02F048FE06F050FAFCE700BF16
:10053000C832002001FA010045FA0100FC29002020
:10054000B0560500D432002082B003468DF8073043
:100550009DF90730002B0BDA0B4A9DF8073003F0AA
:100560000F03043B13441B7EDBB25B09DBB208E0E4
:10057000064A9DF90730134493F80033DBB25B0958
:10058000DBB2184602B0704700ED00E000E100E089
:1005900000B585B0EFF305830193019BC3F3080316
:1005A0000393039B002B0BD0039B103B0293029BF6
:1005B000DBB25BB21846FFF7C7FF0346DBB200E0D1
:1005C0000F23184605B05DF804FB00BF00B587B0E7
:1005D0000390029101920093FFF7DAFF03468DF832
:1005E00017300F4B1B789DF817209A4201D20F232A
:1005F00011E003980299019A009B04F043FC0490D7
:10060000049B002B06D0074B1B680133054A13607F
:10061000049B00E00023184607B05DF804FB00BF10
:1006200090280020A436002082B003468DF80730C1
:10063000054A9DF807301370044B00221A6000230E
:10064000184602B0704700BF90280020A436002052
:1006500082B001904FF0A043D3F81025019B22FAFD
:1006600003F303F00103184602B0704700B585B0EC
:1006700001900B46ADF8023000238DF80C300123B9
:100680008DF80D30034B1B6903AA1046984705B03F
:100690005DF804FBA836002000B585B001900B463C
:1006A0008DF803300F4B5A68019B9A4217D10D4BBE
:1006B0005B681846FFF7CCFF0346002B0FD10020E4
:1006C0000021094A06F000F90390039B0293029B64
:1006D000002B04D002985621044A02F06DFD05B0AB
:1006E0005DF804FBA83600206D060200D459050011
:1006F00000B587B0039003F0CFFF034683F00103FA
:10070000DBB2002B0FD003F083FF0590059B002B7D
:1007100009D0059B009300201749184A642309F06B
:100720002DF8059B24E000238DF8123000238DF86E
:10073000133003238DF8113003238DF8103004ABF0
:10074000039819460E4A03F0B3FF0590059B002B52
:1007500009D0059B009300200749084A6D2309F042
:100760000DF8059B04E00398012103F0FBFF002333
:10077000184607B05DF804FB1C5A0500D459050063
:100780009906020000B587B00390039B002B01D1AE
:100790000E2372E0039B9B68002B01D10E236CE0BB
:1007A000039BDB68002B01D10E2366E0039B1B69D2
:1007B000002B01D10E2360E0039B1A7D314B1A758B
:1007C000039B1B692F4A1361039B1A782D4B1A70E8
:1007D000039B5B682B4A5360039B9B68294A936089
:1007E000039BDB68274AD360264B00225A752548B5
:1007F00000F03CFA0590059B002B09D0059B009367
:1008000000202149214A912308F0B8FF059B34E0DC
:100810000DF11303184600F049FA0590059B002BD3
:1008200009D0059B009300201749184A942308F02B
:10083000A5FF059B21E0002000F08AFC0590059BA8
:10084000002B09D0059B009300200F490F4A9723E6
:1008500008F094FF059B10E000F018FA0590059B46
:10086000002B09D0059B009300200749074A9A23D3
:1008700008F084FF059B00E00023184607B05DF8F0
:1008800004FB00BFA83600201C5A0500D4590500FF
:1008900000B587B04B4B5B7D002B01D000238CE073
:1008A000484B01225A75474B5B681846FFF720FFFB
:1008B0000590059B002B09D0059B00930020424921
:1008C000424AB92308F05AFF059B76E03D4800F004
:1008D000CDF90590059B002B09D0059B00930020C6
:1008E00039493A4ABC2308F049FF059B65E038487E
:1008F00000F008FA0590059B002B09D0059B00939A
:1009000000203149314ABF2308F038FF059B54E0ED
:100910000DF11303184600F03BFB0590059B002BDF
:1009200009D0059B009300202749284AC22308F0DC
:1009300025FF059B41E09DF8133003F00103002BD8
:1009400011D003AB184600F04FFB0590059B002B20
:1009500009D0059B009300201B491C4AC72308F0BF
:100960000DFF059B29E09DF8133003F002035B1097
:10097000012B11D104AB184600F09AFB0590059BA2
:10098000002B09D0059B009300200F490F4ACE236E
:1009900008F0F4FE059B10E000F078F90590059B47
:1009A000002B09D0059B009300200749074AD2235A
:1009B00008F0E4FE059B00E00023184607B05DF850
:1009C00004FB00BFA83600201C5A0500D4590500BE
:1009D000645A050000B589B00390274800F046F935
:1009E0000790079B002B0ED0079B00930020234904
:1009F000234A4FF4827308F0C1FE079B07EE903A3A
:100A0000F8EE677A32E004AB184600F0EDFA079092
:100A1000079B0693069B002B05D0069840F2071112
:100A2000174A02F0C9FB00F031F90790079B0593C4
:100A3000059B002B05D005984FF48571104A02F0F4
:100A4000BBFB049B07EE903AF8EE677A9FED0D7AB8
:100A5000C7EE877A039BC3ED007A049B07EE903ABA
:100A6000F8EE677A9FED077AC7EE877AB0EE670AED
:100A700009B05DF804FB00BFA83600201C5A050031
:100A8000D45905000000804500B585B0174800F036
:100A9000EDF80390039B0293029B002B05D0029874
:100AA0004FF48B71124A02F087FB00F025FA039095
:100AB000039B0193019B002B05D0019840F2191173
:100AC0000B4A02F079FB00F0E1F80390039B0093DE
:100AD000009B002B05D000984FF48E71044A02F061
:100AE0006BFB0023184605B05DF804FBA836002018
:100AF000D459050000B585B0124B1B689A68114B9C
:100B00001B68DB681046194600220023FFF75EFDD4
:100B10000390039B002B09D0039B009300200A49FC
:100B20000A4A4A2308F02AFE039B06E0054B1B688D
:100B30009B68184604F062FA0023184605B05DF879
:100B400004FB00BFC0360020705A0500B85A0500EB
:100B500008B5074B1B689B68184604F06BFA044BFA
:100B60001B689B68184604F003FA0023184608BD6A
:100B7000C036002000B587B0034602918DF80F30D3
:100B80001C4B1B6898681B4B1B6819780DF10F02F2
:100B900001230093012304F02BFD0590059B002BFE
:100BA00009D0059B009300201349144A702308F0D4
:100BB000E5FD059B1AE00F4B1B689A680D4B1B68FF
:100BC0001B7810461946029A012304F043FD059054
:100BD000059B002B09D0059B009300200649074A7E
:100BE000762308F0CBFD059B00E00023184607B0F4
:100BF0005DF804FBC0360020705A0500B85A0500A5
:100C000000B587B003460A468DF80F3013468DF8BD
:100C10000E309DF80F308DF810309DF80E308DF8A5
:100C200011300F4B1B6898680D4B1B68197804AA8C
:100C300000230093022304F0DBFC0590059B002BAE
:100C400009D0059B009300200649074A8F2308F02E
:100C500095FD059B00E00023184607B05DF804FBF6
:100C6000C0360020705A0500B85A050000B583B0A0
:100C70000190054A019B1360FFF73CFF03461846AD
:100C800003B05DF804FB00BFC036002000B583B0A0
:100C9000FFF75EFF0190044B00221A60019B18468B
:100CA00003B05DF804FB00BFC036002000B587B07C
:100CB0000390114B1B68002B01D1082318E00F2073
:100CC0000399FFF757FF0590059B002B09D0059B63
:100CD0000093002009490A4AAE2308F04FFD059B06
:100CE00006E0039B1B78B12B01D1002300E0052314
:100CF000184607B05DF804FBC0360020705A0500A6
:100D0000B85A050000B587B00390784B1B68002BDC
:100D100001D10823E5E0039B002B01D10E23E0E085
:100D2000039B1B780B201946FFF76AFF0590059B74
:100D3000002B09D0059B009300206D496D4ABF230D
:100D400008F01CFD059BCCE0039B5B881B0A9BB253
:100D5000DBB20D201946FFF753FF0590059B002BD2
:100D600009D0059B009300206149624AC22308F024
:100D700005FD059BB5E0039B5B88DBB20C201946A3
:100D8000FFF73EFF0590059B002B09D0059B0093C4
:100D900000205749574AC52308F0F0FC059BA0E006
:100DA000039B1B7903F07F038DF813309DF81330FC
:100DB00010201946FFF724FF0590059B002B09D052
:100DC000059B009300204A494A4ACA2308F0D6FCF2
:100DD000059B86E0039B5B7923F002038DF81230BC
:100DE0009DF8123011201946FFF70AFF0590059B68
:100DF000002B09D0059B009300203D493D4ACF239D
:100E000008F0BCFC059B6CE0039B9B791220194603
:100E1000FFF7F6FE0590059B002B09D0059B00937C
:100E200000203349334AD22308F0A8FC059B58E040
:100E3000039BDB7914201946FFF7E2FE0590059B22
:100E4000002B09D0059B009300202949294AD5236E
:100E500008F094FC059B44E00DF111031A2019469B
:100E6000FFF788FE0590059B002B09D0059B00939A
:100E700000201F491F4AD82308F080FC059B30E062
:100E80009DF8113003F00303DBB28DF81130039BA2
:100E90001B7A03F00103002B07D09DF8113043F0BB
:100EA0000103DBB28DF8113006E09DF8113023F01C
:100EB0000103DBB28DF811309DF811301A2019466C
:100EC000FFF79EFE0590059B002B09D0059B009324
:100ED00000200749074AE72308F050FC059B00E083
:100EE0000023184607B05DF804FB00BFC0360020A1
:100EF000705A0500B85A050000B585B0214B1B6833
:100F0000002B01D1082339E00DF10B031120194604
:100F1000FFF730FE0390039B002B0AD0039B009346
:100F200000201949194A40F29D1308F027FC039B41
:100F300024E09DF80B3003F00103002B01D01123B6
:100F40001CE09DF80B3043F00103DBB28DF80B3051
:100F50009DF80B3011201946FFF752FE0390039BBA
:100F6000002B0AD0039B009300200749074A40F258
:100F7000A71308F003FC039B00E00023184605B00C
:100F80005DF804FBC0360020705A0500B85A050011
:100F900000B587B00390114B1B68002B01D10823CB
:100FA00018E0039B002B01D10E2313E027200399A7
:100FB000FFF7E0FD0590059B002B0AD0059B0093F1
:100FC00000200749074A40F2C31308F0D7FB059BEE
:100FD00000E00023184607B05DF804FBC03600208F
:100FE000705A0500B85A050000B587B003902D4B24
:100FF0001B68002B01D1082350E0039B002B01D17B
:101000000E234BE00DF1130328201946FFF7B2FD24
:101010000590059B002B0AD0059B009300202249D8
:10102000224A4FF4F17308F0A9FB059B36E00DF15D
:10103000120329201946FFF79DFD0590059B002B03
:101040000AD0059B009300201749184A40F2E51387
:1010500008F094FB059B21E00DF111032A201946AD
:10106000FFF788FD0590059B002B0AD0059B009398
:1010700000200D490D4A4FF4F47308F07FFB059BE7
:101080000CE09DF811301A049DF812301B02134435
:101090009DF813201A44039B1A600023184607B0DA
:1010A0005DF804FBC0360020705A0500B85A0500F0
:1010B00000B587B00390234B1B68002B01D1082398
:1010C0003BE0039B002B01D10E2336E00DF113030F
:1010D0002B201946FFF74EFD0590059B002B0AD0EB
:1010E000059B009300201849184A4FF4FD7308F03F
:1010F00045FB059B21E00DF112032C201946FFF75B
:1011000039FD0590059B002B0AD0059B009300201C
:101110000D490E4A40F2FD1308F030FB059B0CE030
:101120009DF812309BB21B029AB29DF813309BB20D
:1011300013449AB2039B1A800023184607B05DF847
:1011400004FB00BFC0360020705A0500B85A0500E5
:1011500000B587B003468DF80F30274B1B68002B76
:1011600001D1082344E00DF1120310201946FFF7C6
:1011700001FD0590059B002B0AD0059B00930020E4
:101180001E491F4A40F20E2308F0F8FA059B2FE093
:101190009DF812308DF813309DF8133023F0700352
:1011A0008DF813309DF80F301B01DAB29DF8133023
:1011B0001343DBB28DF813309DF812309DF81320E5
:1011C0009A4214D09DF8123010201946FFF718FDEE
:1011D0000590059B002B0AD0059B00930020074932
:1011E000074A4FF4067308F0C9FA059B00E0002394
:1011F000184607B05DF804FBC0360020705A0500A1
:10120000B85A050082B001904FF0A043D3F81025E2
:10121000019B22FA03F303F00103184602B0704762
:1012200000B583B001900B46ADF80230034B1B694B
:101230000020984703B05DF804FB00BFC4360020CF
:1012400000B585B001900B468DF803300F4B5A68FE
:10125000019B9A4217D10D4B5B681846FFF7D2FFEE
:101260000346002B0FD100200021094A05F02CFB7A
:101270000390039B0293029B002B04D002985421FD
:10128000044A01F099FF05B05DF804FBC436002064
:1012900021120200005B050000B587B0039003F047
:1012A000FBF9034683F00103DBB2002B0FD003F000
:1012B000AFF90590059B002B09D0059B00930020FA
:1012C0001749184A622308F059FA059B24E00023C5
:1012D0008DF8123000238DF8133003238DF8113070
:1012E00003238DF8103004AB039819460E4A03F01F
:1012F000DFF90590059B002B09D0059B009300208A
:101300000749084A6B2308F039FA059B04E0039863
:10131000012103F027FA0023184607B05DF804FB0B
:10132000485B0500005B05004112020000B589B072
:101330000390039B002B01D10E23C0E0039B9B680D
:10134000002B01D10E23BAE0039BDB68002B01D1F7
:101350000E23B4E0039B1B69002B01D10E23AEE0EA
:10136000039B1B69584A1361039B1A78564B1A70EA
:10137000039B5B68544A5360039B9B68524A93608B
:10138000039BDB68504AD3604F4B00221A754E48CE
:1013900000F074FB0790079B002B09D0079B00937C
:1013A00000204A494A4A8F2308F0E8F9079B86E063
:1013B00000F084FB0790079B002B09D0079B00934C
:1013C00000204249424A922308F0D8F9079B76E070
:1013D000404800F051FC0790079B002B09D0079B69
:1013E0000093002039493A4A952308F0C7F9079B32
:1013F00065E0394800F090FB0790079B002B09D06F
:10140000079B009300203149314A9F2308F0B6F929
:10141000079B54E00DF11B03184600F001FC0790F8
:10142000079B002B09D0079B009300202749284ADF
:10143000A42308F0A3F9079B41E09DF81B3003F0BB
:101440000303002B24D006AB184600F09FFC079046
:10145000079B002B09D0079B009300201B491C4AC7
:10146000AC2308F08BF9079B29E00DF11603184611
:1014700000F0DCFC0790079B002B09D0079B009332
:1014800000201249124AAE2308F078F9079B16E0B3
:101490009DF81B3003F00303002BBBD100F0FEFAD4
:1014A0000790079B002B09D0079B0093002007495A
:1014B000074AB42308F062F9079B00E000231846AE
:1014C00009B05DF804FB00BFC4360020485B05008E
:1014D000005B0500DA360020905B050000B585B0A2
:1014E000294B1B7D002B01D0002348E0264B012215
:1014F0001A75254800F0C2FA0390039B002B09D00F
:10150000039B009300202149214ACD2308F036F99E
:10151000039B34E01F4800F0FFFA0390039B002B6D
:1015200009D0039B009300201849194AD02308F0E2
:1015300025F9039B23E000F0B1FA0390039B002BF5
:1015400009D0039B009300201049114AD32308F0CF
:1015500015F9039B13E00C4B5B681846FFF79CFEE4
:101560000390039B002B09D0039B009300200749A5
:10157000074AD62308F002F9039B00E0002318462F
:1015800005B05DF804FB00BFC4360020485B0500D1
:10159000005B0500945B050000B58BB04FF00003C5
:1015A00009934FF000030893454800F067FA07904D
:1015B000079B002B0BD0079B009300204149424A18
:1015C0004FF48B7308F0DAF8079B9BB272E004AB20
:1015D000184600F0DBFB0790079B0693069B002B49
:1015E00005D0069840F21911374A01F0E5FD00F0E8
:1015F00055FA0790079B0593059B002B05D005988E
:101600004FF48E71304A01F0D7FD2D4BDB7D1A4629
:101610002B4B9B7DD31A07EE903AF8EEE77AB0EEAB
:10162000007AC7EE877ACDED097ABDF810301AB28C
:10163000234B9B8B1BB2D31A07EE903AB8EEE77A96
:10164000DDED097A27EE277A1D4BDB8B1AB21C4B96
:101650009B8B1BB2D31A07EE903AF8EEE77AC7EEEF
:10166000277ACDED087A164B9B7D184632F0BEFDE9
:1016700002460B46104619464FF000024FF08043D9
:1016800032F044FF02460B461046194633F026F866
:10169000034609939DED097ADDED087A77EE277A06
:1016A000FDEEE77ACDED037ABDF80C30ADF81230DF
:1016B000BDF812301BB218460BB05DF804FB00BF3A
:1016C000C4360020485B0500005B050000B58DB006
:1016D00003904FF000030B934FF000030A934FF079
:1016E00000030993474800F0C9F90890089B002BB4
:1016F0000ED0089B009300204349444A40F2331324
:1017000008F03CF8089B07EE903AF8EE677A74E030
:101710000DF11603184600F089FB0890089B07930B
:10172000079B002B05D007984FF49B71374A01F0B7
:1017300043FD00F0B3F90890089B0693069B002B2D
:1017400005D0069840F23911304A01F035FD2D4B95
:101750005B8B9BB21AB22B4B1B8B9BB21BB2D31A67
:1017600007EE903AF8EEE77AB2EE007AC7EE877AA3
:10177000CDED0B7ABDF816301AB2224B1B8C1BB282
:10178000D31A07EE903AB8EEE77ADDED0B7A27EE42
:10179000277A1C4B5B8C1AB21A4B1B8C1BB2D31AC8
:1017A00007EE903AF8EEE77AC7EE277ACDED0A7A9F
:1017B000144B1B8B9BB21BB2184632F017FD02462E
:1017C0000B46104619464FF00002114B32F09EFEB8
:1017D00002460B461046194632F080FF03460B9333
:1017E0009DED0B7ADDED0A7A77EE277ACDED097A59
:1017F000039B099A1A60DDED097AB0EE670A0DB015
:101800005DF804FBC4360020485B0500005B050062
:101810000000204000B585B01C4800F02FF903906F
:10182000039B002B0AD0039B009300201849194A00
:101830004FF4A77307F0A2FF039B22E000F046FBE2
:101840000390039B002B0AD0039B009300201049B8
:10185000104A40F2511307F091FF039B11E000F092
:101860001DF90390039B002B0AD0039B00930020DB
:101870000749084A4FF4AA7307F080FF039B00E072
:101880000023184605B05DF804FB00BFC4360020F5
:10189000485B0500005B050000B585B0124B1B6876
:1018A0009A68114B1B68DB6810461946002200231A
:1018B000FEF78CFE0390039B002B09D0039B009343
:1018C00000200A490A4A4D2307F058FF039B06E00F
:1018D000054B1B689B68184603F090FB00231846D5
:1018E00005B05DF804FB00BFE8360020985B0500FA
:1018F000E05B050008B5074B1B689B68184603F0C2
:1019000099FB044B1B689B68184603F031FB0023CE
:10191000184608BDE836002000B587B0034602919E
:101920008DF80F301C4B1B6898681B4B1B6819788F
:101930000DF10F0201230093012303F059FE0590DE
:10194000059B002B09D0059B009300201349144AE6
:10195000732307F013FF059B1AE00F4B1B689A686F
:101960000D4B1B681B7810461946029A012303F0A1
:1019700071FE0590059B002B09D0059B009300206C
:101980000649074A792307F0F9FE059B00E000238A
:10199000184607B05DF804FBE8360020985B0500A8
:1019A000E05B050000B587B003460A468DF80F30AE
:1019B00013468DF80E309DF80F308DF810309DF8DD
:1019C0000E308DF811300F4B1B6898680D4B1B685B
:1019D000197804AA00230093022303F009FE05905E
:1019E000059B002B09D0059B009300200649074A60
:1019F000912307F0C3FE059B00E00023184607B0C3
:101A00005DF804FBE8360020985B0500E05B05000C
:101A100000B589B00346049103928DF81730002376
:101A200007931DE0079BDAB29DF817301344D9B233
:101A3000049A079B134408461946FFF76DFF06906A
:101A4000069B002B09D0069B0093002009490A4AF7
:101A5000A72307F093FE069B07E0079B013307933C
:101A6000079A039B9A42DDD30023184609B05DF81C
:101A700004FB00BF985B0500E05B050000B583B088
:101A80000190054A019B1360FFF706FF03461846C5
:101A900003B05DF804FB00BFE836002000B583B05A
:101AA000FFF728FF0190044B00221A60019B1846A3
:101AB00003B05DF804FB00BFE836002000B585B038
:101AC000124B1B68002B01D108231BE00DF10B0307
:101AD0000F201946FFF720FF0390039B002B09D02E
:101AE000039B009300200A490A4AC82307F046FED8
:101AF000039B07E09DF80B30BC2B01D1002300E0D5
:101B0000052300BF184605B05DF804FBE836002049
:101B1000985B0500E05B050000B587B003903D4B86
:101B20001B68002B01D108236FE0039B002B01D120
:101B30000E236AE0039B1B7803F0C003002B11D136
:101B4000039B5B7803F07803002B0BD1039B9B78FE
:101B500003F07C03002B05D1039BDB7803F03B03F0
:101B6000002B01D0072350E0039B1B78102019465F
:101B7000FFF718FF0590059B002B09D0059B0093EC
:101B800000202549254ADE2307F0F8FD059B3CE0AF
:101B9000039B5B7820201946FFF704FF0590059B07
:101BA000002B09D0059B009300201B491B4AE12311
:101BB00007F0E4FD059B28E0039B9B782120194654
:101BC000FFF7F0FE0590059B002B09D0059B0093C5
:101BD00000201149114AE42307F0D0FD059B14E0D1
:101BE000039BDB7822201946FFF7DCFE0590059B5E
:101BF000002B09D0059B009300200749074AE723E3
:101C000007F0BCFD059B00E00023184607B05DF817
:101C100004FB00BFE8360020985B0500E05B050090
:101C200000B587B00390114B1B68002B01D108232E
:101C300018E0039B002B01D10E2313E0272003990A
:101C4000FFF76AFE0590059B002B0AD0059B0093C9
:101C500000200749074A4FF4867307F08FFD059B64
:101C600000E00023184607B05DF804FBE8360020CA
:101C7000985B0500E05B050000B58BB00390404B1E
:101C80001B68002B01D1082376E0039B002B01D1B8
:101C90000E2371E005AB302019461022FFF7B8FE85
:101CA0000990099B002B0AD0099B0093002035491D
:101CB000354A40F21B1307F061FD099B5CE09DF87B
:101CC0001420039B1A709DF81520039B5A709DF8F1
:101CD00016309AB29DF819309BB203F003039BB201
:101CE0001B029BB213449AB2039B5A809DF8173093
:101CF0009AB29DF819309B08DBB29BB203F0030344
:101D00009BB21B029BB213449AB2039B9A809DF82C
:101D10001A309AB29DF81B309BB21B029BB213443F
:101D20009BB29AB2039BDA809DF81E309AB29DF85E
:101D30001F309BB21B029BB213449BB29AB2039B0F
:101D40001A819DF820309AB29DF821309BB21B0277
:101D50009BB213449BB29AB2039B5A819DF82230E6
:101D60009AB29DF823309BB21B029BB213449BB2E4
:101D70009AB2039B9A81002318460BB05DF804FBCE
:101D8000E8360020985B0500E05B050000B587B0F1
:101D90000390234B1B68002B01D108233CE0039BDD
:101DA000002B01D10E2337E00DF112032820194634
:101DB000FFF7B2FD0590059B002B0AD0059B009311
:101DC00000201849184A4FF49A7307F0D7FC059B76
:101DD00022E00DF1130329201946FFF79DFD059020
:101DE000059B002B0AD0059B009300200D490E4A4D
:101DF00040F2371307F0C2FC059B0DE09DF813304D
:101E00009BB21B029AB29DF812309BB213449BB254
:101E10009AB2039B1A800023184607B05DF804FBB2
:101E2000E8360020985B0500E05B050000B587B050
:101E30000390234B1B68002B01D108233CE0039B3C
:101E4000002B01D10E2337E00DF112032A20194691
:101E5000FFF762FD0590059B002B0AD0059B0093C0
:101E600000201849184A40F2491307F087FC059BE7
:101E700022E00DF113032B201946FFF74DFD0590CD
:101E8000059B002B0AD0059B009300200D490E4AAC
:101E90004FF4A67307F072FC059B0DE09DF813301C
:101EA0009BB21B029AB29DF812309BB213449BB2B4
:101EB0009AB2039B1A800023184607B05DF804FB12
:101EC000E8360020985B0500E05B050000B585B0B2
:101ED000214B1B68002B01D1082339E00DF10B03C6
:101EE00021201946FFF718FD0390039B002B0AD011
:101EF000039B009300201949194A4FF4AE7307F071
:101F00003DFC039B24E09DF80B3003F00103002B04
:101F100001D000231CE09DF80B3043F00103DBB23D
:101F20008DF80B309DF80B3021201946FFF73AFD54
:101F30000390039B002B0AD0039B009300200749CA
:101F4000074A4FF4B37307F019FC039B00E000232A
:101F5000184605B05DF804FBE8360020985B0500E4
:101F6000E05B050000B587B00390084611461A46AD
:101F700003468DF80B300B468DF80A3013468DF86A
:101F80000930039B0F2B01D902230EE2AF4B1B68D4
:101F9000184600F0DFFC0590059B002B0BD0059B3D
:101FA00000930020AA49AB4A5E2307F0E7FB00F04C
:101FB000F1FE059BF9E19DF80930002B32D1039B1E
:101FC000012202FA03F39BB20020194600F06CFDD7
:101FD0000590059B002B0BD0059B009300209C498E
:101FE0009C4A632307F0CAFB00F0D4FE059BDCE1AA
:101FF000039B012202FA03F39BB20020194600F072
:1020000095FD0590059B002B00F08980059B0093B2
:1020100000208F498F4A662307F0B0FB00F0BAFE1C
:10202000059BC2E19DF80930012B31D1039B0122B0
:1020300002FA03F39BB20020194600F035FD05902B
:10204000059B002B0BD0059B009300208049814A03
:102050006B2307F093FB00F09DFE059BA5E1039B1E
:10206000012202FA03F39BB21846002100F05EFD44
:102070000590059B002B52D0059B009300207449CE
:10208000744A6E2307F07AFB00F084FE059B8CE116
:102090009DF80930022B31D1039B012202FA03F390
:1020A0009BB20020194600F041FD0590059B002BD6
:1020B0000BD0059B009300206549664A732307F007
:1020C0005DFB00F067FE059B6FE1039B012202FAB6
:1020D00003F39BB21846002100F0E6FC0590059B37
:1020E000002B1CD0059B009300205949594A7623A8
:1020F00007F044FB00F04EFE059B56E101230593DB
:10210000059B002B0BD0059B009300205049514AA2
:102110007B2307F033FB00F03DFE059B45E19DF876
:102120000A30002B18D1039B012202FA03F39BB261
:102130000020194600F034FC0590059B002B39D097
:10214000059B009300204249424A812307F016FB79
:1021500000F020FE059B28E19DF80A30012B18D1E4
:10216000039B012202FA03F39BB21846002100F000
:1021700017FC0590059B002B1CD0059B00930020AD
:102180003349344A862307F0F9FA00F003FE059B31
:102190000BE101230593059B002B0BD0059B0093BE
:1021A00000202B492B4A8B2307F0E8FA00F0F2FDC0
:1021B000059BFAE09DF82030002B18D1039B0122EB
:1021C00002FA03F39BB20020194600F0F1FC0590DF
:1021D000059B002B40D0059B009300201C491D4A05
:1021E000912307F0CBFA00F0D5FD059BDDE09DF8CB
:1021F0002030012B18D1039B012202FA03F39BB27A
:102200001846002100F0D4FC0590059B002B23D03C
:10221000059B009300200E490E4A962307F0AEFA64
:1022200000F0B8FD059BC0E001230593059B002B42
:1022300012D0059B009300200549064A9B2307F016
:102240009DFA00F0A7FD059BAFE000BFEC36002033
:10225000285C0500705C05009DF82430002B18D127
:10226000039B012202FA03F39BB20020194600F0FF
:10227000D9FB0590059B002B39D0059B00930020CE
:102280004C494D4AA12307F079FA00F083FD059BE4
:102290008BE09DF82430012B18D1039B012202FA18
:1022A00003F39BB21846002100F0BCFB0590059B90
:1022B000002B1CD0059B009300203E493E4AA623DC
:1022C00007F05CFA00F066FD059B6EE001230593C4
:1022D000059B002B0BD0059B009300203549364A07
:1022E000AB2307F04BFA00F055FD059B5DE09DF830
:1022F0000B30002B18D1039B012202FA03F39BB28F
:102300000020194600F096FC0590059B002B39D063
:10231000059B009300202749274AB12307F02EFA96
:1023200000F038FD059B40E09DF80B30012B18D1E3
:10233000039B012202FA03F39BB21846002100F02E
:1023400079FC0590059B002B1CD0059B0093002079
:102350001849194AB62307F011FA00F01BFD059B36
:1023600023E001230593059B002B0BD0059B0093D5
:1023700000201049104ABB2307F000FA00F00AFDC4
:10238000059B12E000F006FD0590059B002B0BD08D
:10239000059B009300200749074ABF2307F0EEF989
:1023A00000F0F8FC059B00E00023184607B05DF83C
:1023B00004FB00BF285C0500705C050000B585B01B
:1023C0001E4B1B68184600F0C5FA0390039B002BB8
:1023D0000BD0039B0093002019491A4ACA2307F027
:1023E000CDF900F0D7FC039B24E000F0A7FC03909C
:1023F000039B002B0BD0039B009300201049114A34
:10240000CD2307F0BBF900F0C5FC039B12E000F000
:10241000C1FC0390039B002B0BD0039B0093002077
:102420000749084AD02307F0A9F900F0B3FC039B41
:1024300000E00023184605B05DF804FBEC360020F0
:10244000285C0500705C050000B587B00390039B15
:102450000F2B01D9022340E0224B1B68184600F0E5
:1024600079FA0590059B002B0BD0059B009300206B
:102470001D491E4ADD2307F081F900F08BFC059B06
:102480002BE0039B012202FA03F39BB200201946C2
:1024900000F0D0FB0590059B002B0BD0059B009313
:1024A00000201149114AE12307F068F900F072FC9D
:1024B000059B12E000F06EFC0590059B002B0BD0F5
:1024C000059B009300200849084AE42307F056F9C9
:1024D00000F060FC059B00E00023184607B05DF8A3
:1024E00004FB00BFEC360020285C0500705C050092
:1024F00000B587B00390039B0F2B01D9022343E063
:10250000234B1B68184600F025FA0590059B002B0D
:102510000CD0059B009300201E491F4A40F2A313D4
:1025200007F02CF900F036FC059B2DE0039B0122FF
:1025300002FA03F39BB21846002100F0BDFB0590A0
:10254000059B002B0CD0059B009300201149124ADB
:102550004FF4D37307F012F900F01CFC059B13E055
:1025600000F018FC0590059B002B0CD0059B0093F8
:1025700000200849084A40F2A91307F0FFF800F0CC
:1025800009FC059B00E00023184607B05DF804FB3A
:10259000EC360020285C0500705C050000B587B0B3
:1025A0000390039B0F2B01D9022343E0234B1B68AD
:1025B000184600F0CFF90590059B002B0CD0059B29
:1025C000009300201E491F4A40F2C91307F0D6F8B5
:1025D00000F0E0FB059B2DE0039B012202FA03F3D0
:1025E0009BB20020194600F067FB0590059B002B6D
:1025F0000CD0059B009300201149124A4FF4E6735A
:1026000007F0BCF800F0C6FB059B13E000F0C2FB2E
:102610000590059B002B0CD0059B009300200849DA
:10262000084A40F2CF1307F0A9F800F0B3FB059B6E
:1026300000E00023184607B05DF804FBEC360020EC
:10264000285C0500705C050000B585B001900B4664
:102650008DF80330019B002B01D10E2312E0019B6A
:102660001B680A4A136000F06FF99DF80330002BD5
:1026700007D0FFF7A3FE0390039B002B01D0039B21
:1026800000E00023184605B05DF804FBEC3600209E
:1026900084B00190234B0393019B002B40D0224B2D
:1026A0001A680399019B00BF00BF00BF00BF00BFB5
:1026B00000BF00BF00BF8A422FD000BF00BF00BFD5
:1026C00000BF00BF00BF00BF00BF00BF00BF00BF12
:1026D00000BF00BF00BF00BF00BF00BF00BF00BF02
:1026E00000BF00BF00BF00BF00BF00BF00BF00BFF2
:1026F00000BF00BF00BF00BF00BF00BF00BF00BFE2
:1027000000BF00BF00BF00BF00BF00BF00BF00BFD1
:1027100000BF00BF00BF00BF00BF013BC3D101939A
:1027200004B070470024F4009428002000B583B062
:102730000190019B4FF47A7202FB03F31846FFF7F6
:10274000A7FF03B05DF804FB00B587B003460A4657
:102750008DF80F3013468DF80E30154B1B68002B8B
:1027600020D0134B1B685B680593114B1B681B78CB
:102770008DF813309DF80F308DF810309DF80E3025
:102780008DF811309DF8131004AA002300930598CA
:10279000022302F02DFF0346002B0CBF0123002370
:1027A000DBB200E00023184607B05DF804FB00BF71
:1027B000F036002000B587B0034602918DF80F3047
:1027C000154B1B68002B22D0134B1B685B680593CD
:1027D000114B1B681B788DF813309DF813100DF109
:1027E0000F02012300930598012302F001FF034625
:1027F000002B0CD19DF8133005981946029A01233D
:1028000002F028FF0346002B01D1012300E0002342
:10281000184607B05DF804FBF036002000B585B01F
:1028200003468DF807300B468DF8063013468DF8B9
:1028300005309DF806209DF805301343DBB2002BD0
:102840000CBF012300238DF80F309DF806209DF862
:1028500005301340DBB2002B42D19DF80F3083F0DE
:102860000103DBB2002B3BD0204B1B68002B37D081
:102870009DF807200DF10D0310461946FFF79AFF4A
:102880000346002B2CD09DF80D308DF80E309DF8AE
:102890000D209DF806301343DBB28DF80D309DF806
:1028A0000530DB43DAB29DF80D30DBB21340DBB20A
:1028B000DBB28DF80D309DF80D309DF80E209A4258
:1028C0000AD09DF80D309DF8072010461946FFF7F5
:1028D0003BFF0346002B01D0012303E0002301E06E
:1028E0009DF80F30184605B05DF804FBF036002067
:1028F00010B586B0034602918DF80F30114B1B685E
:10290000002B1BD00F4B1B685B6805930D4B1B689E
:102910001B788DF813309DF813209DF80F4000238D
:10292000009305981146029A234602F061FE034681
:10293000002B0CBF01230023DBB200E0002318466C
:1029400006B010BDF0360020014B00221A6070471F
:10295000F036002000B583B00190104B1B68002BAF
:1029600016D1019B5A68019B9B68104619460022AC
:102970000023FDF72BFE0346002B09D1019B5B686A
:10298000184602F03BFB054A019B1360002300E060
:102990000123184603B05DF804FB00BFF0360020A9
:1029A00000B583B003460A46ADF806301346ADF8CD
:1029B0000430BDF80620BDF8043013409BB2002B54
:1029C00001D002232AE0BDF806301B0A9BB2DAB21E
:1029D000BDF804301B0A9BB2DBB2002011461A4638
:1029E000FFF71CFF034683F00103DBB2002B01D08D
:1029F000012313E0BDF80630DAB2BDF80430DBB2D3
:102A0000012011461A46FFF709FF034683F0010330
:102A1000DBB2002B01D0012300E00023184603B0F5
:102A20005DF804FB00B583B003460A46ADF80630F6
:102A30001346ADF80430BDF80620BDF8043013404D
:102A40009BB2002B01D002232AE0BDF806301B0AFE
:102A50009BB2DAB2BDF804301B0A9BB2DBB2022093
:102A600011461A46FFF7DAFE034683F00103DBB294
:102A7000002B01D0012313E0BDF80630DAB2BDF817
:102A80000430DBB2032011461A46FFF7C7FE0346A7
:102A900083F00103DBB2002B01D0012300E000230F
:102AA000184603B05DF804FB00B583B003460A4640
:102AB000ADF806301346ADF80430BDF80620BDF879
:102AC000043013409BB2002B01D002232AE0BDF852
:102AD00006301B0A9BB2DAB2BDF804301B0A9BB267
:102AE000DBB2062011461A46FFF798FE034683F034
:102AF0000103DBB2002B01D0012313E0BDF8063047
:102B0000DAB2BDF80430DBB2072011461A46FFF7EF
:102B100085FE034683F00103DBB2002B01D00123C5
:102B200000E00023184603B05DF804FB00B583B055
:102B300003460A46ADF806301346ADF80430BDF83A
:102B40000620BDF8043013409BB2002B01D00223B5
:102B50002AE0BDF806301B0A9BB2DAB2BDF8043099
:102B60001B0A9BB2DBB2082011461A46FFF756FE3D
:102B7000034683F00103DBB2002B01D0012313E0F5
:102B8000BDF80630DAB2BDF80430DBB209201146D8
:102B90001A46FFF743FE034683F00103DBB2002B26
:102BA00001D0012300E00023184603B05DF804FBC8
:102BB00000B583B003460A46ADF806301346ADF8BB
:102BC0000430BDF80620BDF8043013409BB2002B42
:102BD00001D002232AE0BDF806301B0A9BB2DAB20C
:102BE000BDF804301B0A9BB2DBB20A2011461A461C
:102BF000FFF714FE034683F00103DBB2002B01D084
:102C0000012313E0BDF80630DAB2BDF80430DBB2C0
:102C10000B2011461A46FFF701FE034683F001031D
:102C2000DBB2002B01D0012300E00023184603B0E3
:102C30005DF804FB00B583B003460A46ADF80630E4
:102C40001346ADF80430BDF80620BDF8043013403B
:102C50009BB2002B01D002232AE0BDF806301B0AEC
:102C60009BB2DAB2BDF804301B0A9BB2DBB20E2075
:102C700011461A46FFF7D2FD034683F00103DBB28B
:102C8000002B01D0012313E0BDF80630DAB2BDF805
:102C90000430DBB20F2011461A46FFF7BFFD034692
:102CA00083F00103DBB2002B01D0012300E00023FD
:102CB000184603B05DF804FB00B583B003460A462E
:102CC000ADF806301346ADF80430BDF80620BDF867
:102CD000043013409BB2002B01D002232AE0BDF840
:102CE00006301B0A9BB2DAB2BDF804301B0A9BB255
:102CF000DBB2102011461A46FFF790FD034683F021
:102D00000103DBB2002B01D0012313E0BDF8063034
:102D1000DAB2BDF80430DBB2112011461A46FFF7D3
:102D20007DFD034683F00103DBB2002B01D00123BC
:102D300000E00023184603B05DF804FB00B583B043
:102D4000134A01AB1068186001AB02201946FFF767
:102D5000CFFD034683F00103DBB2002B01D001233A
:102D600011E001AB023302201946FFF7C1FD034613
:102D700083F00103DBB2002B01D0012303E0032029
:102D8000FFF7D4FC0023184603B05DF804FB00BF36
:102D9000B85C050008B50C4B1B68002B10D00A4B23
:102DA0001B685B68184602F045F9074B1B685B68B7
:102DB000184602F0DDF8044B00221A60002300E000
:102DC0000123184608BD00BFF036002082B00190F4
:102DD00002B0704782B003468DF8073002B07047EA
:102DE00000B585B001900A4B01221A70FEF712FD62
:102DF0000390039B0293029B002B05D0029840F2A4
:102E00001311044A00F0D8F905B05DF804FB00BFC7
:102E1000F5360020C85C050000B585B01D4B0122C9
:102E20001A701D4B01221A70FEF758FB0390039B8A
:102E3000002B0AD0039B009300201849184A40F247
:102E4000211306F09BFC039B1FE0FEF7E3FC0390BD
:102E5000039B002B0AD0039B009300200F49104ACC
:102E60004FF4927306F08AFC039B0EE0039B002B49
:102E70000AD0039B009300200849094A40F2291315
:102E800006F07CFC039B00E00023184605B05DF8CB
:102E900004FB00BFF5360020F6360020145D050067
:102EA000C85C050000B585B00190FDF7EDFD03900D
:102EB000039B0293029B002B05D002984FF4AB7149
:102EC000024A00F079F905B05DF804FBC85C050022
:102ED00000B585B0FDF7DCFC0390039B0293029BD9
:102EE000002B05D0029840F261110A4A00F064F903
:102EF000FDF7CAFD0390039B0193019B002B05D0B6
:102F000001984FF4B271034A00F056F9184605B023
:102F10005DF804FBC85C050000B585B001900A4B64
:102F200001221A70FEF776FC0390039B0293029B2A
:102F3000002B05D0029840F2DF11044A00F03CF962
:102F400005B05DF804FB00BFF4360020C85C050046
:102F500000B585B0154B01221A70154B01221A706D
:102F6000FEF7BCFA0390039B002B0AD0039B00934F
:102F700000201049104A4FF4F67306F0FFFB039B44
:102F800010E0FEF747FC0390039B002B0AD0039B45
:102F9000009300200749084A40F2EF1306F0EEFBC9
:102FA000039BFFE7184605B05DF804FBF4360020EC
:102FB000F6360020145D0500C85C050000B589B038
:102FC0000190002307935F238DF8083018230393A3
:102FD000019B0493064B0593064B069302AB1846E0
:102FE000FEF7A4F90790079B184609B05DF804FBAB
:102FF0005C5D0500D52D020000B589B001905C2311
:103000008DF8083017230393019B0493074B059316
:10301000074B069301238DF81C3002AB1846FDF7D1
:10302000B1FB0346184609B05DF804FB6C5D050072
:10303000CD2D020000B58BB00390039B002B01D176
:103040000E2358E0039B1B681846FFF7D5FF099035
:10305000099B0893089B002B05D0089840F2544127
:10306000274A00F0A9F8039B1B681846FFF7A6FF44
:103070000990099B0793079B002B05D0079840F206
:1030800057411F4A00F098F81E4801211E4A04F0DB
:10309000C3FA0990099B0693069B002B05D006985E
:1030A00040F26141164A00F087F818480121184A99
:1030B00004F0B2FA0990099B0593059B002B05D0FB
:1030C000059840F264410E4A00F076F8114801215B
:1030D000114A04F0A1FA0990099B002B0AD0099B20
:1030E000009300200D49064A40F2674306F046FB74
:1030F000099B00E0002318460BB05DF804FB00BFFD
:10310000C85C0500BC5C0500E12D0200C05C050048
:10311000A52E0200C45C0500192F0200145D0500F5
:1031200039DF7047184600BF3ADF7047184600BFC6
:1031300012DF7047184600BF00B585B001900E4BF6
:103140001B78002B10D10DF10B031846FFF7F0FF91
:1031500003909DF80B30002B03D0074B01221A700F
:1031600004E00223039301E008230393039B184622
:1031700005B05DF804FB00BF5837002000B585B0EE
:1031800001900198FFF7CCFF0390039B184605B010
:103190005DF804FB00B585B001900B468DF8033057
:1031A0009DF8033001981946FFF7BEFF0390039B7B
:1031B000184605B05DF804FB00B589B00390029194
:1031C0000192029B9BB2ADF81430019B0693039BC6
:1031D000079305AB44F2010000211A46FCF798FC66
:1031E00009B05DF804FB00BF86B003900291019224
:1031F00001238DF817309DF817301F4A039B136089
:103200001D4A029B53601C4A019B9360039B44F23E
:103210000102934212D044F20202934222D1019B56
:10322000154AD360144BDB681B881A46124B9A610F
:10323000114BDB685B68104AD36113E0019B0E4AB7
:1032400013610D4B1B699B680B4A53610A4B1B6949
:103250001B881A46084B9A61074B1B695B68064A34
:10326000D36100BF72B600BF9DF81730DBB2002BF0
:10327000FAD162B606B070475C37002071DF704744
:10328000184600BF72DF7047184600BF79DF7047ED
:10329000184600BF7DDF7047184600BF65DF7047E6
:1032A000184600BF82B003460091ADF80630BDF865
:1032B0000630DAB2009B1A70009B0133BDF806207D
:1032C000120A92B2D2B21A700223184602B07047A4
:1032D00086B0039002910192ADF80230019B1B88E9
:1032E00003F11202BDF802309A4201D90C2339E0F1
:1032F000019B1B881A46029B134411221A70019BE2
:103300001B8801339AB2019B1A80019B1B881A46C5
:10331000029B134410221A70019B1B8801339AB23E
:10332000019B1A800F238DF8173016E0019B1B8834
:103330001A46029B13449DF9172003998A5C1A7060
:103340009DF81730DBB2013BDBB28DF81730019BE3
:103350001B8801339AB2019B1A809DF91730002B0C
:10336000E4DA0023184606B0704700BF84B002912B
:1033700001921A4603468DF80F301346ADF80C3013
:10338000019B1B88DA1CBDF80C309A4201D90C2332
:1033900053E0019B1B881A46029B134402221A70B9
:1033A000019B1B8801339AB2019B1A80019B1B88E9
:1033B0001A46029B13441C221A70019B1B8801337E
:1033C0009AB2019B1A809DF80F30013B032B2BD83A
:1033D00001A252F823F000BFE9330200F9330200E2
:1033E0000934020019340200019B1B881A46029B13
:1033F000134400221A7019E0019B1B881A46029B95
:10340000134401221A7011E0019B1B881A46029B8B
:10341000134402221A7009E0019B1B881A46029B82
:10342000134403221A7001E0072306E0019B1B8866
:1034300001339AB2019B1A800023184604B07047EA
:1034400000B589B0039002911346ADF80630029B97
:103450001B8803F10902BDF806309A4201D90C23FA
:103460004FE005AB1846FFF709FF0790079B002BBD
:1034700001D0079B45E0029B1B881A46039B13441F
:1034800008221A70029B1B8801339AB2029B1A8091
:10349000029B1B881A46039B13441B221A70029B33
:1034A0001B8801339AB2029B1A80029B1B881A4622
:1034B000039B1A4405AB013310461946062231F02E
:1034C0003BFC029B1B8806339AB2029B1A809DF834
:1034D0001430002B07D1029B1B881A46039B134410
:1034E00000221A7006E0029B1B881A46039B1344B5
:1034F00001221A70029B1B8801339AB2029B1A8028
:103500000023184609B05DF804FB00BF00B589B080
:10351000039002910192ADF80230039B1B78012BBE
:1035200005D1039B5B78002B01D1072389E0019B28
:103530001B889A1CBDF802309A420ED8039B1B7858
:10354000012B0CD1019B1B881A46039B5B7813440B
:103550009A1CBDF802309A4201D90C2371E0019BFC
:103560001B88BDF80220D31A9BB2023BADF81C3079
:10357000BDF81C30ADF81630019B1B880233029A4F
:103580001A440DF1160310461946FFF783FE069004
:10359000069B002B01D0069B53E0039B1B78022B5C
:1035A00009D1BDF81630BDF81C209A4203D3092377
:1035B0008DF81F3017E008238DF81F30039B1B7810
:1035C000012B0CD1039B5B789BB2BDF81C209A4267
:1035D00005D3039B5B789BB2ADF8163003E0BDF8D2
:1035E0001C30ADF81630BDF81630FE2B01D90C2377
:1035F00027E0019B1B881A46029B1344BDF8162046
:10360000D2B20132D2B21A70019B1B8801339AB236
:10361000019B1A80019B1B881A46029B13449DF84C
:103620001F201A70019B1B8801339AB2019B1A80DC
:10363000019B1A88BDF8163013449AB2019B1A8078
:103640000023184609B05DF804FB00BF00B587B041
:10365000039002911346ADF80630029B1B881A1D99
:10366000BDF806309A4201D90C2339E00DF112035E
:103670001846FFF70BFE0590059B002B01D0059B1C
:103680002EE0029B1B881A46039B134403221A70E8
:10369000029B1B8801339AB2029B1A80029B1B88F3
:1036A0001A46039B134419221A70029B1B8801338C
:1036B0009AB2029B1A80BDF81220029B1B88194601
:1036C000039B0B4410461946FFF7ECFD03461946D1
:1036D000029B1A888BB213449AB2029B1A80002371
:1036E000184607B05DF804FB84B0029101921A46B7
:1036F00003468DF80F301346ADF80C30019B1B8844
:10370000DA1CBDF80C309A4201D90C2328E0019B49
:103710001B881A46029B134402221A70019B1B88C5
:1037200001339AB2019B1A80019B1B881A46029BA7
:10373000134401221A70019B1B8801339AB2019B2A
:103740001A80019B1B881A46029B13449DF80F2088
:103750001A70019B1B8801339AB2019B1A800023C7
:10376000184604B0704700BF84B0029101921A4617
:1037700003468DF80F301346ADF80C30019B1B88C3
:10378000DA1CBDF80C309A4201D90C2328E0019BC9
:103790001B881A46029B134402221A70019B1B8845
:1037A00001339AB2019B1A80019B1B881A46029B27
:1037B000134411221A70019B1B8801339AB2019B9A
:1037C0001A80019B1B881A46029B13449DF80F2008
:1037D0001A70019B1B8801339AB2019B1A80002347
:1037E000184604B0704700BF84B0029101921A4697
:1037F00003468DF80F301346ADF80C30019B1B8843
:10380000DA1CBDF80C309A4201D90C2328E0019B48
:103810001B881A46029B134402221A70019B1B88C4
:1038200001339AB2019B1A80019B1B881A46029BA6
:1038300013440A221A70019B1B8801339AB2019B20
:103840001A80019B1B881A46029B13449DF80F2087
:103850001A70019B1B8801339AB2019B1A800023C6
:10386000184604B0704700BF00B58BB003900193B9
:103870000B468DF80B3013468DF80A3000238DF877
:1038800023300C9B1B88ADF820300023099370E097
:10389000039B5A68099B9B001A4404AB106818608C
:1038A00004AA0DF11703104619460022FFF7F6FC93
:1038B0000790079B002B01D0079B7CE09DF81730F9
:1038C0009DF80A209A4251D19DF82330002B01D057
:1038D000002300E002238DF81B300C9B1B881A4646
:1038E0009DF817301A449DF81B301A44BDF8343047
:1038F0009A4201DD0C235EE09DF8233083F0010342
:10390000DBB2002B16D00C9B1B8801339AB20C9BA8
:103910001A800C9B1B881A46019B13449DF80B20B0
:103920001A700C9B1B8801339AB20C9B1A800123DE
:103930008DF823300C9B1B881A46019B134404A965
:103940000DF11702084611461A46FFF7A7FC07902B
:10395000079B002B01D0079B2DE00C9B1A889DF83C
:1039600017309BB213449AB20C9B1A80099B013307
:103970000993039B1B881A46099B9A4288DC9DF891
:103980002330002B16D00C9B1A88BDF82030D31A98
:103990009BB2013BADF81830BDF81830FF2B01D9B0
:1039A0000C2308E0BDF82030019A1344BDF818201C
:1039B000D2B21A70002318460BB05DF804FB00BFAA
:1039C00000B589B0059003930B468DF8133013466C
:1039D0008DF812309DF813200A9B0093BDF82C300F
:1039E0000193059811460222039BFFF73DFF0790C4
:1039F000079B002B01D0079B13E09DF812200A9B28
:103A00000093BDF82C300193059811461022039BBA
:103A1000FFF72AFF0790079B002B01D0079B00E0D0
:103A20000023184609B05DF804FB00BF82B0019086
:103A3000019B1B88052B0AD9019B1B88B3F5486F96
:103A400007D9019B1B884FF6FF72934201D00723D1
:103A500025E0019B5B88052B0AD9019B5B88B3F5A8
:103A6000486F07D9019B5B884FF6FF72934201D0E4
:103A7000072314E0019B1B884FF6FF7293420DD081
:103A8000019B5B884FF6FF72934207D0019B1A8817
:103A9000019B5B889A4201D9072300E00023184666
:103AA00002B0704700B587B0039002910192ADF863
:103AB0000230019B1B889A1DBDF802309A4201D941
:103AC0000C234BE00398FFF7B1FF0590059B002BFB
:103AD00001D0059B42E0019B1B881A46029B1344C0
:103AE00005221A70019B1B8801339AB2019B1A8030
:103AF000019B1B881A46029B134412221A70019BD9
:103B00001B8801339AB2019B1A80039B1A88019B80
:103B10001B881946029B0B4410461946FFF7C2FB4F
:103B200003461946019B1A888BB213449AB2019B33
:103B30001A80039B5A88019B1B881946029B0B44E1
:103B400010461946FFF7AEFB03461946019B1A883B
:103B50008BB213449AB2019B1A800023184607B017
:103B60005DF804FB00B587B0039002910192ADF8B7
:103B70000230039B9B8802330593019B1B881A46E6
:103B8000059B13449A1CBDF802309A4201D90C23BC
:103B900056E0059BFE2B01D90C2351E0019B1B88AD
:103BA0001A46029B1344059AD2B20132D2B21A705D
:103BB000019B1B8801339AB2019B1A80019B1B88D1
:103BC0001A46029B1344FF221A70019B1B88013383
:103BD0009AB2019B1A80039B1A88019B1B88194685
:103BE000029B0B4410461946FFF75CFB034619463F
:103BF000019B1A888BB213449AB2019B1A80039BD3
:103C00009B88002B1BD0039B9B68002B01D10723B3
:103C100016E0019B1B881A46029B9918039B9A6821
:103C2000039B9B88084611461A4631F085F8019B94
:103C30001A88039B9B8813449AB2019B1A80002325
:103C4000184607B05DF804FB00B589B003900291F7
:103C50000192ADF80230039B9B6A002B01D1072330
:103C600074E000238DF81F3068E0039B996A9DF88B
:103C70001F2013465B0013449B000B440693069BD6
:103C80009B8802330593059BFE2B01D90C235DE035
:103C9000019B1B881A46029B1344059AD2B201323B
:103CA000D2B21A70019B1B8801339AB2019B1A8011
:103CB000019B1B881A46029B134416221A70019B13
:103CC0001B8801339AB2019B1A80069B1A88019BBC
:103CD0001B881946029B0B4410461946FFF7E2FA6F
:103CE00003461946019B1A888BB213449AB2019B72
:103CF0001A80069B9B88002B1BD0069B9B68002B81
:103D000001D1072322E0019B1B881A46029B9918C8
:103D1000069B9A68069B9B88084611461A4631F016
:103D20000BF8019B1A88069B9B8813449AB2019B4F
:103D30001A809DF81F3001338DF81F30039B93F8D4
:103D40002C309DF81F209A428FD30023184609B0CB
:103D50005DF804FB00B589B005900491039200233F
:103D60000793039B1B88ADF81A30039B00221A802F
:103D7000059B5B6B002B0FD0059B5B6B1A78BDF826
:103D80001A3010460499039AFFF7EEFC0790079B40
:103D9000002B01D0079B06E1059B1B6B002B0ED06F
:103DA000059B1A6BBDF81A3010460499039AFFF769
:103DB0008FFA0790079B002B01D0079BF3E0059B30
:103DC00093F82E30002B0FD0059B93F82E20BDF8D2
:103DD0001A3010460499039AFFF7C8FA0790079B18
:103DE000002B01D0079BDEE0059B93F82D30002BC4
:103DF0000CD0BDF81A30049803991A46FFF720FB3F
:103E00000790079B002B01D0079BCCE0059B9B787C
:103E1000002B0CD0BDF81A30049803991A46FFF70E
:103E200015FC0790079B002B01D0079BBBE0059B6F
:103E3000DB78002B10D0059BDB78DBB25AB2BDF8E3
:103E40001A3010460499039AFFF74EFC0790079B1F
:103E5000002B01D0079BA6E0059B5B68002B10D0D0
:103E6000059B5B681B785AB2BDF81A30104604995E
:103E7000039AFFF7B9FC0790079B002B01D0079B23
:103E800091E0059B1B89002B13D0059B03F10802D1
:103E9000039B0093BDF81A300193104602210622BD
:103EA000049BFFF78DFD0790079B002B01D0079B1C
:103EB00079E0059B1B8A002B13D0059B03F11002B0
:103EC000039B0093BDF81A3001931046032107228B
:103ED000049BFFF775FD0790079B002B01D0079B04
:103EE00061E0059B1B8B002B13D0059B03F118028F
:103EF000039B0093BDF81A3001931046142115223C
:103F0000049BFFF75DFD0790079B002B01D0079BEB
:103F100049E0059B1B6A002B0ED0059B1A6ABDF871
:103F20001A3010460499039AFFF7BCFD0790079BCF
:103F3000002B01D0079B36E0059B5B6A002B0ED05F
:103F4000059B5A6ABDF81A3010460499039AFFF788
:103F500009FE0790079B002B01D0079B23E0059BE0
:103F600093F82C30002B0CD0BDF81A30059804992A
:103F7000039AFFF769FE0790079B002B01D0079B70
:103F800011E0059B1B78002B0CD0BDF81A3005986A
:103F90000499039AFFF7BAFA0790079B002B01D008
:103FA000079B00E0079B184609B05DF804FB00BFC3
:103FB00082B00190019BDB7803F00403002B01D158
:103FC000072300E00023184602B0704782B001903A
:103FD000019BDB78002B01D0072300E0002318466B
:103FE00002B0704700B597B0019000911F23ADF863
:103FF0004A301F23ADF84830019B002B19D001989F
:10400000FFF7D6FF1390139B002B01D0139B42E0C8
:104010000AAA0DF14A03019811461A46FFF79AFEC3
:104020001390139B002B01D0139B34E00AAB159324
:1040300004E0002315930023ADF84A30009B002BC9
:1040400018D00098FFF7C2FF1390139B002B01D0EC
:10405000139B20E002AA12AB009811461A46FFF704
:1040600079FE1390139B002B01D0139B13E002AB3E
:10407000149304E0002314930023ADF84830BDF8F6
:104080004A30DAB2BDF84830DBB215981146149ABE
:10409000FFF7F8F80346184617B05DF804FB00BFB9
:1040A00082B003468DF8073007499DF907305B0958
:1040B0009DF8072002F01F02012000FA02F241F8E9
:1040C000232002B0704700BF00E100E082B0034649
:1040D0008DF8073007499DF907305B099DF80720E7
:1040E00002F01F02012000FA02F2603341F823209F
:1040F00002B0704700E100E082B0034600918DF805
:1041000007309DF90730002B0CDA0C499DF8073079
:1041100003F00F03043B009AD2B25201D2B20B4417
:104120001A7609E006499DF90730009AD2B2520189
:10413000D2B20B4483F8002302B0704700ED00E0D8
:1041400000E100E000B583B003460A468DF8073071
:1041500013468DF806309DF806309DF9072010466D
:104160001946FFF7C9FF9DF907301846FFF7AEFF64
:104170009DF907301846FFF793FF03B05DF804FB85
:1041800000B583B00346ADF80630BDF806301846DA
:1041900000F026F803461B68012B0CBF0123002307
:1041A000DBB2184603B05DF804FB00BF00B585B074
:1041B0000346ADF80630BDF80630184600F010F89A
:1041C00003461A4600231360BDF80630184600F077
:1041D00007F803461B680393039B05B05DF804FBD7
:1041E00082B00346ADF80630BDF8063003F18043D7
:1041F00003F5C043184602B0704700BF82B001907B
:10420000024A019BC2F8043302B0704700600040CC
:1042100082B00190034BD3F80423019B134018464E
:1042200002B070470060004082B001900749074A21
:10423000019B03F5A27352F8233043F00102019B66
:1042400003F5A27341F8232002B0704700600040DC
:1042500084B00390029113468DF807301449144A34
:10426000039B03F5A27352F8233023F4473323F45E
:104270004073039A02F5A27241F822300C480C4AAE
:10428000039B03F5A27352F82320029B1B0203F445
:10429000F8519DF807301B0403F440330B431A43D5
:1042A000039B03F5A27340F8232004B0704700BFBE
:1042B0000060004082B00190054A019B03F5A273A3
:1042C00052F8233003F4F8531B0A184602B0704723
:1042D0000060004082B00190064A019B03F5A27382
:1042E00052F8233003F440331B0CDBB2184602B003
:1042F000704700BF0060004082B001900846114640
:104300001A4603468DF803300B468DF802301346EB
:104310008DF801304FF0A0419DF803209DF8023048
:104320005B001A439DF801309B001A439DF808304A
:104330001B021A439DF80C301B041A43019B03F522
:10434000E07341F8232002B0704700BF10B584B07D
:1043500003900B468DF80B309DF80B400023009323
:10436000002301930398002100222346FFF7C4FF96
:1043700004B010BD84B001904FF0A042019B03F542
:10438000E07352F8233023F0020303934FF0A0416F
:10439000019B03F5E073039A41F8232004B07047B2
:1043A00082B001900B468DF803304FF0A0414FF0E2
:1043B000A042019B03F5E07352F8233023F440320E
:1043C000019B03F5E07341F823204FF0A0414FF02B
:1043D000A042019B03F5E07352F823309DF80320BF
:1043E00012041A43019B03F5E07341F8232002B045
:1043F000704700BF82B001904FF0A043D3F8102562
:10440000019B22FA03F303F00103184602B0704740
:104410004FF0A043D3F810351846704782B0019092
:104420004FF0A042019B03F5E07352F8233003F4F0
:1044300040331B0CDBB2184602B0704782B00190CB
:104440000C4A019B134440331B785BB2002B09DB01
:10445000084A019B134440331B785BB2072B01DCF5
:10446000012300E0002303F00103DBB2184602B091
:10447000704700BF7C37002082B00190064A019B44
:10448000134440331B785BB2072BCCBF01230023BE
:10449000DBB2184602B070477C37002082B0019032
:1044A000054A019B134440331B78DB43DBB2DB0935
:1044B000DBB2184602B070477C37002084B003900E
:1044C000029101928DF80330029BD9B20E4A039BF0
:1044D000134440330A461A700B49029B019A41F873
:1044E00023209DF8033083F00103DBB2002B08D0BA
:1044F000029B083B039AD1B2034A13440A4683F84D
:10450000602004B0704700BF7C37002082B001906B
:10451000034A019B13444033FF221A7002B07047D4
:104520007C37002082B00190044A019B1344403341
:104530001B785BB2184602B0704700BF7C37002082
:1045400082B00190034A019B52F82330184602B012
:10455000704700BF7C37002000B589B003900291FE
:1045600013468DF80730FF238DF81F309DF8073074
:10457000002B01D0002300E0082305939DF80730AD
:10458000002B01D0082300E010230493059B069321
:1045900014E0104A069B52F82330B3F1FF3F0AD1D2
:1045A0009DF8073003980699029AFFF787FF069B4C
:1045B0008DF81F3006E0069B01330693069A049B94
:1045C0009A42E6D39DF81F305BB2184609B05DF8F9
:1045D00004FB00BF7C37002082B003468DF8073013
:1045E0009DF80730094A4FF0FF3142F823109DF83B
:1045F0000730072B07D99DF80730083B034A1344BF
:10460000FF2283F8602002B0704700BF7C37002093
:1046100000B583B01F4B93F86830002B01D00823FE
:1046200034E000238DF8073009E09DF80730184684
:10463000FFF76CFF9DF8073001338DF807309DF8C8
:1046400007301F2BF1D900238DF8073009E09DF8C2
:1046500007301846FFF7C0FF9DF8073001338DF88B
:1046600007309DF807300F2BF1D906200621FFF700
:1046700069FD4FF4BE70FFF799FD4FF00040FFF762
:10468000BDFD044B012283F868200023184603B0C7
:104690005DF804FB7C370020044B93F86830002B56
:1046A00014BF01230023DBB2184670477C3700207B
:1046B00000B587B0039002910192002305930398FF
:1046C000FFF7ECFE0346002B02D00823059342E0DF
:1046D000029BDB78039801991A46FFF73DFF0346DA
:1046E0008DF813309DF91330B3F1FF3F31D0029BA9
:1046F0009B78002B03D00398FFF73CFE05E0029B5C
:104700005B7803981946FFF721FE029BDB78002BAC
:1047100009D09DF91320029B1B78104603991A4675
:10472000FFF796FD17E09DF91330083B9DF9132024
:10473000083A0B490A4492F86010029A12789201E2
:10474000D2B20A43D1B2064A13440A4683F8602023
:1047500001E004230593059B184607B05DF804FBB0
:104760007C37002000B587B001900B468DF80330F0
:104770000198FFF781FE0346002B33D00198FFF725
:10478000D1FE0346083B314A134493F860308DF85C
:1047900016309DF816309B098DF815309DF81530B0
:1047A000032B0FD1FFF734FE0146019B012202FAD1
:1047B00003F30B40002B01D0032300E002238DF80C
:1047C000173008E09DF81530012B01D1022300E0DD
:1047D00003238DF817309DF8173001981946FFF71D
:1047E000DFFD30E00198FFF729FE0346002B2AD0B9
:1047F0000198FFF797FE03460493049B9BB2403356
:104800009BB29B00ADF80E30049B1846FFF70CFDE1
:10481000BDF80E301846FFF7C9FC9DF80330002B99
:1048200011D00198FFF77EFE03461846FFF788FE79
:104830000290029B002B06D00122049B02FA03F394
:104840001846FFF7DBFC07B05DF804FB7C3700205F
:1048500000B583B001900198FFF7CCFD0346002B13
:1048600014BF01230023DBB2184603B05DF804FB3C
:1048700000B593B000231193002310934FF480737D
:10488000ADF83A3001230D9300230F9321E0BDF8DA
:104890003A301846FFF774FC0346002B0ED00D98F3
:1048A000FFF7B6FC0346002B08D0BDF83A30184697
:1048B000FFF77CFC119A0D9B134311930D9B5B003A
:1048C0000D93BDF83A300433ADF83A300F9B013305
:1048D0000F930F9B072BDAD94FF4BE70FFF750FCF4
:1048E0000346002B0AD04FF4BE70FFF75FFC119B0C
:1048F00043F000431193FFF78BFD1090119BDBB247
:10490000002B29D001230D9300230F9321E00D9A52
:10491000119B1340002B16D00F98FFF7CBFC09908A
:104920000F98FFF7D7FC03468DF823300F98FFF759
:1049300007FE0790079B002B05D09DF82320079BBF
:104940000998114698470D9B5B000D930F9B01330F
:104950000F930F9B072BDAD9119B002B80F2A380BA
:1049600000238DF8333000230B934FF0FF330A936D
:1049700000238DF8333000230F9379E04B4A0F9BCF
:10498000134460331B788DF81B309DF81B3023F0E7
:10499000C0030593454A0F9B134460331B785BB2F9
:1049A000B3F1FF3F61D0059B0A9A22FA03F303F0AB
:1049B0000103002B59D09DF81B309B098DF8133053
:1049C0000598FFF7AFFD03461846FFF7B9FD0390C2
:1049D000039B002B03D19DF81330032B45D1059B7E
:1049E000012202FA03F30D939DF81330032B03D138
:1049F0000B9A0D9B13430B930598FFF70FFD03468E
:104A00008DF80B300D9A109B1340002B03D09DF8AE
:104A10000B30022B08D00D9A109B1340002B24D191
:104A20009DF80B30032B20D19DF81330032B13D1AD
:104A30009DF80B30022B01D1032300E002238DF8F7
:104A40000A309DF80A3005981946FFF7A9FC9DF831
:104A5000333001338DF83330039B002B05D09DF8A4
:104A60001320039B0598114698470F9B01330F9322
:104A70000F9B072B82D99DF83330002B0ED0FFF708
:104A8000C7FC0190019A109B9A4203D100238DF834
:104A9000333003E0019B10930B9B0A939DF8333056
:104AA000002B7FF465AF13B05DF804FB7C3700206A
:104AB00082B003468DF8073007499DF907305B093E
:104AC0009DF8072002F01F02012000FA02F22033B5
:104AD00041F8232002B0704700E100E082B001906D
:104AE0000B468DF803309DF80330019A13440122E0
:104AF0001A6002B0704700BF84B001900B46ADF859
:104B00000230BDF80230019A134400221A60BDF849
:104B10000230019A13441B680393039B04B070474F
:104B200082B001900B46ADF80230BDF80230019A18
:104B300013441B68002B14BF01230023DBB218466B
:104B400002B0704782B001900091019BD3F800221F
:104B5000009BDB431A40019BC3F8002202B0704760
:104B600082B001900091019B009AC3F8042302B027
:104B7000704700BF82B001900091019B009AC3F87A
:104B8000082302B0704700BF82B00190019B05224C
:104B9000C3F8002502B0704782B00190019B00224B
:104BA000C3F8002502B0704784B0039002910192CF
:104BB000039B029AC3F80825039B019AC3F80C25AE
:104BC00004B0704782B001900091019B009AC3F835
:104BD000242502B0704700BF84B00190019BD3F838
:104BE000C4340393019B039AC3F8C424039B18465F
:104BF00004B0704782B001900B468DF803309DF8E9
:104C00000320019BC3F8882502B0704782B0019051
:104C1000019BD3F81835DBB2184602B0704700BFCD
:104C200082B001900B468DF803309DF80320019B64
:104C3000C3F81C2502B0704782B001900091019B1F
:104C4000009AC3F8002202B0704700BF00B583B0DD
:104C500003468DF807309DF907301846FFF728FF07
:104C600003B05DF804FB00BF84B00190019B1B0BF7
:104C70008DF80F309DF80F305BB2184604B07047C6
:104C800082B001904FF0A042019B012101FA03F391
:104C9000C2F8083502B0704782B001904FF0A042D0
:104CA000019B012101FA03F3C2F80C3502B07047F1
:104CB00082B001904FF0A043D3F81025019B22FA57
:104CC00003F303F00103184602B0704784B001906B
:104CD000234B0393019B002B40D0224B1A6803996E
:104CE000019B00BF00BF00BF00BF00BF00BF00BFEF
:104CF00000BF8A422FD000BF00BF00BF00BF00BF6F
:104D000000BF00BF00BF00BF00BF00BF00BF00BFAB
:104D100000BF00BF00BF00BF00BF00BF00BF00BF9B
:104D200000BF00BF00BF00BF00BF00BF00BF00BF8B
:104D300000BF00BF00BF00BF00BF00BF00BF00BF7B
:104D400000BF00BF00BF00BF00BF00BF00BF00BF6B
:104D500000BF00BF00BF013BC3D1019304B0704747
:104D60000024F4009428002084B0019003230393CE
:104D7000019B03F00103002B02D04FF40243039385
:104D8000019B03F00203002B02D048F2012303939E
:104D9000019B03F00403002B02D048F2022303938B
:104DA000039B184604B0704700B585B001904FF0E2
