:020000021000EC
:10F0000000000120AD760400D5760400D776040018
:10F01000D9760400DB760400DD76040000000000F1
:10F02000000000000000000000000000DF76040087
:10F03000E176040000000000E3760400E5760400B9
:10F04000652C0200E7760400E7760400DD28020064
:10F05000E7760400E776040061190200512D0200F2
:10F06000E7760400E7760400E7760400E77604001C
:10F07000E7760400E7760400E7760400E77604000C
:10F08000E77604004D3D0200E7760400E7760400D1
:10F09000893D0200E776040089600200E7760400FB
:10F0A000E7760400E7760400E7760400E7760400DC
:10F0B0002D2A0200D92A02000000000000000000F2
:10F0C000E7760400E7760400E7760400E7760400BC
:10F0D000E7760400E7760400E7760400000000000D
:10F0E0000000000000000000000000000000000020
:10F0F0000000000000000000000000000000000010
:10F1000000000000000000000000000000000000FF
:10F1100000000000000000000000000000000000EF
:10F40000044B05481B1A062B02D9044B03B11847BD
:10F41000704700BFF3280020F02800200000000003
:10F4200005490648091A891001EBD171491002D02B
:10F43000034B03B118477047F0280020F028002044
:10F440000000000010B5064C237843B9FFF7D8FF41
:10F45000044B13B10448AFF300800123237010BDA7
:10F460000029002000000000DCD1040008B5084B92
:10F470001BB108480849AFF300800848036813B976
:10F48000BDE80840CCE7064B002BF9D09847F7E7DA
:10F4900000000000DCD1040004290020EC2800203A
:10F4A00000000000134B002B08BF114B9D46A3F535
:10F4B000803A00218B460F461148124A121A00F07A
:10F4C00079F80D4B002B00D098470C4B002B00D047
:10F4D00098470020002104000D000B4800F016F8AA
:10F4E00000F042F82000290000F014FE00F014F8AB
:10F4F00000000800000001200000000000000000E3
:10F500000029002044C8002041F5010001460020E8
:10F510000246034600F056B808B5074B044613B13F
:10F52000002100F0ABF8054B1868836A03B19847D7
:10F53000204600F00DF900BF7DF60100588504005B
:10F5400038B5074B074CE41AA4101D4624B1013C02
:10F5500055F824309847F9E7BDE8384028F0F4BF63
:10F56000E8280020EC28002070B50E4B0E4CE41A61
:10F57000A41000251E46A54204D056F82530984711
:10F580000135F8E728F0DAFF084C094BE41AA4101B
:10F5900000251E46A54204D056F82530984701356F
:10F5A000F8E770BDE4280020E4280020E8280020C7
:10F5B000E428002002440346934202D003F8011BD2
:10F5C000FAE770472DE9F843294D2C6806460F46A7
:10F5D000914698460CB9274C2C6063681F2B14DDAC
:10F5E000254B1BB94FF0FF30BDE8F8838C20AFF3FB
:10F5F000008004460028F5D000232A68026043609A
:10F600002860C0F888303EB928E03EB3D4F88800BE
:10F6100078B9194B002BE5D04FF48470AFF300801C
:10F620000028DFD00023C0F80031C0F80431C4F84E
:10F630008800626840F822900123934000EB820129
:10F64000D0F800211A43022EC0F80021C1F88080B2
:10F6500002BFD0F804211343C0F8043163685A1C78
:10F6600002336260002044F82370BDE8F88300BFD5
:10F67000A82900201C290020000000002DE9F74FD8
:10F6800080460F46304E3468002C59D06568D4F857
:10F69000889005F1FF3AAD0009EB050B04352544D0
:10F6A000BAF1000F38DB37B1B9F1000F2ED0DBF81B
:10F6B0007C20BA422AD161682A6801398A4516BF7E
:10F6C0000021C4F804A0296002B363680193B9F172
:10F6D000000F06D00121D9F8000101FA0AF1014218
:10F6E00001D190470BE0D9F80401014204D1404612
:10F6F0005BF8041C904702E05BF8040C90476268DA
:10F70000019B9342BED13268A242BBD10AF1FF3ABB
:10F71000ABF1040B043DC3E70C4B8BB1626823686B
:10F720005AB953B13360B9F1000F02D04846AFF374
:10F7300000802046AFF30080A5E726461C46A3E7DD
:10F7400003B0BDE8F08F00BFA82900200000000032
:10F75000FEE700BF82B00190084611461A460346F4
:10F760008DF803300B468DF8023013468DF80130CA
:10F770004FF0A0419DF803209DF802305B001A4332
:10F780009DF801309B001A439DF808301B021A4374
:10F790009DF80C301B041A43019B03F5E07341F8FC
:10F7A000232002B0704700BF00B585B0039000234E
:10F7B0000093002301930398012101220023FFF706
:10F7C000C9FF05B05DF804FB82B001904FF0A04284
:10F7D000019B012101FA03F3C2F8083502B070471A
:10F7E00082B001904FF0A042019B012101FA03F386
:10F7F000C2F80C3502B0704784B00190234B0393DC
:10F80000019B002B40D0224B1A680399019B00BF3B
:10F8100000BF00BF00BF00BF00BF00BF00BF8A42E3
:10F820002FD000BF00BF00BF00BF00BF00BF00BFA0
:10F8300000BF00BF00BF00BF00BF00BF00BF00BFD0
:10F8400000BF00BF00BF00BF00BF00BF00BF00BFC0
:10F8500000BF00BF00BF00BF00BF00BF00BF00BFB0
:10F8600000BF00BF00BF00BF00BF00BF00BF00BFA0
:10F8700000BF00BF00BF00BF00BF00BF00BF00BF90
:10F8800000BF013BC3D1019304B070470024F400D2
:10F890009828002000B583B00190019B4FF47A7244
:10F8A00002FB03F31846FFF7A7FF03B05DF804FB64
:10F8B00000B587B003460A468DF8073013468DF829
:10F8C0000630224B1B7883F00103DBB2002B00D003
:10F8D00039E09DF80630012B35D19DF807300B2B10
:10F8E00002D00E2B1BD02EE0194B1B7883F00103A6
:10F8F000DBB2002B12D0174B18464FF400710022D8
:10F9000004F0CCFA0590059B0493049B002B05D0D2
:10F910000498DB21104A01F0D9FB14E013E00C4BF2
:10F920001B78002B0ED00D4806F0B2FF0590059B0A
:10F930000393039B002B05D00398E421064A01F0B2
:10F94000C5FBFFE700BF07B05DF804FBED29002011
:10F95000EE290020CC290020BC850400F0290020DD
:10F9600000B585B0019008F039F80390039B02932D
:10F97000029B002B04D00298F421034A01F0A6FB5D
:10F9800005B05DF804FB00BFBC85040000B583B082
:10F9900001900CF0E5FF06F0E7FF03B05DF804FB13
:10F9A00000B58BB0079006910592059B0993099BC2
:10F9B0005A68099B1B881946099B9B680092019114
:10F9C000029300200749079A069B06F0C1FA6420BB
:10F9D000FFF760FF07980699059A01F08FFB0BB0BF
:10F9E0005DF804FB04860400F0B5D5B002460DF1C5
:10F9F0000F031A7034AB602218460021FFF7DAFDBE
:10FA000001238DF8F33001238DF8F93001238DF8AF
:10FA1000FF3001238DF8233101238DF82931012393
:10FA20008DF82F3104AB964A1946C023084611467B
:10FA30001A4628F037F90DF10F031B78002B06D07A
:10FA400004AB904AB4331068186092889A8000F032
:10FA50000FFE5290529B5193519B002B05D0519811
:10FA60004FF49F71884A01F031FB00238DF84F312C
:10FA700092E09DF84F019DF84F2113465B0013441F
:10FA80005B0054AA1344803B1E789DF84F21134617
:10FA90005B0013445B0054AA1344803B5D789DF8DF
:10FAA0004F2113465B0013445B0054AA1344803B70
:10FAB0009C789DF84F2113465B0013445B0054AAC9
:10FAC0001344803BD9789DF84F2113465B001344C3
:10FAD0005B0054AA1344803B1B790091019331468B
:10FAE0002A46234600F098FB5290529B5093509B1D
:10FAF000002B05D050984FF4A571634A01F0E6FA47
:10FB00009DF84F2113465B0013445B0054AA134435
:10FB1000803B5B79012B16D0022B27D0002B34D1F0
:10FB20009DF84F31184600F093FE5290529B4F9330
:10FB30004F9B002B06D04F984FF4A871524A01F00A
:10FB4000C5FA24E023E09DF84F31184600F02AFE64
:10FB50005290529B4E934E9B002B06D04E9840F2F3
:10FB60005511494A01F0B2FA11E010E00023529316
:10FB7000529B4D934D9B002B06D04D984FF4AD7189
:10FB8000414A01F0A3FA02E001E0062352939DF8F6
:10FB90004F3101338DF84F319DF84F310F2B7FF6E8
:10FBA00068AF00238DF84E3163E09DF84E719DF8EB
:10FBB0004E2104A913465B0013445B000B441E78DE
:10FBC0009DF84E2104A913465B0013445B000B44CF
:10FBD0005D789DF84E2104A913465B0013445B0039
:10FBE0000B449C789DF84E2104A913465B001344F6
:10FBF0005B000B44D9789DF84E2104A813465B00A6
:10FC000013445B0003441B7900910193384631464D
:10FC10002A462346FFF79EFD9DF84E2104A9134670
:10FC20005B0013445B000B445B79012B09D0022B72
:10FC300019D0002B0BD19DF84E311846FFF7D0FD9F
:10FC400012E09DF84E311846FFF7BEFD0CE006238A
:10FC50004C934C9B002B07D04C9840F27B110A4AE6
:10FC600001F034FA00E000BF9DF84E3101338DF809
:10FC70004E319DF84E311F2B97D955B0F0BD00BFC6
:10FC80005886040018870400BC85040000B58BB0BA
:10FC90001E20FFF789FD1E20FFF796FD4B20FFF782
:10FCA000F9FD3E4B019301AB1846012100F026FE01
:10FCB0000990099B0893089B002B05D0089840F2F7
:10FCC0006221374A01F002FA0120FFF78DFE07207A
:10FCD00000F014FD0990099B0793079B002B05D0AA
:10FCE000079840F267212E4A01F0F0F9052000F054
:10FCF00005FD0990099B0693069B002B05D00698ED
:10FD000040F26921264A01F0E1F9062000F0F6FCF4
:10FD10000990099B0593059B002B05D0059840F29F
:10FD20006B211F4A01F0D2F9072000F03BFD09903A
:10FD3000099B0493049B002B05D0049840F26D218D
:10FD4000174A01F0C3F9052000F02CFD0990099B2A
:10FD50000393039B002B05D0039840F26F21104AB8
:10FD600001F0B4F9062000F01DFD0990099B0293F3
:10FD7000029B002B05D0029840F27121084A01F045
:10FD8000A5F91D20FFF710FD1D20FFF729FD6420B8
:10FD9000FFF780FD0BB05DF804FB00BF4088040056
:10FDA000BC85040000B585B001900091009B1B78D4
:10FDB000002B02D0012B0FD034E0009BDB69002B1D
:10FDC00009D11A4B01221A70194B01221A70194BD2
:10FDD00004221A7026E025E0144B00221A70154BFD
:10FDE00003221A70009BDB694CF64412934214D133
:10FDF000114B18464FF40071002204F04FF80390A5
:10FE0000039B0293029B002B06D002984FF42871AB
:10FE10000A4A01F05BF904E003E0054B00221A7086
:10FE2000FFE700BF05B05DF804FB00BFEE2900202E
:10FE3000EF290020EC290020CC290020BC850400FB
:10FE400000B58BB00190324B1B7883F00103DBB21D
:10FE5000002B00D058E02F4B1B7883F00103DBB25E
:10FE6000002B00D050E02C4B1B88192B02D12A4BC1
:10FE700011221A80284B1B88284829491A4627F046
:10FE800037FF00238DF81030264B0293254827F0CA
:10FE90005BFF03460393214B0593204827F054FF53
:10FEA00003460693204B1B88ADF81C309DF81E308E
:10FEB0006FF300038DF81E309DF81E306FF3410381
:10FEC0008DF81E3002AB1948194606F057FC099010
:10FED000099B4CF61112934210D0099B0893089B82
:10FEE000002B05D0089840F2DF21114A01F0EEF80E
:10FEF0000D4B1B8802339AB20B4B1A80064B1B88A2
:10FF000001339AB2044B1A800BB05DF804FB00BFBA
:10FF1000EF290020EE29002064280020482A002034
:10FF2000BC870400FC87040066280020F02900201C
:10FF3000BC85040000B585B00190204806F0BAFBEE
:10FF40001F4B204A1A601F4827F0FEFE02461C4B3A
:10FF50005A601D481D49102227F0A4FE174B42F29B
:10FF6000B3221A86154B1A4ADA61144B194A1A60E1
:10FF7000184827F0E9FE0246104B5A600F4B00224A
:10FF8000DA600E4B00229A600C4B012283F833207A
:10FF90000A4B114A9A61094806F09AFB0390039BA9
:10FFA0000293029B002B05D002984FF446710B4A36
:10FFB00001F08CF805B05DF804FB00BFF0290020CB
:10FFC000102B00207C850400102A0020AC85040042
:10FFD000A5FD01006C85040074280020BC85040088
:10FFE00000B585B01F200621114A002303F0D0FE82
:10FFF0000390039B0293029B002B05D002984FF4C1
:020000022000DC
:1000000049710C4A01F062F80B4800210B4A03F0D9
:1000100015FF0190019B0093009B002B05D00098D9
:1000200040F22A31034A01F051F805B05DF804FBB3
:10003000182B0020BC8504006885040035FF0100F2
:1000400000B585B01A4807F077FC0390039B029334
:10005000029B002B05D002984FF45171154A01F014
:1000600035F815480121154A03F0E8FE0390039B7B
:100070000193019B002B05D0019840F24A310D4AB3
:1000800001F024F80E4B18460A21002203F006FF67
:100090000390039B0093009B002B05D000984FF426
:1000A0005471044A01F012F805B05DF804FB00BF7A
:1000B0005C880400BC8504006485040061F90100CB
:1000C000AC29002000B585B010480221332203F08E
:1000D00045F80390039B0293029B002B05D00298E6
:1000E00040F267310A4A00F0F1FF03F0ABF80390E9
:1000F000039B0193019B002B05D0019840F26A31CC
:10010000034A00F0E3FF05B05DF804FB84280020FB
:10011000BC85040008B50020064905F0E9FBFFF79F
:10012000B5FDFFF75DFFFFF78BFFFFF7CBFF002368
:10013000184608BD2088040082B003468DF80730B9
:100140009DF90730002B0BDA0B4A9DF8073003F0BE
:100150000F03043B13441B7EDBB25B09DBB208E0F8
:10016000064A9DF90730134493F80033DBB25B096C
:10017000DBB2184602B0704700ED00E000E100E09D
:1001800000B585B0EFF305830193019BC3F308032A
:100190000393039B002B0BD0039B103B0293029B0A
:1001A000DBB25BB21846FFF7C7FF0346DBB200E0E5
:1001B0000F23184605B05DF804FB00BF00B587B0FB
:1001C0000390029101920093FFF7DAFF03468DF846
:1001D00017300F4B1B789DF817209A4201D20F233E
:1001E00011E003980299019A009B01F0C3FE04906C
:1001F000049B002B06D0074B1B680133054A136094
:10020000049B00E00023184607B05DF804FB00BF24
:1002100094280020A82B002000B587B00390084642
:1002200011461A4603468DF80B300B468DF80A30FE
:1002300013468DF80930039B0F2B01D902230EE2E0
:10024000AF4B1B68184600F0DFFC0590059B002BA8
:100250000BD0059B00930020AA49AB4A5E2305F012
:1002600077FE00F0F1FE059BF9E19DF80930002BC7
:1002700032D1039B012202FA03F39BB200201946FC
:1002800000F06CFD0590059B002B0BD0059B0093A7
:1002900000209C499C4A632305F05AFE00F0D4FEDE
:1002A000059BDCE1039B012202FA03F39BB20020D1
:1002B000194600F095FD0590059B002B00F0898004
:1002C000059B009300208F498F4A662305F040FE6E
:1002D00000F0BAFE059BC2E19DF80930012B31D137
:1002E000039B012202FA03F39BB20020194600F09F
:1002F00035FD0590059B002B0BD0059B009300203E
:100300008049814A6B2305F023FE00F09DFE059B8A
:10031000A5E1039B012202FA03F39BB218460021D8
:1003200000F05EFD0590059B002B52D0059B0093CD
:1003300000207449744A6E2305F00AFE00F084FE22
:10034000059B8CE19DF80930022B31D1039B0122E2
:1003500002FA03F39BB20020194600F041FD05901C
:10036000059B002B0BD0059B009300206549664A36
:10037000732305F0EDFD00F067FE059B6FE1039B25
:10038000012202FA03F39BB21846002100F0E6FCBA
:100390000590059B002B1CD0059B0093002059491C
:1003A000594A762305F0D4FD00F04EFE059B56E138
:1003B00001230593059B002B0BD0059B0093002088
:1003C0005049514A7B2305F0C3FD00F03DFE059BDB
:1003D00045E19DF80A30002B18D1039B012202FA57
:1003E00003F39BB20020194600F034FC0590059BF6
:1003F000002B39D0059B009300204249424A8123BB
:1004000005F0A6FD00F020FE059B28E19DF80A30CE
:10041000012B18D1039B012202FA03F39BB2184669
:10042000002100F017FC0590059B002B1CD0059BBC
:10043000009300203349344A862305F089FD00F0FB
:1004400003FE059B0BE101230593059B002B0BD0BD
:10045000059B009300202B492B4A8B2305F078FD48
:1004600000F0F2FD059BFAE09DF82030002B18D13A
:10047000039B012202FA03F39BB20020194600F00D
:10048000F1FC0590059B002B40D0059B00930020BC
:100490001C491D4A912305F05BFD00F0D5FD059B2D
:1004A000DDE09DF82030012B18D1039B012202FAD8
:1004B00003F39BB21846002100F0D4FC0590059B85
:1004C000002B23D0059B009300200E490E4A962353
:1004D00005F03EFD00F0B8FD059BC0E0012305934B
:1004E000059B002B12D0059B009300200549064A6E
:1004F0009B2305F02DFD00F0A7FD059BAFE000BF9D
:10050000AC2B002074880400BC8804009DF82430C3
:10051000002B18D1039B012202FA03F39BB20020A7
:10052000194600F0D9FB0590059B002B39D0059B9F
:10053000009300204C494D4AA12305F009FD00F02D
:1005400083FD059B8BE09DF82430012B18D1039B84
:10055000012202FA03F39BB21846002100F0BCFB13
:100560000590059B002B1CD0059B009300203E4965
:100570003E4AA62305F0ECFC00F066FD059B6EE00C
:1005800001230593059B002B0BD0059B00930020B6
:100590003549364AAB2305F0DBFC00F055FD059BE1
:1005A0005DE09DF80B30002B18D1039B012202FA6D
:1005B00003F39BB20020194600F096FC0590059BC2
:1005C000002B39D0059B009300202749274AB123EF
:1005D00005F0BEFC00F038FD059B40E09DF80B30B7
:1005E000012B18D1039B012202FA03F39BB2184698
:1005F000002100F079FC0590059B002B1CD0059B89
:10060000009300201849194AB62305F0A1FC00F018
:100610001BFD059B23E001230593059B002B0BD0BD
:10062000059B009300201049104ABB2305F090FC65
:1006300000F00AFD059B12E000F006FD0590059B09
:10064000002B0BD0059B009300200749074ABF23CE
:1006500005F07EFC00F0F8FC059B00E00023184646
:1006600007B05DF804FB00BF74880400BC88040078
:1006700000B585B01E4B1B68184600F0C5FA039004
:10068000039B002B0BD0039B0093002019491A4AAF
:10069000CA2305F05DFC00F0D7FC039B24E000F0CA
:1006A000A7FC0390039B002B0BD0039B009300201F
:1006B0001049114ACD2305F04BFC00F0C5FC039B0B
:1006C00012E000F0C1FC0390039B002B0BD0039BB6
:1006D000009300200749084AD02305F039FC00F0B8
:1006E000B3FC039B00E00023184605B05DF804FB53
:1006F000AC2B002074880400BC88040000B587B0CF
:100700000390039B0F2B01D9022340E0224B1B686F
:10071000184600F079FA0590059B002B0BD0059B3D
:10072000009300201D491E4ADD2305F011FC00F056
:100730008BFC059B2BE0039B012202FA03F39BB287
:100740000020194600F0D0FB0590059B002B0BD034
:10075000059B009300201149114AE12305F0F8FBA5
:1007600000F072FC059B12E000F06EFC0590059B0A
:10077000002B0BD0059B009300200849084AE42376
:1007800005F0E6FB00F060FC059B00E00023184646
:1007900007B05DF804FB00BFAC2B00207488040098
:1007A000BC88040000B587B00390039B0F2B01D9D0
:1007B000022343E0234B1B68184600F025FA0590FE
:1007C000059B002B0CD0059B009300201E491F4A5F
:1007D00040F2A31305F0BCFB00F036FC059B2DE0B6
:1007E000039B012202FA03F39BB21846002100F09A
:1007F000BDFB0590059B002B0CD0059B00930020B2
:100800001149124A4FF4D37305F0A2FB00F01CFC0F
:10081000059B13E000F018FC0590059B002B0CD005
:10082000059B009300200849084A40F2A91305F0EF
:100830008FFB00F009FC059B00E00023184607B081
:100840005DF804FBAC2B002074880400BC88040015
:1008500000B587B00390039B0F2B01D9022343E01F
:10086000234B1B68184600F0CFF90590059B002B21
:100870000CD0059B009300201E491F4A40F2C9136B
:1008800005F066FB00F0E0FB059B2DE0039B0122D9
:1008900002FA03F39BB20020194600F067FB0590B3
:1008A000059B002B0CD0059B009300201149124A98
:1008B0004FF4E67305F04CFB00F0C6FB059B13E01C
:1008C00000F0C2FB0590059B002B0CD0059B00930C
:1008D00000200849084A40F2CF1305F039FB00F028
:1008E000B3FB059B00E00023184607B05DF804FB4E
:1008F000AC2B002074880400BC88040000B585B0CF
:1009000001900B468DF80330019B002B01D10E2383
:1009100012E0019B1B680A4A136000F06FF99DF812
:100920000330002B07D0FFF7A3FE0390039B002B9F
:1009300001D0039B00E00023184605B05DF804FBDE
:10094000AC2B002084B00190234B0393019B002B20
:1009500040D0224B1A680399019B00BF00BF00BF23
:1009600000BF00BF00BF00BF00BF8A422FD000BF42
:1009700000BF00BF00BF00BF00BF00BF00BF00BF7F
:1009800000BF00BF00BF00BF00BF00BF00BF00BF6F
:1009900000BF00BF00BF00BF00BF00BF00BF00BF5F
:1009A00000BF00BF00BF00BF00BF00BF00BF00BF4F
:1009B00000BF00BF00BF00BF00BF00BF00BF00BF3F
:1009C00000BF00BF00BF00BF00BF00BF00BF013BB2
:1009D000C3D1019304B070470024F400982800208C
:1009E00000B583B00190019B4FF47A7202FB03F3D0
:1009F0001846FFF7A7FF03B05DF804FB00B587B00A
:100A000003460A468DF80F3013468DF80E30154B0D
:100A10001B68002B20D0134B1B685B680593114BA0
:100A20001B681B788DF813309DF80F308DF810304F
:100A30009DF80E308DF811309DF8131004AA002394
:100A400000930598022301F04BFE0346002B0CBFD8
:100A500001230023DBB200E00023184607B05DF855
:100A600004FB00BFB02B002000B587B00346029105
:100A70008DF80F30154B1B68002B22D0134B1B68D1
:100A80005B680593114B1B681B788DF813309DF83C
:100A900013100DF10F02012300930598012301F0BB
:100AA0001FFE0346002B0CD19DF813300598194604
:100AB000029A012301F046FE0346002B01D10123D7
:100AC00000E00023184607B05DF804FBB02B0020BF
:100AD00000B585B003468DF807300B468DF806301B
:100AE00013468DF805309DF806209DF80530134318
:100AF000DBB2002B0CBF012300238DF80F309DF8D3
:100B000006209DF805301340DBB2002B42D19DF842
:100B10000F3083F00103DBB2002B3BD0204B1B686E
:100B2000002B37D09DF807200DF10D031046194614
:100B3000FFF79AFF0346002B2CD09DF80D308DF85F
:100B40000E309DF80D209DF806301343DBB28DF872
:100B50000D309DF80530DB43DAB29DF80D30DBB285
:100B60001340DBB2DBB28DF80D309DF80D309DF8EF
:100B70000E209A420AD09DF80D309DF807201046AD
:100B80001946FFF73BFF0346002B01D0012303E08A
:100B9000002301E09DF80F30184605B05DF804FB16
:100BA000B02B002010B586B0034602918DF80F30AF
:100BB000114B1B68002B1BD00F4B1B685B68059308
:100BC0000D4B1B681B788DF813309DF813209DF892
:100BD0000F400023009305981146029A234601F026
:100BE0007FFD0346002B0CBF01230023DBB200E096
:100BF0000023184606B010BDB02B0020014B002288
:100C00001A607047B02B002000B583B00190104BE4
:100C10001B68002B16D1019B5A68019B9B681046EC
:100C2000194600220023FFF7C9FA0346002B09D119
:100C3000019B5B68184601F059FA054A019B136055
:100C4000002300E00123184603B05DF804FB00BF59
:100C5000B02B002000B583B003460A46ADF806303D
:100C60001346ADF80430BDF80620BDF8043013403B
:100C70009BB2002B01D002232AE0BDF806301B0AEC
:100C80009BB2DAB2BDF804301B0A9BB2DBB2002083
:100C900011461A46FFF71CFF034683F00103DBB23F
:100CA000002B01D0012313E0BDF80630DAB2BDF805
:100CB0000430DBB2012011461A46FFF709FF034654
:100CC00083F00103DBB2002B01D0012300E00023FD
:100CD000184603B05DF804FB00B583B003460A462E
:100CE000ADF806301346ADF80430BDF80620BDF867
:100CF000043013409BB2002B01D002232AE0BDF840
:100D000006301B0A9BB2DAB2BDF804301B0A9BB254
:100D1000DBB2022011461A46FFF7DAFE034683F0E3
:100D20000103DBB2002B01D0012313E0BDF8063034
:100D3000DAB2BDF80430DBB2032011461A46FFF7E1
:100D4000C7FE034683F00103DBB2002B01D0012371
:100D500000E00023184603B05DF804FB00B583B043
:100D600003460A46ADF806301346ADF80430BDF828
:100D70000620BDF8043013409BB2002B01D00223A3
:100D80002AE0BDF806301B0A9BB2DAB2BDF8043087
:100D90001B0A9BB2DBB2062011461A46FFF798FEEB
:100DA000034683F00103DBB2002B01D0012313E0E3
:100DB000BDF80630DAB2BDF80430DBB207201146C8
:100DC0001A46FFF785FE034683F00103DBB2002BD2
:100DD00001D0012300E00023184603B05DF804FBB6
:100DE00000B583B003460A46ADF806301346ADF8A9
:100DF0000430BDF80620BDF8043013409BB2002B30
:100E000001D002232AE0BDF806301B0A9BB2DAB2F9
:100E1000BDF804301B0A9BB2DBB2082011461A460B
:100E2000FFF756FE034683F00103DBB2002B01D02F
:100E3000012313E0BDF80630DAB2BDF80430DBB2AE
:100E4000092011461A46FFF743FE034683F00103CB
:100E5000DBB2002B01D0012300E00023184603B0D1
:100E60005DF804FB00B583B003460A46ADF80630D2
:100E70001346ADF80430BDF80620BDF80430134029
:100E80009BB2002B01D002232AE0BDF806301B0ADA
:100E90009BB2DAB2BDF804301B0A9BB2DBB20A2067
:100EA00011461A46FFF714FE034683F00103DBB236
:100EB000002B01D0012313E0BDF80630DAB2BDF8F3
:100EC0000430DBB20B2011461A46FFF701FE034641
:100ED00083F00103DBB2002B01D0012300E00023EB
:100EE000184603B05DF804FB00B583B003460A461C
:100EF000ADF806301346ADF80430BDF80620BDF855
:100F0000043013409BB2002B01D002232AE0BDF82D
:100F100006301B0A9BB2DAB2BDF804301B0A9BB242
:100F2000DBB20E2011461A46FFF7D2FD034683F0CE
:100F30000103DBB2002B01D0012313E0BDF8063022
:100F4000DAB2BDF80430DBB20F2011461A46FFF7C3
:100F5000BFFD034683F00103DBB2002B01D0012368
:100F600000E00023184603B05DF804FB00B583B031
:100F700003460A46ADF806301346ADF80430BDF816
:100F80000620BDF8043013409BB2002B01D0022391
:100F90002AE0BDF806301B0A9BB2DAB2BDF8043075
:100FA0001B0A9BB2DBB2102011461A46FFF790FDD8
:100FB000034683F00103DBB2002B01D0012313E0D1
:100FC000BDF80630DAB2BDF80430DBB211201146AC
:100FD0001A46FFF77DFD034683F00103DBB2002BC9
:100FE00001D0012300E00023184603B05DF804FBA4
:100FF00000B583B0134A01AB1068186001AB022042
:101000001946FFF7CFFD034683F00103DBB2002B47
:1010100001D0012311E001AB023302201946FFF792
:10102000C1FD034683F00103DBB2002B01D0012395
:1010300003E00320FFF7D4FC0023184603B05DF85B
:1010400004FB00BF0489040008B50C4B1B68002B8F
:1010500010D00A4B1B685B68184601F063F8074B19
:101060001B685B68184600F0FBFF044B00221A6007
:10107000002300E00123184608BD00BFB02B00206C
:1010800039DF7047184600BF3ADF7047184600BF87
:1010900000B585B001900198FFF7F2FF0390039B24
:1010A000184605B05DF804FB00B585B001900B460D
:1010B0008DF803309DF8033001981946FFF7E4FFDF
:1010C0000390039B184605B05DF804FB00B589B09A
:1010D000039002910192029B9BB2ADF81430019BE8
:1010E0000693039B079305AB44F2010000211A46C7
:1010F000FEF756FC09B05DF804FB00BF86B0039014
:101100000291019201238DF817309DF817301F4A84
:10111000039B13601D4A029B53601C4A019B936012
:10112000039B44F20102934212D044F20202934222
:1011300022D1019B154AD360144BDB681B881A46E9
:10114000124B9A61114BDB685B68104AD36113E064
:10115000019B0E4A13610D4B1B699B680B4A53613F
:101160000A4B1B691B881A46084B9A61074B1B697F
:101170005B68064AD36100BF72B600BF9DF81730A6
:10118000DBB2002BFAD162B606B07047B42B002058
:1011900082B003468DF8073007499DF907305B0997
:1011A0009DF8072002F01F02012000FA02F241F828
:1011B000232002B0704700BF00E100E082B0034688
:1011C0008DF8073007499DF907305B099DF8072026
:1011D00002F01F02012000FA02F2603341F82320DE
:1011E00002B0704700E100E082B0034600918DF844
:1011F00007309DF90730002B0CDA0C499DF80730B9
:1012000003F00F03043B009AD2B25201D2B20B4456
:101210001A7609E006499DF90730009AD2B25201C8
:10122000D2B20B4483F8002302B0704700ED00E017
:1012300000E100E000B583B003460A468DF80730B0
:1012400013468DF806309DF806309DF907201046AC
:101250001946FFF7C9FF9DF907301846FFF7AEFFA3
:101260009DF907301846FFF793FF03B05DF804FBC4
:1012700000B583B00346ADF80630BDF80630184619
:1012800000F026F803461B68012B0CBF0123002346
:10129000DBB2184603B05DF804FB00BF00B585B0B3
:1012A0000346ADF80630BDF80630184600F010F8D9
:1012B00003461A4600231360BDF80630184600F0B6
:1012C00007F803461B680393039B05B05DF804FB16
:1012D00082B00346ADF80630BDF8063003F1804316
:1012E00003F5C043184602B0704700BF82B00190BA
:1012F000024A019BC2F8043302B07047006000400C
:1013000082B00190034BD3F80423019B134018468D
:1013100002B070470060004082B001900749074A60
:10132000019B03F5A27352F8233043F00102019BA5
:1013300003F5A27341F8232002B07047006000401B
:1013400084B00390029113468DF807301449144A73
:10135000039B03F5A27352F8233023F4473323F49D
:101360004073039A02F5A27241F822300C480C4AED
:10137000039B03F5A27352F82320029B1B0203F484
:10138000F8519DF807301B0403F440330B431A4314
:10139000039B03F5A27340F8232004B0704700BFFD
:1013A0000060004082B00190054A019B03F5A273E2
:1013B00052F8233003F4F8531B0A184602B0704762
:1013C0000060004082B00190064A019B03F5A273C1
:1013D00052F8233003F440331B0CDBB2184602B042
:1013E000704700BF0060004082B00190084611467F
:1013F0001A4603468DF803300B468DF8023013462B
:101400008DF801304FF0A0419DF803209DF8023087
:101410005B001A439DF801309B001A439DF8083089
:101420001B021A439DF80C301B041A43019B03F561
:10143000E07341F8232002B0704700BF10B584B0BC
:1014400003900B468DF80B309DF80B400023009362
:10145000002301930398002100222346FFF7C4FFD5
:1014600004B010BD84B001904FF0A042019B03F581
:10147000E07352F8233023F0020303934FF0A041AE
:10148000019B03F5E073039A41F8232004B07047F1
:1014900082B001900B468DF803304FF0A0414FF021
:1014A000A042019B03F5E07352F8233023F440324D
:1014B000019B03F5E07341F823204FF0A0414FF06A
:1014C000A042019B03F5E07352F823309DF80320FE
:1014D00012041A43019B03F5E07341F8232002B084
:1014E000704700BF82B001904FF0A043D3F81025A1
:1014F000019B22FA03F303F00103184602B0704780
:101500004FF0A043D3F810351846704782B00190D1
:101510004FF0A042019B03F5E07352F8233003F42F
:1015200040331B0CDBB2184602B0704782B001900A
:101530000C4A019B134440331B785BB2002B09DB40
:10154000084A019B134440331B785BB2072B01DC34
:10155000012300E0002303F00103DBB2184602B0D0
:10156000704700BFD42B002082B00190064A019B37
:10157000134440331B785BB2072BCCBF01230023FD
:10158000DBB2184602B07047D42B002082B0019025
:10159000054A019B134440331B78DB43DBB2DB0974
:1015A000DBB2184602B07047D42B002084B0039001
:1015B000029101928DF80330029BD9B20E4A039B2F
:1015C000134440330A461A700B49029B019A41F8B2
:1015D00023209DF8033083F00103DBB2002B08D0F9
:1015E000029B083B039AD1B2034A13440A4683F88C
:1015F000602004B0704700BFD42B002082B001905F
:10160000034A019B13444033FF221A7002B0704713
:10161000D42B002082B00190044A019B1344403334
:101620001B785BB2184602B0704700BFD42B002075
:1016300082B00190034A019B52F82330184602B051
:10164000704700BFD42B002000B589B003900291F1
:1016500013468DF80730FF238DF81F309DF80730B3
:10166000002B01D0002300E0082305939DF80730EC
:10167000002B01D0082300E010230493059B069360
:1016800014E0104A069B52F82330B3F1FF3F0AD111
:101690009DF8073003980699029AFFF787FF069B8B
:1016A0008DF81F3006E0069B01330693069A049BD3
:1016B0009A42E6D39DF81F305BB2184609B05DF838
:1016C00004FB00BFD42B002082B003468DF8073006
:1016D0009DF80730094A4FF0FF3142F823109DF87A
:1016E0000730072B07D99DF80730083B034A1344FE
:1016F000FF2283F8602002B0704700BFD42B002087
:1017000000B583B01F4B93F86830002B01D008233D
:1017100034E000238DF8073009E09DF807301846C3
:10172000FFF76CFF9DF8073001338DF807309DF807
:1017300007301F2BF1D900238DF8073009E09DF801
:1017400007301846FFF7C0FF9DF8073001338DF8CA
:1017500007309DF807300F2BF1D906200621FFF73F
:1017600069FD4FF4BE70FFF799FD4FF00040FFF7A1
:10177000BDFD044B012283F868200023184603B006
:101780005DF804FBD42B0020044B93F86830002B49
:1017900014BF01230023DBB218467047D42B00206E
:1017A00000B587B00390029101920023059303983E
:1017B000FFF7ECFE0346002B02D00823059342E01E
:1017C000029BDB78039801991A46FFF73DFF034619
:1017D0008DF813309DF91330B3F1FF3F31D0029BE8
:1017E0009B78002B03D00398FFF73CFE05E0029B9B
:1017F0005B7803981946FFF721FE029BDB78002BEC
:1018000009D09DF91320029B1B78104603991A46B4
:10181000FFF796FD17E09DF91330083B9DF9132063
:10182000083A0B490A4492F86010029A1278920121
:10183000D2B20A43D1B2064A13440A4683F8602062
:1018400001E004230593059B184607B05DF804FBEF
:10185000D42B002000B587B001900B468DF80330E3
:101860000198FFF781FE0346002B33D00198FFF764
:10187000D1FE0346083B314A134493F860308DF89B
:1018800016309DF816309B098DF815309DF81530EF
:10189000032B0FD1FFF734FE0146019B012202FA10
:1018A00003F30B40002B01D0032300E002238DF84B
:1018B000173008E09DF81530012B01D1022300E01C
:1018C00003238DF817309DF8173001981946FFF75C
:1018D000DFFD30E00198FFF729FE0346002B2AD0F8
:1018E0000198FFF797FE03460493049B9BB2403395
:1018F0009BB29B00ADF80E30049B1846FFF70CFD21
:10190000BDF80E301846FFF7C9FC9DF80330002BD8
:1019100011D00198FFF77EFE03461846FFF788FEB8
:101920000290029B002B06D00122049B02FA03F3D3
:101930001846FFF7DBFC07B05DF804FBD42B002052
:1019400000B583B001900198FFF7CCFD0346002B52
:1019500014BF01230023DBB2184603B05DF804FB7B
:1019600000B593B000231193002310934FF48073BC
:10197000ADF83A3001230D9300230F9321E0BDF819
:101980003A301846FFF774FC0346002B0ED00D9832
:10199000FFF7B6FC0346002B08D0BDF83A301846D6
:1019A000FFF77CFC119A0D9B134311930D9B5B0079
:1019B0000D93BDF83A300433ADF83A300F9B013344
:1019C0000F930F9B072BDAD94FF4BE70FFF750FC33
:1019D0000346002B0AD04FF4BE70FFF75FFC119B4B
:1019E00043F000431193FFF78BFD1090119BDBB286
:1019F000002B29D001230D9300230F9321E00D9A92
:101A0000119B1340002B16D00F98FFF7CBFC0990C9
:101A10000F98FFF7D7FC03468DF823300F98FFF798
:101A200007FE0790079B002B05D09DF82320079BFE
:101A30000998114698470D9B5B000D930F9B01334E
:101A40000F930F9B072BDAD9119B002B80F2A380F9
:101A500000238DF8333000230B934FF0FF330A93AC
:101A600000238DF8333000230F9379E04B4A0F9B0E
:101A7000134460331B788DF81B309DF81B3023F026
:101A8000C0030593454A0F9B134460331B785BB238
:101A9000B3F1FF3F61D0059B0A9A22FA03F303F0EA
:101AA0000103002B59D09DF81B309B098DF8133092
:101AB0000598FFF7AFFD03461846FFF7B9FD039001
:101AC000039B002B03D19DF81330032B45D1059BBD
:101AD000012202FA03F30D939DF81330032B03D177
:101AE0000B9A0D9B13430B930598FFF70FFD0346CD
:101AF0008DF80B300D9A109B1340002B03D09DF8EE
:101B00000B30022B08D00D9A109B1340002B24D1D0
:101B10009DF80B30032B20D19DF81330032B13D1EC
:101B20009DF80B30022B01D1032300E002238DF836
:101B30000A309DF80A3005981946FFF7A9FC9DF870
:101B4000333001338DF83330039B002B05D09DF8E3
:101B50001320039B0598114698470F9B01330F9361
:101B60000F9B072B82D99DF83330002B0ED0FFF747
:101B7000C7FC0190019A109B9A4203D100238DF873
:101B8000333003E0019B10930B9B0A939DF8333095
:101B9000002B7FF465AF13B05DF804FBD42B00205D
:101BA00082B003468DF8073007499DF907305B097D
:101BB0009DF8072002F01F02012000FA02F22033F4
:101BC00041F8232002B0704700E100E082B00190AC
:101BD0000B468DF803309DF80330019A134401221F
:101BE0001A6002B0704700BF84B001900B46ADF898
:101BF0000230BDF80230019A134400221A60BDF889
:101C00000230019A13441B680393039B04B070478E
:101C100082B001900B46ADF80230BDF80230019A57
:101C200013441B68002B14BF01230023DBB21846AA
:101C300002B0704782B001900091019BD3F800225E
:101C4000009BDB431A40019BC3F8002202B070479F
:101C500082B001900091019B009AC3F8042302B066
:101C6000704700BF82B001900091019B009AC3F8B9
:101C7000082302B0704700BF82B00190019B05228B
:101C8000C3F8002502B0704782B00190019B00228A
:101C9000C3F8002502B0704784B00390029101920E
:101CA000039B029AC3F80825039B019AC3F80C25ED
:101CB00004B0704782B001900091019B009AC3F874
:101CC000242502B0704700BF84B00190019BD3F877
:101CD000C4340393019B039AC3F8C424039B18469E
:101CE00004B0704782B001900B468DF803309DF828
:101CF0000320019BC3F8882502B0704782B0019091
:101D0000019BD3F81835DBB2184602B0704700BF0C
:101D100082B001900B468DF803309DF80320019BA3
:101D2000C3F81C2502B0704782B001900091019B5E
:101D3000009AC3F8002202B0704700BF00B583B01C
:101D400003468DF807309DF907301846FFF728FF46
:101D500003B05DF804FB00BF84B00190019B1B0B36
:101D60008DF80F309DF80F305BB2184604B0704705
:101D700082B001904FF0A042019B012101FA03F3D0
:101D8000C2F8083502B0704782B001904FF0A0420F
:101D9000019B012101FA03F3C2F80C3502B0704730
:101DA00082B001904FF0A043D3F81025019B22FA96
:101DB00003F303F00103184602B0704784B00190AA
:101DC000234B0393019B002B40D0224B1A680399AD
:101DD000019B00BF00BF00BF00BF00BF00BF00BF2E
:101DE00000BF8A422FD000BF00BF00BF00BF00BFAE
:101DF00000BF00BF00BF00BF00BF00BF00BF00BFEB
:101E000000BF00BF00BF00BF00BF00BF00BF00BFDA
:101E100000BF00BF00BF00BF00BF00BF00BF00BFCA
:101E200000BF00BF00BF00BF00BF00BF00BF00BFBA
:101E300000BF00BF00BF00BF00BF00BF00BF00BFAA
:101E400000BF00BF00BF013BC3D1019304B0704786
:101E50000024F4009828002084B001900323039309
:101E6000019B03F00103002B02D04FF402430393C4
:101E7000019B03F00203002B02D048F201230393DD
:101E8000019B03F00403002B02D048F202230393CA
:101E9000039B184604B0704700B585B001904FF021
:101EA000A042019B1B6803F5E07340F20C6142F80D
:101EB00023104FF0A042019B5B6803F5E07340F2F2
:101EC0000C6142F82310019B1B681846FFF750FF76
:101ED000019B5B681846FFF74BFF4FF0A042019B48
:101EE0001B6803F5E07340F20D6142F823104FF0D8
:101EF000A042019B5B6803F5E07340F20D6142F87C
:101F000023100420FFF75AFF002303931FE0019BD7
:101F10005B681846FFF744FF0346002B04D0039B81
:101F2000002B00D123E015E0019B1B681846FFF74A
:101F30002BFF0420FFF742FF019B1B681846FFF7A9
:101F400017FF0420FFF73AFF039B01330393039B22
:101F5000082BDCDD019B5B681846FFF715FF0420AA
:101F6000FFF72CFF019B5B681846FFF701FF05B0E8
:101F70005DF804FB00B587B00390029101920093D5
:101F8000039B1B791A4613469B001344DB00334A1C
:101F900013440593059B93F82230002B01D00823AE
:101FA00058E0059B019A1A60059B009A5A60059BB0
:101FB00000229A60059B002283F82520059B0022C1
:101FC00083F82420029B9A7B059B83F82720029BA1
:101FD0005B7B002B02D00298FFF75EFF4FF0A04220
:101FE000029B1B6803F5E07340F20C6142F823107A
:101FF0004FF0A042029B5B6803F5E07340F20C6176
:1020000042F82310039B1B680493029B1A68029BEF
:102010005B68049811461A46FFF73EFE029B9B68D8
:1020200004981946FFF746FE059B1B68002B0CD051
:10203000039B1B681846FFF78FFE03461A46029B58
:102040001B7B10461946FFF7F5F8059B012283F824
:1020500022200023184607B05DF804FB402C002026
:1020600000B585B00190019B1B791A4613469B0071
:102070001344DB001C4A13440393039B1B68002B8F
:1020800008D0019B1B681846FFF766FE03461846FA
:10209000FFF754FE019800F045F8039B93F82730B2
:1020A00083F00103DBB2002B17D04FF0A042019B5D
:1020B0001B68D3F8083503F5E07340F2023142F8AB
:1020C00023104FF0A042019B1B68D3F80C3503F599
:1020D000E07340F2023142F82310039B002283F8A0
:1020E000222005B05DF804FB402C002000B585B02F
:1020F0000190019B1B791A4613469B001344DB0099
:10210000074A13440393019B1B6802930298FFF74D
:10211000B3FD039B022283F8222005B05DF804FB87
:10212000402C002000B585B00190019B1B791A4618
:1021300013469B001344DB000C4A13440393019B9A
:102140001B68029302984FF0FF31FFF78BFD029856
:102150004FF0FF31FFF76EFD0298FFF795FD039BEF
:10216000012283F8222005B05DF804FB402C0020FA
:1021700000B585B003900291009313468DF80730A7
:10218000009B1B789DF807209A4210D9009B1B7872
:102190001A46029B13441B7803981946FFF7B8FDB3
:1021A000009B1B780133DAB2009B1A700DE09DF89A
:1021B0001830002B05D003981C21FFF707FD0023E2
:1021C00004E003981421FFF701FD0123184605B030
:1021D0005DF804FB10B584B00390029100931346A0
:1021E0008DF80730009B1B789DF807209A4227D96D
:1021F000009B1B781A46029B9C180398FFF77EFDF4
:1022000003462370009B1B780133DAB2009B1A70DF
:10221000009B1B781A469DF80730013B9A4204D177
:1022200003980221FFF780FD06E0009B1B789DF8D4
:1022300007209A4200D103E003982021FFF7C6FC53
:1022400004B010BD00B589B00590049103920293CB
:10225000049B1B78002B05D1039B1B789DF828203D
:102260009A4201D1012300E000238DF81F309DF830
:102270001F3003F001038DF81F30049B1B78002BE7
:102280000FD005984FF49271FFF7AEFC05984FF40C
:102290008E71FFF7A9FC05984FF48471FFF7A4FC39
:1022A00072E005984FF49271FFF7B2FC0346002BE1
:1022B0000CD005984FF49271FFF796FC0598142105
:1022C000FFF784FC049B01221A705DE005984FF42F
:1022D0008E71FFF79DFC0346002B2BD005984FF421
:1022E0008E71FFF781FC05984FF49271FFF790FC17
:1022F0000346002B0CD005984FF49271FFF774FC45
:1023000005981421FFF762FC049B01221A703BE040
:102310009DF828209DF82C30009305980299039B86
:10232000FFF726FF034683F00103DBB2002B2BD01F
:1023300000233DE005984FF48471FFF769FC0346E4
:10234000002B21D005984FF48471FFF74DFC0598C0
:102350004FF49271FFF75CFC0346002B0CD00598FC
:102360004FF49271FFF740FC05981421FFF72EFC03
:10237000049B01221A7007E09DF828300598029905
:102380001A46039BFFF726FF9DF81F30002B0ED047
:1023900005984FF48271FFF73BFC0346002B06D0F3
:1023A00005984FF48271FFF71FFC002300E0012322
:1023B000184609B05DF804FB10B588B0059004918B
:1023C00003928DF80B300023079304984FF4827129
:1023D000FFF70AFC04984FF49271FFF705FC04988C
:1023E0004FF48E71FFF700FC04984FF48471FFF7EF
:1023F000FBFB04980021FFF797FC059B002283F864
:102400002620059B002283F8232004982021FFF733
:10241000DDFB04980821FFF7D9FB059B03F1260497
:102420009DF80B209DF828300093049803992346CB
:10243000FFF79EFE059B1B68002B0AD0059B40F210
:1024400086229A60059B9B6804981946FFF700FC5A
:1024500023E000BF059B03F12301059B03F1260246
:102460009DF80B3000939DF8283001930498039B4E
:10247000FFF7E8FE0346002BECD1059B93F82330D1
:10248000002B0AD00498FFF71FFC0690069B002B38
:1024900003D00698FFF7E0FC0790079B184608B0AA
:1024A00010BD00BF00B589B00590049103928DF86E
:1024B0000B300023079304984FF48271FFF794FBCD
:1024C00004984FF49271FFF78FFB04984FF48E71CC
:1024D000FFF78AFB04984FF48471FFF785FB059B97
:1024E000002283F82620059B002283F823209DF8F4
:1024F0000B30012B04D104980221FFF715FC03E0F7
:1025000004980121FFF710FC04982021FFF75EFBDF
:1025100004980021FFF75AFB059B1B68002B0AD08B
:10252000059B40F286229A60059B9B680498194699
:10253000FFF78EFB22E000BF059B03F12301059B03
:1025400003F126029DF80B300093002301930498B9
:10255000039BFFF777FE0346002BEDD1059B93F815
:102560002330002B0AD00498FFF7AEFB0690069BA1
:10257000002B03D00698FFF76FFC0790079B1846C7
:1025800009B05DF804FB00BF10B588B00590049158
:10259000039202930023079304984FF0FF31FFF753
:1025A00061FB059B93F82430DBB2002B07D0059B21
:1025B0009B6804981946FFF74BFB112364E0029BCC
:1025C00003F00403002B0CBF01230023DAB2059BA8
:1025D00083F82420029B03F00803002B01D006237C
:1025E00052E0059B029A9A61059B039A0C3307CA35
:1025F00083E80700039B9A78059B83F82020039BC0
:102600005A68059BDA61039B5B7804981946FFF7CB
:1026100069FB039B1B78012B20D0039B1B78002BAD
:1026200004D1029B03F02003002B01D0012300E022
:10263000002303F00103DAB2059B83F82120039BFA
:102640005A68039B9C78059B93F82130009305986A
:1026500004992346FFF7B0FE07900CE0059B00228B
:1026600083F82120039B5A68039B9B780598049963
:10267000FFF718FF0790059B1B68002B03D1059BF4
:10268000002283F82420079B184608B010BD00BF25
:1026900000B587B003900291019200230593039B3C
:1026A0001B791A4613469B001344DB000B4A134464
:1026B0000493019B03F00303002B01D0062309E0E0
:1026C000039B1B6804981946029A019BFFF75CFF65
:1026D0000590059B184607B05DF804FB402C0020D0
:1026E00000B589B0039001921A460B468DF80B3065
:1026F00013468DF80A3005AB00221A60043300221D
:102700001A60043300221A6004339DF80B308DF8F0
:1027100015309DF80A308DF81630019B06939DF810
:102720002830002B01D0202300E0002305AA0398C5
:1027300011461A46FFF7ACFF0346184609B05DF88C
:1027400004FB00BF00B589B0039001921A460B4606
:102750008DF80B3013468DF80A3005AB00221A6055
:10276000043300221A60043300221A600433012368
:102770008DF814309DF80B308DF815309DF80A3027
:102780008DF81630019B069305AB0398194600227D
:10279000FFF77EFF0346184609B05DF804FB00BF53
:1027A00030B58BB003900291029B03F12301029B91
:1027B00003F12605029BDC69029B93F82020029B13
:1027C00093F821300092019303982A462346FFF79D
:1027D00039FD0346002B00D07EE0029B93F82330A6
:1027E00083F00103DBB2002B3FD0029B1B7B022B4B
:1027F00003D0029B1B7B032B37D1029BDA69029B20
:102800001B699A4231D1029B5A69029BDA61029B91
:10281000DA7B029B83F82020029B9B6903F0200354
:10282000002B14BF01230023DAB2029B83F821207E
:10283000029B1B7B032B0ED1029BDA69029B93F850
:102840002040029B93F8213000930298039923467D
:10285000FFF7B2FD40E0029BDA69029B93F820305B
:1028600002980399FFF71EFE36E0029A06AB0C327F
:1028700007CA83E80700029B93F82330002B16D089
:102880000398FFF721FA0990099B03F00203002B3C
:1028900003D001238DF8143008E0099B03F00403F2
:1028A000002B03D002238DF8143003E002E0002354
:1028B0008DF81430029B002283F82420029B9B6930
:1028C00003F00403002B07D1029B1B68029A526895
:1028D00005A90846114698470BB030BD08B5024817
:1028E0000249FFF75DFF08BD00300040402C00208A
:1028F00084B001900B46ADF80230BDF80230019A69
:10290000134400221A60BDF80230019A13441B6878
:102910000393039B04B0704782B001900B46ADF85F
:102920000230BDF80230019A13441B68002B14BF1B
:1029300001230023DBB2184602B0704782B0019039
:102940000B468DF80330019BD3F804239DF8033028
:102950001340002B14BF01230023DBB2184602B042
:10296000704700BF00B583B001900091019810211D
:10297000FFF7E4FF0346002B10D001984FF4887155
:10298000FFF7CAFF0346002B08D001984FF4887167
:10299000FFF7AEFF009B1B6801209847019820219C
:1029A000FFF7CCFF0346002B10D001984FF48A713B
:1029B000FFF7B2FF0346002B08D001984FF48A714D
:1029C000FFF796FF009B1B68022098470198802123
:1029D000FFF7B4FF0346002B10D001984FF48E711F
:1029E000FFF79AFF0346002B08D001984FF48E7131
:1029F000FFF77EFF009B1B680020984701984FF46B
:102A00008271FFF789FF0346002B0BD001984FF42A
:102A10008271FFF76DFF009B01221A71009B1B68FA
:102A20000320984703B05DF804FB00BF08B50248D7
:102A30000249FFF797FF08BD00C00140682C002045
:102A400082B00346ADF80630BDF8063003F180438E
:102A500003F5E8331B68002B14BF01230023DBB20E
:102A6000184602B0704700BF84B00346ADF8063088
:102A7000BDF8063003F1804303F5E83300221A6005
:102A8000BDF8063003F1804303F5E8331B68039378
:102A9000039B04B0704700BF024B0022C3F800251F
:102AA000704700BF00D0014082B001900091054AFC
:102AB000019BC2F86035034A009BC2F8643502B03E
:102AC000704700BF00D00140024BD3F86035184674
:102AD000704700BF00D0014008B54FF48470FFF785
:102AE000AFFF0346002B1ED04FF48470FFF7BCFFEE
:102AF000FFF7EAFF0246284BDB689A4209D1264BD2
:102B00005B68254A1169244A12890846114698478C
:102B100040E0214B5B68204AD1681F4A1289084671
:102B20001146984736E04FF48070FFF789FF03465F
:102B3000002B1FD04FF48070FFF796FF164B012239
:102B40005A70FFF7C1FF0246134BDB689A4208D167
:102B5000114B1A69104B1B8910461946FFF7A4FF49
:102B600018E00D4BDA680C4B1B8910461946FFF72D
:102B70009BFF0FE04FF48270FFF762FF0346002BCC
:102B800008D04FF48270FFF76FFFFFF785FF024B0D
:102B900000225A7008BD00BF702C002082B0019046
:102BA0004FF08042019BC2F8083302B0704700BF6B
:102BB00084B00346ADF80630BDF8063003F180431B
:102BC00000221A60BDF8063003F180431B680393AE
:102BD000039B04B0704700BF82B00346ADF80630D7
:102BE000BDF8063003F180431B68002B14BF01239E
:102BF0000023DBB2184602B0704700BF84B00190DA
:102C0000019B1B680393039B002B03D0039B1A6853
:102C1000019B1A60039B184604B0704700B585B04D
:102C200003468DF807309DF80730002B02D10B4B7F
:102C3000039301E00A4B03930398FFF7DFFF029031
:102C4000029B002B00D106E0029B5B689DF80720E9
:102C500010469847F0E705B05DF804FB8C2C002087
:102C6000942C002008B54FF48070FFF7B5FF0346A1
:102C7000002B0CD04FF48070FFF79AFF0120FFF774
:102C80008DFF0D4B01225A700020FFF7C7FF4FF454
:102C90008270FFF7A1FF0346002B0CD04FF4827027
:102CA000FFF786FF0220FFF779FF034B01229A709E
:102CB0000120FFF7B3FF08BD842C002082B003463B
:102CC0008DF807309DF8073003F1804303F5E043AA
:102CD00001221A6002B0704782B00346ADF8063098
:102CE000BDF8063003F1804303F5E0431B68002B79
:102CF00014BF01230023DBB2184602B0704700BFA7
:102D000084B00346ADF80630BDF8063003F18043C9
:102D100003F5E04300221A60BDF8063003F180435A
:102D200003F5E0431B680393039B04B0704700BFA7
:102D300082B001900091054A019BC2F82C36034AEB
:102D4000009BC2F8303602B0704700BF00700040F0
:102D500000B58DB04FF48270FFF7BEFF0346002B25
:102D600043D04FF48270FFF7CBFF9D4B93F82B308D
:102D700083F00103DBB2002B04D1994B93F82C3084
:102D8000002B32D000238DF81830954B5B680793E9
:102D9000934B1B899BB2ADF82030914BDB68002B25
:102DA00004D18F4B002283F8292015E08C4BDB687F
:102DB0008B4A53608A4B9A8A894B1A81884B00222E
:102DC000DA60874B93F82B3083F00103DBB2002BE2
:102DD00002D00020FFF772FF814B1B6806AA104645
:102DE00098477F4B002283F82C207D4B93F82B30A3
:102DF000002B00F085804FF48070FFF76DFF0346D5
:102E0000002B7DD04FF48070FFF77AFF744BDB8A84
:102E1000002B1DD1724B1B899AB2714B93F82A304B
:102E20009BB2D31A9AB26E4BDA826D4B5A686C4BD6
:102E30001B899BB219466A4BDB8ACB1A5B001A448A
:102E4000674B93F82A3010461946FFF771FF50E0A0
:102E5000634BDA8A624B93F82A309BB29A421CD9B0
:102E60005F4BDA8A5E4B93F82A309BB2D31A9AB240
:102E70005B4BDA825A4B5A68594B1B899BB21946F5
:102E8000574BDB8ACB1A5B001A44554B93F82A3018
:102E900010461946FFF74CFF2BE0514BDA8A504B96
:102EA00093F82A309BB29A4214D14D4BDB68002B29
:102EB00010D04B4B012283F82C20494B0022DA82A0
:102EC000474BDA68464B93F82A3010461946FFF70D
:102ED0002FFF0EE0424BDA8A414B93F82A309BB227
:102EE0009A4206D13E4B012283F82C203C4B002213
:102EF000DA824FF48270FFF703FF0420FFF7DEFE53
:102F00004FF48870FFF7E8FE0346002B0FD04FF414
:102F10008870FFF7F5FE324B002283F82920022348
:102F20008DF80C302E4B1B6803AA104698474FF4BF
:102F30008A70FFF7D1FE0346002B08D04FF48A7049
:102F4000FFF7DEFE264B002283F8292044E0244BC5
:102F50001B690B933DE00B9BB3FA83F30A930A9B27
:102F60004FF0004222FA03F3DB430B9A13400B931A
:102F70000A9B9BB246339BB29B00ADF82630BDF84E
:102F800026301846FFF7A8FE0346002B21D0BDF8D7
:102F900026301846FFF7B4FE01238DF80030BDF847
:102FA0002630A3F58C73DB08DBB28DF80430BDF856
:102FB0002630A3F58C7303F00403002B0CBF012310
:102FC0000023DBB28DF80530054B1B686A461046BE
:102FD00098470B9B002BBED10DB05DF804FB00BFE2
:102FE000982C002000B589B0019000238DF81F3087
:102FF00052E02E4B1A689DF81F30DB0013440693F5
:10300000069B1B781A46012393400593284B1A68A8
:10301000059B1340002B3AD0059BDA43244B1B68D9
:103020001340234A1360069B1B781846FEF788FC62
:1030300003468DF81330069B1B781A4601239340F4
:103040001A461C4B1B6813409DF8132006990978FB
:103050008A4093421BD19DF81330069A5278012A78
:103060000CBF01220022D2B293420CBF01230023E5
:10307000DBB20393069B5B68002B08D0069B5B6862
:10308000069A1178039AD2B20846114698479DF8DD
:103090001F3001338DF81F30074B1B789DF81F2020
:1030A0009A42A6D309B05DF804FB00BFC82C0020EB
:1030B000F82C0020F42C0020CC2C002000B585B08A
:1030C00001900B468DF80330019B012202FA03F3B5
:1030D00003931E4B184600F013FF0290029B002B37
:1030E00000D030E01A4B1A68039B1340002B23D109
:1030F0000198FEF725FC0346002B06D0154B1A68F5
:10310000039B1343134A136006E0039BDA43114BFE
:103110001B6813400F4A13600D4B1A68039B13433F
:103120000B4A1360094A0C4B1B68104619460022D3
:1031300000F0B4FE029006E0039BDA43044B1B68E8
:103140001340034A136005B05DF804FBD42C002043
:10315000F82C0020F42C0020D02C002000B589B0E1
:1031600003900B4601928DF80B30019B042B01D884
:10317000072352E0FEF708FB034683F00103DBB2AE
:10318000002B07D0FEF7BCFA0790079B002B01D05D
:10319000079B42E0234A039B1360234A9DF80B30B0
:1031A0001370224A019B1360214B00221A60214BAD
:1031B00000221A6024E09DF80B30DB00039A1344D0
:1031C000069303238DF8143000238DF81530002367
:1031D0008DF8163000238DF81730069B9B788DF8FC
:1031E0001530069B1B781A4605AB10461946124A45
:1031F000FEF7D6FA0790079B002B01D0079B0CE047
:103200009DF80B305A1E8DF80B20002BD3D10B48A4
:1032100000210B4A00F012FE0346184609B05DF883
:1032200004FB00BFC82C0020CC2C0020D02C002098
:10323000F42C0020F82C0020BD3002000889040086
:10324000E52F020000B583B0002301930CE00C4B86
:103250001A68019BDB0013441B7818460121FEF716
:10326000F9FA019B01330193064B1B781A46019B27
:103270009A42ECD80023184603B05DF804FB00BF67
:10328000C82C0020CC2C002082B003468DF80730DB
:1032900007499DF907305B099DF8072002F01F02DE
:1032A000012000FA02F241F8232002B0704700BF6B
:1032B00000E100E082B003468DF8073007499DF930
:1032C00007305B099DF8072002F01F02012000FA79
:1032D00002F2203341F8232002B0704700E100E001
:1032E00082B003468DF8073007499DF907305B0926
:1032F0009DF8072002F01F02012000FA02F240337D
:1033000041F8232002B0704700E100E082B003469C
:103310008DF8073007499DF907305B099DF80720B4
:1033200002F01F02012000FA02F2603341F823206C
:1033300002B0704700E100E082B0034600918DF8D2
:1033400007309DF90730002B0CDA0C499DF8073047
:1033500003F00F03043B009AD2B25201D2B20B44E5
:103360001A7609E006499DF90730009AD2B2520157
:10337000D2B20B4483F8002302B0704700ED00E0A6
:1033800000E100E082B00190019B03F00303002BF9
:103390000CBF01230023DBB2184602B0704700BF08
:1033A00084B00190234B0393019B002B40D0224B10
:1033B0001A680399019B00BF00BF00BF00BF00BF98
:1033C00000BF00BF00BF8A422FD000BF00BF00BFB8
:1033D00000BF00BF00BF00BF00BF00BF00BF00BFF5
:1033E00000BF00BF00BF00BF00BF00BF00BF00BFE5
:1033F00000BF00BF00BF00BF00BF00BF00BF00BFD5
:1034000000BF00BF00BF00BF00BF00BF00BF00BFC4
:1034100000BF00BF00BF00BF00BF00BF00BF00BFB4
:1034200000BF00BF00BF00BF00BF013BC3D101937D
:1034300004B070470024F4009828002000B583B041
:103440000190054A019BC2F8083511200621FFF7BB
:1034500073FF03B05DF804FB0010014008B50D4B8D
:103460004FF48032C3F844230A4B4FF48032C3F840
:1034700004231120FFF74AFF1120FFF705FF054B3A
:1034800001221A602F20FFF78BFF034B01221A70D5
:1034900008BD00BF001001401C2D002008B5112000
:1034A000FFF708FF0E4B4FF48032C3F848230C4B54
:1034B0004FF48032C3F80823094B01225A602F20B1
:1034C000FFF76EFF064B01229A60064B00221A603E
:1034D0002F20FFF765FF044B00221A7008BD00BFC4
:1034E00000100140082D00201C2D0020024BD3F8B5
:1034F00004351846704700BF0010014082B00190AB
:103500000091019A009BD31A23F07F43184602B022
:10351000704700BF82B00190024A019BC2F840355B
:1035200002B070470010014086B00190274B1B6825
:10353000002B03D1254A019B136045E0019B1A68CB
:10354000224B1B681B689A4210D8204B1B681F4AED
:1035500012681168019A12688A1A1A601B4B1A685D
:10356000019BDA61194A019B13602DE0019B1B68E6
:103570000393164B1B680593144B1B68049309E0D7
:10358000049B1B68039AD31A0393049B0593049B23
:10359000DB690493049B002B04D0049B1A68039BF3
:1035A0009A42EDD3049B002B05D0049B1A68039B21
:1035B000D21A049B1A60019B039A1A60019B049A19
:1035C000DA61059B019ADA6106B07047042D00208C
:1035D00086B00190204B1B680593059B049309E07E
:1035E000049A019B9A4200D107E0049B0593049B37
:1035F000DB690493049B002BF2D1049B002B00D1C8
:1036000028E0059A049B9A4211D1134B1B68DB6991
:10361000114A1360104B1B68002B08D10F4B01227D
:103620009A600F4B00221A600E4B01221A70049B05
:103630001B680393049BDA69059BDA61059BDB69D0
:103640000493049B002B05D0049B1A68039B1A4427
:10365000049B1A6006B07047042D00200010014042
:10366000082D00201D2D002008B51120FFF738FE81
:1036700008BD00BF08B51420FFF732FE08BD00BF2B
:1036800000B585B00190124B1B68002B16D0104B73
:103690001B68019A5169019A926908461146984738
:1036A0000390039B0293029B002B06D002984FF4D9
:1036B000A771084AFDF70AFD06E005E0019B5B697A
:1036C000019A92691046984705B05DF804FB00BF67
:1036D000182D00200C89040000B585B02A4B1B680A
:1036E000002B4DD000230193FFF700FF0246274B2C
:1036F0001B6810461946FFF701FF0290224B1B681A
:1037000003931EE0039B1A68029B9A4200D91BE0B8
:10371000039B1B68029AD31A0293039B1B68019AAE
:1037200013440193039B0093039BDB690393009B6A
:103730001B7C002B05D0009B00221A740098FFF719
:103740009FFF039B002BDDD1114B1A78114B1B7887
:103750009A420CD10F4B1B780133DAB20D4B1A7021
:103760000C4B1B78022B02D10A4B00221A70094B1A
:103770001B781946084A019B42F82130FFF77AFF6F
:1037800005B05DF804FB00BF042D0020082D0020CB
:10379000142D0020152D00200C2D002082B001904A
:1037A000184B1A78184B1B789A4223D0154B1B786C
:1037B0000133DAB2134B1A70124B1B78022B02D171
:1037C000104B00221A700F4B1B781A460F4B53F800
:1037D0002220019B1A60019B1A680D4B1B68134441
:1037E0000B4A13600A4B1B6823F07F43084A13609F
:1037F000012303E0019B00221A600023184602B057
:10380000704700BF142D0020152D00200C2D002026
:10381000082D002000B585B0274B1B788DF80F30A0
:10382000264B1B68029334E0234B59689DF80F2008
:1038300013465B001344DB000B4401939DF80F30EB
:1038400001338DF80F301C4B9B789DF80F209A4266
:1038500002D100238DF80F30019B1B78022B02D080
:10386000032B10D014E0019B5B681846FFF7B0FEF5
:103870000FE0124B1B680093009B00221A74009B00
:10388000DB690E4A13600D4B1B68002BF1D100E081
:1038900000BF094B5B789DF80F209A42C4D1074BBB
:1038A0001A68029B9A4214BF01230023DBB2184618
:1038B00005B05DF804FB00BFFC2C0020042D0020A7
:1038C00088B00390029101920023079338E01F4BC8
:1038D0001B680693069B1A68039B9A4206D9069BAF
:1038E0001A68039BD21A069B1A602DE0069B1B6880
:1038F000039AD31A0393069B1B68079A13440793F2
:10390000069B00221A60114B1B680593069BDB691E
:103910000E4A1360069BDB68002B11D0029A079BAE
:10392000134423F07F42069B5A60069BDA68069B8D
:103930009A60019B1A68069BDA61019B059A1A60DE
:10394000024B1B68002BC2D108B07047042D002029
:1039500000B587B00190504B1B68049385E0019B34
:10396000002B05D0019B0593059BDB6901933CE08F
:103970004A4B5A68494B1B7819460B465B000B446F
:10398000DB0013440393454B1B780133DAB2434BFE
:103990001A70424B1A78414B9B789A4202D13F4BA6
:1039A00000221A70039B5B680593039B1B78012B15
:1039B00003D1059B1B7C002B00D056E0039B9A682B
:1039C000059B5A60039BDA68059B9A60039B1A6902
:1039D000059BDA60039B5A69059B9A61304B1B7803
:1039E000002B02D0059B00225A60059B5A682D4B84
:1039F0001B68D31A23F07F432B4A93420ED8059BB2
:103A00005A68284B1B6810461946FFF777FD024697
:103A1000059B9B681A44059B1A6017E0214B1A68A6
:103A2000059B5B6810461946FFF768FD0290059BF1
:103A30009A68029B9A4206D9059B9A68029BD21A01
:103A4000059B1A6002E0059B00221A60059B00227C
:103A50005A60059B00229A60059B01221A74059BFF
:103A60000022DA610598FFF75FFD019B002B7FF4D0
:103A700076AF0A4B1A78094B5B789A427FF46FAFA6
:103A8000054B1A68049B9A4214BF01230023DBB242
:103A9000184607B05DF804FB042D0020FC2C002024
:103AA0001D2D0020082D0020FEFF7F0010B588B0DE
:103AB0000190274B1B68002B45D0254B1B681B68CA
:103AC0000793FFF713FD0690224B1B68059306989A
:103AD0000599FFF713FD0346033304931E4B1B7830
:103AE00083F00103DBB2002B01D0FFF7B7FC049A8F
:103AF000079B934238BF1346059A13440593059BD1
:103B000023F07F4305930598FFF704FDFFF7EEFCD4
:103B1000039003980699FFF7F1FC0346DC1C059817
:103B20000699FFF7EBFC03469C420BD9FFF7DEFC3E
:103B300003461846FFF7EEFC2F20FFF731FCFFF796
:103B400093FD02E001E0FFF7A9FC08B010BD00BF43
:103B5000042D0020082D00201C2D002000B587B06A
:103B6000002301931B4B1B6804931B4B1B6803939F
:103B70006B461846FFF712FE03468DF80B30FFF731
:103B800049FE03468DF817309DF80B30002B09D005
:103B9000009A01AB104604991A46FFF791FE0123E3
:103BA0008DF81730019B1846FFF7D2FE0346002B15
:103BB00002D001238DF817309DF81730002B02D06A
:103BC0000398FFF773FF054B00221A7007B05DF8EA
:103BD00004FB00BF082D0020042D00201D2D002017
:103BE00082B003468DF80730024A9DF807305370C3
:103BF00002B07047FC2C002084B00190144B5B781D
:103C000001338DF80F30124B9B789DF80F209A42AC
:103C100002D100238DF80F300D4B1B789DF80F203B
:103C20009A4201D100230FE0019B9DF80F201A70EA
:103C3000074B5A68064B5B7819460B465B000B44F2
:103C4000DB0013440293029B184604B0704700BF88
:103C5000FC2C002000B589B00390029101920093E2
:103C60000023079300238DF816300DF11603184634
:103C700001F0B0FB0DF117031846FFF7BDFF0690EA
:103C8000069B002B02D10423079318E0069B012218
:103C90001A70069B039A5A60FFF728FC0246069B9F
:103CA0009A60069B029ADA60069B019A1A61069B4B
:103CB000009A5A619DF817301846FFF791FF9DF85A
:103CC0001630184601F090FB079B002B01D1FFF73F
:103CD000D1FC079B184609B05DF804FB00B587B01E
:103CE00001900B468DF803300023059300238DF8D7
:103CF0000E300DF10E03184601F06CFB0DF10F03B1
:103D00001846FFF779FF0490049B002B02D104238F
:103D100005930BE0049B9DF803201A70049B019A05
:103D20005A609DF80F301846FFF75AFF9DF80E3085
:103D3000184601F059FB059B002B01D1FFF79AFCB7
:103D4000059B184607B05DF804FB00BF08B50D4B96
:103D50000022C3F840210B4B0022C3F84421094B39
:103D60000022C3F84821074B0022C3F84C21054B21
:103D70000022C3F80021034B0022C3F80421FFF7FF
:103D8000ABFC08BD0010014008B5FFF7E7FE08BD19
:103D900000B585B00390019200930B468DF80B306F
:103DA0000198FFF7EFFA034683F00103DBB2002B23
:103DB00001D0072332E0019B002B01D107232DE026
:103DC000FFF76CFB174A009B1360174B00221A7019
:103DD000154B00225A70144A9DF80B309370124A0A
:103DE000019B5360114B00221A60114B00221A7084
:103DF000104B00221A701420FFF788FA14200621B5
:103E0000FFF79AFA1420FFF73FFA0398FFF716FB23
:103E1000FFF76CFB0246084B1A600023184605B0FA
:103E20005DF804FB182D0020FC2C0020042D002040
:103E3000142D0020152D0020082D002086B00390A1
:103E40000B4601928DF80B30134B5B68002B01D1B0
:103E500008231EE0019B002B01D1072319E0039BDF
:103E6000002B01D1072314E0039B1B681B7C002B54
:103E700001D008230DE0039B1B680593059B0022DE
:103E80001A74059B9DF80B205A74059B019A5A6180
:103E90000023184606B07047FC2C002000B587B000
:103EA000039002910192039B0593144B5B68002BD6
:103EB00001D108231EE0039B002B01D1082319E048
:103EC000029B042B01D8072314E0059B5B69002BA0
:103ED00001D108230EE0059B5B7C012B01D1029BE5
:103EE00000E00023049305980299049A019BFFF7D0
:103EF000B1FE0346184607B05DF804FBFC2C002019
:103F000000B585B00190019B03930D4B5B68002BBE
:103F100001D1082310E0019B002B03D0039B5B69B8
:103F2000002B01D1082307E0039B00221A74039899
:103F30000221FFF7D3FE0346184605B05DF804FBE7
:103F4000FC2C002008B5FFF7D1FA0346184608BD3F
:103F500029DF7047184600BF28DF7047184600BFAA
:103F600000B587B001900B468DF8033002AB1846C0
:103F700000211022FBF71EFB019B1B7A012B02D0B4
:103F8000022B0BD01AE000238DF80830019B1B692F
:103F90000493019B9B8AADF814300FE001238DF848
:103FA0000830019B9A89019BDB89D31A9BB2ADF83B
:103FB0001030019B9B89ADF8123000BF019B5B68FC
:103FC0000393019B1B689B6802A99DF80320084688
:103FD0001146984707B05DF804FB00BF82B001901E
:103FE000019B002B09D0019B064A934205D3019BFC
:103FF000054A934201D2012300E00023184602B093
:10400000704700BFF02800200029002000B585B0CF
:104010000190019B9B8A1A46019BDB8AD31AB3F558
:10402000806F07DA019B9A8A019BDB8AD31AADF86D
:104030000E3003E04FF48063ADF80E30019B1A6937
:10404000019BDB8A9B00D118019BDA68019BDB8A0C
:104050009B001A44BDF80E30084611461A46FFF779
:1040600077FF0346184605B05DF804FB00B583B042
:104070000190019B9B891846FFF76EFF0346184687
:1040800003B05DF804FB00BF00B583B01F4BD3F84D
:10409000C02013465B001344DB001C4A134400930A
:1040A0001A4BD3F8C430002B2CD0009B1B7A012B69
:1040B00002D0022B05D009E00098FFF7A7FF01907E
:1040C00007E00098FFF7D2FF019002E00923019377
:1040D00000BF019B112B0ED10D4B1B7823F0020367
:1040E000DAB20B4B1A700A4B1B7843F00403DAB2B6
:1040F000074B1A7006E0019B002B03D000980921A2
:10410000FFF72EFF03B05DF804FB00BF202D002059
:104110001E2D002008B50B4B1B7803F00203002B6B
:104120000ED1084B1B7803F00403002B08D1054B7C
:104130001B7843F00203DAB2024B1A70FFF7A4FFB8
:1041400008BD00BF1E2D002000B585B00190214B99
:10415000D3F8C430082B01D1002336E01D4BD3F82F
:10416000C0201C4BD3F8C4301344072B07D8194B7D
:10417000D3F8C020174BD3F8C430134407E0154BD5
:10418000D3F8C020134BD3F8C4301344083B039337
:10419000104BD3F8C43001330E4AC2F8C430039A2E
:1041A00013465B001344DB000A4A134418460021FF
:1041B0001822FBF7FFF9039A13465B001344DB0058
:1041C000044A1A44019B1A600123184605B05DF8A1
:1041D00004FB00BF202D002000B587B003900291A2
:1041E0000192ADF80230314B1B7803F00103002B34
:1041F00001D1012356E00398FFF7F0FE034683F058
:104200000103DBB2002B01D002234BE0019B002B0A
:1042100002D0029B002B01D1032343E0019B03F05A
:104220000303002B04D1029B03F00303002B01D0F6
:10423000062337E0039B1A68029B9A4208D8039B27
:104240005A68BDF802309B0002990B449A4201D291
:10425000052327E0BDF80230002B01D1042321E023
:1042600005AB1846FFF770FF034683F00103DBB28E
:10427000002B01D0072315E0059B089A5A60059B87
:10428000039A1A60059B01221A72059B019ADA6053
:10429000059B029A1A61059BBDF802209A82FFF7DE
:1042A00039FF0023184607B05DF804FB1E2D0020DF
:1042B00000B587B00390029100931346ADF8063025
:1042C0002C4B1B7803F00103002B01D101234DE09F
:1042D0000398FFF783FE034683F00103DBB2002B54
:1042E00001D0022342E0029B002B01D103233DE0D9
:1042F000029BC3F30B03002B01D0062336E0039B84
:104300001A68029B9A4208D8BDF806301B03029A2D
:104310001A44039B5B689A4201D9052326E0BDF845
:104320000630002B01D1042320E005AB1846FFF72F
:104330000BFF034683F00103DBB2002B01D0072300
:1043400014E0059B009A5A60059B039A1A60059B2E
:1043500002221A72059B029A120B92B29A81059B55
:10436000BDF806201A82FFF7D5FE0023184607B0D5
:104370005DF804FB1E2D002082B00190019B03F02C
:104380000303002B0CBF01230023DBB2184602B04D
:10439000704700BF82B003468DF80730044B1A788F
:1043A0009DF807301343DAB2014B1A7002B0704720
:1043B000E82D002082B003468DF807309DF80730C5
:1043C000DB43DAB2044B1B78DBB21340DBB2DAB268
:1043D000014B1A7002B07047E82D002082B00346EE
:1043E0008DF80730064B1A789DF807301340DBB282
:1043F000002B14BF01230023DBB2184602B0704724
:10440000E82D002000B585B00190002303930EE055
:104410000A4A039B52F82330002B05D0074A039B1E
:1044200052F8233001989847039B01330393039B71
:10443000072BEDD905B05DF804FB00BFEC2D002083
:1044400082B001900091019B1B78013B052B5BD84A
:1044500001A252F823F000BF714402007944020027
:1044600099440200CB440200EB44020001450200E3
:10447000009B00221A7048E0009B01221A70019BE9
:104480001A89009B9A81019B9A88009BDA81019B83
:10449000DA68009B9A6038E0009B02221A70019B48
:1044A0001A89009B9A81019B9A88009BDA81019B63
:1044B000DA68009B9A60019B1B7C062B0CBF0123D2
:1044C0000023DAB2009B1A741FE0009B03221A70CB
:1044D000019BDA88009B9A81019B1A89009BDA81F3
:1044E000019BDA68009B9A600FE0009B04221A701F
:1044F000019BDA88009B9A81009B0022DA8104E00C
:10450000009B05221A7000E000BF02B0704700BF98
:1045100082B00190019B9B884FF6FF72934205D0B9
:10452000019B1B88002B01D0012300E0002303F036
:104530000103DBB2184602B0704700BF00B583B07C
:104540000190019B002B11D00C4B1A68019B9A42E1
:104550000CD80A4B5A68019B9A4207D30198FFF77F
:104560000BFF0346002B01D0012300E0002303F0E2
:104570000103DBB2184603B05DF804FBF02800200D
:1045800084B0019000910A2303930023ADF80A3010
:104590001FE0BDF80A30134A1B0113445A68009B00
:1045A0009A4211D2BDF80A300E4A1B0113445B68CF
:1045B00003F58052009B9A4206D900230393019B86
:1045C000BDF80A201A8008E0BDF80A300133ADF8C2
:1045D0000A30BDF80A30042BDBD9039B184604B01F
:1045E000704700BF042F002082B001900B46ADF849
:1045F0000230019B1A89BDF8023013449BB2033389
:104600009AB2019B1A81019B5A89BDF80230D31AD4
:104610009BB2033B9AB2019B5A8102B0704700BF24
:1046200000B583B0074B1A68002300930648114673
:10463000064A0223FFF7D0FD0346184603B05DF893
:1046400004FB00BF542F0020F028002068890400DC
:1046500000B585B003900023009305480399054AEF
:104660000223FFF7B9FD0346184605B05DF804FBC9
:10467000F02800207089040000B585B00346009141
:10468000ADF80630009B1B680393039B002B09D0F9
:10469000039B0293029B5B8803339B00039A1344A2
:1046A000039307E0BDF80630174A1B0113445B680B
:1046B0000833039313E0039B02930298FFF728FF4C
:1046C0000346002B04D0009B039A1A60012317E0D5
:1046D000029B5B8803339B00039A13440393BDF84A
:1046E0000630094A1B0113445B6803F58052039BA3
:1046F0009A4204D9039B1B68B3F1FF3FDBD100232F
:10470000184605B05DF804FB042F002000B585B005
:1047100001900091019B5B681846FFF70FFF03466D
:10472000002B19D0019B1A89244B1B899A4213D163
:10473000019B1A68019B5B689B689A420CD1019BA4
:104740005B6800981946FFF71BFF0346002B0CBF60
:1047500001230023DBB22CE0009B00221A8023E01F
:104760000023029310E0029B0393039B9A68019B32
:104770001B689A4208D1029A019B5A600F4B1A8912
:10478000019B1A81012314E0009B1A8802AB10469A
:104790001946FFF771FF0346002BE4D1009B1B88ED
:1047A00001339AB2009B1A80009B1B88042BD7D937
:1047B0000023184605B05DF804FB00BF5C2F002005
:1047C00000B587B003900291019200930220FFF799
:1047D00005FE034683F00103DBB2002B01D0022368
:1047E0004FE0019B002B02D0009B002B01D1052341
:1047F00047E041E0009B9B88244A1B0113441B783F
:10480000002B00D032E024E0009B1B680593039B43
:10481000002B06D0059B9A88039B1B889A4200D0E8
:1048200017E0029B002B06D0059B1A88029B1B8871
:104830009A4200D00DE0059B9A68019B1A60009B8C
:104840001A68019B5A60124B1A89019B1A81002336
:1048500017E0009B9A88009B10461946FFF70CFF53
:104860000346002BD0D1009B00221A60009B9B883E
:1048700001339AB2009B9A80009B9B88042BB9D984
:104880000A23184607B05DF804FB00BF042F002080
:104890005C2F002008B51A4BD3F8A8201346DB0084
:1048A0009B1A9B00164A1344184600211C22FAF753
:1048B00081FE134BD3F8AC30002B16D0104BD3F83D
:1048C000A830591C0F4BA3FB01239A0813465B0029
:1048D00013445B00CA1A0A4BC3F8A820084BD3F84C
:1048E000AC30013B064AC2F8AC30054BD3F8AC30D3
:1048F000002B14BF01230023DBB2184608BD00BF04
:104900000C2E0020ABAAAAAA82B001900C4B5B6CC3
:10491000002B12D00A4B1B6CDB00094A1A44019B86
:104920001A60074B1B6C013303F00703044A13643E
:10493000034B5B6C013B024A536402B0704700BFFB
:10494000BC2E002082B00190019B1B78022B03D06B
:10495000019B1B78032B0DD1074B1B6C019A927D99
:104960001344054A1364044B5B6C019A927D9B1AB5
:10497000014A536402B07047BC2E002000B587B0D6
:1049800003900291039B1A1D00230093094802998A
:104990000123FFF721FC03460593039B02221A74AF
:1049A000059B002B01D1002300E00E23184607B021
:1049B0005DF804FBF028002000B587B00390029159
:1049C000029B03F10801039B03F10C0200230093F7
:1049D0000C480123FFF700FC03460593039B9B7DD6
:1049E000002B01D0032200E00122039B1A74059BD7
:1049F000002B01D1002300E00E23184607B05DF81C
:104A000004FB00BFF028002000B587B0039002919E
:104A1000029B191D039B03F10802002300930C481D
:104A20000123FFF7D9FB03460593039B1B78032B58
:104A300001D1052200E00622039B1A74059B002B7E
:104A400001D1002300E00E23184607B05DF804FBF7
:104A5000F028002000B587B00390002300930A4897
:104A600003990A4A0123FFF7B7FB03468DF8173075
:104A70009DF81730002B01D1002300E00E231846CB
:104A800007B05DF804FB00BFF02800206489040033
:104A900000B589B0019002AB00221A6004330022F5
:104AA0001A60043300221A600433019BDB6802930E
:104AB00002AA0DF1160310461946FFF727FE03461A
:104AC000002B17D0039B0693069B9A88019BDA80E4
:104AD000069B1A88019B1A81039B1846FFF7BAFFB1
:104AE0000790BDF81630074A1B0113440833012212
:104AF0009A7101E00A230793079B184609B05DF8F5
:104B000004FB00BF042F002000B587B00190019B7B
:104B10009A1D02AB104600211A460F4BFFF750FEBC
:104B20000590059B002B0DD1039B1846FFF792FFC4
:104B30000590094B9B88094A1B0113440833012245
:104B40009A7104E0044800210822FAF733FD059B1E
:104B5000184607B05DF804FB6C2F0020042F0020DE
:104B600010B586B0039002910023049304AB18465D
:104B7000FFF7CAFE039B9B8A9B00029AD118049BF5
:104B80001A68049B9C880023009312482346FFF771
:104B900023FB03460593039B9A8A049B9B8813443B
:104BA0009AB2039B9A82039B9B7D013BDAB2039BE3
:104BB0009A75039B9B7D002B02D1039B01221A74E3
:104BC000059B002B01D1002300E00E23184606B000
:104BD00010BD00BFF028002082B0164B1B890133A6
:104BE0009AB2144B1A81134B00225A80114B0022A7
:104BF000DA730023ADF8063015E0BDF80630BDF8D5
:104C000006200D4912010A441278002A0CBF012225
:104C10000022D1B2074A13440A469A72BDF8063000
:104C20000133ADF80630BDF80630042BE5D902B0EB
:104C3000704700BF5C2F0020042F002084B001903B
:104C400000238DF80F300023ADF80C302BE0BDF8B9
:104C50000C30194A13449B7A002B1FD0BDF80C303E
:104C6000154A134400229A72BDF80C30134A1B01F6
:104C7000134408339B88002B10D1BDF80C300F4A29
:104C80001B01134408339B79002B07D0019BBDF80F
:104C90000C201A8001238DF80F3008E0BDF80C308D
:104CA0000133ADF80C30BDF80C30042BCFD99DF892
:104CB0000F30184604B070475C2F0020042F0020EE
:104CC00008B5084B05221A70074B02229A80064B42
:104CD0001B680648194601220023FFF7E9FA03463C
:104CE000184608BD5C2F0020542F0020F02800201B
:104CF00000B583B0134B5B88ADF80230BDF80230CD
:104D0000114A1B01134408339B88002B11D1BDF8B5
:104D100002300D4A1B0113445B680C4819460122FE
:104D20000023FFF7C5FA03460193064B04221A70CD
:104D300002E0FFF7C5FF0190019B184603B05DF844
:104D400004FB00BF5C2F0020042F0020F02800206F
:104D500010B586B0104B5B680593104B1A680F4B6B
:104D60009B889B0013440493059B5B880333ADF839
:104D70000E30094B03221A70074B5A68BDF80E40DB
:104D800000230093064804992346FFF725FA0346BB
:104D9000184606B010BD00BF5C2F0020542F002025
:104DA000F028002000B583B00A4B5B8818460A49FA
