:020000021000EC
:10F0000000000120FD170500251805002718050040
:10F01000291805002B1805002D1805000000000018
:10F020000000000000000000000000002F18050094
:10F0300031180500000000003318050035180500E0
:10F04000013E02003718050051530200793A0200D0
:10F050003718050037180500FD2A0200ED3E0200B2
:10F060003718050037180500371805003718050050
:10F070003718050037180500371805003718050040
:10F0800037180500E1600200371805003718050041
:10F090001D61020037180500B5870200371805000A
:10F0A0003718050037180500371805003718050010
:10F0B000C93B0200753C0200000000000000000097
:10F0C00037180500371805003718050037180500F0
:10F0D0003718050037180500371805000000000034
:10F0E0000000000000000000000000000000000020
:10F0F0000000000000000000000000000000000010
:10F1000000000000000000000000000000000000FF
:10F1100000000000000000000000000000000000EF
:10F40000044B05481B1A062B02D9044B03B11847BD
:10F41000704700BF0B2900200829002000000000D1
:10F4200005490648091A891001EBD171491002D02B
:10F43000034B03B118477047082900200829002012
:10F440000000000010B5064C237843B9FFF7D8FF41
:10F45000044B13B10448AFF300800123237010BDA7
:10F460001829002000000000688B050008B5084B33
:10F470001BB108480849AFF300800848036813B976
:10F48000BDE80840CCE7064B002BF9D09847F7E7DA
:10F4900000000000688B05001C29002004290020C2
:10F4A00000000000134B002B08BF114B9D46A3F535
:10F4B000803A00218B460F461148124A121A00F07A
:10F4C00079F80D4B002B00D098470C4B002B00D047
:10F4D00098470020002104000D000B4800F016F8AA
:10F4E00000F042F82000290000F014FF00F014F8AA
:10F4F00000000800000001200000000000000000E3
:10F500001829002094E5002041F501000146002063
:10F510000246034600F056B808B5074B044613B13F
:10F52000002100F0ABF8054B1868836A03B19847D7
:10F53000204600F00DF900BF7DF60100E83B050014
:10F5400038B5074B074CE41AA4101D4624B1013C02
:10F5500055F824309847F9E7BDE8384034F03CBB13
:10F56000002900200429002070B50E4B0E4CE41A2F
:10F57000A41000251E46A54204D056F82530984711
:10F580000135F8E734F022FB084C094BE41AA410CB
:10F5900000251E46A54204D056F82530984701356F
:10F5A000F8E770BDFC280020FC280020002900207E
:10F5B000FC28002002440346934202D003F8011BBA
:10F5C000FAE770472DE9F843294D2C6806460F46A7
:10F5D000914698460CB9274C2C6063681F2B14DDAC
:10F5E000254B1BB94FF0FF30BDE8F8838C20AFF3FB
:10F5F000008004460028F5D000232A68026043609A
:10F600002860C0F888303EB928E03EB3D4F88800BE
:10F6100078B9194B002BE5D04FF48470AFF300801C
:10F620000028DFD00023C0F80031C0F80431C4F84E
:10F630008800626840F822900123934000EB820129
:10F64000D0F800211A43022EC0F80021C1F88080B2
:10F6500002BFD0F804211343C0F8043163685A1C78
:10F6600002336260002044F82370BDE8F88300BFD5
:10F67000C029002034290020000000002DE9F74FA8
:10F6800080460F46304E3468002C59D06568D4F857
:10F69000889005F1FF3AAD0009EB050B04352544D0
:10F6A000BAF1000F38DB37B1B9F1000F2ED0DBF81B
:10F6B0007C20BA422AD161682A6801398A4516BF7E
:10F6C0000021C4F804A0296002B363680193B9F172
:10F6D000000F06D00121D9F8000101FA0AF1014218
:10F6E00001D190470BE0D9F80401014204D1404612
:10F6F0005BF8041C904702E05BF8040C90476268DA
:10F70000019B9342BED13268A242BBD10AF1FF3ABB
:10F71000ABF1040B043DC3E70C4B8BB1626823686B
:10F720005AB953B13360B9F1000F02D04846AFF374
:10F7300000802046AFF30080A5E726461C46A3E7DD
:10F7400003B0BDE8F08F00BFC0290020000000001A
:10F75000FEE700BFBFF34F8F0549054BDB6803F49D
:10F76000E062044B1343CB60BFF34F8F00BFFDE754
:10F7700000ED00E00400FA0548DF7047184600BFBE
:10F7800082B00190084611461A4603468DF80330B0
:10F790000B468DF8023013468DF801304FF0A04132
:10F7A0009DF803209DF802305B001A439DF801305C
:10F7B0009B001A439DF808301B021A439DF80C3039
:10F7C0001B041A43019B03F5E07341F8232002B0A8
:10F7D000704700BF00B585B003900023009300235D
:10F7E00001930398012101220023FFF7C9FF05B00F
:10F7F0005DF804FB82B001904FF0A042019B012113
:10F8000001FA03F3C2F8083502B0704782B00190E4
:10F810004FF0A042019B012101FA03F3C2F80C351D
:10F8200002B0704784B00190234B0393019B002BDF
:10F8300040D0224B1A680399019B00BF00BF00BF54
:10F8400000BF00BF00BF00BF00BF8A422FD000BF73
:10F8500000BF00BF00BF00BF00BF00BF00BF00BFB0
:10F8600000BF00BF00BF00BF00BF00BF00BF00BFA0
:10F8700000BF00BF00BF00BF00BF00BF00BF00BF90
:10F8800000BF00BF00BF00BF00BF00BF00BF00BF80
:10F8900000BF00BF00BF00BF00BF00BF00BF00BF70
:10F8A00000BF00BF00BF00BF00BF00BF00BF013BE3
:10F8B000C3D1019304B070470024F400A0280020B5
:10F8C00000B583B00190019B4FF47A7202FB03F301
:10F8D0001846FFF7A7FF03B05DF804FB08B500204A
:10F8E000054908F043FE16F051FE044B01221A7040
:10F8F000034B03221A7008BD4C3C05000D2A002062
:10F900000C2A002008B50020054908F02FFE054B01
:10F9100000221A70044B02221A70FFF71BFF08BD69
:10F920006C3C05000D2A00200C2A002000B587B091
:10F930001E4B1B6818461E490BF07CF90590059B71
:10F940000493049B002B04D00498E521194A01F08C
:10F9500037FD0AF0DFFA0590059B0393039B002B0C
:10F9600004D00398E821134A01F02AFD0BF0ECFEC5
:10F9700010F0ACFC03460593059B0293029B002B01
:10F9800004D00298EF210B4A01F01AFD09F028FA81
:10F990000590059B0193019B002B04D00198F22157
:10F9A000044A01F00DFD07B05DF804FB042A0020B5
:10F9B00060E000208C3C050000B583B00C4B1B6858
:10F9C00018460BF0C7F80190019B0093009B002B99
:10F9D00004D00098FA21074A01F0F2FC0020064901
:10F9E00008F0C4FD054B01221A7003B05DF804FB5A
:10F9F000042A00208C3C0500D43C05000C2A002081
:10FA000000B583B00190019B1B7A012B0AD0022B19
:10FA100000D00EE00020084908F0A8FD074B0222A4
:10FA20001A7006E00020064908F0A0FDFFF7C4FFA9
:10FA300000BF03B05DF804FB043D05000C2A002064
:10FA40002C3D050082B0019002B0704700B587B030
:10FA500003460A468DF8073013468DF80630234BCF
:10FA60001B7883F00103DBB2002B00D03BE09DF854
:10FA70000630012B37D19DF807300B2B02D00E2B0F
:10FA80001CD030E01A4B1B7883F00103DBB2002B53
:10FA900013D0184B18464FF40071002206F0C8FB33
:10FAA0000590059B0493049B002B06D0049840F21C
:10FAB0003F11114A01F084FC15E014E00C4B1B7857
:10FAC000002B0FD00D4809F087FA0590059B039392
:10FAD000039B002B06D003984FF4A471064A01F053
:10FAE0006FFCFFE700BF07B05DF804FB0D2A0020A4
:10FAF0000E2A0020E42900208C3C0500102A00205A
:10FB000000B585B001900AF0BBFD0390039B029302
:10FB1000029B002B05D002984FF4AC71024A01F011
:10FB20004FFC05B05DF804FB8C3C050000B583B0CC
:10FB3000019016F02BFD09F0BBFA03B05DF804FB51
:10FB400000B58BB0079006910592059B0993099B20
:10FB50005A68099B1B881946099B9B680092019172
:10FB6000029300200749079A069B08F0FFFC6420D7
:10FB7000FFF7A6FE07980699059A01F039FC0BB02D
:10FB80005DF804FB543D050000B583B003460091C9
:10FB9000ADF80630BDF8063003481946009A01F06A
:10FBA0000FFC03B05DF804FBEFBEADDEF0B5D5B0E1
:10FBB00002460DF10F031A7034AB60221846002183
:10FBC000FFF7F8FC01238DF8F33001238DF8F930AD
:10FBD00001238DF8FF3001238DF8233101238DF8A7
:10FBE000293101238DF82F3104AB964A1946C023E1
:10FBF000084611461A4633F09DFB0DF10F031B78A2
:10FC0000002B06D004AB904AB43310681860928879
:10FC10009A8000F081FE5290529B5193519B002B91
:10FC200005D051984FF4D171884A01F0C9FB0023E7
:10FC30008DF84F3192E09DF84F019DF84F2113460A
:10FC40005B0013445B0054AA1344803B1E789DF86C
:10FC50004F2113465B0013445B0054AA1344803BBE
:10FC60005D789DF84F2113465B0013445B0054AA56
:10FC70001344803B9C789DF84F2113465B0013444E
:10FC80005B0054AA1344803BD9789DF84F2113465A
:10FC90005B0013445B0054AA1344803B1B79009122
:10FCA000019331462A46234600F00AFC5290529BAB
:10FCB0005093509B002B05D050984FF4D771634A56
:10FCC00001F07EFB9DF84F2113465B0013445B005F
:10FCD00054AA1344803B5B79012B16D0022B27D00A
:10FCE000002B34D19DF84F31184600F005FF52909B
:10FCF000529B4F934F9B002B06D04F984FF4DA71D5
:10FD0000524A01F05DFB24E023E09DF84F31184694
:10FD100000F09CFE5290529B4E934E9B002B06D0BF
:10FD20004E9840F2B911494A01F04AFB11E010E047
:10FD300000235293529B4D934D9B002B06D04D9820
:10FD40004FF4DF71414A01F03BFB02E001E0062382
:10FD500052939DF84F3101338DF84F319DF84F315B
:10FD60000F2B7FF668AF00238DF84E3163E09DF8CE
:10FD70004E719DF84E2104A913465B0013445B00AD
:10FD80000B441E789DF84E2104A913465B001344D2
:10FD90005B000B445D789DF84E2104A913465B007F
:10FDA00013445B000B449C789DF84E2104A9134634
:10FDB0005B0013445B000B44D9789DF84E2104A8E6
:10FDC00013465B0013445B0003441B7900910193CD
:10FDD000384631462A462346FFF7D2FC9DF84E218D
:10FDE00004A913465B0013445B000B445B79012BB1
:10FDF00009D0022B19D0002B0BD19DF84E3118469B
:10FE0000FFF704FD12E09DF84E311846FFF7F2FCB3
:10FE10000CE006234C934C9B002B07D04C9840F2EF
:10FE2000DF110A4A01F0CCFA00E000BF9DF84E3124
:10FE300001338DF84E319DF84E311F2B97D955B0B7
:10FE4000F0BD00BFA83D0500683E05008C3C0500E4
:10FE500000B58BB01E20FFF7BDFC1E20FFF7CAFCCB
:10FE60004B20FFF72DFD3E4B019301AB18460121BE
:10FE700000F098FE0990099B0893089B002B05D081
:10FE8000089840F2C621374A01F09AFA0120FFF79C
:10FE90008DFE072000F086FD0990099B0793079BC4
:10FEA000002B05D0079840F2CB212E4A01F088FAAA
:10FEB000052000F077FD0990099B0693069B002B17
:10FEC00005D0069840F2CD21264A01F079FA0620A5
:10FED00000F068FD0990099B0593059B002B05D058
:10FEE000059840F2CF211F4A01F06AFA072000F07E
:10FEF000ADFD0990099B0493049B002B05D0049849
:10FF000040F2D121174A01F05BFA052000F09EFD76
:10FF10000990099B0393039B002B05D0039840F2A3
:10FF2000D321104A01F04CFA062000F08FFD099011
:10FF3000099B0293029B002B05D0029840F2D52129
:10FF4000084A01F03DFA1D20FFF744FC1D20FFF791
:10FF50005DFC6420FFF7B4FC0BB05DF804FB00BF50
:10FF6000783F05008C3C050000B585B001900091FC
:10FF7000009B1B78002B02D0012B16D03FE0009B8A
:10FF8000DB6900201F491A4608F0F0FA009BDB6984
:10FF9000002B09D11C4B01221A701C4B01221A7034
:10FFA0001B4B04221A702AE029E00020194908F0AE
:10FFB000DDFA154B00221A70154B03221A70009BB4
:10FFC000DB694CF64412934214D1134B18464FF49C
:10FFD0000071002206F02CF90390039B0293029B10
:10FFE000002B06D002984FF441710C4A01F0E8F959
:10FFF00004E003E0054B00221A70FFE700BF05B0E4
:020000022000DC
:100000005DF804FB703E05000E2A00200F2A002038
:100010000C2A0020A03E0500E42900208C3C0500AD
:1000200000B58BB00190384B1B7883F00103DBB235
:10003000002B00D064E0354B1B7883F00103DBB26A
:10004000002B00D05CE0324B1B88192B02D1304BC7
:1000500011221A802E4B1B882E482F491A4633F046
:100060008FF900238DF810302C4B02932B4833F07E
:10007000B3F903460393274B0593264833F0ACF9B5
:1000800003460693264B1B88ADF81C309DF81E30A6
:100090006FF300038DF81E309DF81E306FF341039F
:1000A0008DF81E301A4B1B8800201E491A4608F096
:1000B0005DFA02AB1C48194608F004FF0990099B41
:1000C0004CF61112934210D0099B0893089B002B09
:1000D00005D0089840F24331144A01F071F9104BF1
:1000E0001B8802339AB20E4B1A80094B1B880133CE
:1000F0009AB2074B1A8000200D49099A08F036FA87
:100100000BB05DF804FB00BF0F2A00200E2A002070
:1001100064280020682A0020C43E0500043F050032
:1001200066280020283F0500102A00208C3C05008E
:10013000503F050000B585B00190204808F05EFEF4
:100140001F4B204A1A601F4833F046F902461C4BE9
:100150005A601D481D49102233F0ECF8174B42F24B
:10016000B3221A86154B1A4ADA61144B194A1A60DF
:10017000184833F031F90246104B5A600F4B0022F9
:10018000DA600E4B00229A600C4B012283F8332078
:100190000A4B114A9A61094808F03EFE0390039BFE
:1001A0000293029B002B05D002984FF45F710B4A1B
:1001B00001F006F905B05DF804FB00BF102A00202D
:1001C000302B00200C3C0500302A00203C3C050070
:1001D00069FF0100FC3B0500742800208C3C0500F1
:1001E00000B585B01F200621114A002305F09AFFB3
:1001F0000390039B0293029B002B05D002984FF4BF
:1002000062710C4A01F0DCF80B4800210B4A05F042
:10021000DFFF0190019B0093009B002B05D000980D
:1002200040F28E31034A01F0CBF805B05DF804FBD3
:10023000382B00208C3C0500F83B050035010200FE
:1002400000B585B01A480AF0C9F90390039B0293E0
:10025000029B002B05D002984FF46A71154A01F0F9
:10026000AFF815480121154A05F0B2FF0390039B32
:100270000193019B002B05D0019840F2AE310D4A4D
:1002800001F09EF80E4B18460A21002205F0D0FF1F
:100290000390039B0093009B002B05D000984FF424
:1002A0006D71044A01F08CF805B05DF804FB00BFE5
:1002B000943F05008C3C0500F43B050001FB010068
:1002C000C429002000B585B010480221332205F072
:1002D0000FF90390039B0293029B002B05D0029819
:1002E00040F2CB310A4A01F06BF805F075F9039042
:1002F000039B0193019B002B05D0019840F2CE3166
:10030000034A01F05DF805B05DF804FB8428002085
:100310008C3C050000B587B02C4800210C22FFF76B
:1003200049F92A4B2A4A1A60284B2A4A5A60274B15
:1003300000221A7225480121274A0AF0D1FC0590B3
:10034000059B0493049B002B05D0049840F2ED31EB
:10035000224A01F035F8204B1A686B4610461946C0
:100360000AF01EFC059000238DF805301A4B1A6820
:100370006B46104619460AF033FC0590059B039323
:10038000039B002B05D0039840F2F731134A01F08C
:1003900017F8FFF7CBFAFFF70FFBFFF759FD01F056
:1003A0009BFFFFF71DFFFFF74BFFFFF78BFFFFF7EB
:1003B000E3F90590059B0293029B002B05D0029860
:1003C00040F20941054A00F0FBFFF0E7C82B00208E
:1003D00001FA010045FA0100042A00208C3C0500C6
:1003E00082B003468DF807309DF90730002B0BDAF9
:1003F0000B4A9DF8073003F00F03043B13441B7EA8
:10040000DBB25B09DBB208E0064A9DF90730134412
:1004100093F80033DBB25B09DBB2184602B07047D9
:1004200000ED00E000E100E000B585B0EFF30583EA
:100430000193019BC3F308030393039B002B0BD091
:10044000039B103B0293029BDBB25BB21846FFF7A3
:10045000C7FF0346DBB200E00F23184605B05DF886
:1004600004FB00BF00B587B0039002910192009396
:10047000FFF7DAFF03468DF817300F4B1B789DF816
:1004800017209A4201D20F2311E003980299019A92
:10049000009B02F03DFE0490049B002B06D0074B0E
:1004A0001B680133054A1360049B00E000231846D3
:1004B00007B05DF804FB00BF94280020D42B002077
:1004C00000B587B00390084611461A4603468DF8DA
:1004D0000B300B468DF80A3013468DF80930039B1C
:1004E0000F2B01D902230EE2AF4B1B68184600F018
:1004F000DFFC0590059B002B0BD0059B0093002093
:10050000AA49AB4A5E2308F031F800F0F1FE059BE2
:10051000F9E19DF80930002B32D1039B012202FA48
:1005200003F39BB20020194600F06CFD0590059B7B
:10053000002B0BD0059B009300209C499C4A632311
:1005400008F014F800F0D4FE059BDCE1039B0122C7
:1005500002FA03F39BB20020194600F095FD0590C6
:10056000059B002B00F08980059B009300208F499C
:100570008F4A662307F0FAFF00F0BAFE059BC2E13E
:100580009DF80930012B31D1039B012202FA03F3BC
:100590009BB20020194600F035FD0590059B002B0D
:1005A0000BD0059B009300208049814A6B2307F004
:1005B000DDFF00F09DFE059BA5E1039B012202FAF1
:1005C00003F39BB21846002100F05EFD0590059BE9
:1005D000002B52D0059B009300207449744A6E236F
:1005E00007F0C4FF00F084FE059B8CE19DF8093004
:1005F000022B31D1039B012202FA03F39BB20020AC
:10060000194600F041FD0590059B002B0BD0059B82
:10061000009300206549664A732307F0A7FF00F0A6
:1006200067FE059B6FE1039B012202FA03F39BB275
:100630001846002100F0E6FC0590059B002B1CD01D
:10064000059B009300205949594A762307F08EFFF5
:1006500000F04EFE059B56E101230593059B002B00
:100660000BD0059B009300205049514A7B2307F093
:100670007DFF00F03DFE059B45E19DF80A30002B13
:1006800018D1039B012202FA03F39BB20020194602
:1006900000F034FC0590059B002B39D0059B00939E
:1006A00000204249424A812307F060FF00F020FE0B
:1006B000059B28E19DF80A30012B18D1039B0122EC
:1006C00002FA03F39BB21846002100F017FC0590D4
:1006D000059B002B1CD0059B009300203349344A16
:1006E000862307F043FF00F003FE059B0BE1012387
:1006F0000593059B002B0BD0059B009300202B49F5
:100700002B4A8B2307F032FF00F0F2FD059BFAE045
:100710009DF82030002B18D1039B012202FA03F32D
:100720009BB20020194600F0F1FC0590059B002BC0
:1007300040D0059B009300201C491D4A912307F0DF
:1007400015FF00F0D5FD059BDDE09DF82030012B65
:1007500018D1039B012202FA03F39BB21846002131
:1007600000F0D4FC0590059B002B23D0059B009343
:1007700000200E490E4A962307F0F8FE00F0B8FD5F
:10078000059BC0E001230593059B002B12D0059B20
:10079000009300200549064A9B2307F0E7FE00F07E
:1007A000A7FD059BAFE000BFD82B0020AC3F0500A4
:1007B000F43F05009DF82430002B18D1039B012243
:1007C00002FA03F39BB20020194600F0D9FB059012
:1007D000059B002B39D0059B009300204C494D4AC6
:1007E000A12307F0C3FE00F083FD059B8BE09DF87D
:1007F0002430012B18D1039B012202FA03F39BB290
:100800001846002100F0BCFB0590059B002B1CD076
:10081000059B009300203E493E4AA62307F0A6FE12
:1008200000F066FD059B6EE001230593059B002B00
:100830000BD0059B009300203549364AAB2307F0C7
:1008400095FE00F055FD059B5DE09DF80B30002BFB
:1008500018D1039B012202FA03F39BB20020194630
:1008600000F096FC0590059B002B39D0059B00936A
:1008700000202749274AB12307F078FE00F038FD11
:10088000059B40E09DF80B30012B18D1039B012202
:1008900002FA03F39BB21846002100F079FC0590A0
:1008A000059B002B1CD0059B009300201849194A7A
:1008B000B62307F05BFE00F01BFD059B23E0012340
:1008C0000593059B002B0BD0059B0093002010493E
:1008D000104ABB2307F04AFE00F00AFD059B12E018
:1008E00000F006FD0590059B002B0BD0059B0093A7
:1008F00000200749074ABF2307F038FE00F0F8FC44
:10090000059B00E00023184607B05DF804FB00BF1C
:10091000AC3F0500F43F050000B585B01E4B1B68D9
:10092000184600F0C5FA0390039B002B0BD0039BE5
:100930000093002019491A4ACA2307F017FE00F055
:10094000D7FC039B24E000F0A7FC0390039B002B43
:100950000BD0039B009300201049114ACD2307F0D0
:1009600005FE00F0C5FC039B12E000F0C1FC039003
:10097000039B002B0BD0039B009300200749084AE0
:10098000D02307F0F3FD00F0B3FC039B00E000234D
:10099000184605B05DF804FBD82B0020AC3F0500DD
:1009A000F43F050000B587B00390039B0F2B01D9DE
:1009B000022340E0224B1B68184600F079FA0590AC
:1009C000059B002B0BD0059B009300201D491E4A60
:1009D000DD2307F0CBFD00F08BFC059B2BE0039B98
:1009E000012202FA03F39BB20020194600F0D0FB6B
:1009F0000590059B002B0BD0059B0093002011490F
:100A0000114AE12307F0B2FD00F072FC059B12E0F1
:100A100000F06EFC0590059B002B0BD0059B00930E
:100A200000200849084AE42307F0A0FD00F060FC1C
:100A3000059B00E00023184607B05DF804FB00BFEB
:100A4000D82B0020AC3F0500F43F050000B587B06F
:100A50000390039B0F2B01D9022343E0234B1B6818
:100A6000184600F025FA0590059B002B0CD0059B3D
:100A7000009300201E491F4A40F2A31307F076FDA1
:100A800000F036FC059B2DE0039B012202FA03F3E4
:100A90009BB21846002100F0BDFB0590059B002B82
:100AA0000CD0059B009300201149124A4FF4D373D8
:100AB00007F05CFD00F01CFC059B13E000F018FC47
:100AC0000590059B002B0CD0059B00930020084946
:100AD000084A40F2A91307F049FD00F009FC059B04
:100AE00000E00023184607B05DF804FBD82B002077
:100AF000AC3F0500F43F050000B587B00390039BB1
:100B00000F2B01D9022343E0234B1B68184600F04A
:100B1000CFF90590059B002B0CD0059B009300207E
:100B20001E491F4A40F2C91307F020FD00F0E0FB08
:100B3000059B2DE0039B012202FA03F39BB20020E8
:100B4000194600F067FB0590059B002B0CD0059B18
:100B5000009300201149124A4FF4E67307F006FD96
:100B600000F0C6FB059B13E000F0C2FB0590059B5F
:100B7000002B0CD0059B009300200849084A40F246
:100B8000CF1307F0F3FC00F0B3FB059B00E000235C
:100B9000184607B05DF804FBD82B0020AC3F0500D9
:100BA000F43F050000B585B001900B468DF8033089
:100BB000019B002B01D10E2312E0019B1B680A4A06
:100BC000136000F06FF99DF80330002B07D0FFF79A
:100BD000A3FE0390039B002B01D0039B00E00023A6
:100BE000184605B05DF804FBD82B002084B00190B6
:100BF000234B0393019B002B40D0224B1A6803998F
:100C0000019B00BF00BF00BF00BF00BF00BF00BF0F
:100C100000BF8A422FD000BF00BF00BF00BF00BF8F
:100C200000BF00BF00BF00BF00BF00BF00BF00BFCC
:100C300000BF00BF00BF00BF00BF00BF00BF00BFBC
:100C400000BF00BF00BF00BF00BF00BF00BF00BFAC
:100C500000BF00BF00BF00BF00BF00BF00BF00BF9C
:100C600000BF00BF00BF00BF00BF00BF00BF00BF8C
:100C700000BF00BF00BF013BC3D1019304B0704768
:100C80000024F400A028002000B583B00190019B4F
:100C90004FF47A7202FB03F31846FFF7A7FF03B085
:100CA0005DF804FB00B587B003460A468DF80F30A7
:100CB00013468DF80E30154B1B68002B20D0134BBC
:100CC0001B685B680593114B1B681B788DF813300C
:100CD0009DF80F308DF810309DF80E308DF81130E2
:100CE0009DF8131004AA002300930598022302F034
:100CF000C5FD0346002B0CBF01230023DBB200E03F
:100D00000023184607B05DF804FB00BFDC2B002071
:100D100000B587B0034602918DF80F30154B1B6864
:100D2000002B22D0134B1B685B680593114B1B688B
:100D30001B788DF813309DF813100DF10F0201236D
:100D400000930598012302F099FD0346002B0CD176
:100D50009DF8133005981946029A012302F0C0FD50
:100D60000346002B01D1012300E00023184607B001
:100D70005DF804FBDC2B002000B585B003468DF840
:100D800007300B468DF8063013468DF805309DF878
:100D900006209DF805301343DBB2002B0CBF012366
:100DA00000238DF80F309DF806209DF80530134084
:100DB000DBB2002B42D19DF80F3083F00103DBB290
:100DC000002B3BD0204B1B68002B37D09DF8072011
:100DD0000DF10D0310461946FFF79AFF0346002B4D
:100DE0002CD09DF80D308DF80E309DF80D209DF81B
:100DF00006301343DBB28DF80D309DF80530DB4330
:100E0000DAB29DF80D30DBB21340DBB2DBB28DF805
:100E10000D309DF80D309DF80E209A420AD09DF8B5
:100E20000D309DF8072010461946FFF73BFF03469B
:100E3000002B01D0012303E0002301E09DF80F30D7
:100E4000184605B05DF804FBDC2B002010B586B019
:100E5000034602918DF80F30114B1B68002B1BD0FD
:100E60000F4B1B685B6805930D4B1B681B788DF857
:100E700013309DF813209DF80F4000230093059830
:100E80001146029A234602F0F9FC0346002B0CBFE0
:100E900001230023DBB200E00023184606B010BD9A
:100EA000DC2B0020014B00221A607047DC2B002055
:100EB00000B583B00190104B1B68002B16D1019B2D
:100EC0005A68019B9B681046194600220023FFF7D1
:100ED000C9FA0346002B09D1019B5B68184602F052
:100EE000D3F9054A019B1360002300E00123184653
:100EF00003B05DF804FB00BFDC2B002000B583B01D
:100F000003460A46ADF806301346ADF80430BDF886
:100F10000620BDF8043013409BB2002B01D0022301
:100F20002AE0BDF806301B0A9BB2DAB2BDF80430E5
:100F30001B0A9BB2DBB2002011461A46FFF71CFFCA
:100F4000034683F00103DBB2002B01D0012313E041
:100F5000BDF80630DAB2BDF80430DBB2012011462C
:100F60001A46FFF709FF034683F00103DBB2002BAB
:100F700001D0012300E00023184603B05DF804FB14
:100F800000B583B003460A46ADF806301346ADF807
:100F90000430BDF80620BDF8043013409BB2002B8E
:100FA00001D002232AE0BDF806301B0A9BB2DAB258
:100FB000BDF804301B0A9BB2DBB2022011461A4670
:100FC000FFF7DAFE034683F00103DBB2002B01D00A
:100FD000012313E0BDF80630DAB2BDF80430DBB20D
:100FE000032011461A46FFF7C7FE034683F00103AC
:100FF000DBB2002B01D0012300E00023184603B030
:101000005DF804FB00B583B003460A46ADF8063030
:101010001346ADF80430BDF80620BDF80430134087
:101020009BB2002B01D002232AE0BDF806301B0A38
:101030009BB2DAB2BDF804301B0A9BB2DBB20620C9
:1010400011461A46FFF798FE034683F00103DBB210
:10105000002B01D0012313E0BDF80630DAB2BDF851
:101060000430DBB2072011461A46FFF785FE03461F
:1010700083F00103DBB2002B01D0012300E0002349
:10108000184603B05DF804FB00B583B003460A467A
:10109000ADF806301346ADF80430BDF80620BDF8B3
:1010A000043013409BB2002B01D002232AE0BDF88C
:1010B00006301B0A9BB2DAB2BDF804301B0A9BB2A1
:1010C000DBB2082011461A46FFF756FE034683F0AE
:1010D0000103DBB2002B01D0012313E0BDF8063081
:1010E000DAB2BDF80430DBB2092011461A46FFF728
:1010F00043FE034683F00103DBB2002B01D0012342
:1011000000E00023184603B05DF804FB00B583B08F
:1011100003460A46ADF806301346ADF80430BDF874
:101120000620BDF8043013409BB2002B01D00223EF
:101130002AE0BDF806301B0A9BB2DAB2BDF80430D3
:101140001B0A9BB2DBB20A2011461A46FFF714FEB7
:10115000034683F00103DBB2002B01D0012313E02F
:10116000BDF80630DAB2BDF80430DBB20B20114610
:101170001A46FFF701FE034683F00103DBB2002BA2
:1011800001D0012300E00023184603B05DF804FB02
:1011900000B583B003460A46ADF806301346ADF8F5
:1011A0000430BDF80620BDF8043013409BB2002B7C
:1011B00001D002232AE0BDF806301B0A9BB2DAB246
:1011C000BDF804301B0A9BB2DBB20E2011461A4652
:1011D000FFF7D2FD034683F00103DBB2002B01D001
:1011E000012313E0BDF80630DAB2BDF80430DBB2FB
:1011F0000F2011461A46FFF7BFFD034683F0010397
:10120000DBB2002B01D0012300E00023184603B01D
:101210005DF804FB00B583B003460A46ADF806301E
:101220001346ADF80430BDF80620BDF80430134075
:101230009BB2002B01D002232AE0BDF806301B0A26
:101240009BB2DAB2BDF804301B0A9BB2DBB21020AD
:1012500011461A46FFF790FD034683F00103DBB207
:10126000002B01D0012313E0BDF80630DAB2BDF83F
:101270000430DBB2112011461A46FFF77DFD03460C
:1012800083F00103DBB2002B01D0012300E0002337
:10129000184603B05DF804FB00B583B0134A01ABF8
:1012A0001068186001AB02201946FFF7CFFD034616
:1012B00083F00103DBB2002B01D0012311E001AB6D
:1012C000023302201946FFF7C1FD034683F00103F4
:1012D000DBB2002B01D0012303E00320FFF7D4FC95
:1012E0000023184603B05DF804FB00BF3C40050036
:1012F00008B50C4B1B68002B10D00A4B1B685B68B1
:10130000184601F0DDFF074B1B685B68184601F0CB
:1013100075FF044B00221A60002300E001231846E9
:1013200008BD00BFDC2B002039DF7047184600BF26
:101330003ADF7047184600BF12DF7047184600BFFB
:1013400000B585B001900E4B1B78002B10D10DF12C
:101350000B031846FFF7F0FF03909DF80B30002BAE
:1013600003D0074B01221A7004E00223039301E02B
:1013700008230393039B184605B05DF804FB00BFE8
:10138000E02B002000B585B001900198FFF7CCFF5D
:101390000390039B184605B05DF804FB00B585B0CB
:1013A00001900B468DF803309DF8033001981946E3
:1013B000FFF7BEFF0390039B184605B05DF804FBE2
:1013C00000B589B0039002910192029B9BB2ADF8E7
:1013D0001430019B0693039B079305AB44F2010075
:1013E00000211A46FEF7ACFB09B05DF804FB00BF14
:1013F00086B003900291019201238DF817309DF879
:1014000017301F4A039B13601D4A029B53601C4AFE
:10141000019B9360039B44F20102934212D044F279
:101420000202934222D1019B154AD360144BDB6820
:101430001B881A46124B9A61114BDB685B68104A95
:10144000D36113E0019B0E4A13610D4B1B699B682E
:101450000B4A53610A4B1B691B881A46084B9A6159
:10146000074B1B695B68064AD36100BF72B600BFB9
:101470009DF81730DBB2002BFAD162B606B0704788
:10148000E42B002071DF7047184600BF72DF704701
:10149000184600BF79DF7047184600BF7DDF7047F0
:1014A000184600BF65DF7047184600BF82B003468C
:1014B0000091ADF80630BDF80630DAB2009B1A7024
:1014C000009B0133BDF80620120A92B2D2B21A7004
:1014D0000223184602B0704786B003900291019231
:1014E000ADF80230019B1B8803F11202BDF80230F7
:1014F0009A4201D90C2339E0019B1B881A46029BB2
:10150000134411221A70019B1B8801339AB2019B6C
:101510001A80019B1B881A46029B134410221A70E2
:10152000019B1B8801339AB2019B1A800F238DF80F
:10153000173016E0019B1B881A46029B13449DF945
:10154000172003998A5C1A709DF81730DBB2013BB3
:10155000DBB28DF81730019B1B8801339AB2019BD7
:101560001A809DF91730002BE4DA0023184606B0E4
:10157000704700BF84B0029101921A4603468DF86D
:101580000F301346ADF80C30019B1B88DA1CBDF8F8
:101590000C309A4201D90C2353E0019B1B881A4658
:1015A000029B134402221A70019B1B8801339AB2DA
:1015B000019B1A80019B1B881A46029B13441C2224
:1015C0001A70019B1B8801339AB2019B1A809DF807
:1015D0000F30013B032B2BD801A252F823F000BFA0
:1015E000F115020001160200111602002116020078
:1015F000019B1B881A46029B134400221A7019E0B3
:10160000019B1B881A46029B134401221A7011E0A9
:10161000019B1B881A46029B134402221A7009E0A0
:10162000019B1B881A46029B134403221A7001E097
:10163000072306E0019B1B8801339AB2019B1A80A5
:101640000023184604B0704700B589B0039002919A
:101650001346ADF80630029B1B8803F10902BDF862
:1016600006309A4201D90C234FE005AB1846FFF72C
:1016700009FF0790079B002B01D0079B45E0029BC9
:101680001B881A46039B134408221A70029B1B886E
:1016900001339AB2029B1A80029B1B881A46039B55
:1016A00013441B221A70029B1B8801339AB2029BBF
:1016B0001A80029B1B881A46039B1A4405AB013310
:1016C00010461946062231F035FE029B1B88063370
:1016D0009AB2029B1A809DF81430002B07D1029B0E
:1016E0001B881A46039B134400221A7006E0029BD3
:1016F0001B881A46039B134401221A70029B1B8805
:1017000001339AB2029B1A800023184609B05DF893
:1017100004FB00BF00B589B0039002910192ADF8BF
:101720000230039B1B78012B05D1039B5B78002BB8
:1017300001D1072389E0019B1B889A1CBDF8023068
:101740009A420ED8039B1B78012B0CD1019B1B885E
:101750001A46039B5B7813449A1CBDF802309A42E8
:1017600001D90C2371E0019B1B88BDF80220D31A1C
:101770009BB2023BADF81C30BDF81C30ADF8163002
:10178000019B1B880233029A1A440DF1160310467E
:101790001946FFF783FE0690069B002B01D0069B9F
:1017A00053E0039B1B78022B09D1BDF81630BDF81E
:1017B0001C209A4203D309238DF81F3017E0082319
:1017C0008DF81F30039B1B78012B0CD1039B5B789A
:1017D0009BB2BDF81C209A4205D3039B5B789BB259
:1017E000ADF8163003E0BDF81C30ADF81630BDF88A
:1017F0001630FE2B01D90C2327E0019B1B881A46CB
:10180000029B1344BDF81620D2B20132D2B21A7034
:10181000019B1B8801339AB2019B1A80019B1B8894
:101820001A46029B13449DF81F201A70019B1B88C7
:1018300001339AB2019B1A80019B1A88BDF81630B9
:1018400013449AB2019B1A800023184609B05DF830
:1018500004FB00BF00B587B0039002911346ADF8BA
:101860000630029B1B881A1DBDF806309A4201D92A
:101870000C2339E00DF112031846FFF70BFE05901B
:10188000059B002B01D0059B2EE0029B1B881A466E
:10189000039B134403221A70029B1B8801339AB2E4
:1018A000029B1A80029B1B881A46039B1344192231
:1018B0001A70029B1B8801339AB2029B1A80BDF8F2
:1018C0001220029B1B881946039B0B4410461946A5
:1018D000FFF7ECFD03461946029B1A888BB21344AE
:1018E0009AB2029B1A800023184607B05DF804FBE9
:1018F00084B0029101921A4603468DF80F301346C8
:10190000ADF80C30019B1B88DA1CBDF80C309A42F4
:1019100001D90C2328E0019B1B881A46029B134423
:1019200002221A70019B1B8801339AB2019B1A8014
:10193000019B1B881A46029B134401221A70019BCB
:101940001B8801339AB2019B1A80019B1B881A469F
:10195000029B13449DF80F201A70019B1B880133D2
:101960009AB2019B1A800023184604B0704700BF4A
:1019700084B0029101921A4603468DF80F30134647
:10198000ADF80C30019B1B88DA1CBDF80C309A4274
:1019900001D90C2328E0019B1B881A46029B1344A3
:1019A00002221A70019B1B8801339AB2019B1A8094
:1019B000019B1B881A46029B134411221A70019B3B
:1019C0001B8801339AB2019B1A80019B1B881A461F
:1019D000029B13449DF80F201A70019B1B88013352
:1019E0009AB2019B1A800023184604B0704700BFCA
:1019F00084B0029101921A4603468DF80F301346C7
:101A0000ADF80C30019B1B88DA1CBDF80C309A42F3
:101A100001D90C2328E0019B1B881A46029B134422
:101A200002221A70019B1B8801339AB2019B1A8013
:101A3000019B1B881A46029B13440A221A70019BC1
:101A40001B8801339AB2019B1A80019B1B881A469E
:101A5000029B13449DF80F201A70019B1B880133D1
:101A60009AB2019B1A800023184604B0704700BF49
:101A700000B58BB0039001930B468DF80B301346E5
:101A80008DF80A3000238DF823300C9B1B88ADF8AD
:101A900020300023099370E0039B5A68099B9B0048
:101AA0001A4404AB1068186004AA0DF1170310461D
:101AB00019460022FFF7F6FC0790079B002B01D088
:101AC000079B7CE09DF817309DF80A209A4251D17F
:101AD0009DF82330002B01D0002300E002238DF875
:101AE0001B300C9B1B881A469DF817301A449DF832
:101AF0001B301A44BDF834309A4201DD0C235EE0FD
:101B00009DF8233083F00103DBB2002B16D00C9B31
:101B10001B8801339AB20C9B1A800C9B1B881A46B7
:101B2000019B13449DF80B201A700C9B1B880133FA
:101B30009AB20C9B1A8001238DF823300C9B1B88D2
:101B40001A46019B134404A90DF1170208461146D9
:101B50001A46FFF7A7FC0790079B002B01D0079BB5
:101B60002DE00C9B1A889DF817309BB213449AB253
:101B70000C9B1A80099B01330993039B1B881A460F
:101B8000099B9A4288DC9DF82330002B16D00C9BD1
:101B90001A88BDF82030D31A9BB2013BADF818303B
:101BA000BDF81830FF2B01D90C2308E0BDF8203018
:101BB000019A1344BDF81820D2B21A7000231846B7
:101BC0000BB05DF804FB00BF00B589B0059003932E
:101BD0000B468DF8133013468DF812309DF8132004
:101BE0000A9B0093BDF82C30019305981146022200
:101BF000039BFFF73DFF0790079B002B01D0079B3E
:101C000013E09DF812200A9B0093BDF82C3001933D
:101C1000059811461022039BFFF72AFF0790079BA8
:101C2000002B01D0079B00E00023184609B05DF8A7
:101C300004FB00BF82B00190019B1B88052B0AD9D1
:101C4000019B1B88B3F5486F07D9019B1B884FF692
:101C5000FF72934201D0072325E0019B5B88052B8F
:101C60000AD9019B5B88B3F5486F07D9019B5B8854
:101C70004FF6FF72934201D0072314E0019B1B88AB
:101C80004FF6FF7293420DD0019B5B884FF6FF72B7
:101C9000934207D0019B1A88019B5B889A4201D925
:101CA000072300E00023184602B0704700B587B054
:101CB000039002910192ADF80230019B1B889A1D9E
:101CC000BDF802309A4201D90C234BE00398FFF78C
:101CD000B1FF0590059B002B01D0059B42E0019BC5
:101CE0001B881A46029B134405221A70019B1B880D
:101CF00001339AB2019B1A80019B1B881A46029BF2
:101D0000134412221A70019B1B8801339AB2019B63
:101D10001A80039B1A88019B1B881946029B0B445F
:101D200010461946FFF7C2FB03461946019B1A8865
:101D30008BB213449AB2019B1A80039B5A88019B71
:101D40001B881946029B0B4410461946FFF7AEFB51
:101D500003461946019B1A888BB213449AB2019B21
:101D60001A800023184607B05DF804FB00B587B061
:101D7000039002910192ADF80230039B9B880233DD
:101D80000593019B1B881A46059B13449A1CBDF8BA
:101D900002309A4201D90C2356E0059BFE2B01D953
:101DA0000C2351E0019B1B881A46029B1344059AA1
:101DB000D2B20132D2B21A70019B1B8801339AB29F
:101DC000019B1A80019B1B881A46029B1344FF2229
:101DD0001A70019B1B8801339AB2019B1A80039BE6
:101DE0001A88019B1B881946029B0B441046194612
:101DF000FFF75CFB03461946019B1A888BB213441C
:101E00009AB2019B1A80039B9B88002B1BD0039BDB
:101E10009B68002B01D1072316E0019B1B881A4603
:101E2000029B9918039B9A68039B9B88084611465E
:101E30001A4631F07FFA019B1A88039B9B88134452
:101E40009AB2019B1A800023184607B05DF804FB84
:101E500000B589B0039002910192ADF80230039B66
:101E60009B6A002B01D1072374E000238DF81F30FB
:101E700068E0039B996A9DF81F2013465B0013449A
:101E80009B000B440693069B9B8802330593059B9E
:101E9000FE2B01D90C235DE0019B1B881A46029B97
:101EA0001344059AD2B20132D2B21A70019B1B8838
:101EB00001339AB2019B1A80019B1B881A46029B30
:101EC000134416221A70019B1B8801339AB2019B9E
:101ED0001A80069B1A88019B1B881946029B0B449B
:101EE00010461946FFF7E2FA03461946019B1A8885
:101EF0008BB213449AB2019B1A80069B9B88002BDD
:101F00001BD0069B9B68002B01D1072322E0019B7D
:101F10001B881A46029B9918069B9A68069B9B8809
:101F2000084611461A4631F005FA019B1A88069BAD
:101F30009B8813449AB2019B1A809DF81F3001338D
:101F40008DF81F30039B93F82C309DF81F209A4288
:101F50008FD30023184609B05DF804FB00B589B0A3
:101F600005900491039200230793039B1B88ADF80F
:101F70001A30039B00221A80059B5B6B002B0FD04D
:101F8000059B5B6B1A78BDF81A3010460499039ACA
:101F9000FFF7EEFC0790079B002B01D0079B06E1A3
:101FA000059B1B6B002B0ED0059B1A6BBDF81A30DE
:101FB00010460499039AFFF78FFA0790079B002BAE
:101FC00001D0079BF3E0059B93F82E30002B0FD038
:101FD000059B93F82E20BDF81A3010460499039AF9
:101FE000FFF7C8FA0790079B002B01D0079BDEE0A4
:101FF000059B93F82D30002B0CD0BDF81A300498B7
:1020000003991A46FFF720FB0790079B002B01D08E
:10201000079BCCE0059B9B78002B0CD0BDF81A30B9
:10202000049803991A46FFF715FC0790079B002BAD
:1020300001D0079BBBE0059BDB78002B10D0059BF4
:10204000DB78DBB25AB2BDF81A3010460499039A15
:10205000FFF74EFC0790079B002B01D0079BA6E0E3
:10206000059B5B68002B10D0059B5B681B785AB200
:10207000BDF81A3010460499039AFFF7B9FC07908F
:10208000079B002B01D0079B91E0059B1B89002B30
:1020900013D0059B03F10802039B0093BDF81A308F
:1020A0000193104602210622049BFFF78DFD079045
:1020B000079B002B01D0079B79E0059B1B8A002B17
:1020C00013D0059B03F11002039B0093BDF81A3057
:1020D0000193104603210722049BFFF775FD07902B
:1020E000079B002B01D0079B61E0059B1B8B002BFE
:1020F00013D0059B03F11802039B0093BDF81A301F
:102100000193104614211522049BFFF75DFD0790F3
:10211000079B002B01D0079B49E0059B1B6A002B06
:102120000ED0059B1A6ABDF81A3010460499039A1E
:10213000FFF7BCFD0790079B002B01D0079B36E003
:10214000059B5B6A002B0ED0059B5A6ABDF81A30BE
:1021500010460499039AFFF709FE0790079B002B8E
:1021600001D0079B23E0059B93F82C30002B0CD06B
:10217000BDF81A3005980499039AFFF769FE079095
:10218000079B002B01D0079B11E0059B1B78002BC0
:102190000CD0BDF81A3005980499039AFFF7BAFAE3
:1021A0000790079B002B01D0079B00E0079B184678
:1021B00009B05DF804FB00BF82B00190019BDB78A1
:1021C00003F00403002B01D1072300E0002318468D
:1021D00002B0704782B00190019BDB78002B01D0E8
:1021E000072300E00023184602B0704700B597B0FF
:1021F000019000911F23ADF84A301F23ADF84830FD
:10220000019B002B19D00198FFF7D6FF1390139B69
:10221000002B01D0139B42E00AAA0DF14A0301985A
:1022200011461A46FFF79AFE1390139B002B01D01C
:10223000139B34E00AAB159304E0002315930023AD
:10224000ADF84A30009B002B18D00098FFF7C2FF72
:102250001390139B002B01D0139B20E002AA12AB1A
:10226000009811461A46FFF779FE1390139B002B36
:1022700001D0139B13E002AB149304E000231493EA
:102280000023ADF84830BDF84A30DAB2BDF8483026
:10229000DBB215981146149AFFF7F8F80346184672
:1022A00017B05DF804FB00BF00B583B00190019B3F
:1022B0001B78022B0AD0019B1B78012B06D1019BB6
:1022C0005B6818462921034AFFF77AF803B05DF8E6
:1022D00004FB00BF4040050030B58DB000230B93D8
:1022E0000E4B05AC1D460FCD0FC495E8030084E8E6
:1022F00003000B4B0193012302930A4B03934FF40A
:102300008063049305AA01AB10461946064A0223CE
:1023100005F004FC0B900DB030BD00BF98400500E7
:10232000042C0020082C0020A922020082B00346C1
:102330008DF8073007499DF907305B099DF80720A4
:1023400002F01F02012000FA02F241F8232002B03D
:10235000704700BF00E100E082B003468DF807300F
:1023600007499DF907305B099DF8072002F01F021D
:10237000012000FA02F2603341F8232002B07047D6
:1023800000E100E082B0034600918DF807309DF92E
:102390000730002B0CDA0C499DF8073003F00F03CF
:1023A000043B009AD2B25201D2B20B441A7609E031
:1023B00006499DF90730009AD2B25201D2B20B44BD
:1023C00083F8002302B0704700ED00E000E100E078
:1023D00000B583B003460A468DF8073013468DF8E2
:1023E00006309DF806309DF9072010461946FFF784
:1023F000C9FF9DF907301846FFF7AEFF9DF907307A
:102400001846FFF793FF03B05DF804FB00B583B0F7
:102410000346ADF80630BDF80630184600F026F841
:1024200003461B68012B0CBF01230023DBB21846B7
:1024300003B05DF804FB00BF00B585B00346ADF8FE
:102440000630BDF80630184600F010F803461A466C
:1024500000231360BDF80630184600F007F8034665
:102460001B680393039B05B05DF804FB82B0034631
:10247000ADF80630BDF8063003F1804303F5C043E4
:10248000184602B0704700BF82B00190024A019B1B
:10249000C2F8043302B070470060004082B001907F
:1024A000034BD3F80423019B1340184602B0704736
:1024B0000060004082B001900749074A019B03F584
:1024C000A27352F8233043F00102019B03F5A2737B
:1024D00041F8232002B070470060004084B00390B0
:1024E000029113468DF807301449144A039B03F5F3
:1024F000A27352F8233023F4473323F44073039A32
:1025000002F5A27241F822300C480C4A039B03F5F5
:10251000A27352F82320029B1B0203F4F8519DF88A
:1025200007301B0403F440330B431A43039B03F5AA
:10253000A27340F8232004B0704700BF0060004041
:1025400082B00190054A019B03F5A27352F8233033
:1025500003F4F8531B0A184602B0704700600040AD
:1025600082B00190064A019B03F5A27352F8233012
:1025700003F440331B0CDBB2184602B0704700BFB7
:102580000060004082B00190084611461A4603469A
:102590008DF803300B468DF8023013468DF801306C
:1025A0004FF0A0419DF803209DF802305B001A43D4
:1025B0009DF801309B001A439DF808301B021A4316
:1025C0009DF80C301B041A43019B03F5E07341F89E
:1025D000232002B0704700BF10B584B003900B46B3
:1025E0008DF80B309DF80B400023009300230193DE
:1025F0000398002100222346FFF7C4FF04B010BD5A
:1026000084B001904FF0A042019B03F5E07352F8B3
:10261000233023F0020303934FF0A041019B03F505
:10262000E073039A41F8232004B0704782B0019010
:102630000B468DF803304FF0A0414FF0A042019BB4
:1026400003F5E07352F8233023F44032019B03F585
:10265000E07341F823204FF0A0414FF0A042019BCE
:1026600003F5E07352F823309DF8032012041A4357
:10267000019B03F5E07341F8232002B0704700BFCF
:1026800082B001904FF0A043D3F81025019B22FAAD
:1026900003F303F00103184602B070474FF0A04364
:1026A000D3F810351846704782B001904FF0A04221
:1026B000019B03F5E07352F8233003F440331B0C05
:1026C000DBB2184602B0704782B001900C4A019B01
:1026D000134440331B785BB2002B09DB084A019B93
:1026E000134440331B785BB2072B01DC012300E06D
:1026F000002303F00103DBB2184602B0704700BFAD
:102700000830002082B00190064A019B13444033F8
:102710001B785BB2072BCCBF01230023DBB218462A
:1027200002B070470830002082B00190054A019B3A
:10273000134440331B78DB43DBB2DB09DBB21846C2
:1027400002B070470830002084B0039002910192DB
:102750008DF80330029BD9B20E4A039B13444033D9
:102760000A461A700B49029B019A41F823209DF8F2
:10277000033083F00103DBB2002B08D0029B083B3F
:10278000039AD1B2034A13440A4683F8602004B086
:10279000704700BF0830002082B00190034A019BBF
:1027A00013444033FF221A7002B0704708300020F3
:1027B00082B00190044A019B134440331B785BB202
:1027C000184602B0704700BF0830002082B0019068
:1027D000034A019B52F82330184602B0704700BFED
:1027E0000830002000B589B00390029113468DF89F
:1027F0000730FF238DF81F309DF80730002B01D0E4
:10280000002300E0082305939DF80730002B01D03A
:10281000082300E010230493059B069314E0104A5C
:10282000069B52F82330B3F1FF3F0AD19DF80730E1
:1028300003980699029AFFF787FF069B8DF81F30D1
:1028400006E0069B01330693069A049B9A42E6D360
:102850009DF81F305BB2184609B05DF804FB00BF5D
:102860000830002082B003468DF807309DF807300D
:10287000094A4FF0FF3142F823109DF80730072B2B
:1028800007D99DF80730083B034A1344FF2283F819
:10289000602002B0704700BF0830002000B583B050
:1028A0001F4B93F86830002B01D0082334E000233D
:1028B0008DF8073009E09DF807301846FFF76CFFE8
:1028C0009DF8073001338DF807309DF807301F2B36
:1028D000F1D900238DF8073009E09DF8073018463C
:1028E000FFF7C0FF9DF8073001338DF807309DF8E2
:1028F00007300F2BF1D906200621FFF769FD4FF4B1
:10290000BE70FFF799FD4FF00040FFF7BDFD044B8F
:10291000012283F868200023184603B05DF804FB09
:1029200008300020044B93F86830002B14BF0123BB
:102930000023DBB2184670470830002000B587B08E
:10294000039002910192002305930398FFF7ECFE98
:102950000346002B02D00823059342E0029BDB785C
:10296000039801991A46FFF73DFF03468DF813308F
:102970009DF91330B3F1FF3F31D0029B9B78002BC0
:1029800003D00398FFF73CFE05E0029B5B780398B9
:102990001946FFF721FE029BDB78002B09D09DF939
:1029A0001320029B1B78104603991A46FFF796FDE9
:1029B00017E09DF91330083B9DF91320083A0B49A5
:1029C0000A4492F86010029A12789201D2B20A4335
:1029D000D1B2064A13440A4683F8602001E004237A
:1029E0000593059B184607B05DF804FB08300020EE
:1029F00000B587B001900B468DF803300198FFF7C2
:102A000081FE0346002B33D00198FFF7D1FE034629
:102A1000083B314A134493F860308DF816309DF826
:102A200016309B098DF815309DF81530032B0FD10A
:102A3000FFF734FE0146019B012202FA03F30B402B
:102A4000002B01D0032300E002238DF8173008E0AB
:102A50009DF81530012B01D1022300E003238DF8EE
:102A600017309DF8173001981946FFF7DFFD30E069
:102A70000198FFF729FE0346002B2AD00198FFF7A3
:102A800097FE03460493049B9BB240339BB29B008A
:102A9000ADF80E30049B1846FFF70CFDBDF80E3064
:102AA0001846FFF7C9FC9DF80330002B11D00198A0
:102AB000FFF77EFE03461846FFF788FE0290029B52
:102AC000002B06D00122049B02FA03F31846FFF7FD
:102AD000DBFC07B05DF804FB0830002000B583B0D4
:102AE00001900198FFF7CCFD0346002B14BF012392
:102AF0000023DBB2184603B05DF804FB00B593B0C9
:102B000000231193002310934FF48073ADF83A30F3
:102B100001230D9300230F9321E0BDF83A301846AE
:102B2000FFF774FC0346002B0ED00D98FFF7B6FCA0
:102B30000346002B08D0BDF83A301846FFF77CFC5E
:102B4000119A0D9B134311930D9B5B000D93BDF8E0
:102B50003A300433ADF83A300F9B01330F930F9B9B
:102B6000072BDAD94FF4BE70FFF750FC0346002B59
:102B70000AD04FF4BE70FFF75FFC119B43F0004397
:102B80001193FFF78BFD1090119BDBB2002B29D026
:102B900001230D9300230F9321E00D9A119B134005
:102BA000002B16D00F98FFF7CBFC09900F98FFF77A
:102BB000D7FC03468DF823300F98FFF707FE0790E8
:102BC000079B002B05D09DF82320079B09981146F1
:102BD00098470D9B5B000D930F9B01330F930F9B49
:102BE000072BDAD9119B002B80F2A38000238DF8EC
:102BF000333000230B934FF0FF330A9300238DF8FB
:102C0000333000230F9379E04B4A0F9B134460331A
:102C10001B788DF81B309DF81B3023F0C003059303
:102C2000454A0F9B134460331B785BB2B3F1FF3FFF
:102C300061D0059B0A9A22FA03F303F00103002BEB
:102C400059D09DF81B309B098DF813300598FFF77C
:102C5000AFFD03461846FFF7B9FD0390039B002B19
:102C600003D19DF81330032B45D1059B012202FAB5
:102C700003F30D939DF81330032B03D10B9A0D9B97
:102C800013430B930598FFF70FFD03468DF80B30A8
:102C90000D9A109B1340002B03D09DF80B30022B94
:102CA00008D00D9A109B1340002B24D19DF80B30B7
:102CB000032B20D19DF81330032B13D19DF80B303B
:102CC000022B01D1032300E002238DF80A309DF886
:102CD0000A3005981946FFF7A9FC9DF833300133F7
:102CE0008DF83330039B002B05D09DF81320039BF8
:102CF0000598114698470F9B01330F930F9B072BA5
:102D000082D99DF83330002B0ED0FFF7C7FC01901D
:102D1000019A109B9A4203D100238DF8333003E0CF
:102D2000019B10930B9B0A939DF83330002B7FF48B
:102D300065AF13B05DF804FB0830002082B0034695
:102D40008DF8073007499DF907305B099DF807208A
:102D500002F01F02012000FA02F2203341F8232082
:102D600002B0704700E100E082B001900B468DF8A0
:102D700003309DF80330019A134401221A6002B017
:102D8000704700BF84B001900B46ADF80230BDF82B
:102D90000230019A134400221A60BDF80230019AF1
:102DA00013441B680393039B04B0704782B00190E7
:102DB0000B46ADF80230BDF80230019A13441B688F
:102DC000002B14BF01230023DBB2184602B070476A
:102DD00082B001900091019BD3F80022009BDB435D
:102DE0001A40019BC3F8002202B0704782B00190E4
:102DF0000091019B009AC3F8042302B0704700BF02
:102E000082B001900091019B009AC3F8082302B0A0
:102E1000704700BF82B00190019B0522C3F80025D6
:102E200002B0704782B00190019B0022C3F80025D8
:102E300002B0704784B0039002910192039B029A02
:102E4000C3F80825039B019AC3F80C2504B070470A
:102E500082B001900091019B009AC3F8242502B032
:102E6000704700BF84B00190019BD3F8C434039332
:102E7000019B039AC3F8C424039B184604B070470F
:102E800082B001900B468DF803309DF80320019B22
:102E9000C3F8882502B0704782B00190019BD3F837
:102EA0001835DBB2184602B0704700BF82B00190FF
:102EB0000B468DF803309DF80320019BC3F81C25B9
:102EC00002B0704782B001900091019B009AC3F854
:102ED000002202B0704700BF00B583B003468DF8F2
:102EE00007309DF907301846FFF728FF03B05DF85B
:102EF00004FB00BF84B00190019B1B0B8DF80F30C9
:102F00009DF80F305BB2184604B0704782B0019054
:102F10004FF0A042019B012101FA03F3C2F80835EA
:102F200002B0704782B001904FF0A042019B012196
:102F300001FA03F3C2F80C3502B0704782B0019079
:102F40004FF0A043D3F81025019B22FA03F303F0BE
:102F50000103184602B0704784B00190234B0393DD
:102F6000019B002B40D0224B1A680399019B00BFA4
:102F700000BF00BF00BF00BF00BF00BF00BF8A424C
:102F80002FD000BF00BF00BF00BF00BF00BF00BF09
:102F900000BF00BF00BF00BF00BF00BF00BF00BF39
:102FA00000BF00BF00BF00BF00BF00BF00BF00BF29
:102FB00000BF00BF00BF00BF00BF00BF00BF00BF19
:102FC00000BF00BF00BF00BF00BF00BF00BF00BF09
:102FD00000BF00BF00BF00BF00BF00BF00BF00BFF9
:102FE00000BF013BC3D1019304B070470024F4003B
:102FF000A028002084B0019003230393019B03F0D9
:103000000103002B02D04FF402430393019B03F012
:103010000203002B02D048F201230393019B03F02B
:103020000403002B02D048F202230393039B1846AB
:1030300004B0704700B585B001904FF0A042019BED
:103040001B6803F5E07340F20C6142F823104FF067
:10305000A042019B5B6803F5E07340F20C6142F80B
:103060002310019B1B681846FFF750FF019B5B680C
:103070001846FFF74BFF4FF0A042019B1B6803F57A
:10308000E07340F20D6142F823104FF0A042019B23
:103090005B6803F5E07340F20D6142F823100420F1
:1030A000FFF75AFF002303931FE0019B5B6818465C
:1030B000FFF744FF0346002B04D0039B002B00D1F5
:1030C00023E015E0019B1B681846FFF72BFF042047
:1030D000FFF742FF019B1B681846FFF717FF04200C
:1030E000FFF73AFF039B01330393039B082BDCDDBF
:1030F000019B5B681846FFF715FF0420FFF72CFFC4
:10310000019B5B681846FFF701FF05B05DF804FB03
:1031100000B587B00390029101920093039B1B7945
:103120001A4613469B001344DB00334A13440593AD
:10313000059B93F82230002B01D0082358E0059B13
:10314000019A1A60059B009A5A60059B00229A60BA
:10315000059B002283F82520059B002283F824206C
:10316000029B9A7B059B83F82720029B5B7B002BAD
:1031700002D00298FFF75EFF4FF0A042029B1B684F
:1031800003F5E07340F20C6142F823104FF0A042C7
:10319000029B5B6803F5E07340F20C6142F8231078
:1031A000039B1B680493029B1A68029B5B6804984C
:1031B00011461A46FFF73EFE029B9B68049819468B
:1031C000FFF746FE059B1B68002B0CD0039B1B687A
:1031D0001846FFF78FFE03461A46029B1B7B1046DC
:1031E0001946FFF7F5F8059B012283F822200023FA
:1031F000184607B05DF804FB7430002000B585B0B8
:103200000190019B1B791A4613469B001344DB0077
:103210001C4A13440393039B1B68002B08D0019B9B
:103220001B681846FFF766FE03461846FFF754FE74
:10323000019800F045F8039B93F8273083F00103D1
:10324000DBB2002B17D04FF0A042019B1B68D3F8D4
:10325000083503F5E07340F2023142F823104FF0D5
:10326000A042019B1B68D3F80C3503F5E07340F2D4
:10327000023142F82310039B002283F8222005B07C
:103280005DF804FB7430002000B585B00190019B0F
:103290001B791A4613469B001344DB00074A13446C
:1032A0000393019B1B6802930298FFF7B3FD039BF6
:1032B000022283F8222005B05DF804FB7430002060
:1032C00000B585B00190019B1B791A4613469B00FF
:1032D0001344DB000C4A13440393019B1B680293C5
:1032E00002984FF0FF31FFF78BFD02984FF0FF314E
:1032F000FFF76EFD0298FFF795FD039B012283F80F
:10330000222005B05DF804FB7430002000B585B0C4
:1033100003900291009313468DF80730009B1B78B1
:103320009DF807209A4210D9009B1B781A46029BF1
:1033300013441B7803981946FFF7B8FD009B1B78D0
:103340000133DAB2009B1A700DE09DF81830002BA3
:1033500005D003981C21FFF707FD002304E0039824
:103360001421FFF701FD0123184605B05DF804FBA9
:1033700010B584B003900291009313468DF8073086
:10338000009B1B789DF807209A4227D9009B1B7849
:103390001A46029B9C180398FFF77EFD0346237094
:1033A000009B1B780133DAB2009B1A70009B1B78DC
:1033B0001A469DF80730013B9A4204D10398022136
:1033C000FFF780FD06E0009B1B789DF807209A42DE
:1033D00000D103E003982021FFF7C6FC04B010BD24
:1033E00000B589B00590049103920293049B1B7869
:1033F000002B05D1039B1B789DF828209A4201D110
:10340000012300E000238DF81F309DF81F3003F0EA
:1034100001038DF81F30049B1B78002B0FD00598FB
:103420004FF49271FFF7AEFC05984FF48E71FFF7E1
:10343000A9FC05984FF48471FFF7A4FC72E005988D
:103440004FF49271FFF7B2FC0346002B0CD00598A5
:103450004FF49271FFF796FC05981421FFF784FC56
:10346000049B01221A705DE005984FF48E71FFF7FE
:103470009DFC0346002B2BD005984FF48E71FFF76F
:1034800081FC05984FF49271FFF790FC0346002BE6
:103490000CD005984FF49271FFF774FC0598142135
:1034A000FFF762FC049B01221A703BE09DF8282084
:1034B0009DF82C30009305980299039BFFF726FF97
:1034C000034683F00103DBB2002B2BD000233DE049
:1034D00005984FF48471FFF769FC0346002B21D057
:1034E00005984FF48471FFF74DFC05984FF49271E5
:1034F000FFF75CFC0346002B0CD005984FF492714B
:10350000FFF740FC05981421FFF72EFC049B0122D5
:103510001A7007E09DF82830059802991A46039B17
:10352000FFF726FF9DF81F30002B0ED005984FF4B3
:103530008271FFF73BFC0346002B06D005984FF441
:103540008271FFF71FFC002300E00123184609B039
:103550005DF804FB10B588B00590049103928DF8D6
:103560000B300023079304984FF48271FFF70AFC95
:1035700004984FF49271FFF705FC04984FF48E7194
:10358000FFF700FC04984FF48471FFF7FBFB0498ED
:103590000021FFF797FC059B002283F82620059B5E
:1035A000002283F8232004982021FFF7DDFB0498F4
:1035B0000821FFF7D9FB059B03F126049DF80B209A
:1035C0009DF828300093049803992346FFF79EFE48
:1035D000059B1B68002B0AD0059B40F286229A604F
:1035E000059B9B6804981946FFF700FC23E000BF89
:1035F000059B03F12301059B03F126029DF80B3087
:1036000000939DF8283001930498039BFFF7E8FE90
:103610000346002BECD1059B93F82330002B0AD0F6
:103620000498FFF71FFC0690069B002B03D006981A
:10363000FFF7E0FC0790079B184608B010BD00BFDD
:1036400000B589B00590049103928DF80B300023EA
:10365000079304984FF48271FFF794FB04984FF49A
:103660009271FFF78FFB04984FF48E71FFF78AFB7E
:1036700004984FF48471FFF785FB059B002283F8C3
:103680002620059B002283F823209DF80B30012B78
:1036900004D104980221FFF715FC03E004980121EE
:1036A000FFF710FC04982021FFF75EFB049800212F
:1036B000FFF75AFB059B1B68002B0AD0059B40F2C5
:1036C00086229A60059B9B6804981946FFF78EFB3B
:1036D00022E000BF059B03F12301059B03F12602B5
:1036E0009DF80B300093002301930498039BFFF790
:1036F00077FE0346002BEDD1059B93F82330002B7A
:103700000AD00498FFF7AEFB0690069B002B03D06F
:103710000698FFF76FFC0790079B184609B05DF805
:1037200004FB00BF10B588B005900491039202938A
:103730000023079304984FF0FF31FFF761FB059BCF
:1037400093F82430DBB2002B07D0059B9B680498CC
:103750001946FFF74BFB112364E0029B03F00403BF
:10376000002B0CBF01230023DAB2059B83F8242031
:10377000029B03F00803002B01D0062352E0059BB7
:10378000029A9A61059B039A0C3307CA83E80700E3
:10379000039B9A78059B83F82020039B5A68059B1E
:1037A000DA61039B5B7804981946FFF769FB039B7A
:1037B0001B78012B20D0039B1B78002B04D1029B8C
:1037C00003F02003002B01D0012300E0002303F0CD
:1037D0000103DAB2059B83F82120039B5A68039BFF
:1037E0009C78059B93F82130009305980499234613
:1037F000FFF7B0FE07900CE0059B002283F8212024
:10380000039B5A68039B9B7805980499FFF718FF60
:103810000790059B1B68002B03D1059B002283F8B2
:103820002420079B184608B010BD00BF00B587B024
:1038300003900291019200230593039B1B791A4682
:1038400013469B001344DB000B4A13440493019B73
:1038500003F00303002B01D0062309E0039B1B6840
:1038600004981946029A019BFFF75CFF0590059B9F
:10387000184607B05DF804FB7430002000B589B02D
:10388000039001921A460B468DF80B3013468DF8C3
:103890000A3005AB00221A60043300221A60043398
:1038A00000221A6004339DF80B308DF815309DF816
:1038B0000A308DF81630019B06939DF82830002BB6
:1038C00001D0202300E0002305AA039811461A46E0
:1038D000FFF7ACFF0346184609B05DF804FB00BFD4
:1038E00000B589B0039001921A460B468DF80B3053
:1038F00013468DF80A3005AB00221A60043300220B
:103900001A60043300221A60043301238DF8143046
:103910009DF80B308DF815309DF80A308DF8163073
:10392000019B069305AB039819460022FFF77EFF23
:103930000346184609B05DF804FB00BF30B58BB0F4
:1039400003900291029B03F12301029B03F12605E0
:10395000029BDC69029B93F82020029B93F82130A4
:103960000092019303982A462346FFF739FD034648
:10397000002B00D07EE0029B93F8233083F00103FC
:10398000DBB2002B3FD0029B1B7B022B03D0029BA0
:103990001B7B032B37D1029BDA69029B1B699A427E
:1039A00031D1029B5A69029BDA61029BDA7B029B4E
:1039B00083F82020029B9B6903F02003002B14BF97
:1039C00001230023DAB2029B83F82120029B1B7B98
:1039D000032B0ED1029BDA69029B93F82040029BD5
:1039E00093F821300093029803992346FFF7B2FD24
:1039F00040E0029BDA69029B93F820300298039919
:103A0000FFF71EFE36E0029A06AB0C3207CA83E8C7
:103A10000700029B93F82330002B16D00398FFF782
:103A200021FA0990099B03F00203002B03D0012324
:103A30008DF8143008E0099B03F00403002B03D039
:103A400002238DF8143003E002E000238DF81430D7
:103A5000029B002283F82420029B9B6903F004034D
:103A6000002B07D1029B1B68029A526805A90846E1
:103A7000114698470BB030BD08B502480249FFF720
:103A80005DFF08BD003000407430002084B001901C
:103A90000B46ADF80230BDF80230019A1344002203
:103AA0001A60BDF80230019A13441B680393039B0C
:103AB00004B0704782B001900B46ADF80230BDF8FB
:103AC0000230019A13441B68002B14BF012300230A
:103AD000DBB2184602B0704782B001900B468DF8F9
:103AE0000330019BD3F804239DF803301340002BCF
:103AF00014BF01230023DBB2184602B0704700BF99
:103B000000B583B00190009101981021FFF7E4FF08
:103B10000346002B10D001984FF48871FFF7CAFFBD
:103B20000346002B08D001984FF48871FFF7AEFFD1
:103B3000009B1B680120984701982021FFF7CCFFCC
:103B40000346002B10D001984FF48A71FFF7B2FFA3
:103B50000346002B08D001984FF48A71FFF796FFB7
:103B6000009B1B680220984701988021FFF7B4FF53
:103B70000346002B10D001984FF48E71FFF79AFF87
:103B80000346002B08D001984FF48E71FFF77EFF9B
:103B9000009B1B680020984701984FF48271FFF743
:103BA00089FF0346002B0BD001984FF48271FFF779
:103BB0006DFF009B01221A71009B1B680320984730
:103BC00003B05DF804FB00BF08B502480249FFF7E7
:103BD00097FF08BD00C001409C30002082B0034622
:103BE000ADF80630BDF8063003F1804303F5E83345
:103BF0001B68002B14BF01230023DBB2184602B060
:103C0000704700BF84B00346ADF80630BDF80630FB
:103C100003F1804303F5E83300221A60BDF8063053
:103C200003F1804303F5E8331B680393039B04B05F
:103C3000704700BF024B0022C3F80025704700BF49
:103C400000D0014082B001900091054A019BC2F86A
:103C50006035034A009BC2F8643502B0704700BF6C
:103C600000D00140024BD3F860351846704700BFC2
:103C700000D0014008B54FF48470FFF7AFFF034652
:103C8000002B1ED04FF48470FFF7BCFFFFF7EAFF54
:103C90000246284BDB689A4209D1264B5B68254ACD
:103CA0001169244A128908461146984740E0214B81
:103CB0005B68204AD1681F4A128908461146984716
:103CC00036E04FF48070FFF789FF0346002B1FD0CA
:103CD0004FF48070FFF796FF164B01225A70FFF7E2
:103CE000C1FF0246134BDB689A4208D1114B1A6997
:103CF000104B1B8910461946FFF7A4FF18E00D4B27
:103D0000DA680C4B1B8910461946FFF79BFF0FE042
:103D10004FF48270FFF762FF0346002B08D04FF488
:103D20008270FFF76FFFFFF785FF024B00225A708A
:103D300008BD00BFA430002082B001904FF0804247
:103D4000019BC2F8083302B0704700BF84B003463D
:103D5000ADF80630BDF8063003F1804300221A604A
:103D6000BDF8063003F180431B680393039B04B046
:103D7000704700BF82B00346ADF80630BDF806308C
:103D800003F180431B68002B14BF01230023DBB227
:103D9000184602B0704700BF84B00190019B1B68B9
:103DA0000393039B002B03D0039B1A68019B1A60AB
:103DB000039B184604B0704700B585B003468DF8E4
:103DC00007309DF80730002B02D10B4B039301E025
:103DD0000A4B03930398FFF7DFFF0290029B002B2F
:103DE00000D106E0029B5B689DF8072010469847CB
:103DF000F0E705B05DF804FBC0300020C8300020BB
:103E000008B54FF48070FFF7B5FF0346002B0CD0C8
:103E10004FF48070FFF79AFF0120FFF78DFF0D4BE5
:103E200001225A700020FFF7C7FF4FF48270FFF79E
:103E3000A1FF0346002B0CD04FF48270FFF786FFE2
:103E40000220FFF779FF034B01229A700120FFF750
:103E5000B3FF08BDB830002082B003468DF80730AC
:103E60009DF8073003F1804303F5E04301221A6017
:103E700002B0704782B00346ADF80630BDF8063098
:103E800003F1804303F5E0431B68002B14BF0123BB
:103E90000023DBB2184602B0704700BF84B003466F
:103EA000ADF80630BDF8063003F1804303F5E0437A
:103EB00000221A60BDF8063003F1804303F5E043A9
:103EC0001B680393039B04B0704700BF82B001904E
:103ED0000091054A019BC2F82C36034A009BC2F8A8
:103EE000303602B0704700BF0070004000B58DB0A2
:103EF0004FF48270FFF7BEFF0346002B43D04FF410
:103F00008270FFF7CBFF9D4B93F82B3083F00103BA
:103F1000DBB2002B04D1994B93F82C30002B32D01C
:103F200000238DF81830954B5B680793934B1B89E2
:103F30009BB2ADF82030914BDB68002B04D18F4B46
:103F4000002283F8292015E08C4BDB688B4A5360F4
:103F50008A4B9A8A894B1A81884B0022DA60874BF8
:103F600093F82B3083F00103DBB2002B02D000204A
:103F7000FFF772FF814B1B6806AA104698477F4BDC
:103F8000002283F82C207D4B93F82B30002B00F07F
:103F900085804FF48070FFF76DFF0346002B7DD0C6
:103FA0004FF48070FFF77AFF744BDB8A002B1DD132
:103FB000724B1B899AB2714B93F82A309BB2D31A79
:103FC0009AB26E4BDA826D4B5A686C4B1B899BB26E
:103FD00019466A4BDB8ACB1A5B001A44674B93F88D
:103FE0002A3010461946FFF771FF50E0634BDA8A1A
:103FF000624B93F82A309BB29A421CD95F4BDA8A03
:104000005E4B93F82A309BB2D31A9AB25B4BDA829A
:104010005A4B5A68594B1B899BB21946574BDB8A3E
:10402000CB1A5B001A44554B93F82A3010461946B8
:10403000FFF74CFF2BE0514BDA8A504B93F82A30B4
:104040009BB29A4214D14D4BDB68002B10D04B4BE6
:10405000012283F82C20494B0022DA82474BDA6890
:10406000464B93F82A3010461946FFF72FFF0EE013
:10407000424BDA8A414B93F82A309BB29A4206D1DE
:104080003E4B012283F82C203C4B0022DA824FF475
:104090008270FFF703FF0420FFF7DEFE4FF4887005
:1040A000FFF7E8FE0346002B0FD04FF48870FFF7B0
:1040B000F5FE324B002283F8292002238DF80C30C4
:1040C0002E4B1B6803AA104698474FF48A70FFF7DF
:1040D000D1FE0346002B08D04FF48A70FFF7DEFEB6
:1040E000264B002283F8292044E0244B1B690B93C4
:1040F0003DE00B9BB3FA83F30A930A9B4FF0004217
:1041000022FA03F3DB430B9A13400B930A9B9BB2F7
:1041100046339BB29B00ADF82630BDF826301846DA
:10412000FFF7A8FE0346002B21D0BDF82630184625
:10413000FFF7B4FE01238DF80030BDF82630A3F55B
:104140008C73DB08DBB28DF80430BDF82630A3F5A4
:104150008C7303F00403002B0CBF01230023DBB29C
:104160008DF80530054B1B686A46104698470B9B37
:10417000002BBED10DB05DF804FB00BFCC30002099
:1041800084B001900B46ADF80230BDF80230019AC0
:10419000134400221A60BDF80230019A13441B68D0
:1041A0000393039B04B0704782B001900B46ADF8B7
:1041B0000230BDF80230019A13441B68002B14BF73
:1041C00001230023DBB2184602B0704782B0019091
:1041D0000091019B009AC3F8042302B0704700BF0E
:1041E00082B001900091019BD3F80423009B1340FF
:1041F000002B14BF01230023DBB2184602B0704726
:1042000082B001900091019B009AC3F8082302B08C
:10421000704700BF84B00190019BD3F880340393B2
:10422000019B039AC3F88024039B184604B070478F
:1042300082B00190019B0422C3F8002502B07047B0
:1042400084B0039002910192039B029AC3F80C255B
:10425000039B019AC3F8142504B0704784B00390FF
:1042600002910192039B029AC3F80825039B019ACD
:10427000C3F8102504B0704782B00190019BD3F8B9
:104280001835DBB2184602B0704700BF82B001900B
:104290000B468DF803309DF80320019BC3F81C25C5
:1042A00002B0704782B001900B468DF803309DF844
:1042B0000330019A134401221A6002B0704700BF14
:1042C00082B001900B468DF8033013468DF8023012
:1042D0009DF803209DF802301343DBB21A46019B80
:1042E000C3F86C2502B0704782B001900091019B29
:1042F000009AC3F8242502B0704700BF84B0019033
:104300000B46ADF80230BDF80230019A134400228A
:104310001A60BDF80230019A13441B680393039B93
:1043200004B0704782B001900B46ADF80230BDF882
:104330000230019A13441B68002B14BF0123002391
:10434000DBB2184602B0704782B001900091019B29
:10435000D3F80022009B1A43019BC3F8002202B04D
:10436000704700BF82B001900091019BD3F80022FA
:10437000009BDB431A40019BC3F8002202B0704748
:1043800082B001900091019B009AC3F8042302B00F
:10439000704700BF82B001900091019B009AC3F862
:1043A000082302B0704700BF84B00190019BD3F88E
:1043B00080340393019B039AC3F88024039B18461F
:1043C00004B0704782B00190019B0822C3F8002519
:1043D00002B0704784B0039002910192039B029A4D
:1043E000C3F80C25039B019AC3F8142504B0704749
:1043F00084B0039002910192039B029AC3F80825AE
:10440000039B019AC3F8102504B0704782B0019055
:104410000B468DF803309DF80330019A13440122B6
:104420001A6002B0704700BF82B001900B468DF851
:10443000033013468DF802309DF803209DF80230BA
:104440001343DBB21A46019BC3F86C2502B07047D8
:1044500082B001900091019B009AC3F8242502B01C
:10446000704700BF84B00390029113468DF8073067
:10447000029A039BC3F844259DF80720039BC3F8C9
:10448000482504B0704700BF82B00190019BD3F86B
:104490004C35184602B0704784B003900291134621
:1044A0008DF80730029A039BC3F834259DF8072046
:1044B000039BC3F8382504B0704700BF82B0019059
:1044C000019BD3F83C35184602B0704784B0019088
:1044D000019B1B0B8DF80F309DF80F305BB2184617
:1044E00004B0704782B00190084611461A46034650
:1044F0008DF803300B468DF8023013468DF80130ED
:104500004FF0A0419DF803209DF802305B001A4354
:104510009DF801309B001A439DF808301B021A4396
:104520009DF80C301B041A43019B03F5E07341F81E
:10453000232002B0704700BF00B585B00390002370
:104540000093002301930398012101220023FFF728
:10455000C9FF05B05DF804FB10B584B003900B46AD
:104560008DF80B309DF80B4000230093002301933E
:104570000398002100222346FFF7B4FF04B010BDCA
:1045800082B001904FF0A042019B012101FA03F398
:10459000C2F8083502B0704700B583B001900091B1
:1045A000009B1B681846FFF7EBFF009B1B68184633
:1045B000FFF7C2FF009B5B6818460021FFF7CCFFA6
:1045C000019B1B79424A5B01134418331B79002B72
:1045D0003DD0019B1A68009B9B6910461946FFF766
:1045E00037FF019B1968009B5A7D009B1B7D084685
:1045F00011461A46FFF718FF019B1968009B1A68BD
:10460000009B5B68084611461A46FFF7E3FE009BD5
:104610001B7D012B58D1009B9B6818460021FFF79A
:104620009BFF009BDB681846FFF7AAFF009BDB6837
:104630001846FFF781FF019B1968009BDA68009B11
:104640009B68084611461A46FFF7D2FE3CE0019BE4
:104650001A68009B9B6910461946FFF745FE019BAF
:104660001968009B5A7D009B1B7D084611461A461F
:10467000FFF726FE019B1968009B1A68009B5B6888
:10468000084611461A46FFF7DBFD009B1B7D012BF8
:104690001AD1009B9B6818460021FFF75DFF009B25
:1046A000DB681846FFF76CFF009BDB681846FFF7D6
:1046B00043FF019B1968009BDA68009B9B680846D2
:1046C00011461A46FFF7CAFD03B05DF804FB00BFB0
:1046D000FC30002000B583B001900B468DF803300C
:1046E000019B1B792D4A5B01134418331B79002B66
:1046F0002FD0019B1B6818464FF48871FFF7FEFD11
:10470000019B1B6818464FF49071FFF7F7FD019B62
:104710001B6818464FF49271FFF7F0FD019B1B6870
:1047200018464FF4A271FFF7E9FD019B1B6818467C
:104730001B49FFF725FE019B1B681846FFF7C6FEC5
:1047400003461A469DF8033010461946FDF740FE11
:1047500020E0019B1B6818464FF48E71FFF710FD97
:10476000019B1B6818464FF4A271FFF709FD019BDE
:104770001B6818460B49FFF729FD019B1B6818466B
:10478000FFF7A4FE03461A469DF80330104619466B
:10479000FDF71EFE03B05DF804FB00BFFC300020F7
:1047A000100302008000020000B583B00190019B5D
:1047B0001B790A4A5B01134418331B79002B05D07F
:1047C000019B1B681846FFF7FDFD04E0019B1B6879
:1047D0001846FFF72DFD03B05DF804FBFC30002008
:1047E00000B587B0039002910192039B1B795B0196
:1047F0001C4A13440593059BDB7E002B01D0082344
:104800002BE0029B5A7F059B1A7703980299FFF7CA
:10481000C3FE059B019A5A60029B1A69059B1A60A8
:10482000059B5B68002B05D0029B1B7F03981946F4
:10483000FFF750FF0398FFF7B7FF059B0022DA75DB
:10484000059B00221A76059B00229A75059B012282
:10485000DA76059B00229A760023184607B05DF8A9
:1048600004FB00BFFC30002000B585B00190009132
:1048700001984FF48E71FFF783FC009B9B68009AB0
:10488000928A92B213441B788DF80F30009B9B8A5A
:104890009BB201339AB2009B9A829DF80F30019827
:1048A0001946FFF7F3FC05B05DF804FB00B585B0D1
:1048B0000190019B1B795B01344A1344029300234E
:1048C0000393019B1B6818464FF48E71FFF758FC49
:1048D000019B1B6818460821FFF7E4FC019B1B683D
:1048E00018460299FFF7C0FF029B5B68002B48D176
:1048F0001FE000BF019B1B6818464FF48E71FFF745
:1049000053FC034683F00103DBB2002B05D0029B6E
:104910009B8A9BB2B3F5807FECD1029B9B8A9BB2B2
:10492000B3F5807F05D0019B1B6818460299FFF7FD
:104930009BFF029B9B8A9AB2029B9B7D9BB29A42F1
:10494000D7D3029B9B8A9BB2B3F5807F02D10F2302
:10495000039313E000BF019B1B6818464FF48E7150
:10496000FFF722FC034683F00103DBB2002BF2D1F8
:10497000019B1B6818460C21FFF794FC029B002248
:104980009A75039B184605B05DF804FBFC300020C7
:1049900000B587B00190019B1B795B012B4A134442
:1049A000049300230593019B1B6818464FF49071F4
:1049B000FFF7A4FC019B1B6818464FF4AC71FFF78E
:1049C0009DFC019B1968049B9A68049B9B7D08468B
:1049D00011461A46FFF746FD019B1B681846082141
:1049E000FFF714FD049B5B68002B2AD1019B1B6819
:1049F00018464FF49071FFF795FC03468DF80F3081
:104A0000019B1B6818464FF4AC71FFF78BFC034603
:104A10008DF80E309DF80F3083F00103DBB2002BD0
:104A200006D09DF80E3083F00103DBB2002BDDD100
:104A30009DF80E30002B01D00F230593049B00221C
:104A40009A75059B184607B05DF804FBFC30002002
:104A500000B587B00390029113468DF80730039B91
:104A60001B795B011D4A13440593039B1B791B4A69
:104A70005B01134418331B79002B07D0029B1B0CDE
:104A80001B04B3F1005F01D0102323E0039800F072
:104A900027F80346002B01D011231BE0059B9DF84E
:104AA00007209A75059B029A9A60059B00229A82BC
:104AB000039B1B79094A5B01134418331B79002BB4
:104AC00004D00398FFF764FF034603E00398FFF761
:104AD000EDFE0346184607B05DF804FBFC300020ED
:104AE00082B00190019B1B79064A5B01134410338D
:104AF0009B79002B14BF01230023DBB2184602B0C0
:104B0000704700BFFC30002000B583B00190019BCE
:104B10001B6818464FF49271FFF732FB019B1B682C
:104B200018464FF48471FFF72BFB019B1B68184656
:104B30000021FFF7B7FB03B05DF804FB10B582B0AE
:104B400001900091009BDB7D002B08D101984FF470
:104B50008471FFF715FB0198FFF78EFB16E00198B3
:104B60004FF48471FFF70CFB009BDB68009A527EC8
:104B7000D2B29C180198FFF77FFB03462370009B7D
:104B80005B7EDBB20133DAB2009B5A7602B010BD15
:104B900000B587B00390029111461A460B468DF876
:104BA000073013468DF80630039B1B795B014A4A98
:104BB00013440593059B9B7E83F00103DBB2002B1E
:104BC00009D09DF8063083F00103DBB2002B02D040
:104BD0000398FFF799FF059B5B68002B6FD1039B40
:104BE0001B6818464FF4A271FFF7CAFA039B1B68B3
:104BF00018464FF49271FFF7D7FA03468DF8133039
:104C0000039B1B6818464FF48471FFF7CDFA0346E7
:104C10008DF81230039B1B6818464FF4A271FFF702
:104C2000C3FA03468DF811309DF8123083F001036A
:104C3000DBB2002B0DD09DF8113083F00103DBB205
:104C4000002B06D09DF8133083F00103DBB2002B5C
:104C5000CCD19DF81330002B10D19DF81130002BD2
:104C60000CD1039B1B6818460599FFF767FF059B4E
:104C7000DA7D059B5B7EDBB29A42B7D8059B0022AA
:104C8000DA759DF81330002B01D003231FE09DF847
:104C90001130002B01D00F2319E0059B9B7E002BC8
:104CA00006D0039B1B6818460021FFF7FBFA0DE0B6
:104CB000039B1B6818460421FFF7F4FA06E0039BE8
:104CC0001B6818464FF40171FFF780FA002318465D
:104CD00007B05DF804FB00BFFC30002000B587B0D2
:104CE0000390029111461A460B468DF80730134681
:104CF0008DF80630039B1B6818464FF48871FFF748
:104D0000FDFA039B1B6818464FF4A271FFF7F6FAF1
:104D1000039B1A689DF80730104602991A46FFF760
:104D2000BBFB9DF8063083F00103DBB2002B06D0FD
:104D3000039B1B6818460021FFF768FB05E0039BF7
:104D40001B6818462021FFF7FFFA039B1B792D4AA9
:104D50005B0113445B68002B47D1039B1B6818461B
:104D60004FF48871FFF7DEFA03468DF81730039B86
:104D70001B6818464FF4A271FFF7D4FA03468DF86A
:104D80001630039B1B6818464FF49271FFF7CAFA5E
:104D900003468DF815309DF8173083F00103DBB220
:104DA000002B0DD09DF8163083F00103DBB2002BF1
