:020000021000EC
:10F0000000000120F51D03001D1E03001F1E03004C
:10F01000211E0300231E0300251E03000000000024
:10F02000000000000000000000000000271E030098
:10F03000291E0300000000002B1E03002D1E0300EC
:10F04000291902002F1E0300792E0200A1150200CB
:10F050002F1E03002F1E0300F50C0200151A0200DC
:10F060002F1E03002F1E03002F1E03002F1E030060
:10F070002F1E03002F1E03002F1E03002F1E030050
:10F080002F1E0300713702002F1E03002F1E0300E6
:10F09000AD3702002F1E03003D5B02002F1E030050
:10F0A0002F1E03002F1E03002F1E03002F1E030020
:10F0B000F11602009D170200000000000000000091
:10F0C0002F1E03002F1E03002F1E03002F1E030000
:10F0D0002F1E03002F1E03002F1E03000000000040
:10F0E0000000000000000000000000000000000020
:10F0F0000000000000000000000000000000000010
:10F1000000000000000000000000000000000000FF
:10F1100000000000000000000000000000000000EF
:10F40000044B05481B1A062B02D9044B03B11847BD
:10F41000704700BF972800209428002000000000BB
:10F4200005490648091A891001EBD171491002D02B
:10F43000034B03B1184770479428002094280020FC
:10F440000000000010B5064C237843B9FFF7D8FF41
:10F45000044B13B10448AFF300800123237010BDA7
:10F46000A428002000000000B83A030008B5084BAB
:10F470001BB108480849AFF300800848036813B976
:10F48000BDE80840CCE7064B002BF9D09847F7E7DA
:10F4900000000000B83A0300A828002090280020AF
:10F4A00000000000134B002B08BF114B9D46A3F535
:10F4B000803A00218B460F461148124A121A00F07A
:10F4C00079F80D4B002B00D098470C4B002B00D047
:10F4D00098470020002104000D000B4800F016F8AA
:10F4E00000F042F82000290000F094FA00F014F82F
:10F4F00000000800000001200000000000000000E3
:10F50000A4280020C8D2002041F5010001460020B7
:10F510000246034600F056B808B5074B044613B13F
:10F52000002100F0ABF8054B1868836A03B19847D7
:10F53000204600F00DF900BF7DF60100E433030022
:10F5400038B5074B074CE41AA4101D4624B1013C02
:10F5500055F824309847F9E7BDE8384013F03ABF32
:10F560008C2800209028002070B50E4B0E4CE41A19
:10F57000A41000251E46A54204D056F82530984711
:10F580000135F8E713F020FF084C094BE41AA410EA
:10F5900000251E46A54204D056F82530984701356F
:10F5A000F8E770BD88280020882800208C280020DB
:10F5B0008828002002440346934202D003F8011B2E
:10F5C000FAE770472DE9F843294D2C6806460F46A7
:10F5D000914698460CB9274C2C6063681F2B14DDAC
:10F5E000254B1BB94FF0FF30BDE8F8838C20AFF3FB
:10F5F000008004460028F5D000232A68026043609A
:10F600002860C0F888303EB928E03EB3D4F88800BE
:10F6100078B9194B002BE5D04FF48470AFF300801C
:10F620000028DFD00023C0F80031C0F80431C4F84E
:10F630008800626840F822900123934000EB820129
:10F64000D0F800211A43022EC0F80021C1F88080B2
:10F6500002BFD0F804211343C0F8043163685A1C78
:10F6600002336260002044F82370BDE8F88300BFD5
:10F670004C290020C0280020000000002DE9F74F91
:10F6800080460F46304E3468002C59D06568D4F857
:10F69000889005F1FF3AAD0009EB050B04352544D0
:10F6A000BAF1000F38DB37B1B9F1000F2ED0DBF81B
:10F6B0007C20BA422AD161682A6801398A4516BF7E
:10F6C0000021C4F804A0296002B363680193B9F172
:10F6D000000F06D00121D9F8000101FA0AF1014218
:10F6E00001D190470BE0D9F80401014204D1404612
:10F6F0005BF8041C904702E05BF8040C90476268DA
:10F70000019B9342BED13268A242BBD10AF1FF3ABB
:10F71000ABF1040B043DC3E70C4B8BB1626823686B
:10F720005AB953B13360B9F1000F02D04846AFF374
:10F7300000802046AFF30080A5E726461C46A3E7DD
:10F7400003B0BDE8F08F00BF4C290020000000008E
:10F75000FEE700BFBFF34F8F0549054BDB6803F49D
:10F76000E062044B1343CB60BFF34F8F00BFFDE754
:10F7700000ED00E00400FA0548DF7047184600BFBE
:10F7800084B00190234B0393019B002B40D0224B6C
:10F790001A680399019B00BF00BF00BF00BF00BFF4
:10F7A00000BF00BF00BF8A422FD000BF00BF00BF14
:10F7B00000BF00BF00BF00BF00BF00BF00BF00BF51
:10F7C00000BF00BF00BF00BF00BF00BF00BF00BF41
:10F7D00000BF00BF00BF00BF00BF00BF00BF00BF31
:10F7E00000BF00BF00BF00BF00BF00BF00BF00BF21
:10F7F00000BF00BF00BF00BF00BF00BF00BF00BF11
:10F8000000BF00BF00BF00BF00BF013BC3D10193D9
:10F8100004B070470024F4006828002000B583B0CD
:10F820000190019B4FF47A7202FB03F31846FFF735
:10F83000A7FF03B05DF804FB08B50020054906F0FA
:10F8400059F811F0DBFF044B01221A70034B03221D
:10F850001A7008BDE83303005929002058290020F8
:10F8600008B50020054906F045F8054B00221A703E
:10F87000044B02221A70FFF76DFF08BD0834030025
:10F88000592900205829002000B587B01E4B1B685D
:10F8900018461E4907F016FA0590059B0493049B31
:10F8A000002B04D00498E521194A00F037F906F03E
:10F8B0007FFC0590059B0393039B002B04D00398CA
:10F8C000E821134A00F02AF907F06CFF0CF02CFD38
:10F8D00003460593059B0293029B002B04D00298DC
:10F8E000EF210B4A00F01AF906F0A2FB0590059BE8
:10F8F0000193019B002B04D00198F221044A00F0EF
:10F900000DF907B05DF804FB5029002098CD0020C8
:10F910002834030000B583B00C4B1B68184607F071
:10F9200061F90190019B0093009B002B04D000988B
:10F93000FA21074A00F0F2F80020064905F0DAFF44
:10F94000054B01221A7003B05DF804FB502900201A
:10F9500028340300703403005829002000B583B018
:10F960000190019B1B7A012B0AD0022B00D00EE0E4
:10F970000020084905F0BEFF074B02221A7006E07E
:10F980000020064905F0B6FFFFF7C4FF00BF03B033
:10F990005DF804FBA034030058290020C83403009C
:10F9A00082B0019002B0704700B58BB0079006910D
:10F9B0000592059B0993099B5A68099B1B88194668
:10F9C000099B9B6800920191029300200749079AC6
:10F9D000069B05F08FFF6420FFF720FF079806992C
:10F9E000059A00F0B3F80BB05DF804FBF0340300A7
:10F9F00000B583B003460091ADF80630BDF806307F
:10FA000003481946009A00F089F803B05DF804FB3A
:10FA1000EFBEADDE00B587B001F00CF8274800213D
:10FA20000C22FFF7C7FD254B254A1A60234B254AB8
:10FA30005A60224B00221A7220480121224A07F004
:10FA400097F90590059B0493049B002B05D004981F
:10FA500040F2F2311D4A00F061F81B4B1A686B4608
:10FA60001046194607F0E4F8059000238DF805309C
:10FA7000154B1A686B461046194607F0F9F80590C1
:10FA8000059B0393039B002B05D003984FF47F71D4
:10FA90000E4A00F043F8FFF7F7FEFFF73BFFFFF7D2
:10FAA0006BFE0590059B0293029B002B05D00298EC
:10FAB00040F20A41054A00F031F8F0E75C290020E5
:10FAC0005DF90100A1F9010050290020283403004C
:10FAD00012DF7047184600BF00B585B001900E4B8D
:10FAE0001B78002B10D10DF10B031846FFF7F0FF28
:10FAF00003909DF80B30002B03D0074B01221A70A6
:10FB000004E00223039301E008230393039B1846B8
:10FB100005B05DF804FB00BF6829002000B589B07E
:10FB2000039002910192029B9BB2ADF81430019BAD
:10FB30000693039B079305AB44F2010000211A468C
:10FB4000FFF732FF09B05DF804FB00BF86B00390F9
:10FB50000291019201238DF817309DF817301F4A4A
:10FB6000039B13601D4A029B53601C4A019B9360D8
:10FB7000039B44F20102934212D044F202029342E8
:10FB800022D1019B154AD360144BDB681B881A46AF
:10FB9000124B9A61114BDB685B68104AD36113E02A
:10FBA000019B0E4A13610D4B1B699B680B4A536105
:10FBB0000A4B1B691B881A46084B9A61074B1B6945
:10FBC0005B68064AD36100BF72B600BF9DF817306C
:10FBD000DBB2002BFAD162B606B070476C29002068
:10FBE00071DF7047184600BF72DF7047184600BFCC
:10FBF00079DF7047184600BF7DDF7047184600BFA9
:10FC000065DF7047184600BF82B003460091ADF82B
:10FC10000630BDF80630DAB2009B1A70009B013343
:10FC2000BDF80620120A92B2D2B21A700223184608
:10FC300002B0704786B0039002910192ADF8023095
:10FC4000019B1B8803F11202BDF802309A4201D9D0
:10FC50000C2339E0019B1B881A46029B1344112296
:10FC60001A70019B1B8801339AB2019B1A80019B79
:10FC70001B881A46029B134410221A70019B1B8892
:10FC800001339AB2019B1A800F238DF8173016E0CA
:10FC9000019B1B881A46029B13449DF91720039968
:10FCA0008A5C1A709DF81730DBB2013BDBB28DF82D
:10FCB0001730019B1B8801339AB2019B1A809DF972
:10FCC0001730002BE4DA0023184606B0704700BF57
:10FCD00084B0029101921A4603468DF80F30134604
:10FCE000ADF80C30019B1B88DA1CBDF80C309A4231
:10FCF00001D90C2353E0019B1B881A46029B134435
:10FD000002221A70019B1B8801339AB2019B1A8050
:10FD1000019B1B881A46029B13441C221A70019BEC
:10FD20001B8801339AB2019B1A809DF80F30013B6A
:10FD3000032B2BD801A252F823F000BF4DFD010088
:10FD40005DFD01006DFD01007DFD0100019B1B8833
:10FD50001A46029B134400221A7019E0019B1B886B
:10FD60001A46029B134401221A7011E0019B1B8862
:10FD70001A46029B134402221A7009E0019B1B8859
:10FD80001A46029B134403221A7001E0072306E07F
:10FD9000019B1B8801339AB2019B1A8000231846ED
:10FDA00004B0704700B589B0039002911346ADF8D6
:10FDB0000630029B1B8803F10902BDF806309A4207
:10FDC00001D90C234FE005AB1846FFF709FF079058
:10FDD000079B002B01D0079B45E0029B1B881A461E
:10FDE000039B134408221A70029B1B8801339AB2AA
:10FDF000029B1A80029B1B881A46039B13441B22FA
:10FE00001A70029B1B8801339AB2029B1A80029BD4
:10FE10001B881A46039B1A4405AB0133104619464A
:10FE2000062213F0B5FA029B1B8806339AB2029B96
:10FE30001A809DF81430002B07D1029B1B881A46AC
:10FE4000039B134400221A7006E0029B1B881A468B
:10FE5000039B134401221A70029B1B8801339AB240
:10FE6000029B1A800023184609B05DF804FB00BF0E
:10FE700000B589B0039002910192ADF80230039B66
:10FE80001B78012B05D1039B5B78002B01D1072345
:10FE900089E0019B1B889A1CBDF802309A420ED85B
:10FEA000039B1B78012B0CD1019B1B881A46039BDB
:10FEB0005B7813449A1CBDF802309A4201D90C2396
:10FEC00071E0019B1B88BDF80220D31A9BB2023B54
:10FED000ADF81C30BDF81C30ADF81630019B1B8806
:10FEE0000233029A1A440DF1160310461946FFF721
:10FEF00083FE0690069B002B01D0069B53E0039BDC
:10FF00001B78022B09D1BDF81630BDF81C209A428F
:10FF100003D309238DF81F3017E008238DF81F3015
:10FF2000039B1B78012B0CD1039B5B789BB2BDF824
:10FF30001C209A4205D3039B5B789BB2ADF8163028
:10FF400003E0BDF81C30ADF81630BDF81630FE2BBE
:10FF500001D90C2327E0019B1B881A46029B1344FE
:10FF6000BDF81620D2B20132D2B21A70019B1B88A2
:10FF700001339AB2019B1A80019B1B881A46029B8F
:10FF800013449DF81F201A70019B1B8801339AB2FD
:10FF9000019B1A80019B1A88BDF8163013449AB24F
:10FFA000019B1A800023184609B05DF804FB00BFCE
:10FFB00000B587B0039002911346ADF80630029B5E
:10FFC0001B881A1DBDF806309A4201D90C2339E06E
:10FFD0000DF112031846FFF70BFE0590059B002B51
:10FFE00001D0059B2EE0029B1B881A46039B1344FD
:10FFF00003221A70029B1B8801339AB2029B1A805B
:020000022000DC
:10000000029B1B881A46039B134419221A70029BF9
:100010001B8801339AB2029B1A80BDF81220029B02
:100020001B881946039B0B4410461946FFF7ECFD4D
:1000300003461946029B1A888BB213449AB2029B5C
:100040001A800023184607B05DF804FB84B00291C3
:1000500001921A4603468DF80F301346ADF80C3066
:10006000019B1B88DA1CBDF80C309A4201D90C2385
:1000700028E0019B1B881A46029B134402221A7037
:10008000019B1B8801339AB2019B1A80019B1B883C
:100090001A46029B134401221A70019B1B880133EC
:1000A0009AB2019B1A80019B1B881A46029B13443B
:1000B0009DF80F201A70019B1B8801339AB2019B97
:1000C0001A800023184604B0704700BF84B0029124
:1000D00001921A4603468DF80F301346ADF80C30E6
:1000E000019B1B88DA1CBDF80C309A4201D90C2305
:1000F00028E0019B1B881A46029B134402221A70B7
:10010000019B1B8801339AB2019B1A80019B1B88BB
:100110001A46029B134411221A70019B1B8801335B
:100120009AB2019B1A80019B1B881A46029B1344BA
:100130009DF80F201A70019B1B8801339AB2019B16
:100140001A800023184604B0704700BF84B00291A3
:1001500001921A4603468DF80F301346ADF80C3065
:10016000019B1B88DA1CBDF80C309A4201D90C2384
:1001700028E0019B1B881A46029B134402221A7036
:10018000019B1B8801339AB2019B1A80019B1B883B
:100190001A46029B13440A221A70019B1B880133E2
:1001A0009AB2019B1A80019B1B881A46029B13443A
:1001B0009DF80F201A70019B1B8801339AB2019B96
:1001C0001A800023184604B0704700BF00B58BB0FA
:1001D000039001930B468DF80B3013468DF80A30CF
:1001E00000238DF823300C9B1B88ADF820300023B2
:1001F000099370E0039B5A68099B9B001A4404AB67
:100200001068186004AA0DF1170310461946002261
:10021000FFF7F6FC0790079B002B01D0079B7CE0C3
:100220009DF817309DF80A209A4251D19DF823304D
:10023000002B01D0002300E002238DF81B300C9B23
:100240001B881A469DF817301A449DF81B301A4433
:10025000BDF834309A4201DD0C235EE09DF8233076
:1002600083F00103DBB2002B16D00C9B1B880133FB
:100270009AB20C9B1A800C9B1B881A46019B134454
:100280009DF80B201A700C9B1B8801339AB20C9BB3
:100290001A8001238DF823300C9B1B881A46019B82
:1002A000134404A90DF11702084611461A46FFF738
:1002B000A7FC0790079B002B01D0079B2DE00C9B10
:1002C0001A889DF817309BB213449AB20C9B1A807F
:1002D000099B01330993039B1B881A46099B9A4289
:1002E00088DC9DF82330002B16D00C9B1A88BDF8B3
:1002F0002030D31A9BB2013BADF81830BDF818304E
:10030000FF2B01D90C2308E0BDF82030019A1344DB
:10031000BDF81820D2B21A70002318460BB05DF851
:1003200004FB00BF00B589B0059003930B468DF820
:10033000133013468DF812309DF813200A9B00935A
:10034000BDF82C300193059811460222039BFFF75C
:100350003DFF0790079B002B01D0079B13E09DF802
:1003600012200A9B0093BDF82C300193059811468A
:100370001022039BFFF72AFF0790079B002B01D059
:10038000079B00E00023184609B05DF804FB00BF9E
:1003900082B00190019B1B88052B0AD9019B1B8809
:1003A000B3F5486F07D9019B1B884FF6FF72934244
:1003B00001D0072325E0019B5B88052B0AD9019B0F
:1003C0005B88B3F5486F07D9019B5B884FF6FF72D6
:1003D000934201D0072314E0019B1B884FF6FF7264
:1003E00093420DD0019B5B884FF6FF72934207D07A
:1003F000019B1A88019B5B889A4201D9072300E080
:100400000023184602B0704700B587B003900291F0
:100410000192ADF80230019B1B889A1DBDF8023095
:100420009A4201D90C234BE00398FFF7B1FF0590E6
:10043000059B002B01D0059B42E0019B1B881A46BF
:10044000029B134405221A70019B1B8801339AB248
:10045000019B1A80019B1B881A46029B134412229F
:100460001A70019B1B8801339AB2019B1A80039B6F
:100470001A88019B1B881946029B0B44104619469B
:10048000FFF7C2FB03461946019B1A888BB213443F
:100490009AB2019B1A80039B5A88019B1B881946BC
:1004A000029B0B4410461946FFF7AEFB0346194664
:1004B000019B1A888BB213449AB2019B1A800023C5
:1004C000184607B05DF804FB00B587B003900291B1
:1004D0000192ADF80230039B9B8802330593019B88
:1004E0001B881A46059B13449A1CBDF802309A4299
:1004F00001D90C2356E0059BFE2B01D90C2351E0BA
:10050000019B1B881A46029B1344059AD2B2013202
:10051000D2B21A70019B1B8801339AB2019B1A80D8
:10052000019B1B881A46029B1344FF221A70019BF1
:100530001B8801339AB2019B1A80039B1A88019B86
:100540001B881946029B0B4410461946FFF75CFBBB
:1005500003461946019B1A888BB213449AB2019B39
:100560001A80039B9B88002B1BD0039B9B68002B4E
:1005700001D1072316E0019B1B881A46029B99189C
:10058000039B9A68039B9B88084611461A4612F003
:10059000FFFE019B1A88039B9B8813449AB2019B20
:1005A0001A800023184607B05DF804FB00B589B037
:1005B000039002910192ADF80230039B9B6A002BDD
:1005C00001D1072374E000238DF81F3068E0039BFE
:1005D000996A9DF81F2013465B0013449B000B444F
:1005E0000693069B9B8802330593059BFE2B01D93E
:1005F0000C235DE0019B1B881A46029B1344059A5D
:10060000D2B20132D2B21A70019B1B8801339AB266
:10061000019B1A80019B1B881A46029B13441622D9
:100620001A70019B1B8801339AB2019B1A80069BAA
:100630001A88019B1B881946029B0B4410461946D9
:10064000FFF7E2FA03461946019B1A888BB213445E
:100650009AB2019B1A80069B9B88002B1BD0069B9D
:100660009B68002B01D1072322E0019B1B881A46BF
:10067000029B9918069B9A68069B9B880846114620
:100680001A4612F085FE019B1A88069B9B8813442C
:100690009AB2019B1A809DF81F3001338DF81F30EC
:1006A000039B93F82C309DF81F209A428FD3002390
:1006B000184609B05DF804FB00B589B005900491B7
:1006C000039200230793039B1B88ADF81A30039B0A
:1006D00000221A80059B5B6B002B0FD0059B5B6B88
:1006E0001A78BDF81A3010460499039AFFF7EEFC09
:1006F0000790079B002B01D0079B06E1059B1B6B16
:10070000002B0ED0059B1A6BBDF81A3010460499C9
:10071000039AFFF78FFA0790079B002B01D0079BE6
:10072000F3E0059B93F82E30002B0FD0059B93F838
:100730002E20BDF81A3010460499039AFFF7C8FA24
:100740000790079B002B01D0079BDEE0059B93F8E9
:100750002D30002B0CD0BDF81A30049803991A469E
:10076000FFF720FB0790079B002B01D0079BCCE0F5
:10077000059B9B78002B0CD0BDF81A300498039988
:100780001A46FFF715FC0790079B002B01D0079B2B
:10079000BBE0059BDB78002B10D0059BDB78DBB240
:1007A0005AB2BDF81A3010460499039AFFF74EFC6E
:1007B0000790079B002B01D0079BA6E0059B5B6879
:1007C000002B10D0059B5B681B785AB2BDF81A301D
:1007D00010460499039AFFF7B9FC0790079B002B7A
:1007E00001D0079B91E0059B1B89002B13D0059B33
:1007F00003F10802039B0093BDF81A3001931046E1
:1008000002210622049BFFF78DFD0790079B002B1A
:1008100001D0079B79E0059B1B8A002B13D0059B19
:1008200003F11002039B0093BDF81A3001931046A8
:1008300003210722049BFFF775FD0790079B002B00
:1008400001D0079B61E0059B1B8B002B13D0059B00
:1008500003F11802039B0093BDF81A300193104670
:1008600014211522049BFFF75DFD0790079B002BC9
:1008700001D0079B49E0059B1B6A002B0ED0059B0E
:100880001A6ABDF81A3010460499039AFFF7BCFDA6
:100890000790079B002B01D0079B36E0059B5B6A06
:1008A000002B0ED0059B5A6ABDF81A3010460499E9
:1008B000039AFFF709FE0790079B002B01D0079BC7
:1008C00023E0059B93F82C30002B0CD0BDF81A3098
:1008D00005980499039AFFF769FE0790079B002B80
:1008E00001D0079B11E0059B1B78002B0CD0BDF8B5
:1008F0001A3005980499039AFFF7BAFA0790079BF4
:10090000002B01D0079B00E0079B184609B05DF85B
:1009100004FB00BF82B00190019BDB7803F004036D
:10092000002B01D1072300E00023184602B07047D6
:1009300082B00190019BDB78002B01D0072300E0FF
:100940000023184602B0704700B597B0019000919F
:100950001F23ADF84A301F23ADF84830019B002B10
:1009600019D00198FFF7D6FF1390139B002B01D0ED
:10097000139B42E00AAA0DF14A03019811461A4658
:10098000FFF79AFE1390139B002B01D0139B34E0CA
:100990000AAB159304E0002315930023ADF84A3009
:1009A000009B002B18D00098FFF7C2FF1390139BF9
:1009B000002B01D0139B20E002AA12AB0098114635
:1009C0001A46FFF779FE1390139B002B01D0139B5F
:1009D00013E002AB149304E0002314930023ADF85A
:1009E0004830BDF84A30DAB2BDF84830DBB215986D
:1009F0001146149AFFF7F8F80346184617B05DF849
:100A000004FB00BF00B583B00190019B1B78022B53
:100A10000AD0019B1B78012B06D1019B5B6818460D
:100A20002921034AFFF77AF803B05DF804FB00BF01
:100A30004C36030030B58DB000230B930E4B05AC44
:100A40001D460FCD0FC495E8030084E803000B4B4F
:100A50000193012302930A4B03934FF480630493A1
:100A600005AA01AB10461946064A022304F01AFAF9
:100A70000B900DB030BD00BFA43603008C290020C0
:100A800090290020050A020082B003468DF8073045
:100A900007499DF907305B099DF8072002F01F0206
:100AA000012000FA02F241F8232002B0704700BF93
:100AB00000E100E082B003468DF8073007499DF958
:100AC00007305B099DF8072002F01F02012000FAA1
:100AD00002F2603341F8232002B0704700E100E0E9
:100AE00082B0034600918DF807309DF90730002B46
:100AF0000CDA0C499DF8073003F00F03043B009A11
:100B0000D2B25201D2B20B441A7609E006499DF9DD
:100B10000730009AD2B25201D2B20B4483F80023BC
:100B200002B0704700ED00E000E100E000B583B0E6
:100B300003460A468DF8073013468DF806309DF8B7
:100B400006309DF9072010461946FFF7C9FF9DF9A9
:100B500007301846FFF7AEFF9DF907301846FFF73C
:100B600093FF03B05DF804FB00B583B00346ADF816
:100B70000630BDF80630184600F026F803461B681C
:100B8000012B0CBF01230023DBB2184603B05DF834
:100B900004FB00BF00B585B00346ADF80630BDF8D4
:100BA0000630184600F010F803461A46002313607A
:100BB000BDF80630184600F007F803461B6803939B
:100BC000039B05B05DF804FB82B00346ADF8063028
:100BD000BDF8063003F1804303F5C043184602B068
:100BE000704700BF82B00190034BD3F80423019BF0
:100BF0001340184602B070470060004082B0019078
:100C0000054A019B03F5A27352F8233003F4F8530D
:100C10001B0A184602B070470060004082B0019085
:100C2000064A019B03F5A27352F8233003F44033C4
:100C30001B0CDBB2184602B0704700BF00600040DA
:100C400082B001900B468DF803304FF0A0414FF079
:100C5000A042019B03F5E07352F8233023F44032A5
:100C6000019B03F5E07341F823204FF0A0414FF0C2
:100C7000A042019B03F5E07352F823309DF8032056
:100C800012041A43019B03F5E07341F8232002B0DC
:100C9000704700BF4FF0A043D3F810351846704797
:100CA00082B001904FF0A042019B03F5E07352F82F
:100CB000233003F440331B0CDBB2184602B07047FC
:100CC00082B00190044A019B134440331B785BB20D
:100CD000184602B0704700BF902D002082B00190EE
:100CE000034A019B52F82330184602B0704700BFF8
:100CF000902D002000B593B0002311930023109392
:100D00004FF48073ADF83A3001230D9300230F9315
:100D100021E0BDF83A301846FFF726FF0346002BC6
:100D20000ED00D98FFF75EFF0346002B08D0BDF8EC
:100D30003A301846FFF72EFF119A0D9B134311937B
:100D40000D9B5B000D93BDF83A300433ADF83A309B
:100D50000F9B01330F930F9B072BDAD94FF4BE7013
:100D6000FFF702FF0346002B0AD04FF4BE70FFF7D7
:100D700011FF119B43F000431193FFF78BFF10907D
:100D8000119BDBB2002B29D001230D9300230F937D
:100D900021E00D9A119B1340002B16D00F98FFF7FE
:100DA0002DFF09900F98FFF739FF03468DF8233088
:100DB0000F98FFF793FF0790079B002B05D09DF836
:100DC0002320079B0998114698470D9B5B000D93C4
:100DD0000F9B01330F930F9B072BDAD9119B002B2D
:100DE00080F2A38000238DF8333000230B934FF063
:100DF000FF330A9300238DF8333000230F9379E0FB
:100E00004B4A0F9B134460331B788DF81B309DF8C1
:100E10001B3023F0C0030593454A0F9B13446033F6
:100E20001B785BB2B3F1FF3F61D0059B0A9A22FAAF
:100E300003F303F00103002B59D09DF81B309B09ED
:100E40008DF813300598FFF73BFF03461846FFF770
:100E500045FF0390039B002B03D19DF81330032B18
:100E600045D1059B012202FA03F30D939DF813303F
:100E7000032B03D10B9A0D9B13430B930598FFF79C
:100E80000FFF03468DF80B300D9A109B1340002B7B
:100E900003D09DF80B30022B08D00D9A109B134005
:100EA000002B24D19DF80B30032B20D19DF813305B
:100EB000032B13D19DF80B30022B01D1032300E04B
:100EC00002238DF80A309DF80A3005981946FFF77D
:100ED000B7FE9DF8333001338DF83330039B002B80
:100EE00005D09DF81320039B0598114698470F9B4A
:100EF00001330F930F9B072B82D99DF83330002BC2
:100F00000ED0FFF7C7FE0190019A109B9A4203D1C1
:100F100000238DF8333003E0019B10930B9B0A9361
:100F20009DF83330002B7FF465AF13B05DF804FB00
:100F3000902D002082B001900B468DF803309DF873
:100F40000330019A134401221A6002B0704700BFB7
:100F500084B001900B46ADF80230BDF80230019A22
:100F6000134400221A60BDF80230019A13441B6832
:100F70000393039B04B0704782B001900B46ADF819
:100F80000230BDF80230019A13441B68002B14BFD5
:100F900001230023DBB2184602B0704782B00190F3
:100FA0000091019B009AC3F8042302B0704700BF70
:100FB00084B00190019BD3F8C4340393019B039A3E
:100FC000C3F8C424039B184604B0704782B0019054
:100FD000019BD3F81835DBB2184602B0704700BF4A
:100FE00082B001900B468DF803309DF80320019BE1
:100FF000C3F81C2502B0704782B001900091019B9C
:10100000009AC3F8002202B0704700BF84B001907C
:1010100003230393019B03F00103002B02D04FF441
:1010200002430393019B03F00203002B02D048F21A
:1010300001230393019B03F00403002B02D048F229
:1010400002230393039B184604B0704700B585B094
:1010500003900291009313468DF80730009B1B7894
:101060009DF807209A4210D9009B1B781A46029BD4
:1010700013441B7803981946FFF7B2FF009B1B78B7
:101080000133DAB2009B1A700DE09DF81830002B86
:1010900005D003981C21FFF74DFF002304E00398BF
:1010A0001421FFF747FF0123184605B05DF804FB44
:1010B00010B584B003900291009313468DF8073069
:1010C000009B1B789DF807209A4227D9009B1B782C
:1010D0001A46029B9C180398FFF778FF034623707B
:1010E000009B1B780133DAB2009B1A70009B1B78BF
:1010F0001A469DF80730013B9A4204D10398022119
:10110000FFF77AFF06E0009B1B789DF807209A42C4
:1011100000D103E003982021FFF70CFF04B010BDBD
:1011200000B589B00590049103920293049B1B784B
:10113000002B05D1039B1B789DF828209A4201D1F2
:10114000012300E000238DF81F309DF81F3003F0CD
:1011500001038DF81F30049B1B78002B0FD00598DE
:101160004FF49271FFF7F4FE05984FF48E71FFF77C
:10117000EFFE05984FF48471FFF7EAFE72E00598E0
:101180004FF49271FFF7F8FE0346002B0CD0059840
:101190004FF49271FFF7DCFE05981421FFF7CAFEA9
:1011A000049B01221A705DE005984FF48E71FFF7E1
:1011B000E3FE0346002B2BD005984FF48E71FFF70A
:1011C000C7FE05984FF49271FFF7D6FE0346002B39
:1011D0000CD005984FF49271FFF7BAFE05981421D0
:1011E000FFF7A8FE049B01221A703BE09DF828201F
:1011F0009DF82C30009305980299039BFFF726FF7A
:10120000034683F00103DBB2002B2BD000233DE02B
:1012100005984FF48471FFF7AFFE0346002B21D0F1
:1012200005984FF48471FFF793FE05984FF492717F
:10123000FFF7A2FE0346002B0CD005984FF49271E5
:10124000FFF786FE05981421FFF774FE049B012228
:101250001A7007E09DF82830059802991A46039BFA
:10126000FFF726FF9DF81F30002B0ED005984FF496
:101270008271FFF781FE0346002B06D005984FF4DC
:101280008271FFF765FE002300E00123184609B0D4
:101290005DF804FB10B588B00590049103928DF8B9
:1012A0000B300023079304984FF48271FFF750FE30
:1012B00004984FF49271FFF74BFE04984FF48E712F
:1012C000FFF746FE04984FF48471FFF741FE04983F
:1012D0000021FFF791FE059B002283F82620059B45
:1012E000002283F8232004982021FFF723FE04988E
:1012F0000821FFF71FFE059B03F126049DF80B2034
:101300009DF828300093049803992346FFF79EFE2A
:10131000059B1B68002B0AD0059B40F286229A6031
:10132000059B9B6804981946FFF738FE23E000BF31
:10133000059B03F12301059B03F126029DF80B3069
:1013400000939DF8283001930498039BFFF7E8FE73
:101350000346002BECD1059B93F82330002B0AD0D9
:101360000498FFF725FE0690069B002B03D00698F5
:10137000FFF74CFE0790079B184608B010BD00BF52
:1013800000B589B00590049103928DF80B300023CD
:10139000079304984FF48271FFF7DAFD04984FF435
:1013A0009271FFF7D5FD04984FF48E71FFF7D0FDD1
:1013B00004984FF48471FFF7CBFD059B002283F85E
:1013C0002620059B002283F823209DF80B30012B5B
:1013D00004D104980221FFF70FFE03E004980121D5
:1013E000FFF70AFE04982021FFF7A4FD04980021CE
:1013F000FFF7A0FD059B1B68002B0AD0059B40F260
:1014000086229A60059B9B6804981946FFF7C6FDE3
:1014100022E000BF059B03F12301059B03F1260297
:101420009DF80B300093002301930498039BFFF772
:1014300077FE0346002BEDD1059B93F82330002B5C
:101440000AD00498FFF7B4FD0690069B002B03D04A
:101450000698FFF7DBFD0790079B184609B05DF87B
:1014600004FB00BF30B58BB003900291029B03F1E7
:101470002301029B03F12605029BDC69029B93F882
:101480002020029B93F821300092019303982A4672
:101490002346FFF745FE0346002B00D07EE0029B6B
:1014A00093F8233083F00103DBB2002B3FD0029B83
:1014B0001B7B022B03D0029B1B7B032B37D1029B90
:1014C000DA69029B1B699A4231D1029B5A69029BDD
:1014D000DA61029BDA7B029B83F82020029B9B69E6
:1014E00003F02003002B14BF01230023DAB2029B78
:1014F00083F82120029B1B7B032B0ED1029BDA6910
:10150000029B93F82040029B93F8213000930298AD
:1015100003992346FFF7BEFE40E0029BDA69029B77
:1015200093F8203002980399FFF72AFF36E0029AD9
:1015300006AB0C3207CA83E80700029B93F82330FE
:10154000002B16D00398FFF733FD0990099B03F099
:101550000203002B03D001238DF8143008E0099B0F
:1015600003F00403002B03D002238DF8143003E0B2
:1015700002E000238DF81430029B002283F824201F
:10158000029B9B6903F00403002B07D1029B1B689D
:10159000029A526805A90846114698470BB030BD1B
:1015A00008B502480249FFF75DFF08BD0030004062
:1015B000FC2D002084B001900B46ADF80230BDF840
:1015C0000230019A134400221A60BDF80230019AD9
:1015D00013441B680393039B04B0704782B00190CF
:1015E0000B46ADF80230BDF80230019A13441B6877
:1015F000002B14BF01230023DBB2184602B0704752
:1016000082B001900B468DF80330019BD3F8042380
:101610009DF803301340002B14BF01230023DBB2DD
:10162000184602B0704700BF00B583B0019000912A
:1016300001981021FFF7E4FF0346002B10D001981A
:101640004FF48871FFF7CAFF0346002B08D00198BA
:101650004FF48871FFF7AEFF009B1B68012098478D
:1016600001982021FFF7CCFF0346002B10D00198F2
:101670004FF48A71FFF7B2FF0346002B08D00198A0
:101680004FF48A71FFF796FF009B1B680220984772
:1016900001988021FFF7B4FF0346002B10D001987A
:1016A0004FF48E71FFF79AFF0346002B08D0019884
:1016B0004FF48E71FFF77EFF009B1B680020984758
:1016C00001984FF48271FFF789FF0346002B0BD07E
:1016D00001984FF48271FFF76DFF009B01221A7190
:1016E000009B1B680320984703B05DF804FB00BF14
:1016F00008B502480249FFF797FF08BD00C0014046
:10170000242E002082B00346ADF80630BDF8063026
:1017100003F1804303F5E8331B68002B14BF01235A
:101720000023DBB2184602B0704700BF84B0034606
:10173000ADF80630BDF8063003F1804303F5E83319
:1017400000221A60BDF8063003F1804303F5E83348
:101750001B680393039B04B0704700BF024B002239
:10176000C3F80025704700BF00D0014082B001904F
:101770000091054A019BC2F86035034A009BC2F8FC
:10178000643502B0704700BF00D00140024BD3F86F
:1017900060351846704700BF00D0014008B54FF4CF
:1017A0008470FFF7AFFF0346002B1ED04FF4847008
:1017B000FFF7BCFFFFF7EAFF0246284BDB689A42BF
:1017C00009D1264B5B68254A1169244A12890846CB
:1017D0001146984740E0214B5B68204AD1681F4A78
:1017E000128908461146984736E04FF48070FFF79B
:1017F00089FF0346002B1FD04FF48070FFF796FF40
:10180000164B01225A70FFF7C1FF0246134BDB68EB
:101810009A4208D1114B1A69104B1B891046194680
:10182000FFF7A4FF18E00D4BDA680C4B1B8910463C
:101830001946FFF79BFF0FE04FF48270FFF762FF3E
:101840000346002B08D04FF48270FFF76FFFFFF7BD
:1018500085FF024B00225A7008BD00BF2C2E0020CD
:1018600082B001904FF08042019BC2F8083302B071
:10187000704700BF84B00346ADF80630BDF80630AF
:1018800003F1804300221A60BDF8063003F1804363
:101890001B680393039B04B0704700BF82B00346EC
:1018A000ADF80630BDF8063003F180431B68002B0D
:1018B00014BF01230023DBB2184602B0704700BFFB
:1018C00084B00190019B1B680393039B002B03D002
:1018D000039B1A68019B1A60039B184604B070476B
:1018E00000B585B003468DF807309DF80730002B12
:1018F00002D10B4B039301E00A4B03930398FFF7CC
:10190000DFFF0290029B002B00D106E0029B5B6888
:101910009DF8072010469847F0E705B05DF804FBF6
:10192000482E0020502E002008B54FF48070FFF79D
:10193000B5FF0346002B0CD04FF48070FFF79AFFE1
:101940000120FFF78DFF0D4B01225A700020FFF799
:10195000C7FF4FF48270FFF7A1FF0346002B0CD0A6
:101960004FF48270FFF786FF0220FFF779FF034BE9
:1019700001229A700120FFF7B3FF08BD402E00201E
:1019800082B003468DF807309DF8073003F180439D
:1019900003F5E04301221A6002B0704782B00346AB
:1019A000ADF80630BDF8063003F1804303F5E0439F
:1019B0001B68002B14BF01230023DBB2184602B0C2
:1019C000704700BF84B00346ADF80630BDF806305E
:1019D00003F1804303F5E04300221A60BDF80630AE
:1019E00003F1804303F5E0431B680393039B04B0BA
:1019F000704700BF82B001900091054A019BC2F878
:101A00002C36034A009BC2F8303602B0704700BF44
:101A10000070004000B58DB04FF48270FFF7BEFF3C
:101A20000346002B43D04FF48270FFF7CBFF9D4B52
:101A300093F82B3083F00103DBB2002B04D1994BD8
:101A400093F82C30002B32D000238DF81830954BB2
:101A50005B680793934B1B899BB2ADF82030914B89
:101A6000DB68002B04D18F4B002283F8292015E07E
:101A70008C4BDB688B4A53608A4B9A8A894B1A815C
:101A8000884B0022DA60874B93F82B3083F00103F8
:101A9000DBB2002B02D00020FFF772FF814B1B68E6
:101AA00006AA104698477F4B002283F82C207D4BD6
:101AB00093F82B30002B00F085804FF48070FFF7F7
:101AC0006DFF0346002B7DD04FF48070FFF77AFF47
:101AD000744BDB8A002B1DD1724B1B899AB2714B60
:101AE00093F82A309BB2D31A9AB26E4BDA826D4BBE
:101AF0005A686C4B1B899BB219466A4BDB8ACB1A1E
:101B00005B001A44674B93F82A3010461946FFF7DA
:101B100071FF50E0634BDA8A624B93F82A309BB234
:101B20009A421CD95F4BDA8A5E4B93F82A309BB2FB
:101B3000D31A9AB25B4BDA825A4B5A68594B1B89BB
:101B40009BB21946574BDB8ACB1A5B001A44554BA4
:101B500093F82A3010461946FFF74CFF2BE0514B03
:101B6000DA8A504B93F82A309BB29A4214D14D4BEB
:101B7000DB68002B10D04B4B012283F82C20494B03
:101B80000022DA82474BDA68464B93F82A30104637
:101B90001946FFF72FFF0EE0424BDA8A414B93F8CC
:101BA0002A309BB29A4206D13E4B012283F82C2068
:101BB0003C4B0022DA824FF48270FFF703FF0420CF
:101BC000FFF7DEFE4FF48870FFF7E8FE0346002BB8
:101BD0000FD04FF48870FFF7F5FE324B002283F8E8
:101BE000292002238DF80C302E4B1B6803AA1046C7
:101BF00098474FF48A70FFF7D1FE0346002B08D0B8
:101C00004FF48A70FFF7DEFE264B002283F829206E
:101C100044E0244B1B690B933DE00B9BB3FA83F329
:101C20000A930A9B4FF0004222FA03F3DB430B9A1C
:101C300013400B930A9B9BB246339BB29B00ADF8BB
:101C40002630BDF826301846FFF7A8FE0346002BC5
:101C500021D0BDF826301846FFF7B4FE01238DF8D9
:101C60000030BDF82630A3F58C73DB08DBB28DF8AD
:101C70000430BDF82630A3F58C7303F00403002B69
:101C80000CBF01230023DBB28DF80530054B1B6828
:101C90006A46104698470B9B002BBED10DB05DF8ED
:101CA00004FB00BF542E002084B001900B46ADF819
:101CB0000230BDF80230019A134400221A60BDF8C8
:101CC0000230019A13441B680393039B04B07047CE
:101CD00082B001900B46ADF80230BDF80230019A97
:101CE00013441B68002B14BF01230023DBB21846EA
:101CF00002B0704782B001900091019B009AC3F836
:101D0000042302B0704700BF82B001900091019B94
:101D1000D3F80423009B1340002B14BF012300239E
:101D2000DBB2184602B0704782B001900091019B6F
:101D3000009AC3F8082302B0704700BF84B0019036
:101D4000019BD3F880340393019B039AC3F880244A
:101D5000039B184604B0704782B00190019B042297
:101D6000C3F8002502B0704784B00390029101923D
:101D7000039B029AC3F80C25039B019AC3F8142510
:101D800004B0704784B0039002910192039B029AC1
:101D9000C3F80825039B019AC3F8102504B07047C7
:101DA00082B00190019BD3F81835DBB2184602B01F
:101DB000704700BF82B001900B468DF803309DF84C
:101DC0000320019BC3F81C2502B0704782B001902C
:101DD0000B468DF803309DF80330019A134401221D
:101DE0001A6002B0704700BF82B001900B468DF8B8
:101DF000033013468DF802309DF803209DF8023021
:101E00001343DBB21A46019BC3F86C2502B070473E
:101E100082B001900091019B009AC3F8242502B082
:101E2000704700BF84B001900B46ADF80230BDF89A
:101E30000230019A134400221A60BDF80230019A60
:101E400013441B680393039B04B0704782B0019056
:101E50000B46ADF80230BDF80230019A13441B68FE
:101E6000002B14BF01230023DBB2184602B07047D9
:101E700082B001900091019BD3F80022009B1A438D
:101E8000019BC3F8002202B0704700BF82B00190EE
:101E90000091019BD3F80022009BDB431A40019B79
:101EA000C3F8002202B0704782B001900091019BFC
:101EB000009AC3F8042302B0704700BF82B00190BB
:101EC0000091019B009AC3F8082302B0704700BF3D
:101ED00084B00190019BD3F880340393019B039A53
:101EE000C3F88024039B184604B0704782B0019069
:101EF000019B0822C3F8002502B0704784B003900C
:101F000002910192039B029AC3F80C25039B019A4C
:101F1000C3F8142504B0704784B003900291019275
:101F2000039B029AC3F80825039B019AC3F8102566
:101F300004B0704782B001900B468DF803309DF8D5
:101F40000330019A134401221A6002B0704700BFA7
:101F500082B001900B468DF8033013468DF80230A5
:101F60009DF803209DF802301343DBB21A46019B13
:101F7000C3F86C2502B0704782B001900091019BBC
:101F8000009AC3F8242502B0704700BF84B00390C4
:101F9000029113468DF80730029A039BC3F844253B
:101FA0009DF80720039BC3F8482504B0704700BF85
:101FB00082B00190019BD3F84C35184602B07047AF
:101FC00084B00390029113468DF80730029A039B68
:101FD000C3F834259DF80720039BC3F8382504B0C7
:101FE000704700BF82B00190019BD3F83C35184682
:101FF00002B0704784B00190019B1B0B8DF80F302D
:102000009DF80F305BB2184604B0704782B0019063
:10201000084611461A4603468DF803300B468DF8E4
:10202000023013468DF801304FF0A0419DF8032097
:102030009DF802305B001A439DF801309B001A4363
:102040009DF808301B021A439DF80C301B041A43FC
:10205000019B03F5E07341F8232002B0704700BFF5
:1020600000B585B0039000230093002301930398EB
:10207000012101220023FFF7C9FF05B05DF804FB31
:1020800010B584B003900B468DF80B309DF80B40D3
:10209000002300930023019303980021002223468C
:1020A000FFF7B4FF04B010BD82B001904FF0A04222
:1020B000019B012101FA03F3C2F8083502B0704711
:1020C00000B583B001900091009B1B681846FFF794
:1020D000EBFF009B1B681846FFF7C2FF009B5B6885
:1020E00018460021FFF7CCFF019B1B79424A5B0198
:1020F000134418331B79002B3DD0019B1A68009BB9
:102100009B6910461946FFF737FF019B1968009B32
:102110005A7D009B1B7D084611461A46FFF718FFA3
:10212000019B1968009B1A68009B5B680846114672
:102130001A46FFF7E3FE009B1B7D012B58D1009B45
:102140009B6818460021FFF79BFF009BDB68184641
:10215000FFF7AAFF009BDB681846FFF781FF019B92
:102160001968009BDA68009B9B68084611461A466E
:10217000FFF7D2FE3CE0019B1A68009B9B6910466A
:102180001946FFF745FE019B1968009B5A7D009B8D
:102190001B7D084611461A46FFF726FE019B19686B
:1021A000009B1A68009B5B68084611461A46FFF7B9
:1021B000DBFD009B1B7D012B1AD1009B9B68184601
:1021C0000021FFF75DFF009BDB681846FFF76CFFFF
:1021D000009BDB681846FFF743FF019B1968009BD3
:1021E000DA68009B9B68084611461A46FFF7CAFD4D
:1021F00003B05DF804FB00BF842E002000B583B05F
:1022000001900B468DF80330019B1B792D4A5B0131
:10221000134418331B79002B2FD0019B1B681846E1
:102220004FF48871FFF7FEFD019B1B6818464FF4C1
:102230009071FFF7F7FD019B1B6818464FF49271F0
:10224000FFF7F0FD019B1B6818464FF4A271FFF7E2
:10225000E9FD019B1B6818461B49FFF725FE019B02
:102260001B681846FFF7C6FE03461A469DF8033062
:1022700010461946FEF75AFC20E0019B1B681846E1
:102280004FF48E71FFF710FD019B1B6818464FF449
:10229000A271FFF709FD019B1B6818460B49FFF768
:1022A00029FD019B1B681846FFF7A4FE03461A464A
:1022B0009DF8033010461946FEF738FC03B05DF870
:1022C00004FB00BF842E00201003020080000200E7
:1022D00000B583B00190019B1B790A4A5B0113444E
:1022E00018331B79002B05D0019B1B681846FFF79C
:1022F000FDFD04E0019B1B681846FFF72DFD03B0B0
:102300005DF804FB842E002000B587B00390029195
:102310000192039B1B795B011C4A13440593059BA7
:10232000DB7E002B01D008232BE0029B5A7F059B0C
:102330001A7703980299FFF7C3FE059B019A5A602A
:10234000029B1A69059B1A60059B5B68002B05D0F0
:10235000029B1B7F03981946FFF750FF0398FFF776
:10236000B7FF059B0022DA75059B00221A76059BB4
:1023700000229A75059B0122DA76059B00229A7647
:102380000023184607B05DF804FB00BF842E002030
:1023900000B585B00190009101984FF48E71FFF760
:1023A00083FC009B9B68009A928A92B213441B782C
:1023B0008DF80F30009B9B8A9BB201339AB2009B31
:1023C0009A829DF80F3001981946FFF7F3FC05B08B
:1023D0005DF804FB00B585B00190019B1B795B01A2
:1023E000344A1344029300230393019B1B6818464D
:1023F0004FF48E71FFF758FC019B1B6818460821AB
:10240000FFF7E4FC019B1B6818460299FFF7C0FF29
:10241000029B5B68002B48D11FE000BF019B1B683B
:1024200018464FF48E71FFF753FC034683F0010307
:10243000DBB2002B05D0029B9B8A9BB2B3F5807F59
:10244000ECD1029B9B8A9BB2B3F5807F05D0019BA8
:102450001B6818460299FFF79BFF029B9B8A9AB262
:10246000029B9B7D9BB29A42D7D3029B9B8A9BB2D5
:10247000B3F5807F02D10F23039313E000BF019BCC
:102480001B6818464FF48E71FFF722FC034683F059
:102490000103DBB2002BF2D1019B1B6818460C2113
:1024A000FFF794FC029B00229A75039B184605B027
:1024B0005DF804FB842E002000B587B00190019BDD
:1024C0001B795B012B4A1344049300230593019B62
:1024D0001B6818464FF49071FFF7A4FC019B1B6822
:1024E00018464FF4AC71FFF79DFC019B1968049BE3
:1024F0009A68049B9B7D084611461A46FFF746FDE5
:10250000019B1B6818460821FFF714FD049B5B68BC
:10251000002B2AD1019B1B6818464FF49071FFF7DE
:1025200095FC03468DF80F30019B1B6818464FF44D
:10253000AC71FFF78BFC03468DF80E309DF80F3021
:1025400083F00103DBB2002B06D09DF80E3083F040
:102550000103DBB2002BDDD19DF80E30002B01D042
:102560000F230593049B00229A75059B184607B01C
:102570005DF804FB842E002000B587B00390029123
:1025800013468DF80730039B1B795B011D4A1344EA
:102590000593039B1B791B4A5B01134418331B797A
:1025A000002B07D0029B1B0C1B04B3F1005F01D072
:1025B000102323E0039800F027F80346002B01D0F6
:1025C00011231BE0059B9DF807209A75059B029A35
:1025D0009A60059B00229A82039B1B79094A5B0142
:1025E000134418331B79002B04D00398FFF764FFC2
:1025F000034603E00398FFF7EDFE0346184607B0D5
:102600005DF804FB842E002082B00190019B1B79B1
:10261000064A5B01134410339B79002B14BF01233E
:102620000023DBB2184602B0704700BF842E0020A2
:1026300000B583B00190019B1B6818464FF492715E
:10264000FFF732FB019B1B6818464FF48471FFF7BC
:102650002BFB019B1B6818460021FFF7B7FB03B05B
:102660005DF804FB10B582B001900091009BDB7D0A
:10267000002B08D101984FF48471FFF715FB0198E6
:10268000FFF78EFB16E001984FF48471FFF70CFB07
:10269000009BDB68009A527ED2B29C180198FFF72B
:1026A0007FFB03462370009B5B7EDBB20133DAB213
:1026B000009B5A7602B010BD00B587B0039002911E
:1026C00011461A460B468DF8073013468DF8063032
:1026D000039B1B795B014A4A13440593059B9B7E30
:1026E00083F00103DBB2002B09D09DF8063083F0A4
:1026F0000103DBB2002B02D00398FFF799FF059B83
:102700005B68002B6FD1039B1B6818464FF4A271C6
:10271000FFF7CAFA039B1B6818464FF49271FFF744
:10272000D7FA03468DF81330039B1B6818464FF405
:102730008471FFF7CDFA03468DF81230039B1B68B6
:1027400018464FF4A271FFF7C3FA03468DF8113013
:102750009DF8123083F00103DBB2002B0DD09DF801
:10276000113083F00103DBB2002B06D09DF813304B
:1027700083F00103DBB2002BCCD19DF81330002B8A
:1027800010D19DF81130002B0CD1039B1B6818460B
:102790000599FFF767FF059BDA7D059B5B7EDBB242
:1027A0009A42B7D8059B0022DA759DF81330002BAA
:1027B00001D003231FE09DF81130002B01D00F231F
:1027C00019E0059B9B7E002B06D0039B1B681846D7
:1027D0000021FFF7FBFA0DE0039B1B68184604215C
:1027E000FFF7F4FA06E0039B1B6818464FF40171EB
:1027F000FFF780FA0023184607B05DF804FB00BF1E
:10280000842E002000B587B00390029111461A462D
:102810000B468DF8073013468DF80630039B1B6876
:1028200018464FF48871FFF7FDFA039B1B681846A2
:102830004FF4A271FFF7F6FA039B1A689DF8073070
:10284000104602991A46FFF7BBFB9DF8063083F04D
:102850000103DBB2002B06D0039B1B681846002146
:10286000FFF768FB05E0039B1B6818462021FFF774
:10287000FFFA039B1B792D4A5B0113445B68002B15
:1028800047D1039B1B6818464FF48871FFF7DEFAA7
:1028900003468DF81730039B1B6818464FF4A2714E
:1028A000FFF7D4FA03468DF81630039B1B681846D1
:1028B0004FF49271FFF7CAFA03468DF815309DF870
:1028C000173083F00103DBB2002B0DD09DF81630DA
:1028D00083F00103DBB2002B06D09DF8153083F0A6
:1028E0000103DBB2002BCCD1039B1B790F4A5B01A8
:1028F000134410330022DA719DF81530002B01D0FB
:1029000003230EE09DF81630002B01D00F2308E0C2
:1029100006E0039B1B6818464FF40471FFF7C4FAE6
:102920000023184607B05DF804FB00BF842E00208A
:1029300000B587B00390029113468DF80730039BD2
:102940001B795B014B4A13440493039B1B79494A4F
:102950005B01134418331B79002B07D0029B1B0C1F
:102960001B04B3F1005F01D010237FE000238DF83A
:102970001730049B5B68002B17D0039B1B793D4AE3
:102980005B01134418331B79002B07D0039B1B6892
:1029900018464FF40471FFF791FA06E0039B1B6899
:1029A00018464FF40171FFF7BFF9049BDB7D002B44
:1029B00024D0049B1B7E002B1DD0049B5B68002B46
:1029C00017D0039B1B792B4A5B01134418331B79E7
:1029D000002B07D0039B1B6818464FF40471FFF7C8
:1029E00063FA06E0039B1B6818464FF40171FFF77A
:1029F00081F911233AE001238DF817309DF8173043
:102A000083F00103DBB2002B0DD0049B9DF807205F
:102A1000DA75049B029ADA60049B00225A76049BC2
:102A200000221A7606E0049B029A1A61049B9DF824
:102A300007201A76039B1B790E4A5B011344183357
:102A40001B79002B09D09DF807209DF817300398BB
:102A50000299FFF7D7FE034608E09DF807209DF88E
:102A6000173003980299FFF727FE0346184607B070
:102A70005DF804FB842E002000B583B00190019B1B
:102A80001B79104A5B01134418331B79002B16D1B4
:102A9000019B1B790B4A5B01134418339B7883F02D
:102AA0000103DBB2002B0AD00198FFF7C1FD019BA7
:102AB0001B79044A5B011344183301229A7003B056
:102AC0005DF804FB842E002000B589B003900B460E
:102AD00001928DF80B3001238DF810309DF80B30EA
:102AE0008DF81830019B0593039B5B68039A12686D
:102AF00004A908461146984709B05DF804FB00BFD9
:102B000000B587B001900B468DF8033000238DF897
:102B100008309DF803308DF81030019B9B680393BB
:102B2000019B00229A75019B5B68019A126802A9B9
:102B300008461146984707B05DF804FB00B589B018
:102B40000190009101984FF40071FFF7DDF8034602
:102B5000002B3AD001984FF49271FFF7B9F8034671
:102B6000002B32D001984FF49271FFF79DF8019835
:102B70004FF40171FFF7D8F8009B9B7E83F00103AF
:102B8000DBB2002B03D001980421FFF71FF90223C9
:102B90008DF808300198FFF7D1F803460593009BA4
:102BA000DB7D8DF81030009BDB680393009B0022D7
:102BB000DA75009B00221A76009B5B68009A126807
:102BC00002A908461146984757E001980421FFF7EB
:102BD0009BF80346002B50D001984FF48471FFF707
:102BE00077F80346002B48D001980099FFF73AFD8B
:102BF000009BDA7D009B5B7EDBB29A423DD1009B5D
:102C00001B7E002B1CD0009BDB680793009B5B7E28
:102C10008DF81B30009B1A7E009BDA75009B1A69A9
:102C2000009BDA60009B00221A76009B00225A76F5
:102C30009DF81B3000981946079AFFF745FF1CE0E6
:102C4000009B9B7E83F00103DBB2002B03D0019835
:102C50000421FFF7BBF801984FF40171FFF764F806
:102C6000009B0022DA75009B5B7EDAB2009BDB687A
:102C7000009811461A46FFF727FF01984FF48E710E
:102C8000FFF726F80346002B1BD0009B9B8A9AB2C5
:102C9000009B9B7D9BB29A4204D201980099FFF75A
:102CA00077FB0EE001984FF48E71FEF7FDFF009B5D
:102CB0009B7D002B05D0009B9B7D00981946FFF75C
:102CC0001FFF01984FF4A271FFF702F80346002B93
:102CD0001DD001984FF4A271FEF7E6FF009B9B7E8A
:102CE000002B03D001980021FFF770F8009BDB7DDB
:102CF000002B0CD0009B0022DA75009B5B7EDAB2C1
:102D0000009BDB68009811461A46FFF7DDFE09B00C
:102D10005DF804FB00B589B00190009101984FF473
:102D20009271FFF793F80346002B25D001984FF4DA
:102D30009271FFF777F802238DF808300198FFF7BA
:102D4000C7F8034605930198FFF74CF90346DBB239
:102D50008DF81030009BDB680393009B0022DA752E
:102D6000009B00221A76009B5B68009A126802A9F9
:102D700008461146984742E001984FF48871FFF7E2
:102D800065F80346002B3AD001984FF48871FFF79D
:102D900049F80198FFF726F903468DF81F30009B8C
:102DA000DB7D9DF81F209A4229D1009B1B7E002BC2
:102DB00019D0009BDB68069301982021FFF766F885
:102DC000009B1A7E009BDA75009B1A69009BDA60F3
:102DD000009B00221A769DF81F3000981946069A2B
:102DE000FFF772FE0BE0009B0022DA75009BDB68A8
:102DF0009DF81F20009811461A46FFF765FE0198BE
:102E00004FF4A271FFF722F80346002B17D0019868
:102E10004FF4A271FFF706F8009BDB7D002B0ED06C
:102E2000009B0022DA750198FFF7DCF80346DAB25E
:102E3000009BDB68009811461A46FFF745FE019893
:102E40004FF49071FFF702F80346002B11D0019860
:102E50004FF49071FEF7E6FF009B9B7D002B08D09E
:102E60000198FFF7A5F80346DBB200981946FFF773
:102E700047FE09B05DF804FB08B5074B1B7F002B2C
:102E800004D006480449FFF745FF03E00348024920
:102E9000FFF754FE08BD00BF842E00200020004034
:102EA00082B003468DF8073007499DF907305B096A
:102EB0009DF8072002F01F02012000FA02F241F8FB
:102EC000232002B0704700BF00E100E082B003465B
:102ED0008DF8073007499DF907305B099DF80720F9
:102EE00002F01F02012000FA02F2203341F82320F1
:102EF00002B0704700E100E082B003468DF8073071
:102F000007499DF907305B099DF8072002F01F0271
:102F1000012000FA02F2403341F8232002B070474A
:102F200000E100E082B003468DF8073007499DF9C3
:102F300007305B099DF8072002F01F02012000FA0C
:102F400002F2603341F8232002B0704700E100E054
:102F500084B00190234B0393019B002B40D0224B64
:102F60001A680399019B00BF00BF00BF00BF00BFEC
:102F700000BF00BF00BF8A422FD000BF00BF00BF0C
:102F800000BF00BF00BF00BF00BF00BF00BF00BF49
:102F900000BF00BF00BF00BF00BF00BF00BF00BF39
:102FA00000BF00BF00BF00BF00BF00BF00BF00BF29
:102FB00000BF00BF00BF00BF00BF00BF00BF00BF19
:102FC00000BF00BF00BF00BF00BF00BF00BF00BF09
:102FD00000BF00BF00BF00BF00BF013BC3D10193D2
:102FE00004B070470024F4006828002008B50D4B99
:102FF0004FF48032C3F844230A4B4FF48032C3F8B5
:1030000004231120FFF78EFF1120FFF749FF054B26
:1030100001221A602F20FFF79BFF034B01221A7039
:1030200008BD00BF00100140C42E002008B51120CB
:10303000FFF74CFF0E4B4FF48032C3F848230C4B84
:103040004FF48032C3F80823094B01225A602F2025
:10305000FFF77EFF064B01229A60064B00221A60A2
:103060002F20FFF775FF044B00221A7008BD00BF28
:1030700000100140B02E0020C42E0020024BD3F8D7
:1030800004351846704700BF0010014082B001901F
:103090000091019A009BD31A23F07F43184602B097
:1030A000704700BF82B00190024A019BC2F84035D0
:1030B00002B070470010014086B00190274B1B689A
:1030C000002B03D1254A019B136045E0019B1A6840
:1030D000224B1B681B689A4210D8204B1B681F4A62
:1030E00012681168019A12688A1A1A601B4B1A68D2
:1030F000019BDA61194A019B13602DE0019B1B685B
:103100000393164B1B680593144B1B68049309E04B
:10311000049B1B68039AD31A0393049B0593049B97
:10312000DB690493049B002B04D0049B1A68039B67
:103130009A42EDD3049B002B05D0049B1A68039B95
:10314000D21A049B1A60019B039A1A60019B049A8D
:10315000DA61059B019ADA6106B07047AC2E002057
:1031600086B00190204B1B680593059B049309E0F2
:10317000049A019B9A4200D107E0049B0593049BAB
:10318000DB690493049B002BF2D1049B002B00D13C
:1031900028E0059A049B9A4211D1134B1B68DB6906
:1031A000114A1360104B1B68002B08D10F4B0122F2
:1031B0009A600F4B00221A600E4B01221A70049B7A
:1031C0001B680393049BDA69059BDA61059BDB6945
:1031D0000493049B002B05D0049B1A68039B1A449C
:1031E000049B1A6006B07047AC2E0020001001400E
:1031F000B02E0020C52E002008B51120FFF77CFE60
:1032000008BD00BF08B51420FFF776FE08BD00BF5B
:1032100000B585B00190124B1B68002B16D0104BE7
:103220001B68019A5169019A9269084611469847AC
:103230000390039B0293029B002B06D002984FF44D
:10324000A771084AFCF76AFC06E005E0019B5B6990
:10325000019A92691046984705B05DF804FB00BFDB
:10326000C02E0020C836030000B585B02A4B1B686D
:10327000002B4DD000230193FFF700FF0246274BA0
:103280001B6810461946FFF701FF0290224B1B688E
:1032900003931EE0039B1A68029B9A4200D91BE02D
:1032A000039B1B68029AD31A0293039B1B68019A23
:1032B00013440193039B0093039BDB690393009BDF
:1032C0001B7C002B05D0009B00221A740098FFF78E
:1032D0009FFF039B002BDDD1114B1A78114B1B78FC
:1032E0009A420CD10F4B1B780133DAB20D4B1A7096
:1032F0000C4B1B78022B02D10A4B00221A70094B8F
:103300001B781946084A019B42F82130FFF77AFFE3
:1033100005B05DF804FB00BFAC2E0020B02E0020ED
:10332000BC2E0020BD2E0020B42E002082B00190C3
:10333000184B1A78184B1B789A4223D0154B1B78E0
:103340000133DAB2134B1A70124B1B78022B02D1E5
:10335000104B00221A700F4B1B781A460F4B53F874
:103360002220019B1A60019B1A680D4B1B681344B5
:103370000B4A13600A4B1B6823F07F43084A136013
:10338000012303E0019B00221A600023184602B0CB
:10339000704700BFBC2E0020BD2E0020B42E0020A0
:1033A000B02E002000B585B0274B1B788DF80F306C
:1033B000264B1B68029334E0234B59689DF80F207D
:1033C00013465B001344DB000B4401939DF80F3060
:1033D00001338DF80F301C4B9B789DF80F209A42DB
:1033E00002D100238DF80F30019B1B78022B02D0F5
:1033F000032B10D014E0019B5B681846FFF7B0FE6A
:103400000FE0124B1B680093009B00221A74009B74
:10341000DB690E4A13600D4B1B68002BF1D100E0F5
:1034200000BF094B5B789DF80F209A42C4D1074B2F
:103430001A68029B9A4214BF01230023DBB218468C
:1034400005B05DF804FB00BFA42E0020AC2E0020C8
:1034500088B00390029101920023079338E01F4B3C
:103460001B680693069B1A68039B9A4206D9069B23
:103470001A68039BD21A069B1A602DE0069B1B68F4
:10348000039AD31A0393069B1B68079A1344079366
:10349000069B00221A60114B1B680593069BDB6993
:1034A0000E4A1360069BDB68002B11D0029A079B23
:1034B000134423F07F42069B5A60069BDA68069B02
:1034C0009A60019B1A68069BDA61019B059A1A6053
:1034D000024B1B68002BC2D108B07047AC2E0020F5
:1034E00000B587B00190504B1B68049385E0019BA9
:1034F000002B05D0019B0593059BDB6901933CE004
:103500004A4B5A68494B1B7819460B465B000B44E3
:10351000DB0013440393454B1B780133DAB2434B72
:103520001A70424B1A78414B9B789A4202D13F4B1A
:1035300000221A70039B5B680593039B1B78012B89
:1035400003D1059B1B7C002B00D056E0039B9A689F
:10355000059B5A60039BDA68059B9A60039B1A6976
:10356000059BDA60039B5A69059B9A61304B1B7877
:10357000002B02D0059B00225A60059B5A682D4BF8
:103580001B68D31A23F07F432B4A93420ED8059B26
:103590005A68284B1B6810461946FFF777FD02460C
:1035A000059B9B681A44059B1A6017E0214B1A681B
:1035B000059B5B6810461946FFF768FD0290059B66
:1035C0009A68029B9A4206D9059B9A68029BD21A76
:1035D000059B1A6002E0059B00221A60059B0022F1
:1035E0005A60059B00229A60059B01221A74059B74
:1035F0000022DA610598FFF75FFD019B002B7FF445
:1036000076AF0A4B1A78094B5B789A427FF46FAF1A
:10361000054B1A68049B9A4214BF01230023DBB2B6
:10362000184607B05DF804FBAC2E0020A42E002045
:10363000C52E0020B02E0020FEFF7F0010B588B000
:103640000190274B1B68002B45D0254B1B681B683E
:103650000793FFF713FD0690224B1B68059306980E
:103660000599FFF713FD0346033304931E4B1B78A4
:1036700083F00103DBB2002B01D0FFF7B7FC049A03
:10368000079B934238BF1346059A13440593059B45
:1036900023F07F4305930598FFF704FDFFF7EEFC49
:1036A000039003980699FFF7F1FC0346DC1C05988C
:1036B0000699FFF7EBFC03469C420BD9FFF7DEFCB3
:1036C00003461846FFF7EEFC2F20FFF741FCFFF7FB
:1036D00093FD02E001E0FFF7A9FC08B010BD00BFB8
:1036E000AC2E0020B02E0020C42E002000B587B0E4
:1036F000002301931B4B1B6804931B4B1B68039314
:103700006B461846FFF712FE03468DF80B30FFF7A5
:1037100049FE03468DF817309DF80B30002B09D079
:10372000009A01AB104604991A46FFF791FE012357
:103730008DF81730019B1846FFF7D2FE0346002B89
:1037400002D001238DF817309DF81730002B02D0DE
:103750000398FFF773FF054B00221A7007B05DF85E
:1037600004FB00BFB02E0020AC2E0020C52E002090
:1037700008B50D4B0022C3F840210B4B0022C3F8C3
:103780004421094B0022C3F84821074B0022C3F80B
:103790004C21054B0022C3F80021034B0022C3F843
:1037A0000421FFF761FD08BD0010014008B5FFF7D7
:1037B0009DFF08BD08B5FFF761FC0346184608BD2C
:1037C00029DF7047184600BF28DF7047184600BF42
:1037D00000B587B001900B468DF8033002AB184658
:1037E00000211022FBF7E6FE019B1B7A012B02D081
:1037F000022B0BD01AE000238DF80830019B1B69C7
:103800000493019B9B8AADF814300FE001238DF8DF
:103810000830019B9A89019BDB89D31A9BB2ADF8D2
:103820001030019B9B89ADF8123000BF019B5B6893
:103830000393019B1B689B6802A99DF8032008461F
:103840001146984707B05DF804FB00BF82B00190B5
:10385000019B002B09D0019B064A934205D3019B93
:10386000054A934201D2012300E00023184602B02A
:10387000704700BF94280020A428002000B585B020
:103880000190019B9B8A1A46019BDB8AD31AB3F5F0
:10389000806F07DA019B9A8A019BDB8AD31AADF805
:1038A0000E3003E04FF48063ADF80E30019B1A69CF
:1038B000019BDB8A9B00D118019BDA68019BDB8AA4
:1038C0009B001A44BDF80E30084611461A46FFF711
:1038D00077FF0346184605B05DF804FB00B583B0DA
:1038E0000190019B9B891846FFF76EFF034618461F
:1038F00003B05DF804FB00BF00B583B01F4BD3F8E5
:10390000C02013465B001344DB001C4A13440093A1
:103910001A4BD3F8C430002B2CD0009B1B7A012B00
:1039200002D0022B05D009E00098FFF7A7FF019015
:1039300007E00098FFF7D2FF019002E0092301930E
:1039400000BF019B112B0ED10D4B1B7823F00203FE
:10395000DAB20B4B1A700A4B1B7843F00403DAB24D
:10396000074B1A7006E0019B002B03D00098092139
:10397000FFF72EFF03B05DF804FB00BFC82E002048
:10398000C62E002008B50B4B1B7803F00203002B5A
:103990000ED1084B1B7803F00403002B08D1054B14
:1039A0001B7843F00203DAB2024B1A70FFF7A4FF50
:1039B00008BD00BFC62E002000B585B00190214B88
:1039C000D3F8C430082B01D1002336E01D4BD3F8C7
:1039D000C0201C4BD3F8C4301344072B07D8194B15
:1039E000D3F8C020174BD3F8C430134407E0154B6D
:1039F000D3F8C020134BD3F8C4301344083B0393CF
:103A0000104BD3F8C43001330E4AC2F8C430039AC5
:103A100013465B001344DB000A4A13441846002196
:103A20001822FBF7C7FD039A13465B001344DB0023
:103A3000044A1A44019B1A600123184605B05DF838
:103A400004FB00BFC82E002000B587B00390029190
:103A50000192ADF80230314B1B7803F00103002BCB
:103A600001D1012356E00398FFF7F0FE034683F0EF
:103A70000103DBB2002B01D002234BE0019B002BA2
:103A800002D0029B002B01D1032343E0019B03F0F2
:103A90000303002B04D1029B03F00303002B01D08E
:103AA000062337E0039B1A68029B9A4208D8039BBF
:103AB0005A68BDF802309B0002990B449A4201D229
:103AC000052327E0BDF80230002B01D1042321E0BB
:103AD00005AB1846FFF770FF034683F00103DBB226
:103AE000002B01D0072315E0059B089A5A60059B1F
:103AF000039A1A60059B01221A72059B019ADA60EB
:103B0000059B029A1A61059BBDF802209A82FFF775
:103B100039FF0023184607B05DF804FBC62E0020CD
:103B200000B587B00390029100931346ADF80630BC
:103B30002C4B1B7803F00103002B01D101234DE036
:103B40000398FFF783FE034683F00103DBB2002BEB
:103B500001D0022342E0029B002B01D103233DE070
:103B6000029BC3F30B03002B01D0062336E0039B1B
:103B70001A68029B9A4208D8BDF806301B03029AC5
:103B80001A44039B5B689A4201D9052326E0BDF8DD
:103B90000630002B01D1042320E005AB1846FFF7C7
:103BA0000BFF034683F00103DBB2002B01D0072398
:103BB00014E0059B009A5A60059B039A1A60059BC6
:103BC00002221A72059B029A120B92B29A81059BED
:103BD000BDF806201A82FFF7D5FE0023184607B06D
:103BE0005DF804FBC62E002082B00190019B03F01B
:103BF0000303002B0CBF01230023DBB2184602B0E5
:103C0000704700BF82B003468DF80730044B1A7826
:103C10009DF807301343DAB2014B1A7002B07047B7
:103C2000902F002082B003468DF807309DF80730B2
:103C3000DB43DAB2044B1B78DBB21340DBB2DAB2FF
:103C4000014B1A7002B07047902F002082B00346DB
:103C50008DF80730064B1A789DF807301340DBB219
:103C6000002B14BF01230023DBB2184602B07047BB
:103C7000902F002000B585B00190002303930EE043
:103C80000A4A039B52F82330002B05D0074A039BB6
:103C900052F8233001989847039B01330393039B09
:103CA000072BEDD905B05DF804FB00BF942F002071
:103CB00082B001900091019B1B78013B052B5BD8E2
:103CC00001A252F823F000BFE13C0200E93C0200EF
:103CD000093D02003B3D02005B3D0200713D0200D8
:103CE000009B00221A7048E0009B01221A70019B81
:103CF0001A89009B9A81019B9A88009BDA81019B1B
:103D0000DA68009B9A6038E0009B02221A70019BDF
:103D10001A89009B9A81019B9A88009BDA81019BFA
:103D2000DA68009B9A60019B1B7C062B0CBF012369
:103D30000023DAB2009B1A741FE0009B03221A7062
:103D4000019BDA88009B9A81019B1A89009BDA818A
:103D5000019BDA68009B9A600FE0009B04221A70B6
:103D6000019BDA88009B9A81009B0022DA8104E0A3
:103D7000009B05221A7000E000BF02B0704700BF30
:103D800082B00190019B9B884FF6FF72934205D051
:103D9000019B1B88002B01D0012300E0002303F0CE
:103DA0000103DBB2184602B0704700BF00B583B014
:103DB0000190019B002B11D00C4B1A68019B9A4279
:103DC0000CD80A4B5A68019B9A4207D30198FFF717
:103DD0000BFF0346002B01D0012300E0002303F07A
:103DE0000103DBB2184603B05DF804FB9428002001
:103DF00084B0019000910A2303930023ADF80A30A8
:103E00001FE0BDF80A30134A1B0113445A68009B97
:103E10009A4211D2BDF80A300E4A1B0113445B6866
:103E200003F58052009B9A4206D900230393019B1D
:103E3000BDF80A201A8008E0BDF80A300133ADF859
:103E40000A30BDF80A30042BDBD9039B184604B0B6
:103E5000704700BFAC30002082B001900B46ADF837
:103E60000230019B1A89BDF8023013449BB2033320
:103E70009AB2019B1A81019B5A89BDF80230D31A6C
:103E80009BB2033B9AB2019B5A8102B0704700BFBC
:103E900000B583B0074B1A6800230093064811460B
:103EA000064A0223FFF7D0FD0346184603B05DF82B
:103EB00004FB00BFFC3000209428002024370300BE
:103EC00000B585B003900023009305480399054A87
:103ED0000223FFF7B9FD0346184605B05DF804FB61
:103EE000942800202C37030000B585B003460091CC
:103EF000ADF80630009B1B680393039B002B09D091
:103F0000039B0293029B5B8803339B00039A134439
:103F1000039307E0BDF80630174A1B0113445B68A2
:103F20000833039313E0039B02930298FFF728FFE3
:103F30000346002B04D0009B039A1A60012317E06C
:103F4000029B5B8803339B00039A13440393BDF8E1
:103F50000630094A1B0113445B6803F58052039B3A
:103F60009A4204D9039B1B68B3F1FF3FDBD10023C6
:103F7000184605B05DF804FBAC30002000B585B0F4
:103F800001900091019B5B681846FFF70FFF034605
:103F9000002B19D0019B1A89244B1B899A4213D1FB
:103FA000019B1A68019B5B689B689A420CD1019B3C
:103FB0005B6800981946FFF71BFF0346002B0CBFF8
:103FC00001230023DBB22CE0009B00221A8023E0B7
:103FD0000023029310E0029B0393039B9A68019BCA
:103FE0001B689A4208D1029A019B5A600F4B1A89AA
:103FF000019B1A81012314E0009B1A8802AB104632
:104000001946FFF771FF0346002BE4D1009B1B8884
:1040100001339AB2009B1A80009B1B88042BD7D9CE
:104020000023184605B05DF804FB00BF04310020F2
:1040300000B587B003900291019200930220FFF730
:1040400005FE034683F00103DBB2002B01D00223FF
:104050004FE0019B002B02D0009B002B01D10523D8
:1040600047E041E0009B9B88244A1B0113441B78D6
:10407000002B00D032E024E0009B1B680593039BDB
:10408000002B06D0059B9A88039B1B889A4200D080
:1040900017E0029B002B06D0059B1A88029B1B8809
:1040A0009A4200D00DE0059B9A68019B1A60009B24
:1040B0001A68019B5A60124B1A89019B1A810023CE
:1040C00017E0009B9A88009B10461946FFF70CFFEB
:1040D0000346002BD0D1009B00221A60009B9B88D6
:1040E00001339AB2009B9A80009B9B88042BB9D91C
:1040F0000A23184607B05DF804FB00BFAC3000206F
:104100000431002008B51A4BD3F8A8201346DB0071
:104110009B1A9B00164A1344184600211C22FBF7E9
:1041200049FA134BD3F8AC30002B16D0104BD3F810
:10413000A830591C0F4BA3FB01239A0813465B00C0
:1041400013445B00CA1A0A4BC3F8A820084BD3F8E3
:10415000AC30013B064AC2F8AC30054BD3F8AC306A
:10416000002B14BF01230023DBB2184608BD00BF9B
:10417000B42F0020ABAAAAAA82B001900C4B5B6CB2
:10418000002B12D00A4B1B6CDB00094A1A44019B1E
:104190001A60074B1B6C013303F00703044A1364D6
:1041A000034B5B6C013B024A536402B0704700BF93
:1041B0006430002082B00190019B1B78022B03D059
:1041C000019B1B78032B0DD1074B1B6C019A927D31
:1041D0001344054A1364044B5B6C019A927D9B1A4D
:1041E000014A536402B070476430002000B587B0C4
:1041F00003900291039B1A1D002300930948029922
:104200000123FFF721FC03460593039B02221A7446
:10421000059B002B01D1002300E00E23184607B0B8
:104220005DF804FB9428002000B587B0039002914C
:10423000029B03F10801039B03F10C02002300938E
:104240000C480123FFF700FC03460593039B9B7D6D
:10425000002B01D0032200E00122039B1A74059B6E
:10426000002B01D1002300E00E23184607B05DF8B3
:1042700004FB00BF9428002000B587B00390029192
:10428000029B191D039B03F10802002300930C48B5
:104290000123FFF7D9FB03460593039B1B78032BF0
:1042A00001D1052200E00622039B1A74059B002B16
:1042B00001D1002300E00E23184607B05DF804FB8F
:1042C0009428002000B587B00390002300930A488B
:1042D00003990A4A0123FFF7B7FB03468DF817300D
:1042E0009DF81730002B01D1002300E00E23184663
:1042F00007B05DF804FB00BF9428002020370300BE
:1043000000B589B0019002AB00221A60043300228C
:104310001A60043300221A600433019BDB680293A5
:1043200002AA0DF1160310461946FFF727FE0346B1
:10433000002B17D0039B0693069B9A88019BDA807B
:10434000069B1A88019B1A81039B1846FFF7BAFF48
:104350000790BDF81630074A1B01134408330122A9
:104360009A7101E00A230793079B184609B05DF88C
:1043700004FB00BFAC30002000B587B00190019B6A
:104380009A1D02AB104600211A460F4BFFF750FE54
:104390000590059B002B0DD1039B1846FFF792FF5C
:1043A0000590094B9B88094A1B01134408330122DD
:1043B0009A7104E0044800210822FBF7FBF8059BF2
:1043C000184607B05DF804FB14310020AC30002023
:1043D00010B586B0039002910023049304AB1846F5
:1043E000FFF7CAFE039B9B8A9B00029AD118049B8D
:1043F0001A68049B9C880023009312482346FFF709
:1044000023FB03460593039B9A8A049B9B881344D2
:104410009AB2039B9A82039B9B7D013BDAB2039B7A
:104420009A75039B9B7D002B02D1039B01221A747A
:10443000059B002B01D1002300E00E23184606B097
:1044400010BD00BF9428002082B0164B1B89013399
:104450009AB2144B1A81134B00225A80114B00223E
:10446000DA730023ADF8063015E0BDF80630BDF86C
:1044700006200D4912010A441278002A0CBF0122BD
:104480000022D1B2074A13440A469A72BDF8063098
:104490000133ADF80630BDF80630042BE5D902B083
:1044A000704700BF04310020AC30002084B0019080
:1044B00000238DF80F300023ADF80C302BE0BDF851
:1044C0000C30194A13449B7A002B1FD0BDF80C30D6
:1044D000154A134400229A72BDF80C30134A1B018E
:1044E000134408339B88002B10D1BDF80C300F4AC1
:1044F0001B01134408339B79002B07D0019BBDF8A7
:104500000C201A8001238DF80F3008E0BDF80C3024
:104510000133ADF80C30BDF80C30042BCFD99DF829
:104520000F30184604B0704704310020AC30002032
:1045300008B5084B05221A70074B02229A80064BD9
:104540001B680648194601220023FFF7E9FA0346D3
:10455000184608BD04310020FC30002094280020BB
:1045600000B583B0134B5B88ADF80230BDF8023064
:10457000114A1B01134408339B88002B11D1BDF84D
:1045800002300D4A1B0113445B680C481946012296
:104590000023FFF7C5FA03460193064B04221A7065
:1045A00002E0FFF7C5FF0190019B184603B05DF8DC
:1045B00004FB00BF04310020AC3000209428002010
:1045C00010B586B0104B5B680593104B1A680F4B03
:1045D0009B889B0013440493059B5B880333ADF8D1
:1045E0000E30094B03221A70074B5A68BDF80E4073
:1045F00000230093064804992346FFF725FA034653
:10460000184606B010BD00BF04310020FC30002069
:104610009428002000B583B00A4B5B8818460A49ED
:10462000FFF762FC0346002B03D0FFF7C9FF0190A0
:1046300002E0FFF795FF0190019B184603B05DF87B
:1046400004FB00BF043100200831002008B5074BEF
:1046500006221A70054B5B88054A1B0113445B68F0
:104660001846FFF72DFC0346184608BD043100200C
:10467000AC30002008B5054B07221A70034B00220E
:104680005A60FFF705FC0346184608BD04310020B8
:1046900008B50D48FFF70AFF034683F00103DBB2BC
:1046A000002B0BD0094B00221A70084B00225A80B5
:1046B000064B00225A6041F61D5302E0FFF7AAFFA5
:1046C0000346184608BD00BF063100200431002013
:1046D00082B0094B5B680193019B5B880333ADF8A3
:1046E0000230064B9A88BDF8023013449AB2034B4D
:1046F0009A8002B0704700BF04310020FC300020D7
:1047000082B0114B1B680193104B5B88104A1B0150
:1047100013445B680C4A13600C4B5B880C4A1B010A
:104720001344019A5A60094B5B881846064B9988D6
:10473000074A0301134408330A461A80024B022237
:104740009A8002B0704700BFFC3000200431002086
:10475000AC30002008B5194B1B78072B2CD801A2D0
:1047600052F823F085470200B9470200B94702001A
:10477000914702009D470200A9470200A947020095
:10478000B1470200FFF760FE0C4B01221A7014E0E3
:10479000FFF79EFF094B02221A700EE0FFF7B0FFF1
:1047A000064B06221A7008E0044B07221A7004E038
:1047B000024B01221A7000E000BF08BD0431002046
:1047C00000B587B0019000910F230593019B002B4A
:1047D00004D00120FFF726FA0123A3E0009B1B79F8
:1047E000032B00F2958001A252F823F0FD4702004E
:1047F0000B48020087480200A9480200FFF748FB67
:104800000590009B01221A7183E000238DF813307C
:104810000023ADF8103021E0BDF81030434A1B01F1
:1048200013441B78022B14D1BDF810303F4A1B01F2
:1048300013445B681846FFF743FB0590BDF8103042
:104840003A4A1B01134400221A7001238DF81330D9
:1048500008E0BDF810300133ADF81030BDF810306D
:10486000042BD9D99DF8133083F00103DBB2002B60
:1048700008D00220FFF7C6F90120FFF7D3F941F66F
:104880001D534FE045E02A4B1B682A481946012278
:104890000023FFF745F903460593254B02229A8032
:1048A000009B00221A7134E0214B1B681846FFF769
:1048B00007FB0590204B5B88ADF80E301C4B1B6846
:1048C0000293BDF80E30194A1B0113445B68184A65
:1048D0001360BDF80E30154A1B011344029A5A604A
:1048E000BDF80E30124A9188104A1B011344083358
:1048F0000A461A800E4B02229A80BDF80E300B4AEF
:104900001B01134400221A70009B00221A7100E060
:1049100000BF059B002B04D00120FFF783F90E2375
:1049200000E00023184607B05DF804FBAC3000201F
:10493000FC300020942800200431002000B587B00E
:1049400001900091009B5B8A1B013B4A1344049336
:10495000019B002B07D0009BDB8804981946FFF7CA
:104960007BFA012364E0049B5A68049B1B899B002B
:1049700013440393009B1B7C062B4CD801A252F8D6
:1049800023F000BFCB490200EF490200D7490200E3
:10499000E3490200A1490200FB4902000F4A02005C
:1049A000264B00225A60009B9B69244A13600DF13C
:1049B0000A0322481946FFF7E1FA034683F0010390
:1049C000DBB2002B01D00A2332E000980399FFF7F5
:1049D0000DFC059022E000980399FFF725FC059057
:1049E0001CE000980399FFF7F3FC059016E000988F
:1049F0000399FFF741FC059010E0104B5B681846E7
:104A0000FFF760FC0590009B06221A7406E041F651
:104A10001D53059302E00F23059300BF059B002B58
:104A200005D0009BDB8804981946FFF715FA059B13
:104A3000184607B05DF804FBAC3000201C310020A4
:104A400000B585B001900091019B002B01D001239E
:104A500023E0009B1B79012B0BD0022B15D0002BE0
:104A600017D10098FFF74CFC0390009B02221A71AB
:104A700012E00098FFF780FC0390039B0A2B03D100
:104A800041F61D53039307E006E041F61D530393DF
:104A900002E00F23039300BF039B184605B05DF8A7
:104AA00004FB00BF00B585B00190019B002B01D035
:104AB00001233BE01F4BDB7B002B03D01D4B00226F
:104AC000DA7301E0FFF746FE1A4B1B78013B062B19
:104AD00028D801A252F823F0F54A0200FD4A02004C
:104AE000054B02000D4B0200254B0200154B020046
:104AF0001D4B0200FFF7CCFD039016E0FFF78AFD87
:104B0000039012E0FFF75CFD03900EE0FFF728FD35
:104B100003900AE0FFF79AFD039006E0FFF7AAFD75
:104B2000039002E00F23039300BF039B184605B0D8
:104B30005DF804FB0431002000B58BB003468DF80E
:104B40000730344BD3F8A8201346DB009B1A9B0098
:104B5000304A13440893089B1B78013B052B2ED841
:104B600001A252F823F000BF814B0200914B0200DA
:104B7000914B0200A14B0200A14B0200B14B02007D
:104B80009DF8073018460899FFF71AFE099019E0BA
:104B90009DF8073018460899FFF7D0FE099011E0FC
:104BA0009DF8073018460899FFF74AFF099009E079
:104BB0009DF807301846FFF775FF099002E00F23B4
:104BC000099300BF099B002B21D0099B41F61D5280
:104BD000934202D10023049304E0099B04930898B4
:104BE000FFF7E8FA03AB08981946FFF761F803AB43
:104BF0001846FFF73FF8FFF785FA0346002B03D06E
:104C00000020FFF799FF02E00420FFF70BF80BB03C
:104C10005DF804FBB42F002000B583B001900B4673
:104C20008DF803309DF803301846FFF785FF03B079
:104C30005DF804FB84B00190019B9B680393019B8A
:104C4000DA68039BD31A184604B0704782B001900B
:104C50000B468DF80330019B1A68019BDB680199B4
:104C600089880B4013449DF803201A70019BDB6870
:104C70005A1C019BDA6002B0704700BF84B00390F9
:104C80000B460192ADF80A30039B1A68039B9968A2
:104C9000BDF80A300B44039989880B4013441A78F5
:104CA000019B1A7004B0704700B583B00190009169
:104CB00001980021009AFFF7E1FF019B9B685A1CB5
:104CC000019B9A6003B05DF804FB00BF84B00390C1
:104CD00002911346ADF80630029B002B01D10E2342
:104CE0001DE0BDF80630002B07D0BDF806305A1E77
:104CF000BDF806301340002B01D009230FE0039BC1
:104D0000029A1A60BDF80630013B9AB2039B9A8062
:104D1000039B00229A60039B0022DA60002318465E
:104D200004B0704700B583B001900B468DF8033096
:104D30000198FFF77FFF0246019B9B889A4207D8A4
:104D40009DF8033001981946FFF780FF002300E02B
:104D50000423184603B05DF804FB00BF00B583B020
:104D6000019000910198FFF765FF0346002B05D0E5
:104D700001980099FFF798FF002300E005231846EB
:104D800003B05DF804FB00BF84B00190019B9B68F9
:104D90000393019BDA68039BD31A184604B070474B
:104DA00000B587B001900091019B1B78012B04D0C6
